:020000040800F2
:1000000048220020990100087B3900080D320008C1
:1000100079390008B9110008754500080000000092
:1000200000000000000000000000000001010008C6
:10003000BB1100080000000045010008493F00080E
:10004000B3010008B3010008B3010008B3010008C0
:10005000B3010008B3010008B3010008E111000872
:10006000E7110008ED110008F3110008B3010008C2
:10007000B3010008B3010008B3010008B301000890
:10008000B3010008B3010008F1100008B301000833
:10009000B3010008B3010008B3010008B301000870
:1000A000B301000831400008B3010008B3010008A3
:1000B000B3010008B3010008B3010008B301000850
:1000C000B3010008B3010008B3010008B301000840
:1000D000B301000869450008B3010008B301000836
:1000E000B3010008B3010008B3010008DFF80CD029
:1000F00000F0F8FD004800476D5500084822002038
:10010000224B19680868B0E8F00F80F30988BFF344
:100110006F8F4FF0000080F311884EF00D0E704786
:100120000000000006480068006880F3088862B696
:1001300061B6BFF34F8FBFF36F8F00DF00BF00BF0B
:1001400008ED00E0EFF30980BFF36F8F0F4B1A68E3
:1001500020E9F00F106008B54FF0500080F31188CF
:10016000BFF34F8FBFF36F8F06F056FF4FF00000C5
:1001700080F31188BDE8084019680868B0E8F00FFE
:1001800080F30988BFF36F8F704700BF64000020C1
:10019000EFF3058070470000064880470648004797
:1001A000FEE7FEE7FEE7FEE7FEE7FEE7FEE7FEE727
:1001B000FEE7FEE7E93F0008ED000008202A04DB27
:1001C000203A21FA02F00021704721FA02F3D040D0
:1001D000C2F12002914008431946704740EA0103EA
:1001E0009B0703D009E008C9121F08C0042AFAD2ED
:1001F00003E011F8013B00F8013B521EF9D27047B1
:10020000D2B201E000F8012B491EFBD27047002258
:10021000F6E710B513460A4604461946FFF7F0FF05
:10022000204610BD30B505460020034600E05B1CAB
:10023000934205D2EC5CC85C201A01D1002CF6D1A7
:1002400030BD00000FB400B58DB010A909900B901F
:1002500000914FF0FF300A9000200C900548069066
:10026000054807906A4609A80F9900F0F7FB0DB002
:100270005DF814FB790A0008970A00082DE9FF5F72
:100280001D464FF0FF3BD5E9014691465F464FF0D2
:100290000008A9697F1C01988847296A8246884717
:1002A0000028F6D1BAF1FF3F0CD024F4C064002E30
:1002B00019DD600614D5BAF12B0F09D0BAF12D0F54
:1002C0000ED103E0584604B0BDE8F09F44F48064CA
:1002D000A9697F1C01988847761E8246002E02DDA0
:1002E000BAF1300F03D0B9F1000F26D032E0A9697E
:1002F000761E44F400747F1C019888478246002EC5
:1003000005DDBAF1780F06D0BAF1580F03D0B9F174
:10031000000F10D01EE0B9F1000F02D0B9F1100F9C
:1003200018D1A969761E24F400747F1C01988847AF
:100330008246102002E0082000E00A20814609E001
:1003400008FB0908A969761E44F400747F1C019813
:1003500088478246002E05DD4946504600F06AFB7C
:100360000028EDDAE96901988847A00502D46FF00A
:100370000100A8E7E00725D1600613D5600502D586
:10038000C8F1000000E0404629680A1D2A6009689B
:10039000220501D5087015E0220701D5088011E07B
:1003A00008600FE02868011D29600068210502D55A
:1003B00080F8008006E0210702D5A0F8008001E067
:1003C000C0F8008038467EE72DE9FF5FD2E901A73B
:1003D0004FF00008916999461446DDF838B046465A
:1003E00001988847054659EA0B0005D009E0A16944
:1003F000761C019888470546216A284688470028C8
:10040000F5D1681C03D05FEACA7005D015E04FF043
:10041000FF3004B0BDE8F09F2068011D2160D0F8D6
:1004200000800AE05FEACA7001D108F8015BA169A7
:10043000761C7F1E019888470546002F1ADD681C30
:1004400018D0B9F1000F0DD0E81705EBD0604211BC
:1004500020F01F0059F822102A1A01209040014272
:10046000E0D107E0BBF1000FDCD1216A28468847C4
:100470000028D7D0E16901988847BBF1000F07D168
:10048000002E05DD5FEACA7002D1002188F8001055
:10049000A068B84203DDBBF1000F03D017B16FF0C5
:1004A0000100B6E73046B4E7F0B480EA0102D40FA9
:1004B0004200B2EB410F02D20246084611464A0002
:1004C00042D0C30DDDB2C1F3C752AD1A202D35DACB
:1004D000C1F3160141F4000204B15242C5F12006F5
:1004E00002FA06F12A411044B3EBD05F23D0C4B125
:1004F000012DA0EBC35009DCF0BC4FF0004202EA32
:10050000C352DBB200F5000000F0DFBA400000F19A
:10051000807000EBC350A0F1807040EAD1704900B8
:1005200009E0490841EAC071A0EBC35000F50000A2
:10053000400800EBC350F0BC00F0BEBA614201229B
:1005400002EB4101001BF6E7F0BC704781F000416F
:10055000AAE780F00040A7E780EA010210B502F0A8
:100560000043400022D04A001FD0010E01EB12616F
:10057000C0F35600C2F3560240F4000042F40002F9
:10058000A0FB022000047F39140400D0401C50EA74
:10059000124001D44000491EC2B20C0604EBD01038
:1005A000401C4008802A02D003E0002010BD20F04B
:1005B0000100002900DA0020184310BD420005D0D8
:1005C000C0F3C7525242914201DC0020704700EB59
:1005D000C15070472DE9FE4F804681EA0300C00FED
:1005E0000C46009021F0004123F00045B8EB0200DA
:1005F000A94105D24046214690461C460B4602467C
:1006000023F00040104347D0270DC7F30A00C3F37F
:100610000A510290401A019040286BDAC3F313008C
:1006200040F4801B0098924620B10023D2EB030ACD
:1006300063EB0B0B01985946C0F14002504600F0A5
:10064000D8F906460D4650465946019A00F0E0F9A1
:1006500010EB08006141002487EA115284EAE77335
:100660001A4340D0009A62B3019A012A4FEA075216
:1006700015DC001B61EB02014FF0004202EA075259
:10068000CDE90042001C41F5801132462B4600F0B6
:1006900059FA03B0BDE8F08F40462146F9E7001B48
:1006A00061EB0201001C41F5801300185B4120182A
:1006B000A2F5001747EB030140EAD570B6196D416A
:1006C00011E06D084FEA360645EAC0754FEA075259
:1006D000001B61EB0201001C41F5801149084FEA43
:1006E00030000019514132462B4603B0BDE8F04FAF
:1006F00000F019BA0098012240000023D0EB02025A
:1007000063EBE073009821464FEAE074B8EB000019
:1007100061EB0401E9E783F000435BE781F000410E
:1007200058E72DE9FE4F81EA030404F0004421F06C
:10073000004100944FF0000B23F0004350EA010405
:100740005ED052EA03045BD0C3F30A54C1F30A55E6
:100750002C44A4F2F3340194A0FB0254C1F313011E
:1007600041F48011C3F3130343F4801301FB0244EB
:1007700000FB034E840A970A44EA815447EA8357F0
:10078000A4FB076802958D0A05FB07854FEA932CA9
:1007900004FB0C542705029D4FEA065847EA16371A
:1007A000B5EB08056EEB070C870E920E47EA811732
:1007B00042EA8312A7FB0201B6EB0B0164EB0004D3
:1007C0002B0D43EA0C335E1844EB1C50DA465146BD
:1007D000E7FB0201C5F313044FEA0B3343EA14535A
:1007E0004FEA0432019C43EA0603A4F10C0402948C
:1007F000009CCDE900B400F0A5F903B0BDE8F08F8E
:1008000000200146F9E72DE9F04D81EA030404F0E8
:10081000004B21F0004514464FF0000A23F0004140
:1008200050EA050220D054EA01021DD0C5F30A5750
:100830000246C5F31303C1F31300C1F30A5640F493
:10084000801543F48013A7EB0608101BD64608F268
:10085000FD3873EB050002D308F1010801E092189E
:100860005B41B8F1000F03DA00200146BDE8F08DCE
:1008700000204FF48011064684460EE0171B73EBF0
:10088000050705D3121B63EB050306434CEA010C75
:1008900049084FEA300092185B4150EA0107EDD158
:1008A00052EA030012D082EA040083EA05010843F9
:1008B00005D0101BAB4106D20122002306E0002226
:1008C0004FF0004302E06FF0010253101AEB0600F4
:1008D0004CEB085110EB0A0041EB0B01BDE8F04D69
:1008E00000F021B90EB5C10F80EAE0700844CA07D4
:1008F000002140F233438DE80E000A460B4600F01B
:1009000021F903B000BD00F0004230F000400AD0F1
:10091000C10D01F56071C0F3160042EA0151C20831
:1009200040071143704700200146704701F0004323
:1009300030B421F0004150EA010206D00A0DA2F5C0
:100940006072C1F31301002A02DC30BC0020704742
:10095000440F44EAC104C100E01830BC00EBC250AF
:1009600000F0AAB830B50B46014600202022012431
:1009700009E021FA02F59D4205D303FA02F5491B6D
:1009800004FA02F52844151EA2F10102F1DC30BD83
:100990002DE9F05F0546002092469B4688460646B4
:1009A000814640241BE02846414647462246FFF741
:1009B00005FC53465A46C01A914110D311461846B9
:1009C000224600F016F82D1A67EB01084F46224622
:1009D0000120002100F00DF817EB00094E41201E08
:1009E000A4F10104DFDC484631462A464346BDE80F
:1009F000F09F202A04DB203A00FA02F10020704721
:100A00009140C2F1200320FA03F31943904070474C
:100A1000202A06DBCB17203A41FA02F043EAE073C2
:100A200006E041FA02F3D040C2F1200291400843AF
:100A3000194670473A2800D2303820F02002412A67
:100A400001D3A2F13700884201D34FF0FF30704745
:100A5000026811441378016018467047D160044958
:100A600051610449116200211161114600F052B92F
:100A7000510A0008090D0008426842B1016811F8E6
:100A8000013B23B1521EC0E90012184670470121F4
:100A9000C160881E704742685AB1C368016843B993
:100AA00083688B4205D0491E521CC0E90012002009
:100AB00070474FF0FF3070470029A8BF7047401CB7
:100AC000490008BF20F00100704710B4B0FA80FC64
:100AD00000FA0CF050EA010404BF10BC704749B1A1
:100AE000CCF1200421FA04F411FA0CF118BF012111
:100AF00021430843A3EB0C01CB1D4FEA00614FEAF1
:100B0000102042BF002010BC704700EBC3501044BF
:100B10000029A4BF10BC7047401C490008BF20F04A
:100B2000010010BC704710B5141E73F1000408DA00
:100B3000401C41F1000192185B411A4301D120F0A1
:100B4000010010BD2DE9F04D92469B4611B1B1FA5E
:100B500081F202E0B0FA80F220329046FFF749FFBE
:100B600004460F4640EA0A0041EA0B0153465A4642
:100B7000084313D0114653EA010019D0C8F14002CE
:100B80005046FFF71BFB05460E4650465946424667
:100B9000FFF72FFF084305D0012004E02046394627
:100BA000BDE8F08D0020054346EAE0762C4337434C
:100BB0000A986305E40AA0EB08000022FD0A44EA53
:100BC00047540A3002D500200146E9E70105101913
:100BD0006941DDE9084500196941BDE8F04DA2E72A
:100BE0002DE9F04D00231A461B1A8A4103DB002031
:100BF0000146BDE8F08DC1F30A52C1F3130141F47F
:100C000080154FF0000BD10702D100186D41521E24
:100C10000027044640F2FF11384601EB620A3E46C7
:100C20008046024600204FF48011FFF7C7FAC21930
:100C30007141BB1846EB0100B4EB030C75EB000CE3
:100C400004D3E41A65EB000517460E46241908F193
:100C500001006D4180463428E3DDF91946EB0600BA
:100C6000091BA84103D24FF0FF32134601E00022D6
:100C700013461BEB070046EB0A51BDE8F04DFFF7AA
:100C800052BFC1F30A52C1F3130140F2FF3341F4E2
:100C900080119A4202DA00200146704740F2334345
:100CA0009A42A2F2334202DC5242FFF787BAFFF7C0
:100CB000A0BE000030B5041E71F1000404DB4FF04B
:100CC0000044404264EB0101141E73F1000405DB93
:100CD0001C464FF00043524263EB0403994208BFA5
:100CE000904230BD064C074D06E0E06840F001033D
:100CF00094E8070098471034AC42F6D3FFF7FAF9AE
:100D00001494000834940008C0B24FF4F05100F07D
:100D1000DBB900002DE9F34F8BB04FF0000801F173
:100D20000C000C464FF0010B46460DF1080A0190ED
:100D30006269012101989047051E2DD0252D2CD0E8
:100D4000216A8847C0B16269012101989047216AF0
:100D500088470028F7D1411E62690198904700E05A
:100D6000761CA1690B988847216A88470028F7D12B
:100D7000E1690B988847DBE7A1690B98884707462C
:100D8000A84201D1761CD3E7E1690B9888477F1C04
:100D900002D1B8F1000F6FD046E1002762693D46ED
:100DA0003946019890472A2804D1626901210198A7
:100DB00090470125DFF884926269012101989047EC
:100DC000A0F130010A290AD24F45E5DC07EB870183
:100DD00000EB4107303FDFD445F01005ECE7E906B2
:100DE00001D46FF000476C280AD04C2814D0682832
:100DF00015D06A280DD074281CD07A281AD01DE08E
:100E000062690121019890476C2802D045F00405E1
:100E100014E045F002050DE045F020050AE06269A6
:100E2000012101989047682802D045F0080505E0A7
:100E300045F400656269012101989047C4E90157B2
:100E400065283DD019DC58287AD00CDC452837D0ED
:100E500004DC252826D0412831D131E046282FD086
:100E600047282CD12CE05B2877D0612828D0632834
:100E70007CD0642823D15AE0D0E06F2848D008DC29
:100E800066281DD067281BD0692821D06E2816D16E
:100E900027E0702845D0732868D0752847D0782877
:100EA0000DD14DE0A1690B988847054625283FF4F0
:100EB00069AFE1690B9888476D1C3FF46AAFB3E0F6
:100EC00023466A466FF001000B99AFF300809EE065
:100ED00045F040006060A80723464FF0000236D47A
:100EE0003EE0E8077FF447AF2068011D21600068FD
:100EF000290501D506701BE7290701D5068017E7EC
:100F0000A90703D5F117C0E9006111E706600FE7F3
:100F100045F040006060A80723464FF0080216D451
:100F20001EE040F60E0125EA0100606016E045F083
:100F300040006060A80723464FF00A0207D40FE084
:100F400045F040006060A80708D5234610226FF0E6
:100F500001000B99AFF3008059E007E0234610220F
:100F60006FF001000B99FFF789F950E04FF000098D
:100F70004F464B46632802D05B2806D040E0E80687
:100F800001D40120A06001273AE0626901210198A3
:100F900090475E2805D14FF00109626949460198E2
:100FA0009047216939B900210A46534643F8212068
:100FB000491C0829FADBB0B3216969B9C11700EBF4
:100FC000D16253110AEB830122F01F02821A012021
:100FD0000B68904003430B606269012101989047C0
:100FE0005D28E8D1B9F1000F09D00020514651F831
:100FF0002020D24341F82020401C0828F7DB02AB18
:10100000224600976FF001000B99FFF7DDF90028E9
:101010000CDA401C08D1BBF1000F05D04FF0FF30B7
:101020000DB0BDE8F08FFFE74046F9E7E90701D1D1
:1010300008F1010806444FF0000B79E6CCCCCC0C4B
:1010400070B521F0004303430CD0C1F30A550024CE
:10105000D5EB040564EB0403D617AD1AB34102DBEC
:101060000020014670BD201841EB025170BD0EB545
:1010700040F2334102910021CDE900110A460B46AE
:10108000FFF760FD03B000BD70B5C1F30A5201F077
:1010900000450024C1F3130140F2FF3341F48011F5
:1010A0009A4201DA002070BD40F233439A42A2F224
:1010B000334203DC5242FFF781F800E090402C43BA
:1010C000F1D0404270BD00007F2801D9002208E025
:1010D000064A02EB5002C007127800D1120902F052
:1010E0000F020120904008407047000098930008CC
:1010F000014800F0ADB90000A005002070B504461D
:1011000000688168C943C9071CD1816821F00101C9
:10111000816000F0D1FC05460FE000BF00F0CCFC80
:10112000401B022809D9A06A40F01000A062E06AC2
:1011300040F00100E062012070BD20688068C0437B
:10114000C007EBD0002070BDF8B50026044600961D
:1011500000688168C943C90728D0816841F001014E
:101160008160134813490068B0FBF1F000E0401EB5
:1011700000900028FBD100F09FFC054611E000BF65
:1011800000F09AFC401B02280BD9A06A40F0100026
:10119000A062E06A40F00100E06284F8246001206F
:1011A000F8BD20688068C043C007E9D10020F8BDC1
:1011B0000000002040420F00FEE7704710B500F02D
:1011C0001BF8FFF7A0FB044A044BFFF7AAFABDE89F
:1011D0001040FFF7ABBB00003480B74002E3B840DB
:1011E000022000F071BB042000F06EBB082000F06C
:1011F0006BBB102000F068BB2DE9F05F05460C4684
:1012000008682968401AFFF76DFBDFF8D090DFF817
:10121000D0A04A465346FFF784FADFF8C8B0002250
:101220005B46FFF7F0FA304A304BFFF77AFAFFF7E8
:101230007DFB06466968606804F03AFEFFF752FBE2
:101240004A465346FFF76DFA00225B46FFF7DBFA8A
:10125000254A264BFFF765FAFFF768FB80464FF0FB
:10126000FF313046FFF7AAF9FFF74DFB07460C4662
:101270002868FFF737FB4A465346FFF752FA002229
:101280005B46FFF7C0FA184A184BFFF74AFA3A468E
:101290002346FFF79FF904F01BF905460C4640462C
:1012A000FFF731FB2A462346FFF73BFAFFF73EFBE9
:1012B000044631460846FFF74FF9054621460846E1
:1012C000FFF74AF92946FFF7EFF8FFF71CFB04F098
:1012D00009FEBDE8F05FFFF729BB00006F1283C075
:1012E000CA2109400080664048AFBC9AF2D77A3ED6
:1012F000FEE7704730B590F82420012A1ED0012265
:1013000080F824208A68012A0268536818D023F0E4
:1013100040035360D1E900231A4303685C680A4D17
:101320002C4022435A600368CA685A6202680969FD
:101330009162002180F82410084630BD022030BDA3
:1013400043F04003E5E70000E0FD3FFFF8B500246F
:10135000009490F824202546012A12D0012280F81A
:1013600024204A681F23072A0DD20668776B521E75
:1013700002EB820293409F430B6893401F437763C5
:1013800019E00220F8BD06680D2A0AD2376BD21F79
:1013900002EB820293409F430B6893401F433763E5
:1013A00009E0F76A0D3A02EB820293409F430B6813
:1013B00093401F43F7620A68072306680A2A0AD384
:1013C000F7680A3A02EB420293409F438B689340CE
:1013D0001F43F76008E0376902EB420293409F43E6
:1013E0008B6893401F4337610A68102A01D0112A85
:1013F00020D1124B02689A4217D193681B0219D46C
:10140000936843F4000393600968102912D10C49D2
:101410000C4A0968B1FBF2F101EB8101490000E0DF
:10142000491E00910029FBD104E0816A41F02001AE
:101430008162012480F824502046F8BD0024014038
:101440000000002040420F0070470068C06C7047E9
:1014500010B5044600684168890626D501688907E9
:1014600023D5A16AC90603D4A16A41F40071A1621F
:101470008168C1F34241072910D1E16871B941681F
:1014800021F020014160A06A20F48070A062A06A6F
:10149000C00403D4A06A40F00100A0622046FFF718
:1014A000D3FF21686FF012000860206841680906C8
:1014B0002ED5016849072BD5A16AC90603D4A16AB4
:1014C00041F40051A1628168C1F30231072909D0BA
:1014D0004168490515D48168C1F34241072910D1FB
:1014E000E16871B9416821F080014160A06A20F48F
:1014F0008050A062A06AC00503D4A06A40F0010039
:10150000A0622046FFF7F5FE21686FF00C0008602E
:101510002068416849060DD50068C0070AD0A06A56
:1015200040F48030A062204600F094F821686FF00B
:101530000100086010BD00002DE9F0414FF00007E8
:1015400004003D467ED0A06A002628B9E66284F8F1
:101550002460204600F0B2F82046FFF7CFFDA16AD4
:1015600001F01001014304D0A06A40F01000A06215
:1015700068E0A16A21F4885141F00201A162626829
:10158000E169E3680A4347EA43010A43A1684FF46B
:101590008077B94208D0012906D00021D4F814C0C0
:1015A000BCF1010F02D00AE03946F7E7F3B1A36AB4
:1015B00043F02003A362E36A43F00103E36223687C
:1015C000D3F804C02CF4694C4CEA010CC3F804C0F5
:1015D00023689968DFF870C001EA0C011143996033
:1015E000A168B9420BD0012909D00CE0DFF85CC03A
:1015F000A3690CEB43330B4343F40061DFE7218A1B
:101600000D05A5F580152168CB6A23F470032B43E3
:10161000CB62216889680E4B1940914208D1E6627D
:10162000A16A21F0020141F00101A162BDE8F0814F
:10163000A06A20F0020040F01000A062E06A40F0D2
:101640000100E0620120F1E7FDF7E1FF00E0FFFFAC
:10165000FE0E1FFFFEB5154C154E0025A178371D57
:10166000E1B1012907D0022904D10068416821F0C5
:1016700040014160FEBD0F48052208218DE80700AA
:1016800001230022A0210C4800F0CCFBA57040F6FD
:10169000FF7030604FF4AF603860FEBD0120A07075
:1016A0004FF4966030603D60FEBD000014000020E5
:1016B00024280140440800205008002000B585B0CF
:1016C0000021009101910291039100681249884222
:1016D00020D11248816941F480618161816901F4FE
:1016E00080610491816941F00401816180696946EA
:1016F00000F00400049001200090032001900848AD
:1017000000F0EEF800220521122000F0DBFC122090
:1017100000F0CCFC05B000BD0028014000100240E4
:101720000008014070B5044690F8240001280DD04F
:10173000012084F824002046FFF706FD02004FF048
:10174000000005D084F82400104670BD022070BD52
:10175000A16A40F20123994341F48071A1621F4DB7
:1017600023681F49AB4218D10E6816F4702F14D0AD
:10177000A66A46F48016A6620E68760505D5A66AA6
:1017800026F4005646F48056A662A66AF6040AD5E8
:10179000E66A26F00606E66206E0A66A26F48016E9
:1017A000A6625E68E9E7E06284F824006FF0020058
:1017B000186020688368C3F34243072B05D1A84211
:1017C00008D1096811F4702F04D0816841F48011A8
:1017D0008160B9E7816841F4A001F9E70028014080
:1017E0000424014010B590F821100024022903D0F0
:1017F0000421816301243DE001680A6822F00E02A1
:101800000A6001680A6822F001020A601A4A016847
:10181000914201D1012121E0174A1432914201D1B4
:1018200010211BE0144A2832914201D1891515E09C
:10183000114A3C32914201D189140FE00E4A5032D4
:10184000914202D14FF4803108E00B4A6432914258
:1018500002D14FF4801101E04FF08071064A083A3E
:101860005160012180F82110002180F82010416B87
:1018700001B18847204610BD0800024070B50446FB
:1018800000F01AF90546601C02D0044800780444B0
:1018900000F012F9401BA042FAD370BD580000209E
:1018A000074810B5C06905F0AFFF012806D105490A
:1018B00000070860BFF34F8FBFF36F8F10BD0000AC
:1018C0001400002004ED00E0044910B50A6802424B
:1018D00002D00860FFF7E4FF10BD000014040140CF
:1018E0002DE9F84FDFF890A100220AF1040B14460D
:1018F00001274FF00F090BF1040E00BF0B6807FA28
:1019000004F52B40AB4274D1DFF870C14E68A6EBF2
:101910000C0866452BD00DDC032E34D005DC36B325
:10192000012E19D0022E2FD11BE0112E16D0122E0F
:101930002AD119E0B8F5881F19D006DCB8F5803F28
:1019400015D0B8F5801F1FD111E0B8F5001F0ED0DB
:10195000B8F5041F18D10AE0CA6815E0CA68121D5C
:1019600012E0CA6808320FE0CA680C320CE08A68DC
:101970002AB1012A4FF0080203D0456104E0042295
:1019800002E0056100E00022FF2B01D8064601E0DD
:1019900000F104064FEA840501D9A5F12005D6F827
:1019A00000C009FA05F82CEA080C02FA05F54CEA21
:1019B000050CC6F800C04D68ED0057D5304DAE6936
:1019C00046F00106AE61AD6924F0030605F001059D
:1019D00000952C4D06EB050CDCF80850A6074FEAE5
:1019E000167809FA08F6B543274EB04202D1002610
:1019F00010E03BE0254EB04201D101260AE0244E22
:101A0000B04201D1022605E0224EB04201D10326A8
:101A100000E0042606FA08F62E43CCF808604D686C
:101A2000DAF80060ED03554601D51E4300E09E4301
:101A30002E604D68DBF80060AD035D4601D51E43A6
:101A400000E09E432E604D68DEF80060ED027546B2
:101A500001D51E4300E09E432E604D68AD020E4D41
:101A60002E6801D51E4300E09E432E60641C102C9E
:101A7000FFF444AFBDE8F88F0004014000001110EE
:101A8000001002400000014000080140000C01402D
:101A900000100140001401400C040140806808401F
:101AA00000D001207047C2684A40C26070470AB146
:101AB000016170470904FBE7014880687047000036
:101AC0005800002070B504001BD094F83D0000259C
:101AD00020B984F83C50204600F042FA242084F8D3
:101AE0003D002068016821F00101016000F068FC00
:101AF000404A6168914201D83F4900E03F4988422D
:101B000001D2012070BD3E492368B0FBF1F159605C
:101B10006368934206D94FF4967359434FF47A732E
:101B2000B1FBF3F12368491C19626168914210D836
:101B30004900401EB0FBF1F2521CC2F30B02042A12
:101B400001D2042022E0B0FBF1F0401CC0F30B00F6
:101B50001CE0A368CBB301EBC10202EB0116421EED
:101B6000B2FBF6F2521C42F48042120536D06BB33F
:101B700001EBC10202EB0111401EB0FBF1F0401C71
:101B8000C0F30B0040F4804040F400402168C8617D
:101B9000D4E90701084321680860D4E90310084329
:101BA00021688860D4E9050108432168C86020687D
:101BB000016841F0010101602564202084F83D00A6
:101BC000256384F83E50002070BD00E008E001EB82
:101BD0004106421EB2FBF6F2521CC6E70120D5E7D1
:101BE00001EB4101401EB0FBF1F0401CC0F30B00C3
:101BF000CAE70000A086010080841E0000093D00A5
:101C000040420F002DE9FF4F83B09A46DDE911876E
:101C100093460446DDF84090FFF74EFF054694F8E2
:101C20003D00202872D1192301227B4920460095CE
:101C300001F0F1FB0028F5D194F83C00012865D0B3
:101C4000012084F83C0020680168C90703D10168BD
:101C500041F0010101602068016821F40061016028
:101C6000222084F83D00402084F83E0000262664AF
:101C7000C4F82490A4F82A806848E062608D20852A
:101C8000CDE9007553465A462046049901F0D3FA2F
:101C900028B1206C84F83C60042851D075E0208D78
:101CA000DFF87C8168B1012814D00228206801681F
:101CB0001ED041F480610160206841698069009014
:101CC0009BE02068416981690091016841F40071DD
:101CD000016092E02068016821F48061016072B6C1
:101CE0002068416981690091016841F400710AE04E
:101CF00041F40061016072B6206841698169009118
:101D0000016821F48061016062B676E081E0032819
:101D100050D801280BD002283B464FF00002414624
:101D20002046009512D001F076FB70BB13E02A46E6
:101D30003946204601F0E4FB30B1206C202824D045
:101D4000012007B0BDE8F08F20684BE001F063FB95
:101D5000D8B972B61BE02068016821F48061016087
:101D600072B620680169606A421C62620170208D4F
:101D7000401E2085608D401E60853B460022414606
:101D80002046009501F047FB08B10320D9E7206801
:101D9000016841F40071016020680169606A421CB9
:101DA00062620170208D401E2085608D401E60851E
:101DB00062B6C9E72A463946204601F0A1FB002851
:101DC000BBD120680169606A421C62620170208D8B
:101DD000401E2085608D401E608520684169C94392
:101DE00049070AD40169606A421C62620170208D51
:101DF000401E2085608D401E6085208D002886D184
:101E0000202084F83D0084F83E6084F83C60002087
:101E100097E7022095E70000020010000000FFFF96
:101E2000040001002DE9FF4F83B09A46DDE91187D8
:101E300093460446DDF84090FFF73EFE064694F8D0
:101E40003D0020287DD119230122434920460096D8
:101E500001F0E1FA00287CD194F83C00012878D008
:101E6000012084F83C0020680168C90703D101689B
:101E700041F0010101602068016821F40061016006
:101E8000212084F83D00402084F83E000025256490
:101E9000C4F82490A4F82A803048E062608D208540
:101EA000CDE9007653465A462046049901F03CFAA3
:101EB00080B3206C84F83C50042848D008E03246B7
:101EC0003946204601F04DFB30B1206C042839D052
:101ED000032007B0BDE8F08F606A411C6162216891
:101EE00000780861208D401E80B22085618D491EDA
:101EF000618521684A69D24352070BD468B1606A90
:101F0000421C626200780861208D401E2085608D31
:101F1000401E6085208D0028D1D1324639462046AA
:101F200001F052FA0028D0D154F83D0B016841F479
:101F300000710160202004F81E09E5776577002014
:101F4000C7E706E02068016841F4007101600120E4
:101F5000BFE70220BDE70000020010000000FFFF05
:101F600010B586B0002100910191029103910068A3
:101F70000F4988421AD10F4CA06940F00800A061B7
:101F8000A069694600F008000490C020009012206B
:101F90000190032003900848FFF7A2FCE06940F499
:101FA0000010E061E06900F40010049006B010BD7C
:101FB0000054004000100240000C014002488168BB
:101FC000027811448160704758000020074810B51E
:101FD000016841F010010160032000F093F8002037
:101FE00000F006F800F03EF8002010BD002002408E
:101FF00000B5014687B00022192000F063F81920CF
:1020000000F054F81348816941F4006181618069EE
:1020100005A900F400600690684600F0B1F900F0F0
:10202000DFF90D490D4AB0FBF1F10D48491E026080
:10203000416040F2E7320021C0E90321816000F0F5
:10204000E9FC10B1012007B000BD054800F010FD0B
:10205000F9E700000010024040420F00002C014050
:102060007C0900200F4808B5816941F001018161B8
:10207000816901F001010091C16941F08051C161A4
:10208000C069002200F0805000900F21901E00F0E7
:1020900019F80548416821F0E06141F000714160A4
:1020A00008BD0000001002400000014000F01F02C7
:1020B000012191404009800000F1E020C0F80011AA
:1020C00070470000F0B40E4B1B680C46C3F30223AC
:1020D000C3F10705042D00D90425191D072901D2D4
:1020E000002300E0DB1E012606FA05F1491E21400F
:1020F00099409E40761E16403143F0BC01F03EBC34
:102100000CED00E0064900F0070208684FF6FF03F7
:10211000184040EA0220034A10430860704700005C
:102120000CED00E00000FA052DE9F84305460078C3
:10213000354CC00754D0E0690026C00008D4E069DF
:1021400040F08050E061E069012600F0805000908E
:102150002E480168C90512D40168804641F4807197
:102160000160FFF7A9FC074605E000BFFFF7A4FCEC
:10217000C01B642823D8D8F80000C005F6D5206A13
:1021800010F4407021D0A98801F4407181421CD024
:10219000206A1F49012220F440700A6000220A6070
:1021A0002062C00711D0FFF787FC074641F288384C
:1021B00008E000BFFFF780FCC11B414502D90320A6
:1021C000BDE8F883206A8007F4D5206A696820F4A6
:1021D0004070084320621EB1E06920F08050E06149
:1021E0002878800705D56068A96820F44040084336
:1021F00060602878C00605D56068E96820F4800032
:10220000084360600020DBE70010024000700040DF
:10221000400442422DE9F047DFF8548105460E465E
:10222000D8F8000000F00700B0420CD2D8F8001037
:1022300021F007013143C8F80010D8F8000000F081
:102240000700B0426FD128684A4C810712D5400779
:1022500003D5606840F4E06060602878000703D52B
:10226000606840F4605060606068A96820F0F00029
:10227000084360602878C00744D06868012816D0F9
:102280002168022816D0890700294CDA616821F0FC
:10229000030101436160FFF70FFC6968074641F2E3
:1022A000883001290ED00229814618D026E0216805
:1022B0008903E9E78901E7E7FFF7FEFBC11B494511
:1022C00001D918E081466068C0F381000128F3D18C
:1022D00018E000BFFFF7F0FBC11B49450BD8606851
:1022E000C0F381000228F5D10CE000BFFFF7E4FB4A
:1022F000C11B494502D90320BDE8F087606810F092
:102300000C0FF3D1D8F80010404601F00701B1429C
:102310000BD9016821F0070131430160006800F02A
:102320000700B04201D00120E6E72878400705D534
:102330006068E96820F4E06008436060287800077E
:1023400006D56068296920F4605040EAC1006060E9
:1023500000F056F86168084AC1F30311515CC840A7
:10236000064908600020FFF743FE0020C4E7000094
:102370000020024000100240907800080000002079
:102380000F2202600C4A536803F003034360536852
:1023900003F0F0038360536803F4E063C3605268A2
:1023A0004FF4E06303EAD20202610448006800F0DF
:1023B0000700086070470000001002400020024043
:1023C0000448054900684968044AC1F30221515C88
:1023D000C84070470000002000100240A0780008AC
:1023E0000448054900684968044AC1F3C221515CA8
:1023F000C84070470000002000100240A07800088C
:1024000012A185B00FC98DE80F0014A0144A00680E
:1024100004905168134801F00C03042B10D0082BD2
:102420000ED1C1F38343C9031DF803000AD55168D7
:1024300004AAC1F34041515C0A4A5043B0FBF1F099
:1024400005B0704708494843FAE700000203040555
:10245000060708090A0B0C0D0E0F101001020000F0
:102460000010024000127A0000093D002DE9F84FEB
:1024700004460078B94DC00748D06868C0F38100B1
:10248000012807D06868C0F38100022809D1686874
:10249000C00306D52868800338D5606800286FD04F
:1024A00034E06068B0F5803F0BD010B1B0F5A02FDC
:1024B00011D0286820F480302860286820F480201B
:1024C00002E0286840F480302860606888B1FFF737
:1024D000F3FA064609E0286840F480202860F0E717
:1024E000FFF7EAFA801B642875D828688003F7D5BF
:1024F0000CE0FFF7E1FA064605E000BFFFF7DCFA63
:10250000801B6428F0D828688003F7D42078944E84
:1025100080074FF001094FF000083BD5686810F0C4
:102520000C0F07D06868C0F38100022809D16868E1
:10253000C00306D42868800714D5206901281FD15C
:1025400010E02069B0B1C6F80090FFF7B5FA074671
:1025500005E000BFFFF7B0FAC01B0228C4D8286806
:102560008007F7D52868616920F0F80040EAC100CB
:1025700028600FE0C6F80080FFF79EFA074606E0E5
:10258000E9E000BFFFF798FAC01B022823D82868AB
:102590008007F7D4207800072CD57248A169D9B1FB
:1025A000C0F80090FFF788FA074604E0FFF784FAC6
:1025B000C01B02280FD8686A8007F7D56A484FF415
:1025C000FA510068B0FBF1F0009000BF0098411E86
:1025D0000091FAD20EE080E0C0F80080FFF76CFABC
:1025E000074604E0FFF768FAC01B022875D8686A3E
:1025F0008007F7D42078400760D5E8690027C0003D
:1026000008D4E86940F08050E861E869012700F0EB
:102610008050009055480168C90513D4016883466D
:1026200041F480710160FFF747FA824606E000BF7F
:10263000FFF742FAA0EB0A0064284ED8DBF800004E
:10264000C005F5D5E06801280AD008B1052813D0E7
:10265000286A20F001002862286A20F0040002E0C5
:10266000286A40F001002862E06841F2883B98B196
:10267000FFF722FA82460BE0286A40F00400286245
:10268000EEE700BFFFF718FAA0EB0A0159455AD848
:10269000286A8007F6D50CE0FFF70EFA824605E0BF
:1026A000FFF70AFAA0EB0A0159454CD8286A8007BF
:1026B000F6D41FB1E86920F08050E861E06988B382
:1026C0006968C1F38101022945D00228C6F86080FB
:1026D00004D0FFF7F1F9044638E034E0FFF7ECF9F5
:1026E000074604E0FFF7E8F9C01B02282BD828684A
:1026F0008001F7D4206AB0F5803F05D16868A168F1
:1027000020F4003008436860D4E908010843696890
:1027100021F4741108436860C6F86090FFF7CCF9A3
:10272000044606E015E000BFFFF7C6F9001B0228CB
:1027300009D828688001F7D50BE000BFFFF7BCF986
:10274000001B022802D90320BDE8F88F2868800109
:10275000F4D40020F8E70120F6E700000010024062
:10276000000042428004424200000020007000400D
:1027700090F85100704770B5040005D00025A5629F
:1027800094F8510010B104E0012070BD204600F023
:1027900033F8022084F851002068016821F04001DC
:1027A0000160D4E901010843D4E90312114308434D
:1027B00061690843218B01F400710843E169084312
:1027C000216A0843A16A084321680860A0690421BE
:1027D00001EA1040616A0843216848602168E06AA4
:1027E00008612068C16921F40061C161656501204B
:1027F00084F85100002070BD00B585B00021009123
:102800000191029103910068104988421BD1104840
:10281000C16941F48041C161C16901F48041049101
:10282000816941F0080181618069694600F0080012
:1028300004904FF420400090022001900320039068
:102840000448FFF74DF805B000BD00000038004017
:1028500000100240000C01402DE9F84F044690F8AA
:1028600050000026994617460D4601280DD04FF01E
:10287000010B84F850B0FFF71FF9804694F851001F
:10288000B246012804D0022694E00220BDE8F88F69
:10289000002D7BD0002F79D0032084F85100C4F89C
:1028A00054A02563A786E786C4F838A0A4F83CA006
:1028B000A4F83EA0C4F844A0C4F840A0A068B0F5B5
:1028C000004F04D12068016841F480410160206814
:1028D0000168490603D4016841F040010160E068E5
:1028E000B0F5006F606804D030B3E08E012823D0CB
:1028F0003EE010B1E08E01281AD135F8021B2068A5
:1029000005E020688168890706D535F8021BC1609B
:10291000E08E401EE0860BE0B9F1000F34D0B9F133
:10292000FF3F05D0FFF7C8F8A0EB080149452BD2BF
:10293000E08E0028E5D11EE0216815F8010B087330
:1029400006E020688168890706D515F8011B017328
:10295000E08E401EE0860BE0B9F1000F14D0B9F113
:10296000FF3F05D0FFF7A8F8A0EB080149450BD2BF
:10297000E08E0028E5D14B46012202212046CDF809
:10298000008001F009F910B1032613E011E042467E
:102990004946204601F0F0F818B101262020606574
:1029A00008E0A06818B92068C16880680090606D70
:1029B00000B1012684F851B084F850A0304665E794
:1029C0007047704730B590F83C20012A20D0012292
:1029D00080F83C20022380F83D3003685C6824F0D6
:1029E00070045C6003685C680D682C435C6003687D
:1029F0009C6824F080049C6003689C6849680C43D0
:102A00009C6080F83D20002180F83C10084630BDD5
:102A1000022030BD10B5040003D094F83D0010B181
:102A200007E0012010BD002084F83C00204600F0A3
:102A30000DF8022084F83D00211D206801F0FEFA07
:102A4000012084F83D00002010BD000008B500689A
:102A5000B0F1804F08D10548C16941F00101C16161
:102A6000C06900F00100009008BD000000100240A5
:102A70000168CA6842F00102CA600068016841F05A
:102A8000010101600020704770B5044690F83C00D9
:102A9000012817D0012584F83C50022084F83D001D
:102AA0002068826822F0770222F47F428260086800
:102AB000502837D00DDC202859D005DC88B31028E9
:102AC00041D151E0022070BD302853D040283AD186
:102AD0003FE060282ED070280BD0B0F5805F03D087
:102AE000B0F5005F2FD110E02068816821F0070168
:102AF00015E0CB68D1E90121206801F0E0FA2168F6
:102B0000886840F0770088601DE0CB68D1E901213A
:102B1000206801F0D4FA2068816841F48041816026
:102B200011E01EE0CA684968206801F07DFB502171
:102B3000206806E0CA684968206801F086FB6021C9
:102B4000206801F0C6FA84F83D50002084F83C006B
:102B500070BDCA684968206801F066FB40212068A2
:102B6000EFE700212068ECE710212068E9E7202149
:102B70002068E6E730212068E3E7704770B5044637
:102B8000006801694FF00005C943890715D4C16881
:102B9000C943890711D4E91E01610120207720680B
:102BA00080698007204602D0FFF7E7FF04E000F0CD
:102BB000C9F8204600F04BF9257720680169C94320
:102BC000490717D4C168C943490713D46FF00401FA
:102BD0000161022020772068806910F4407F204640
:102BE00002D0FFF7CAFF04E000F0ACF8204600F086
:102BF0002EF9257720680169C943090716D4C168F1
:102C0000C943090712D46FF008010161042020773D
:102C10002068C0698007204602D0FFF7AEFF04E0BD
:102C200000F090F8204600F012F92577206801693D
:102C3000C943C90617D4C168C943C90613D46FF084
:102C400010010161082020772068C06910F4407FDE
:102C5000204602D0FFF791FF04E000F073F8204611
:102C600000F0F5F8257720680169C943C90708D144
:102C7000C168C943C90704D1891E0161204600F01B
:102C8000FFF820680169C943090609D4C168C9432E
:102C9000090605D46FF0800101612046FFF790FE20
:102CA00020680169C943490609D4C168C943490676
:102CB00005D46FF040010161204600F0EBF8206878
:102CC0000169C94389060BD4C168C943890607D481
:102CD0006FF0200101612046BDE87040FFF771BE32
:102CE00070BD000000B585B00021009101910291F6
:102CF00003910068B0F1804F1BD10F48816941F00A
:102D0000040181618069694600F0040004904FF479
:102D1000004000900220019003900848FEF7E0FD7B
:102D20000748416821F4407141F0E06141F480714D
:102D3000416005B000BD00000010024000080140E5
:102D400000000140704770B5044690F83C000D4605
:102D500001280DD0012684F83C60022084F83D0053
:102D600042B1042A18D0082A2AD00C2A4DD139E0C1
:102D7000022070BD206801F0B5F92068816941F03A
:102D8000080181612068816921F004018161206866
:102D900081692A69114311E0206801F0CBF92068AC
:102DA000816941F4006181612068816921F4806159
:102DB0008161206881692A6941EA0221816124E0F8
:102DC000206801F0E3F92068C16941F00801C161A0
:102DD0002068C16921F00401C1612068C1692A69C4
:102DE000114311E0206801F0FDF92068C16941F448
:102DF0000061C1612068C16921F48061C1612068FE
:102E0000C1692A6941EA0221C16184F83D6000205C
:102E100084F83C0070BD10B5040003D094F83D0068
:102E200010B107E0012010BD002084F83C002046CE
:102E300000F00CF8022084F83D00211D206801F00C
:102E4000FDF8012084F83D00002010BD7047704758
:102E500010B504460068012201F026F907492068F0
:102E6000884203D1416C41F400414164206801680B
:102E700041F001010160002010BD0000002C014064
:102E800000680349884201D1FFF798B870470000F5
:102E9000002C01407047704770B502680446106806
:102EA000D168536910F00F0F51D003F0010501F400
:102EB000907635435DD0C20705D0CA0503D5E26BD5
:102EC00042F00102E263420705D5DA0703D0E26B64
:102ED00042F00202E263820705D5DA0703D0E26B13
:102EE00042F00402E263020705D5DA0703D0E26B81
:102EF00042F00802E263E26B002A34D0800604D577
:102F0000880602D5204601F0C8F920684069E16BC7
:102F1000C0F3801001F008010143204624D001F0E5
:102F2000AEF92068416949061AD5416921F040018E
:102F30004161606BA0B11B494163606BFEF752FCBD
:102F4000002810D0606B416BBDE8704008478306D5
:102F50000FD58B060DD52046BDE8704001F09DB918
:102F60002046FFF798FF70BDFFF795FF0020E06354
:102F700070BD030606D50B0604D52046BDE870409B
:102F800001F08EBA4006F3D54806F1D5D168204647
:102F900021F04001D160202184F8391000F035F98A
:102FA00070BD00006F42000870B5040004D094F8B2
:102FB0003900002510B106E0012070BD84F83850BA
:102FC000204600F023F8242084F839002068C168E6
:102FD00021F40051C160204601F0AAF9206801697E
:102FE00021F4904101612068416921F02A01416189
:102FF0002068C16841F40051C160E563202084F875
:10300000390084F83A00002070BD000030B585B06A
:1030100000240094019402940394006818498842A3
:103020002CD11848816941F480418161816901F4A2
:1030300080410491816941F0040181618069124DF0
:1030400000F0040004904FF4007000900220019002
:103050000320039069462846FEF742FC2815CDE977
:103060000004694628460294FEF73AFC0022052136
:103070002520FFF727F82520FFF718F805B030BD09
:1030800000380140001002400008014090F83A303A
:10309000202B22D1F9B1F2B190F83830012B1CD09D
:1030A00081628285C2850021C163222280F83A2094
:1030B00080F838100168CA6842F48072CA600168FA
:1030C0004A6942F001024A610068C16841F020018A
:1030D000C160002070470120704702207047000047
:1030E00010B500681449884217D1012213491448C9
:1030F000FFF7CCFF4FF400511248FEF7D4FC0F4805
:1031000002780A2A0AD0104B41785A54491CC9B295
:103110004170C72901D90021417010BD806904F0B8
:1031200073FB0128F9D1094900070860BFF34F8FED
:10313000BFF36F8F10BD0000003801401400002065
:103140003C090020001001405C06002004ED00E076
:103150002DE9F843044690F839001F4616460D46FF
:10316000202850D1A5B19EB194F8380001284AD04A
:10317000012084F838004FF00008C4F83C8021207A
:1031800084F83900FEF798FCA6848146E68426E0A0
:103190000120BDE8F883E08C401EE084A0684B4627
:1031A000B0F5805F4FF000024FF08001204600979D
:1031B00003D001F0A6F9E8B90DE001F0A2F9C8B911
:1031C00028882168C0F308004860206908B16D1C98
:1031D00005E0AD1C03E0216815F8010B4860E08CA8
:1031E0000028D8D14B46002240212046009701F00C
:1031F00088F908B10320CCE7202084F8390084F84E
:1032000038800020C5E70220C3E77047FEE7016869
:103210004A69D24352050CD46FF480624A6104219A
:103220000164002140F8301F202242730173012005
:103230007047002070472DE9F84F04460068894622
:103240000B9D01689846174641F480610160206833
:10325000016841F48071016000954FF0011A00226D
:10326000514620460A9B00F0D6F8F0BB216809F0D1
:10327000FE0008610AF1010B2B46594620460A9AC6
:1032800000F0FAF818B1206C042812D03AE0206857
:103290004169806900902A4620460A9900F061F948
:1032A00050B1206C04282DD12068016841F40071D0
:1032B00001600120BDE8F88FFEB2B8F1010F09D01E
:1032C0002168380A08612A4620460A9900F049F91F
:1032D0000028E6D1206806612A4620460A9900F0B7
:1032E00040F90028DDD1206800E00BE0016841F4DE
:1032F0008071016000950022514620460A9B00F033
:103300008AF808B10320D5E7216809F0FF0040F0F2
:10331000010008612B46594620460A9A00F0ACF895
:103320000028B0D1C6E700002DE9F8430446006844
:103330000D46DDE9089701689846164641F480710C
:1033400001604B4600224FF001112046009700F02B
:1033500062F8E8B9216805F0FE0008613B464A467C
:103360001849204600F088F828B1206C04280FD1B5
:103370000120BDE8F88320684169806900903A46E1
:103380004946204600F0EDF820B1206C042813D007
:103390000320EEE7F5B2B8F1010F09D02168300A39
:1033A00008613A464946204600F0DBF80028ECD197
:1033B000206805610020DCE72068016841F40071A5
:1033C0000160D5E70200010070B516460D460446BF
:1033D0001AE02046FFF71BFF08B1012070BD681CF2
:1033E00012D025B1FEF768FB801BA8420CD954F817
:1033F000400F40F0200044F81009002020602021F8
:1034000061732073032070BD20684069C04340078A
:10341000DFD4002070BD2DE9F0471E4690460D46D2
:103420000446C1F30747DDF8209012E0701C10D06D
:103430002EB1FEF741FBA0EB0900B04209D90020F4
:1034400044F8300F20216173A07320730320BDE87E
:10345000F0872068012F0AD0806925EA0000000467
:10346000000C06D000214145E0D00020EFE7406984
:10347000F3E70121F7E700002DE9F0479A4691466E
:103480000D46044600264FF02008C1F307472AE006
:1034900020684069C043400512D42068016841F4A7
:1034A0000071016021686FF480604861042020642D
:1034B000266384F83D8084F83C600120BDE8F087F5
:1034C000B9F1FF3F0FD0B9F1000F05D0FEF7F4FAC4
:1034D000A0EB0A01494506D944F8306F84F80D8005
:1034E00026730320EAE72068012F07D0D0F81800E0
:1034F00025EA00000004000CE0D0C9E74069F7E7C6
:103500002DE9F041002590460E460446202721E093
:103510004069C043C0060CD421686FF010004861B8
:103520002564256384F83D7084F83C500120BDE893
:10353000F0812EB1FEF7C0FAA0EB0800B04209D925
:1035400054F8400F40F0200044F8040967702570DB
:103550000320ECE720684169C9434906D8D400201C
:10356000E5E770B516460D4604461AE02046FFF71B
:103570004EFE08B1012070BD681C12D025B1FEF7C7
:103580009BFA801BA8420CD954F8400F40F0200051
:1035900044F810090020206020216173207303206B
:1035A00070BD20684069C0430006DFD4002070BDB4
:1035B00030B589B018216846FCF729FE00241A4866
:1035C000069407941749089401600125C0E9024553
:1035D000446105614FF460214460C161FDF7ACFFB7
:1035E00008B1FDF785FE1148009040F6FF7003908A
:1035F0004FF4AF60049069460B48CDE90145FDF7F3
:1036000079FE08B1FDF774FECDE9064506A9064826
:103610000894FDF79BFE002801D0FDF769FE09B074
:1036200030BD000000280140A005002000028000FD
:1036300030B59FB0002501211BA81B9501F0EEFFBE
:103640002B4C0121A0621CA81C9501F0E7FFE06251
:1036500001211DA81D9501F0E1FF206314222549D9
:103660006846FCF7BBFD0021684601F0EAFF2149EE
:1036700020611422143105A8FCF7B0FD002105A833
:1036800001F0DFFF1B496061142228310AA8FCF712
:10369000A5FD00210AA801F0D4FF1649A06114225B
:1036A0003C310FA8FCF79AFD00210FA801F0C9FFDB
:1036B0001049E0611422503114A8FCF78FFD00215D
:1036C00014A801F0BEFF2062A06903F045FCE06988
:1036D00003F042FC07494439D1E90001CDE9190161
:1036E000002119A801F096FF60621FB030BD0000F4
:1036F00014000020B09100082DE9F04F85B000249F
:1037000043480094019402940394816941F01001AC
:103710008161816901F010010491816941F020010A
:103720008161816901F020010491816941F0040106
:103730008161816901F004010491816941F008010E
:1037400081618069DFF8CC9000F008004FF40055EB
:103750000490002229464846FEF7A9F9DFF8B8A0F0
:103760004FF4A047002239465046FEF7A0F9DFF893
:10377000ACB04FF40068002241465846FEF797F976
:103780000095022601250396CDE901546946484675
:10379000FEF7A6F81E2000902148CDE901056946F4
:1037A0005846FEF79DF800970396CDE90154694607
:1037B0005046FEF795F8CDF800800396CDE9015408
:1037C00069465846FEF78CF8002205210720FEF7CF
:1037D00079FC0720FEF76AFC002205210820FEF78D
:1037E00071FC0820FEF762FC002205210920FEF78B
:1037F00069FC0920FEF75AFC002205210A20FEF789
:1038000061FC0A20FEF752FC05B0BDE8F08F000015
:103810000010024000100140000C0140000801406F
:10382000000021100D4810B50B4901600C494160A2
:1038300000214FF480428160C0E90312416181613F
:10384000C1610162FEF73EF9002803D0BDE81040D7
:10385000FDF74EBD10BD0000005400405008002090
:10386000A08601000F4810B50D4901604FF4827128
:10387000416000218160C1604FF400720161C0E9C4
:103880000512C1610162416281620A21C162FEF7D3
:1038900072FF002803D0BDE81040FDF729BD10BD20
:1038A00000380040A408002010B58EB00024079412
:1038B000089409940A940B941C2168460C94FCF714
:1038C000A6FC1E484FF08041C0E900144FF6FF717E
:1038D000C0E9024104618461FFF79CF808B1FDF77B
:1038E00007FD4FF48050079007A91448FFF7CCF864
:1038F00008B1FDF7FDFC1148FFF78DFA08B1FDF79F
:10390000F7FC0B940BA90D480C94FFF75BF808B17A
:10391000FDF7EEFC602000904FF4FA40CDE9010481
:103920000022694605480494FFF70DFA08B1FDF737
:10393000DFFC0248FFF7D6F90EB010BDFC080020EE
:103940000C4810B50A4901604FF41651416000213E
:1039500081600C22C160C0E904128161C161FFF77E
:1039600023FB002803D0BDE81040FDF7C1BC10BD0B
:10397000003801403C090020FEE770470907090EA6
:10398000002806DA00F00F0000F1E02080F8141D96
:10399000704700F1E02080F8001470472DE9F041F5
:1039A000604E174686B00C460546326812E0F16854
:1039B000491CF16003782A2B08D02C2B09D173689D
:1039C00042F823107168491C716002E0B168491C1B
:1039D000B160401C01780029E9D100207060B0601E
:1039E000F060032250A1E81CFCF71CFC90B10322FC
:1039F0004EA1E81CFCF716FC002808D1306804F141
:103A000038031A1F80694AA12844FCF71BFC06B042
:103A1000BDE8F08104F11001081FCDE90001306814
:103A200004F10803221D006843A12844FCF70AFCA6
:103A30003068224644A140682844FCF703FC04F1A6
:103A40001C000090306804F118031A1F80683FA121
:103A50002844FCF7F7FB306804F120023AA1C06863
:103A60002844FCF7EFFB04F12C000090306804F1CF
:103A700028031A1F006938A12844FCF7E3FB3068CB
:103A800004F1300230A140692844FCF7DBFB04F16B
:103A90004C000090306804F148031A1F006A31A1FD
:103AA0002844FCF7CFFB20785628B0D00DF1080849
:103AB000CDF80080306804AB03AA806823A12844B5
:103AC000FCF7C0FB2A4904980624484390FBF4F114
:103AD000284A039804AB504301EBC010029903AA93
:103AE00001EB8101490091FBF4F108443860CDF805
:103AF0000080306818A100692844FCF7A3FB1C492A
:103B000004981C4A484390FBF4F10398504301EB9E
:103B1000C010029901EB8101490091FBF4F10844C6
:103B2000786074E704000020524D4300565447006B
:103B30002533642E25326400253264253264253213
:103B4000642E2532640000002563000025326425C0
:103B500032642E25356400002533642532642E2519
:103B6000356400002532642532642532640000008B
:103B700040420F002D31010038B50B46009204463B
:103B80000022802100F008F8002804D0606D40F089
:103B900020006065032038BD2DE9F0411D46174621
:103BA0000E460446DDF8188035E0681C33D02DB190
:103BB000FDF782FFA0EB0800A8422CD320684168E3
:103BC00021F0E00141606068B0F5827F0BD1A06810
:103BD000B0F5004F02D0B0F5806F04D120680168C5
:103BE00021F040010160A06AB0F5005F0AD12068B1
:103BF00001684DF6FF72114001602068016841F4D0
:103C000000510160012084F85100002084F8500028
:103C10000320BDE8F0812068806836EA000004D007
:103C20000020B842C1D10020F3E70120F9E70000ED
:103C30000EB5344E002406F108083460C8F8004080
:103C40007460314FDFF8C4904FF0FF3BA6F13405AC
:103C5000C8F804407C60386840F0010038602C49A6
:103C6000C82201F1C800FCF7B9FA7868A8606C7046
:103C700000235A461946E86A03F05AFA214A2349B2
:103C80000832A1F1C800FFF789FE99F80000562814
:103C90002DD0306828B31B491A480831FDF78EFA39
:103CA0001C49824688421CDA184851465830006840
:103CB000FCF7FAFB15495831086008465146406840
:103CC000FCF7F2FB114905225831012348600F48E7
:103CD000082158308DE807000022A0210E48FEF789
:103CE000A1F8D8F800103160D8F804007060002303
:103CF0001A461946E86A03F015FBA86903F02CF987
:103D0000A8E7000048000020001000E0EC070020B9
:103D10005C060020CDCC4C3E500800200EB53F4D37
:103D20003F4E404C00274FF004084FF005090A2091
:103D300001F064FC04212846FDF7B0FE0028E0787D
:103D400060D020F00100E07002212846FDF7A6FEB9
:103D50000028E07859D020F00200E07010212846B9
:103D6000FDF79CFE0028E07852D020F00400E070BF
:103D700008212846FDF792FE0028E0784BD020F07D
:103D80000800E070C0B2C1070ED0E16842F21072C4
:103D9000A1F51C511039E160914202DA4FF6FF7132
:103DA000E1604FF080425163810704D51D49091D30
:103DB0004A78521C4A7040070AD5194A7760121D8A
:103DC0008DE8040301230422A0211748FEF72AF8F6
:103DD000E078000708D537608DE840030123002212
:103DE000A0211148FEF71EF80E4900231A46C91CEF
:103DF000606A03F097FA0A2001F000FCE06903F022
:103E0000ABF894E740F001009DE740F00200A4E722
:103E100040F00400ABE740F00800B2E700080140C2
:103E20004408002014000020500800204FF47A704D
:103E300001F0E4FB4FF6FF7423460B2214491548AA
:103E4000FFF786F9124923460B220B311148FFF781
:103E50007FF90F4923460B2216310E48FFF778F9F8
:103E60000B4923460B2221310A48FFF771F9084913
:103E700023460E220E390748FFF76AF90122064948
:103E80000448FFF703F9012001F0B8FBFBE700004D
:103E9000829100083C090020140000201FB51D4835
:103EA000016841F08071016003F05CFB1A490390E6
:103EB000002048701948052208218DE807000123D9
:103EC0000022A0211648FDF79DFE134C4FF0FF3550
:103ED000241F642103A802F053FF00232A46194639
:103EE000E06A03F025F90F4802F022F8E0780A4B67
:103EF0000A4A0090A2F1580103F1380001F086FE51
:103F0000084802F0A1F800231A461946E06A03F0B7
:103F100009FADEE7FCED00E018000020440800206C
:103F200050080020D0050020054C4FF47A75054854
:103F3000FDF78BFAA060284601F060FBF7E7000070
:103F400044080020A005002010B5502080F31188FF
:103F5000BFF34F8FBFF36F8F03F00AFB18B1044913
:103F60004FF080500860002080F3118810BD0000E1
:103F700004ED00E030B593B028216846FCF747F91E
:103F800014210AA8FCF743F9002501200F9510958C
:103F90001195010412958DE8230004904FF4E01070
:103FA000CDE90810022407946846FEF75FFA00B1D5
:103FB000FEE70AA90F2081E831004FF4E060CDE967
:103FC0000D0502210AA8FEF725F900B1FEE74FF41E
:103FD000004011900F940FA8FEF7A6F8002800D01B
:103FE000FEE713B030BD00000D48016841F001014B
:103FF000016041680B4A1140416001680A4A114062
:104000000160016821F480210160416821F4FE0112
:1040100041604FF41F0181600449C003086070478C
:10402000001002400000FFF8FFFFF6FE08ED00E080
:104030000148FEF7A3BD00007C090020F0B502682E
:10404000164B174C174D4FF08047984205D0B84299
:1040500003D0A04201D0A84203D122F070064A68E2
:104060003243984205D0B84203D0A04201D0A842C2
:1040700003D122F44074CA68224322F080044A69C2
:10408000224302608A68C2620A688262984201D151
:104090000969016301214161F0BD0000002C01406C
:1040A000000400400008004010B50123046A8B4062
:1040B0009C430462036A8A401343036210BD10B537
:1040C000846842EA032224F47F440A432243826044
:1040D00010BD826822F070020A4342F0070181603D
:1040E0007047000030B5026A22F001020262026AE3
:1040F0004368846924F073050C682C4322F00205A0
:104100008A682A430A4DA8420BD122F00805CA68E2
:1041100023F440732A434D6922F004021D438B6946
:104120002B434360846149684163026230BD0000F3
:10413000002C014030B5026A22F010020262026ACD
:10414000436884690D6824F4E64444EA05248D68D4
:1041500022F0200242EA05120B4DA8420ED1CD6892
:1041600022F0800242EA05124D6923F4406343EADB
:1041700085038D6922F0400243EA85034360846130
:1041800049688163026230BD002C014030B5026A8B
:1041900022F480720262036A4268C46923F40073E5
:1041A00024F073050C682C438D6843EA05230C4DFD
:1041B000A8420ED1CD6823F4006343EA05234D697C
:1041C00022F4405242EA05128D6923F4806342EAE8
:1041D00005124260C4614968C163036230BD0000DA
:1041E000002C014030B5026A22F480520262046A57
:1041F0004268C3690D6823F4E64343EA05238D68EA
:1042000024F4005444EA0534064DA84204D14D6913
:1042100022F4804242EA85124260C3614968016427
:10422000046230BD002C014010B5036A046A24F01A
:1042300001040462846924F0F00444EA021423F0C7
:104240000A020A438461026210BD10B5036A23F0BA
:10425000100303628369046A23F4704343EA023261
:1042600024F0A00343EA01118261016210BD10B580
:10427000406A0021C185C184FEF70DFE10BD0168B2
:10428000CA6822F49072CA6001684A6922F0010289
:104290004A61202180F83A10704710B590F83A1022
:1042A000222901D0022010BD8168B1F5805F11D0B4
:1042B0000169002901681FD0496801F07F03816A04
:1042C0004A1C82620B70C18D491E0904090CC1850C
:1042D00018D02BE00269816A002A0268526805D072
:1042E000D2B20A80816A491C8162ECE7C2F30802FB
:1042F0000A80816A891CF7E74A68816A4B1C8362DD
:104300000A70E0E70168CA6822F02002CA6001680A
:10431000CA6822F48072CA6001684A6922F0010208
:104320004A61202180F83A10FEF7DAFE002010BD25
:104330002DE9F041044600680169E26821F440512A
:10434000114301612169A06808436169084321683C
:10435000CA6841F20C639A430243CA60206841690B
:10436000A26921F44071114341614C4920686425E0
:10437000322688423CD1FEF733F800EBC00101EB56
:10438000001061688900B0FBF1F7FEF729F800EB37
:10439000C00101EB00106168B0468900B0FBF1F08C
:1043A000B0FBF5F06FF01801484307EB800106EB16
:1043B0000110B0FBF5F000F0F006FEF711F800EB8D
:1043C000C00101EB001061688900B0FBF1F0B0FBA7
:1043D000F5F006EB0016FEF703F800EBC00101EB69
:1043E000001061688900B0FBF1F7FDF7F9FF3BE0D1
:1043F000FDF7E6FF00EBC00101EB001061688900EA
:10440000B0FBF1F7FDF7DCFF00EBC00101EB0010A2
:104410006168B0468900B0FBF1F0B0FBF5F06FF0D9
:104420001801484307EB800106EB0110B0FBF5F0E3
:1044300000F0F006FDF7C4FF00EBC00101EB001037
:1044400061688900B0FBF1F0B0FBF5F006EB0016F7
:10445000FDF7B6FF00EBC00101EB001061688900B9
:10446000B0FBF1F7FDF7ACFF00EBC00101EB001072
:1044700061688900B0FBF1F0B0FBF5F06FF0180156
:10448000484307EB800108EB0110B0FBF5F0216811
:1044900000F00F0030448860BDE8F0810038014032
:1044A00090F83910212901D0022070478168B1F5B8
:1044B000805F016A0BD04A1C026202680978516071
:1044C000C18C491E0904090CC1840ED017E009886B
:1044D0000268C1F30801516001690029016A02D034
:1044E000491C0162ECE7891CFBE70168CA6822F0FD
:1044F0008002CA600068C16841F04001C1600020CC
:1045000070472DE9F041984617460E460446069D31
:104510001DE0681C1BD02DB1FDF7CEFAA0EB080002
:10452000A84214D92068C16821F4D071C160206804
:10453000416921F001014161202084F8390084F8AB
:104540003A00002084F838000320BDE8F08120689C
:10455000006836EA000004D00020B842D9D000201C
:10456000F3E70120F9E700000148FEF795BC0000E1
:104570003C090020FEE700000FB4084B10B504A969
:1045800002AA039800F008FC044602A9002000F0EB
:104590009AFF204610BC5DF814FB0000C7540008C9
:1045A000490050EAC12018BF04204A0D18BF40F04E
:1045B000010040F2FF72B2EB515F08BF40F0020011
:1045C000012808BF052070472DE9F74F144694B025
:1045D0000021C4E902111599079121F00045C9494C
:1045E0008D4206DC1599C4E9000117B00020BDE832
:1045F000F08FC549DFF814A3A9423CDD0799C44EEA
:104600000029C44FC44A1599534619DDFCF783F8B5
:10461000554506D0C14AC24BFCF77DF8C4E90001FC
:104620000AE04FF0D352BE4BFCF775F832463B46DA
:10463000FCF771F8C4E9000117B00120BDE8F08F64
:10464000FBF7C8FF554506D0B44AB54BFBF7C2FF90
:10465000C4E900010AE04FF0D352B14BFBF7BAFFB7
:1046600032463B46FBF7B6FFC4E9000117B04FF0F6
:10467000FF30BDE8F08FAB49A942159978DB21F0F6
:10468000004183468846A84AA84BFCF74AF8002216
:10469000A74BFBF79FFFFCF7F7FC0990FCF722F90B
:1046A00006460F469C4A5346FCF73BF843465A469B
:1046B000FCF734F880468A46984A994B304639468A
:1046C000FCF72FF82A0D01250B9242465346FCF7C2
:1046D00025F8032DC4E9000139D00B98C1F30A5124
:1046E000401A05EB45111139814230DA9148C34631
:1046F000784400EB0510CDF80CA00C90D0E9002315
:1047000030463946FCF70DF802460B4604910690F8
:1047100058460399FBF7FFFF80468A4602460B4640
:1047200058460399FBF7F7FF049B069AFBF7F3FF44
:1047300083460C9803913946D0E902233046FBF7B3
:10474000F0FF5A46039BFBF7E6FF6D1CBDE7079899
:104750000028A2BF099817B0BDE8F08F616881F00A
:1047600000416160099817B04042BDE8F08FFFE753
:1047700084461598C1F31301C0F30A50A0F2F53036
:104780004FEA601800F01F06C6F1200013900020C9
:104790000690079041F4801E05206D4676B1664A6A
:1047A00008EB00017A4452F8213002EB8101B3405A
:1047B0004A68139922FA01F1194305E05F4908EBB1
:1047C0000002794451F82210A1FB0E27A1FB0C1323
:1047D0001A449A4234BF0123002303EB070A05EB76
:1047E0008003D3E901B70F448F4234BF0121002178
:1047F00093448B4411B1934502D903E0934501D210
:10480000012100E00021C3E901B7514445F820101F
:10481000011EA0F10100C1DC0298059F00F10050CB
:10482000800F12900298DDE903568000FCF75AF8D9
:10483000834628460D91FCF71AFC6FF01D02FCF729
:10484000FFFBCDE90E013046FCF711FC6FF03D0295
:10485000FCF7F6FB80468A463846FCF708FC6FF00A
:104860005D02FCF7EDFB0746424653461191FBF70C
:10487000B1FEDDE90E23FBF7ADFE5A460D9BFBF7BB
:10488000A9FE00250E465A4628460D9BFBF743FF1E
:10489000DDE90E23FBF73FFF42465346FBF73BFFA4
:1048A0003A46119BFBF73AFFDFF898A0244A53469B
:1048B000FBF737FF07468846234A244B31462846F4
:1048C000FBF72FFF3A464346FBF784FE0746884630
:1048D0004FF0A842534631462846FBF722FF3A469E
:1048E0004346FBF777FE159A12F0004F04D0129A58
:1048F00081F0004152421292C4E90001129817B0AF
:10490000BDE8F08FFB21E93F7CD90240FB21F93F54
:104910007370032E8A19A33B000040543163621A5E
:1049200061B4D03DFB21394183C8C96D305FE43F9C
:104930000000E03FB44B0000304B0000124B000081
:10494000182D4454FB21F93D3326A611460B113C8A
:104950002DE9FF4D21F0004807460C46B8F1795F7C
:1049600008DAFCF791FB002801BF0020324904B0AF
:10497000BDE8F08D3A46234610461946FBF7D1FEB6
:10498000054602462D480E460B460621784400F0A7
:104990005DF82A463346FBF7C4FEDDE90223824672
:1049A0008B4638462146FBF7BCFE04460F4652466E
:1049B0005B4628463146FBF7B4FE22463B46FBF7F2
:1049C000AAFE07468A464FF0FF3228463146FCF7DA
:1049D00037FB1B4A90450ADA3A465346FBF79BFEE3
:1049E00004B00022BDE8F04D134BFBF797BE154A0B
:1049F0004245A8BFA8F500154FF00004B8BF124DFE
:104A000022462B46FBF787FE0646884622462B4663
:104A100000200949FBF77FFE04460D463A465346FF
:104A200030464146FBF777FE04B022462B46BDE8F0
:104A3000F04DFBF773BE00000000F03FE8480000B7
:104A40003333D33F0000E93F0000D23F2DE9F0416E
:104A50004F1E00EBC7010446D1E9000115461E4672
:104A600037F006020DD02A463346FBF75AFE7F1E6A
:104A700004EBC703D3E90023FBF7ACFD37F00602D4
:104A8000F1D1022F25D0042F13D0062F18BFBDE877
:104A9000F0812A463346FBF744FED4E90A23FBF7AC
:104AA00099FD2A463346FBF73CFED4E90823FBF781
:104AB00091FD2A463346FBF734FED4E90623FBF783
:104AC00089FD2A463346FBF72CFED4E90423FBF785
:104AD00081FD2A463346FBF724FED4E90223FBF787
:104AE00079FD2A463346FBF71CFED4E90023BDE8D6
:104AF000F041FBF76FBD00002DE9FF4D054621F0A9
:104B0000004084B00C46B0F1795F0BDA2846FFF71D
:104B100047FD042808BF00F06FF8284608B021467A
:104B2000BDE8F08D2A460B461046FBF7FAFD064617
:104B30000F462A462346FBF7F4FD804626488A4660
:104B400032463B4605217844FFF780FF83461098A4
:104B5000029160B3214A224B40465146FBF7E1FDEA
:104B6000CDE900015A4640465146029BFBF7D9FD6C
:104B700082468846DDE906014FF0FF32FCF760FA15
:104B800052464346FBF7C7FD32463B46FBF7C9FD9D
:104B9000DDE90623FBF7BFFDDDE90023FBF7BBFDE5
:104BA00008B02A462346BDE8F04DFBF7B7BD0B46DB
:104BB0005A4630463946FBF7B4FD084A084BFBF726
:104BC00009FD42465346FBF7ACFD08B02A46234692
:104BD000BDE8F04DFBF7FEBC264800004955555591
:104BE0005555C5BF0122FCF72BBA002213461046CB
:104BF0001146FBF708BE0000024A00201107FCF72F
:104C00001FBA000001FDFFFF02E008C8121F08C123
:104C1000002AFAD170477047002001E001C1121F3D
:104C2000002AFBD17047000001490860704700006E
:104C3000C40000202DE9FF5FDDE90220010DDDF851
:104C400038B0024318D044F61050A1F2FF3141436E
:104C50000D140F98012820D0A5EB0B00401C5FEA33
:104C6000000A4FF00004474EDFF81C91A046504662
:104C700016D5CAF1000728E00F98012443A20128A5
:104C800008D0002100980F9BC0E90021C0E9024331
:104C9000BDE8FF9F6FEA0B01F4E7CBF10000DEE710
:104CA000074612E0F80707D02246334640464946F9
:104CB000FBF737FD804689462246334610461946A3
:104CC000FBF72FFD04460E467F10002FEAD1DDE9E9
:104CD0000201BAF1000F42464B4602DAFBF721FD12
:104CE00001E0FBF790FD04460E460022284BFBF73F
:104CF000E1FF03D84FF0FF30014607E00022254BCB
:104D000020463146FBF766FCFBF7BBFF102409E0A9
:104D1000002C0ADB0A220023FBF73AFE019B30320B
:104D20001A55641E50EA0102F2D1641C019AC4F1C2
:104D3000110314440F9A012A03D0012208430DD114
:104D40000AE0084304D000204FF0110B0F9080E7D9
:104D5000A3EB0B056D1E0DE05B4504DD4FF000027B
:104D600005F1010504E003DA4FF00002A5F10105A9
:104D7000002AECD000980F99C0E90231C0E9004543
:104D800086E70000000024400000F03F30000000F3
:104D90000000F0430000E03F2DE9FF4F95B09B4637
:104DA0008946064600250FE2252877D100242746AC
:104DB000F84A0121059400E0044316F8013F203B26
:104DC00001FA03F01042F7D130782A2811D06FF0A1
:104DD0002F033078A0F13002092A16D8059A44F042
:104DE000020402EB820203EB42021044761C05909F
:104DF000EFE759F8042B0592002A03DA504244F4F5
:104E00000054059044F00204761C30782E2816D108
:104E100016F8010F44F004042A280DD06FF02F0279
:104E20003078A0F13003092B09D807EB870302EB98
:104E30004303C718761CF3E759F8047B761C3078D7
:104E40006C280FD006DC4C2817D068280DD06A28B3
:104E500014D104E0742810D07A280FD10DE044F466
:104E600000140AE044F4801401E044F44014727821
:104E7000824202D104F58014761C761C30786628B4
:104E80000BD013DC582877D009DC002875D04528D2
:104E9000F6D04628F4D047281AD19DE118E06328BF
:104EA00035D0642879D0652812D195E1702873D067
:104EB00008DC6728F1D069286FD06E280DD06F28E4
:104EC00006D1B5E073282CD0752875D0782874D019
:104ED0005A46179990476D1C75E1C4F30250022899
:104EE00009D003280DD0D9F8001004280DD00D608A
:104EF00009F1040967E1D9F80010EA17C1E9005285
:104F0000F6E7D9F800100D80F2E70D70F0E719F818
:104F1000041B8DF8001000208DF80100EA460120E6
:104F200003E059F804AB4FF0FF3061074FF0000188
:104F300002D40DE008F101018846B9420FDA80453C
:104F4000F8DB1AF808100029F4D108E008F1010193
:104F500088468142FADB1AF808100029F6D1059834
:104F60005B46A0EB080721463846179A00F094FAF2
:104F7000284400EB080507E04DE029E10DE01AF8B0
:104F8000010B5A4617999047B8F10108F7D25B46D2
:104F900021463846179A13E142E00A220092C4F3F0
:104FA00002524FF0000A022A08D059F804CB032A13
:104FB0004FEAEC710AD00DE029E02AE009F107017F
:104FC00021F00702F2E802C1914609E00FFA8CFCD9
:104FD0004FEAEC71042A03D14FFA8CFC4FEAEC71D2
:104FE000002907DA0A460021DCF1000C61EB02011E
:104FF0002D2202E0220504D52B228DF80420012267
:1050000003E0E20701D02022F7E7904659E00A21A9
:1050100002E010220DE010214FF0000A00910BE099
:1050200010224FF0000A44F004040827009203E025
:1050300008224FF0000A0092C4F30252022A05D05F
:1050400059F804CB0021032A08D009E009F107012F
:1050500021F00702F2E802C1914605E01FFA8CFC3C
:10506000042A01D10CF0FF0C4FF00008220728D5CC
:10507000702806D0009B83F0100353EA0A0305D082
:105080000EE040228DF80420012208E05CEA0102D3
:1050900006D030228DF804208DF8050002229046BB
:1050A000009B83F0080353EA0A030AD15CEA010279
:1050B00001D1620705D530228DF804204FF0010898
:1050C0007F1E582804D034A003900EA802900DE053
:1050D00036A0F9E753466046009AFBF759FC844630
:1050E0000398825C0298401E029002705CEA010004
:1050F000F0D1029806A9081A00F1200A600702D52B
:1051000024F4803400E00127574502DDA7EB0A00B4
:1051100000E0002000EB0A01009005984144401A8D
:105120000590E00306D45B462146179A059800F0E7
:10513000B3F90544002706E001A85A46C05D179957
:1051400090476D1C7F1C4745F6DBE0030CD55B46A2
:105150002146179A059800F09FF9054404E0302095
:105160005A46179990476D1C0099481E00900029D7
:10517000F5DC08E0029802995A460078491C029131
:10518000179990476D1CBAF10001AAF1010AF1DCF0
:1051900065E10000092801003031323334353637FB
:1051A0003839616263646566000000003031323373
:1051B0003435363738394142434445460000000013
:1051C00000F058F90544761C307800287FF4ECADE7
:1051D00019B02846BDE8F08F620700D4062709F110
:1051E000070222F0070CFCE80223E14603F0004826
:1051F0005FEA080C02D00FF2702C0DE05FEA045C4D
:1052000002D50FF2682C07E05FEAC47C02D00FF2EF
:10521000602C01E0AFF2700C4FF0FF3823F0004338
:10522000CDF850C065280CD006DC452809D04628AA
:105230001DD047283DD13DE0662818D067287ED193
:1052400038E00021112F01DB112000E0781CCDE9AE
:10525000000106A90EA8FFF7EDFCDDE90F010E9A8B
:1052600003910021009207F1010A04914DE04FF0F3
:1052700000400097CDE9011006A90EA8FFF7DAFC5F
:10528000DDE90F0203920E9B11990022DDF80CA0BC
:105290000093049211B9791C00EB010AB7EB0A00E4
:1052A00004D4C0F1FF3007F1010A0490AAEB070013
:1052B000019044E0012F00DA01270021112F01DDC8
:1052C000112000E03846CDE9000106A90EA8FFF73D
:1052D000B1FCDDE90F010E9A0391002104910092C7
:1052E000BA4621070CD40399514500DA8A46BAF12F
:1052F000010F05DD009AAAF10101515C302908D0A7
:10530000B84202DA10F1040F06DA0121CDE90110EA
:1053100015E0AAF10101E9E7002805DC0499014440
:105320000491AAEB000102E0411C514500DD8A46D0
:105330000499401A401C01904FF000400290200751
:1053400004D40198504501DBCDF8048000208DF88D
:105350004F0002980DF14F07B0F1004F25D02B20E0
:105360000E9002984FF0020800280CDA404202909A
:105370002D200E9007E00A210298FBF7F3FA303156
:10538000029007F8011DB8F10001A8F10108F2DC54
:1053900002980028EFD1791E0E980870307800F03E
:1053A000200040F0450007F8020D12A8C01B00F1D4
:1053B00007081498007800B1012000EB0A01019859
:1053C00001EBE07105984144401A401E0590E0034E
:1053D00006D45B462146179A059800F05DF805440F
:1053E0001498007818B15A46179990476D1CE0033D
:1053F00024D55B462146179A059800F04DF80544E0
:105400001CE00498002807DBDDE90301884203DD86
:105410000098405C179901E0179930205A46904750
:10542000049805F10105401C04900198401E01906C
:1054300004D12E205A46179990476D1CBAF10001ED
:10544000AAF1010ADDDC05E017F8010B5A461799AD
:1054500090476D1CB8F10001A8F10108F4DC5B462F
:105460002146179A0598ABE62D0000002B0000009E
:10547000200000002DE9F041044600251E46174695
:10548000880404D405E039462020B0476D1C641E12
:10549000F9D52846BDE8F0812DE9F0410446002504
:1054A0001E469046C80301D5302700E02027880417
:1054B00004D505E041463846B0476D1C641EF9D559
:1054C0002846BDE8F0810A68531C0B6010707047D5
:1054D00000B5244B21F0004287B09A42DCBF002285
:1054E000134629DD204B9A4208D140B94FF0010004
:1054F000FFF79AFBFFF779FB07B000BD03DBFFF76F
:1055000071FB07B000BD02AAFFF75EF810F00301BF
:1055100004BF0DF1080C9CE80F000DD001200129FB
:105520000ED0022914D00DF1080C00909CE80F0059
:10553000FFF7E2FA07B000BDFFF70AFA07B000BDB7
:105540000DF1080C00909CE80F00FFF7D5FA05E07C
:105550000DF1080C9CE80F00FFF7FAF907B081F095
:10556000004100BDFB21E93F0000F07FFCF72EFD6C
:10557000FEF700FDFEF7C0F8FEF774F9FEF7E0F95C
:10558000FEF750F9FEF790F9FEF712F801225103E9
:105590001048FCF78CFA104B104A1149114800F0E2
:1055A0008FFD104801F0DBF800210E4801F0E7F80C
:1055B00000210D48FDF74CFC4FF080414FF6FF7085
:1055C00048630A48FCF7AEF8FEF732F800F01DF821
:1055D000FEE7000000100140456B0008116800085C
:1055E0006C920008D0050020FC080020A0050020D7
:1055F00001460020842900D0C81C704710B500B9AE
:10560000012001F097FB002010BD10B501F070FCE7
:10561000002010BD03C8002201F066BD10B50129AD
:1056200001D0002010BD03220021012001F05CFD0B
:10563000040004D000231A46194601F073FE2046E8
:1056400010BD3EB504460D46B0F90800FFF7D0FF87
:1056500002A9CDE90001208A2B4682B2D4E90010CC
:1056600001F046FF012801D000203EBD02983EBD5A
:105670002DE9F041184C0F460546E6682068001DEC
:1056800001F077FA38B9206890F82C100120884092
:10569000216981432161681C07D137B12168BDE8C8
:1056A000F0410E48091D01F09CBA20683544B5420E
:1056B0004560216805D2A06BBDE8F041091D01F0ED
:1056C00078BA606B091D01F074FAA06A854200D2B5
:1056D000A562BDE8F081000064000020A80A002057
:1056E0002DE9F041054601F089FA2E4CA068401CD6
:1056F000A06020682C4F10B1606940B32DE0256098
:10570000A068012829D1002606EB860007EB80005F
:1057100001F041FA761C072EF6D323488C3001F0B5
:105720003AFA2148A03001F036FA1F48B43001F0AF
:1057300032FA1D48C83001F02EFA1B48DC3001F067
:105740002AFA19488C3060631430A06305E02068A1
:10575000E96AC06A884200D82560606A401C6062BD
:10576000E96A0120226988401043206101EB810031
:1057700007EB8000291D01F034FA01F05FFA60693F
:1057800000280CD02068E96AC06A884207D207491D
:105790004FF080500860BFF34F8FBFF36F8FBDE8AD
:1057A000F081000064000020CC09002004ED00E03E
:1057B00070B5114E114C17E001F026FC3068B8B1FD
:1057C00001F0C0FF01F01AFAF068C568281D01F069
:1057D000D0F9A068401EA0606068401E606001F0C3
:1057E0002DFA284600F055F860680028E4D170BD15
:1057F00001F0A8FFF8E70000940A002064000020F0
:1058000030B4026C0B46002A0BD0C1681144C16051
:105810004468A14201D30168C16030BC1846FAF760
:10582000DDBC30BC70472DE9F041856B174604465E
:105830000026026C82B1C7B1E068FAF7CFFCE168DC
:10584000206C091AE1602268914202D26168081A4C
:10585000E060022F16D017E02068A8B9606801F058
:10586000EBFE0646002060600EE0A068FAF7B6FC8A
:10587000216CA0680844A0606168884204D3206855
:10588000A06001E005B16D1E6D1CA5633046BDE84A
:10589000F08110B50446006B01F0E4F92046BDE844
:1058A000104001F0DFB900000F4841F28831420793
:1058B00005D0C01D0C4A20F00700821A891A0B4A35
:1058C00000230144C2E900030839103A21F007011E
:1058D00011604B600B600B1AC0E9001393604FF02E
:1058E00000405360D0607047BC0A0020B000002028
:1058F000074C4FF08056074DFFF75AFF20680128EC
:10590000FAD92E60BFF34F8FBFF36F8FF4E700001B
:10591000CC09002004ED00E02DE9F0479A46DDE9CE
:10592000098481466FF00303206B03EB820210446D
:10593000089D20F00706700707D0502080F31188DB
:10594000BFF34F8FBFF36F8FFEE723180A5C83F816
:1059500034200A5C12B1401C1028F6D3002784F8CA
:105960004370072D00D30625E562C4E91157201DB9
:1059700001F01CF904F1180001F018F92461C5F1D7
:1059800007006462A061E76484F85070524649469B
:10599000304600F029F92060B8F1000F01D0C8F8B6
:1059A0000040BDE8F087000030B5114900E0114625
:1059B0000A688242FBD34B685C18844203D140687A
:1059C00018444860084643681C18944209D1084CA2
:1059D000103C2468A24209D052681A4442600A6806
:1059E00012680260814200D0086030BD0460F9E7AF
:1059F000B000002010B5044601F000F9A06B28B1FA
:105A00005FF0000401F01AF9204610BD0124F9E707
:105A10000648416B096829B1416BC968C968496882
:105A2000816270474FF0FF31FAE700006400002008
:105A300008484068401C4FF0500080F3118804D0A3
:105A4000BFF34F8FBFF36F8FFEE7BFF34F8FBFF3EF
:105A50006F8FFEE7B8000020002150B10A4B426969
:105A60009A420FD1806AA3F1280290420AD040B135
:105A700008E0502080F31188BFF34F8FBFF36F8F82
:105A8000FEE7012108467047A80A00202DE9F041F1
:105A9000044601F0B3F894F9455004F1240609E0F6
:105AA000606A48B1304601F013FE08B101F0AEF96A
:105AB0006D1E6DB2002DF3DC4FF0FF3684F84560AB
:105AC00001F0BCF801F09AF894F9445004F1100781
:105AD00009E0206948B1384601F0FAFD08B101F04B
