:020000040800F2
:10000000F027002099010008BB3900086933000877
:10001000B9390008F9110008614700080000000024
:1000200000000000000000000000000001010008C6
:1000300033120008000000004501000809400008D4
:10004000B3010008B3010008B3010008B3010008C0
:10005000B3010008B3010008B301000859120008F9
:100060005F120008651200086B120008B301000857
:10007000B3010008B3010008B3010008FD11000836
:10008000B3010008B301000831110008B3010008F2
:10009000B3010008B3010008B3010008B301000870
:1000A000B3010008F1400008B3010008B3010008E3
:1000B000B3010008B3010008B3010008B301000850
:1000C000B3010008B3010008B3010008B301000840
:1000D000B301000831470008B3010008B30100086C
:1000E000B3010008B3010008B3010008DFF80CD029
:1000F00000F018FE004800475D5B0008F027002074
:10010000224B19680868B0E8F00F80F30988BFF344
:100110006F8F4FF0000080F311884EF00D0E704786
:100120000000000006480068006880F3088862B696
:1001300061B6BFF34F8FBFF36F8F00DF00BF00BF0B
:1001400008ED00E0EFF30980BFF36F8F0F4B1A68E3
:1001500020E9F00F106008B54FF0500080F31188CF
:10016000BFF34F8FBFF36F8F07F0C8FB4FF0000056
:1001700080F31188BDE8084019680868B0E8F00FFE
:1001800080F30988BFF36F8F704700BF7C000020A9
:10019000EFF3058070470000064880470648004797
:1001A000FEE7FEE7FEE7FEE7FEE7FEE7FEE7FEE727
:1001B000FEE7FEE7A9400008ED000008202A04DB66
:1001C000203A21FA02F00021704721FA02F3D040D0
:1001D000C2F12002914008431946704740EA0103EA
:1001E0009B0703D009E008C9121F08C0042AFAD2ED
:1001F00003E011F8013B00F8013B521EF9D27047B1
:10020000D2B201E000F8012B491EFBD27047002258
:10021000F6E710B513460A4604461946FFF7F0FF05
:10022000204610BD30B505462A460B4612F8010B94
:1002300013F8014B08B1A042F8D01CB1002802D03D
:100240006D1CF1E7284630BD0FB400B58DB010A984
:1002500009900B9000914FF0FF300A9000200C9015
:1002600005480690054807906A4609A80F9900F0CE
:1002700015FC0DB05DF814FBB90A0008D70A000898
:100280002DE9FF5F1D464FF0FF3BD5E90146914642
:100290005F464FF00008A9697F1C01988847296ACA
:1002A000824688470028F6D1BAF1FF3F0CD024F4EB
:1002B000C064002E19DD600614D5BAF12B0F09D0E9
:1002C000BAF12D0F0ED103E0584604B0BDE8F09FFF
:1002D00044F48064A9697F1C01988847761E824691
:1002E000002E02DDBAF1300F03D0B9F1000F26D095
:1002F00032E0A969761E44F400747F1C0198884797
:100300008246002E05DDBAF1780F06D0BAF1580FFB
:1003100003D0B9F1000F10D01EE0B9F1000F02D0E8
:10032000B9F1100F18D1A969761E24F400747F1C4E
:10033000019888478246102002E0082000E00A2049
:10034000814609E008FB0908A969761E44F4007497
:100350007F1C019888478246002E05DD494650469D
:1003600000F088FB0028EDDAE96901988847A005CC
:1003700002D46FF00100A8E7E00725D1600613D58D
:10038000600502D5C8F1000000E0404629680A1D5A
:100390002A600968220501D5087015E0220701D5F9
:1003A000088011E008600FE02868011D29600068DE
:1003B000210502D580F8008006E0210702D5A0F8CB
:1003C000008001E0C0F8008038467EE72DE9FF5F3D
:1003D000D2E901A74FF00008916999461446DDF86B
:1003E00038B0464601988847054659EA0B0005D0C3
:1003F00009E0A169761C019888470546216A2846CC
:1004000088470028F5D1681C03D05FEACA7005D080
:1004100015E04FF0FF3004B0BDE8F09F2068011DEB
:100420002160D0F800800AE05FEACA7001D108F8C4
:10043000015BA169761C7F1E019888470546002F45
:100440001ADD681C18D0B9F1000F0DD0E81705EBC4
:10045000D060421120F01F0059F822102A1A012002
:1004600090400142E0D107E0BBF1000FDCD1216AEE
:10047000284688470028D7D0E16901988847BBF112
:10048000000F07D1002E05DD5FEACA7002D10021FE
:1004900088F80010A068B84203DDBBF1000F03D05C
:1004A00017B16FF00100B6E73046B4E7F0B480EA68
:1004B0000102D40F4200B2EB410F02D202460846BD
:1004C00011464A0042D0C30DDDB2C1F3C752AD1A86
:1004D000202D35DAC1F3160141F4000204B1524275
:1004E000C5F1200602FA06F12A411044B3EBD05FB1
:1004F00023D0C4B1012DA0EBC35009DCF0BC4FF0F8
:10050000004202EAC352DBB200F5000000F0FDBA7F
:10051000400000F1807000EBC350A0F1807040EA11
:10052000D170490009E0490841EAC071A0EBC3500D
:1005300000F50000400800EBC350F0BC00F0DCBA4E
:100540006142012202EB4101001BF6E7F0BC70475B
:1005500081F00041AAE780F00040A7E780EA0102AD
:1005600010B502F00043400022D04A001FD0010E17
:1005700001EB1261C0F35600C2F3560240F40000D2
:1005800042F40002A0FB022000047F39140400D0D2
:10059000401C50EA124001D44000491EC2B20C0671
:1005A00004EBD010401C4008802A02D003E0002059
:1005B00010BD20F00100002900DA0020184310BD12
:1005C000420005D0C0F3C7525242914201DC0020E4
:1005D000704700EBC15070472DE9FE4F804681EA1D
:1005E0000300C00F0C46009021F0004123F00045AD
:1005F000B8EB0200A94105D24046214690461C4670
:100600000B46024623F00040104347D0270DC7F3A6
:100610000A00C3F30A510290401A019040286BDA95
:10062000C3F3130040F4801B0098924620B10023CE
:10063000D2EB030A63EB0B0B01985946C0F1400261
:10064000504600F0F6F906460D4650465946019AC6
:1006500000F0FEF910EB08006141002487EA115216
:1006600084EAE7731A4340D0009A62B3019A012AE0
:100670004FEA075215DC001B61EB02014FF000420C
:1006800002EA0752CDE90042001C41F580113246D2
:100690002B4600F077FA03B0BDE8F08F40462146C4
:1006A000F9E7001B61EB0201001C41F58013001803
:1006B0005B412018A2F5001747EB030140EAD57013
:1006C000B6196D4111E06D084FEA360645EAC0756E
:1006D0004FEA0752001B61EB0201001C41F580113B
:1006E00049084FEA30000019514132462B4603B009
:1006F000BDE8F04F00F037BA009801224000002317
:10070000D0EB020263EBE073009821464FEAE074FD
:10071000B8EB000061EB0401E9E783F000435BE71D
:1007200081F0004158E72DE9FE4F81EA030404F00F
:10073000004421F0004100944FF0000B23F00043EF
:1007400050EA01045ED052EA03045BD0C3F30A54BA
:10075000C1F30A552C44A4F2F3340194A0FB0254D3
:10076000C1F3130141F48011C3F3130343F4801365
:1007700001FB024400FB034E840A970A44EA8154B9
:1007800047EA8357A4FB076802958D0A05FB078596
:100790004FEA932C04FB0C542705029D4FEA0658A0
:1007A00047EA1637B5EB08056EEB070C870E920E7D
:1007B00047EA811742EA8312A7FB0201B6EB0B015D
:1007C00064EB00042B0D43EA0C335E1844EB1C5021
:1007D000DA465146E7FB0201C5F313044FEA0B3337
:1007E00043EA14534FEA0432019C43EA0603A4F19E
:1007F0000C040294009CCDE900B400F0C3F903B0EE
:10080000BDE8F08F00200146F9E72DE9F04D81EABF
:10081000030404F0004B21F0004514464FF0000A99
:1008200023F0004150EA050220D054EA01021DD015
:10083000C5F30A570246C5F31303C1F31300C1F30E
:100840000A5640F4801543F48013A7EB0608101BEA
:10085000D64608F2FD3873EB050002D308F1010813
:1008600001E092185B41B8F1000F03DA0020014665
:10087000BDE8F08D00204FF48011064684460EE05E
:10088000171B73EB050705D3121B63EB0503064328
:100890004CEA010C49084FEA300092185B4150EADB
:1008A0000107EDD152EA030012D082EA040083EA84
:1008B0000501084305D0101BAB4106D201220023DD
:1008C00006E000224FF0004302E06FF001025310F7
:1008D0001AEB06004CEB085110EB0A0041EB0B0140
:1008E000BDE8F04D00F03FB996230022114600F01C
:1008F0000CB90EB5C10F80EAE0700844CA070021A8
:1009000040F233438DE80E000A460B4600F03AF9F8
:1009100003B000BD00F0004220F00040C10DC0F364
:10092000160040F400007F2901DA00207047962964
:1009300003DCC1F19601C84001E096398840002AE5
:10094000F4D04042704700F0004230F000400AD03E
:10095000C10D01F56071C0F3160042EA0151C208F1
:1009600040071143704700200146704701F00043E3
:1009700030B421F0004150EA010206D00A0DA2F580
:100980006072C1F31301002A02DC30BC0020704702
:10099000440F44EAC104C100E01830BC00EBC2506F
:1009A00000F0AAB830B50B460146002020220124F1
:1009B00009E021FA02F59D4205D303FA02F5491B2D
:1009C00004FA02F52844151EA2F10102F1DC30BD43
:1009D0002DE9F05F0546002092469B468846064674
:1009E000814640241BE02846414647462246FFF701
:1009F000E5FB53465A46C01A914110D3114618469A
:100A0000224600F016F82D1A67EB01084F462246E1
:100A10000120002100F00DF817EB00094E41201EC7
:100A2000A4F10104DFDC484631462A464346BDE8CE
:100A3000F09F202A04DB203A00FA02F100207047E0
:100A40009140C2F1200320FA03F31943904070470C
:100A5000202A06DBCB17203A41FA02F043EAE07382
:100A600006E041FA02F3D040C2F12002914008436F
:100A7000194670473A2800D2303820F02002412A27
:100A800001D3A2F13700884201D34FF0FF30704705
:100A9000026811441378016018467047D160044918
:100AA00051610449116200211161114600F052B9EF
:100AB000910A0008490D0008426842B1016811F826
:100AC000013B23B1521EC0E90012184670470121B4
:100AD000C160881E704742685AB1C368016843B953
:100AE00083688B4205D0491E521CC0E900120020C9
:100AF00070474FF0FF3070470029A8BF7047401C77
:100B0000490008BF20F00100704710B4B0FA80FC23
:100B100000FA0CF050EA010404BF10BC704749B160
:100B2000CCF1200421FA04F411FA0CF118BF0121D0
:100B300021430843A3EB0C01CB1D4FEA00614FEAB0
:100B4000102042BF002010BC704700EBC35010447F
:100B50000029A4BF10BC7047401C490008BF20F00A
:100B6000010010BC704710B5141E73F1000408DAC0
:100B7000401C41F1000192185B411A4301D120F061
:100B8000010010BD2DE9F04D92469B4611B1B1FA1E
:100B900081F202E0B0FA80F220329046FFF749FF7E
:100BA00004460F4640EA0A0041EA0B0153465A4602
:100BB000084313D0114653EA010019D0C8F140028E
:100BC0005046FFF7FBFA05460E4650465946424648
:100BD000FFF72FFF084305D0012004E020463946E7
:100BE000BDE8F08D0020054346EAE0762C4337430C
:100BF0000A986305E40AA0EB08000022FD0A44EA13
:100C000047540A3002D500200146E9E701051019D2
:100C10006941DDE9084500196941BDE8F04DA2E7E9
:100C20002DE9F04D00231A461B1A8A4103DB0020F0
:100C30000146BDE8F08DC1F30A52C1F3130141F43E
:100C400080154FF0000BD10702D100186D41521EE4
:100C50000027044640F2FF11384601EB620A3E4687
:100C60008046024600204FF48011FFF7A7FAC21910
:100C70007141BB1846EB0100B4EB030C75EB000CA3
:100C800004D3E41A65EB000517460E46241908F153
:100C900001006D4180463428E3DDF91946EB06007A
:100CA000091BA84103D24FF0FF32134601E0002296
:100CB00013461BEB070046EB0A51BDE8F04DFFF76A
:100CC00052BFC1F30A52C1F3130140F2FF3341F4A2
:100CD00080119A4202DA00200146704740F2334305
:100CE0009A42A2F2334202DC5242FFF767BAFFF7A0
:100CF000A0BE000030B5041E71F1000404DB4FF00B
:100D00000044404264EB0101141E73F1000405DB52
:100D10001C464FF00043524263EB0403994208BF64
:100D2000904230BD064C074D06E0E06840F00103FC
:100D300094E8070098471034AC42F6D3FFF7DAF98D
:100D40004494000864940008C0B24FF4F05100F0DD
:100D5000DBB900002DE9F34F8BB04FF0000801F133
:100D60000C000C464FF0010B46460DF1080A0190AD
:100D70006269012101989047051E2DD0252D2CD0A8
:100D8000216A8847C0B16269012101989047216AB0
:100D900088470028F7D1411E62690198904700E01A
:100DA000761CA1690B988847216A88470028F7D1EB
:100DB000E1690B988847DBE7A1690B9888470746EC
:100DC000A84201D1761CD3E7E1690B9888477F1CC4
:100DD00002D1B8F1000F6FD046E1002762693D46AD
:100DE0003946019890472A2804D162690121019867
:100DF00090470125DFF884926269012101989047AC
:100E0000A0F130010A290AD24F45E5DC07EB870142
:100E100000EB4107303FDFD445F01005ECE7E90671
:100E200001D46FF000476C280AD04C2814D06828F1
:100E300015D06A280DD074281CD07A281AD01DE04D
:100E400062690121019890476C2802D045F00405A1
:100E500014E045F002050DE045F020050AE0626966
:100E6000012101989047682802D045F0080505E067
:100E700045F400656269012101989047C4E9015772
:100E800065283DD019DC58287AD00CDC452837D0AD
:100E900004DC252826D0412831D131E046282FD046
:100EA00047282CD12CE05B2877D0612828D06328F4
:100EB0007CD0642823D15AE0D0E06F2848D008DCE9
:100EC00066281DD067281BD0692821D06E2816D12E
:100ED00027E0702845D0732868D0752847D0782837
:100EE0000DD14DE0A1690B988847054625283FF4B0
:100EF00069AFE1690B9888476D1C3FF46AAFB3E0B6
:100F000023466A466FF001000B99AFF300809EE024
:100F100045F040006060A80723464FF0000236D439
:100F20003EE0E8077FF447AF2068011D21600068BC
:100F3000290501D506701BE7290701D5068017E7AB
:100F4000A90703D5F117C0E9006111E706600FE7B3
:100F500045F040006060A80723464FF0080216D411
:100F60001EE040F60E0125EA0100606016E045F043
:100F700040006060A80723464FF00A0207D40FE044
:100F800045F040006060A80708D5234610226FF0A6
:100F900001000B99AFF3008059E007E023461022CF
:100FA0006FF001000B99FFF76BF950E04FF000096B
:100FB0004F464B46632802D05B2806D040E0E80647
:100FC00001D40120A06001273AE062690121019863
:100FD00090475E2805D14FF00109626949460198A2
:100FE0009047216939B900210A46534643F8212028
:100FF000491C0829FADBB0B3216969B9C11700EBB4
:10100000D16253110AEB830122F01F02821A0120E0
:101010000B68904003430B6062690121019890477F
:101020005D28E8D1B9F1000F09D00020514651F8F0
:101030002020D24341F82020401C0828F7DB02ABD7
:10104000224600976FF001000B99FFF7BFF90028C7
:101050000CDA401C08D1BBF1000F05D04FF0FF3077
:101060000DB0BDE8F08FFFE74046F9E7E90701D191
:1010700008F1010806444FF0000B79E6CCCCCC0C0B
:1010800070B521F0004303430CD0C1F30A5500248E
:10109000D5EB040564EB0403D617AD1AB34102DBAC
:1010A0000020014670BD201841EB025170BD0EB505
:1010B00040F2334102910021CDE900110A460B466E
:1010C000FFF760FD03B000BD70B5C1F30A5201F037
:1010D00000450024C1F3130140F2FF3341F48011B5
:1010E0009A4201DA002070BD40F233439A42A2F2E4
:1010F000334203DC5242FFF761F800E090402C439A
:10110000F1D0404270BD00007F2801D9002208E0E4
:10111000064A02EB5002C007127800D1120902F011
:101120000F0201209040084070470000C89300085B
:10113000014800F0D9B90000080A002070B5044643
:1011400000688168C943C9071CD1816821F0010189
:10115000816000F01DFE05460FE000BF00F018FEA4
:10116000401B022809D9A06A40F01000A062E06A82
:1011700040F00100E062012070BD20688068C0433B
:10118000C007EBD0002070BDF8B5002604460096DD
:1011900000688168C943C90728D0816841F001010E
:1011A0008160134813490068B0FBF1F000E0401E75
:1011B00000900028FBD100F0EBFD054611E000BFD8
:1011C00000F0E6FD401B02280BD9A06A40F0100099
:1011D000A062E06A40F00100E06284F8246001202F
:1011E000F8BD20688068C043C007E9D10020F8BD81
:1011F0000000002040420F00FEE70000014800F020
:1012000099BB0000E40E002030B590F84050012456
:10121000AC40C56B6C60046863604368102B036866
:1012200003D099600068C26030BD9A600068C160F8
:1012300030BD704710B500F01BF8FFF784FB044A7F
:10124000044BFFF770FABDE81040FFF78FBB0000BA
:101250003480B74002E3B840022000F0A1BC042073
:1012600000F09EBC082000F09BBC102000F098BC51
:101270002DE9F05F05460C4608682968401AFFF71B
:1012800038FBDFF8D090DFF8D0A04A465346FFF78E
:101290004AFADFF8C8B000225B46FFF7B6FA304AD8
:1012A000304BFFF740FAFFF761FB0646696860685C
:1012B00005F03AF8FFF71DFB4A465346FFF733FAAD
:1012C00000225B46FFF7A1FA254A264BFFF72BFACF
:1012D000FFF74CFB80464FF0FF313046FFF770F9C7
:1012E000FFF731FB07460C462868FFF702FB4A462A
:1012F0005346FFF718FA00225B46FFF786FA184AB2
:10130000184BFFF710FA3A462346FFF765F904F049
:101310006FFA05460C464046FFF715FB2A46234662
:10132000FFF701FAFFF722FB044631460846FFF7B4
:1013300015F9054621460846FFF710F92946FFF73B
:10134000B5F8FFF700FB05F0E1F8BDE8F05FFFF747
:101350000DBB00006F1283C0CA21094000806640A7
:1013600048AFBC9AF2D77A3EFEE770B50C46054608
:1013700002F064FB2146284602F02AFC214628465A
:10138000BDE8704002F02ABB7047000030B590F80D
:101390002420012A1ED0012280F824208A68012AF4
:1013A0000268536818D023F040035360D1E900234A
:1013B0001A4303685C680A4D2C4022435A60036854
:1013C000CA685A62026809699162002180F8241093
:1013D000084630BD022030BD43F04003E5E7000081
:1013E000E0FD3FFFF8B50024009490F82420254646
:1013F000012A12D0012280F824204A681F23072ADC
:101400000DD20668776B521E02EB820293409F4317
:101410000B6893401F43776319E00220F8BD06680C
:101420000D2A0AD2376BD21F02EB820293409F43F0
:101430000B6893401F43376309E0F76A0D3A02EBEC
:10144000820293409F430B6893401F43F7620A68F0
:10145000072306680A2A0AD3F7680A3A02EB42020F
:1014600093409F438B6893401F43F76008E03769C0
:1014700002EB420293409F438B6893401F433761C6
:101480000A68102A01D0112A20D1124B02689A4210
:1014900017D193681B0219D4936843F40003936037
:1014A0000968102912D10C490C4A0968B1FBF2F104
:1014B00001EB8101490000E0491E00910029FBD1A8
:1014C00004E0816A41F020018162012480F8245007
:1014D0002046F8BD002401400000002040420F00DB
:1014E00070470068C06C704710B5044600684168DA
:1014F000890626D50168890723D5A16AC90603D4C0
:10150000A16A41F40071A1628168C1F342410729D7
:1015100010D1E16871B9416821F020014160A06AF1
:1015200020F48070A062A06AC00403D4A06A40F0D6
:101530000100A0622046FFF7D3FF21686FF0120080
:1015400008602068416809062ED5016849072BD537
:10155000A16AC90603D4A16A41F40051A16281685D
:10156000C1F30231072909D04168490515D48168C2
:10157000C1F34241072910D1E16871B9416821F0F6
:1015800080014160A06A20F48050A062A06AC0057A
:1015900003D4A06A40F00100A0622046FFF7F4FEE9
:1015A00021686FF00C0008602068416849060DD57D
:1015B0000068C0070AD0A06A40F48030A0622046CC
:1015C00000F094F821686FF00100086010BD000081
:1015D0002DE9F0414FF0000704003D467ED0A06A9F
:1015E000002628B9E66284F82460204600F0AAF8B4
:1015F0002046FFF7A3FDA16A01F01001014304D0CA
:10160000A06A40F01000A06268E0A16A21F488514D
:1016100041F00201A1626268E169E3680A4347EAB6
:1016200043010A43A1684FF48077B94208D00129E9
:1016300006D00021D4F814C0BCF1010F02D00AE09A
:101640003946F7E7F3B1A36A43F02003A362E36AE4
:1016500043F00103E3622368D3F804C02CF4694C1F
:101660004CEA010CC3F804C023689968DFF870C025
:1016700001EA0C0111439960A168B9420BD001291C
:1016800009D00CE0DFF85CC0A3690CEB43330B43DB
:1016900043F40061DFE7218A0D05A5F58015216877
:1016A000CB6A23F470032B43CB62216889680E4B0D
:1016B0001940914208D1E662A16A21F0020141F08D
:1016C0000101A162BDE8F081A06A20F0020040F0B3
:1016D0001000A062E06A40F00100E0620120F1E742
:1016E000FDF7E1FF00E0FFFFFE0E1FFF2DE9F041D7
:1016F000114C124E40F21455A178371DA1B10129A9
:1017000008D0022904D10068416821F040014160FD
:10171000BDE8F08108490A48491C04F0E7F90020B7
:10172000A07035603860F3E70120A07040F6FF70CC
:1017300030603D60ECE700002400002024280140D8
:10174000A80D002000B585B0002100910191029103
:10175000039100681249884220D11248816941F4FE
:1017600080618161816901F480610491816941F046
:10177000040181618069694600F004000490012041
:10178000009003200190084800F016FA002205217D
:10179000122000F0F3FC122000F0E4FC05B000BDC4
:1017A00000280140001002400008014070B50446C6
:1017B00090F8240001280DD0012084F82400204650
:1017C000FFF7E2FC02004FF0000005D084F824008F
:1017D000104670BD022070BDA16A40F201239943FA
:1017E00041F48071A1621F4D23681F49AB4218D19B
:1017F0000E6816F4702F14D0A66A46F48016A662FE
:101800000E68760505D5A66A26F4005646F480567D
:10181000A662A66AF6040AD5E66A26F00606E6621D
:1018200006E0A66A26F48016A6625E68E9E7E06232
:1018300084F824006FF00200186020688368C3F306
:101840004243072B05D1A84208D1096811F4702F33
:1018500004D0816841F480118160B9E7816841F466
:10186000A001F9E7002801400424014001680A684A
:1018700022F00E020A6001680A6822F001020A6082
:1018800090F84020C36B012101FA02F25A6080F8FF
:101890002110002180F820100846704710B590F8FC
:1018A00021100024022903D00421816301243DE09A
:1018B00001680A6822F00E020A6001680A6822F0D4
:1018C00001020A601A4A0168914201D1012121E016
:1018D000174A1432914201D110211BE0144A2832D8
:1018E000914201D1891515E0114A3C32914201D152
:1018F00089140FE00E4A5032914202D14FF48031E8
:1019000008E00B4A6432914202D14FF4801101E0A9
:101910004FF08071064A083A5160012180F8211089
:10192000002180F82010416B01B18847204610BD8E
:10193000080002402DE9F05FC16B0C6801680B687C
:10194000D0F840C0042202FA0CF2494DDFF824A17D
:10195000494E4A4FDFF828B1DFF828E122422CD067
:101960005A072AD50A68920603D40A6822F00402AC
:101970000A600168A94201D1042219E0514501D150
:10198000402215E0B14202D14FF4806210E0B9422A
:1019900002D14FF480420BE0594502D14FF480222E
:1019A00006E0714502D14FF4800201E04FF0806201
:1019B0002F4908394A60C16A3BE04FF0020808FA33
:1019C0000CF818EA040F4FF000094FF0010235D06F
:1019D0005FEA837832D50B689B0605D40B6823F049
:1019E0000A030B6080F821200168A94201D102227C
:1019F00019E0514501D1202215E0B14202D14FF446
:101A0000007210E0B94202D14FF400520BE0594588
:101A100002D14FF4003206E0714502D14FF40012BA
:101A200001E04FF00072124908394A6080F82090B6
:101A3000816A00291AD0BDE8F05F0847082505FA39
:101A40000CF5254212D01B0710D50B6823F00E03AE
:101A50000B6090F84010C36B02FA01F15960826389
:101A600080F8212080F82090016BE2E7BDE8F09F2C
:101A7000080002401C0002403000024044000240C6
:101A8000580002406C00024030B528B308C8134922
:101A900014221944B1FBF2F18900C163104981633A
:101AA000022141771A6843F6F0718A43D0E90014A5
:101AB0002143D0E902452C43214304692143446971
:101AC00021438469214311431960002141630122AC
:101AD00042770177084630BD012030BDF8FFFDBFD9
:101AE0000000024070B5044690F82000002501284F
:101AF0000CD0012084F8200094F821600020012EF1
:101B000006D084F820000225284670BD022070BD52
:101B1000022684F82160A0632068066826F001068A
:101B200006602046FFF770FBE06A00282068016825
:101B300002D041F00E0106E021F0040101602068AE
:101B4000016841F00A0101602068016841F001016B
:101B50000160D9E770B5044600F01AF90546601C2B
:101B600002D004480078044400F012F9401BA0425F
:101B7000FAD370BD70000020074810B5406A06F027
:101B8000B5FA012806D1054900070860BFF34F8F59
:101B9000BFF36F8F10BD00002400002004ED00E0B3
:101BA000044910B50A68024202D00860FFF7E4FF5A
:101BB00010BD0000140401402DE9F84FDFF890A19A
:101BC00000220AF1040B144601274FF00F090BF114
:101BD000040E00BF0B6807FA04F52B40AB4274D12A
:101BE000DFF870C14E68A6EB0C0866452BD00DDC03
:101BF000032E34D005DC36B3012E19D0022E2FD19E
:101C00001BE0112E16D0122E2AD119E0B8F5881F2C
:101C100019D006DCB8F5803F15D0B8F5801F1FD16C
:101C200011E0B8F5001F0ED0B8F5041F18D10AE076
:101C3000CA6815E0CA68121D12E0CA6808320FE0CF
:101C4000CA680C320CE08A682AB1012A4FF00802F7
:101C500003D0456104E0042202E0056100E00022B7
:101C6000FF2B01D8064601E000F104064FEA840587
:101C700001D9A5F12005D6F800C009FA05F82CEA2B
:101C8000080C02FA05F54CEA050CC6F800C04D68D0
:101C9000ED0057D5304DAE6946F00106AE61AD6935
:101CA00024F0030605F0010500952C4D06EB050C0C
:101CB000DCF80850A6074FEA167809FA08F6B5438B
:101CC000274EB04202D1002610E03BE0254EB04244
:101CD00001D101260AE0244EB04201D1022605E0DE
:101CE000224EB04201D1032600E0042606FA08F68F
:101CF0002E43CCF808604D68DAF80060ED035546D5
:101D000001D51E4300E09E432E604D68DBF8006065
:101D1000AD035D4601D51E4300E09E432E604D6835
:101D2000DEF80060ED02754601D51E4300E09E43DB
:101D30002E604D68AD020E4D2E6801D51E4300E0A9
:101D40009E432E60641C102CFFF444AFBDE8F88F56
:101D5000000401400000111000100240000001408A
:101D600000080140000C0140001001400014014037
:101D70000C0401408068084000D001207047C26810
:101D80004A40C26070470AB1016170470904FBE72D
:101D900001488068704700007000002070B50400A2
:101DA0001BD094F83D00002520B984F83C50204613
:101DB00000F032F9242084F83D002068016821F009
:101DC0000101016000F058FB404A6168914201D86E
:101DD0003F4900E03F49884201D2012070BD3E49A1
:101DE0002368B0FBF1F159606368934206D94FF460
:101DF000967359434FF47A73B1FBF3F12368491C8E
:101E000019626168914210D84900401EB0FBF1F29E
:101E1000521CC2F30B02042A01D2042022E0B0FBC0
:101E2000F1F0401CC0F30B001CE0A368CBB301EB46
:101E3000C10202EB0116421EB2FBF6F2521C42F442
:101E40008042120536D06BB301EBC10202EB0111E7
:101E5000401EB0FBF1F0401CC0F30B0040F480408A
:101E600040F400402168C861D4E9070108432168B3
:101E70000860D4E90310084321688860D4E90501AB
:101E800008432168C8602068016841F001010160D1
:101E90002564202084F83D00256384F83E5000200E
:101EA00070BD00E008E001EB4106421EB2FBF6F215
:101EB000521CC6E70120D5E701EB4101401EB0FBF3
:101EC000F1F0401CC0F30B00CAE70000A08601003F
:101ED00080841E0000093D0040420F002DE9FF4FA5
:101EE00083B09A46DDE9118793460446DDF84090B9
:101EF000FFF74EFF064694F83D0020287DD11923B8
:101F0000012243492046009601F0BBFA00287CD10B
:101F100094F83C00012878D0012084F83C00206827
:101F20000168C90703D1016841F00101016020681F
:101F3000016821F400610160212084F83D00402007
:101F400084F83E0000252564C4F82490A4F82A8073
:101F50003048E062608D2085CDE9007653465A46D0
:101F60002046049901F016FA80B3206C84F83C50A6
:101F7000042848D008E032463946204601F0F6FAF7
:101F800030B1206C042839D0032007B0BDE8F08FB1
:101F9000606A411C6162216800780861208D401EE2
:101FA00080B22085618D491E618521684A69D243CE
:101FB00052070BD468B1606A421C62620078086103
:101FC000208D401E2085608D401E6085208D00285C
:101FD000D1D132463946204601F02CFA0028D0D122
:101FE00054F83D0B016841F400710160202004F8B1
:101FF0001E09E57765770020C7E706E020680168DD
:1020000041F4007101600120BFE70220BDE700003C
:10201000020010000000FFFF10B586B00021009103
:1020200001910291039100680F4988421AD10F4C27
:10203000A06940F00800A061A069694600F00800AE
:102040000490C020009012200190032003900848C3
:10205000FFF7B2FDE06940F40010E061E06900F4D0
:102060000010049006B010BD005400400010024063
:10207000000C014002488168027811448160704779
:1020800070000020074810B5016841F010010160A0
:10209000032000F093F8002000F006F800F03EF86E
:1020A000002010BD0020024000B5014687B000228C
:1020B000192000F063F8192000F054F813488169E2
:1020C00041F400618161806905A900F40060069017
:1020D000684600F0B1F900F0DFF90D490D4AB0FB98
:1020E000F1F10D48491E0260416040F2E7320021E3
:1020F000C0E90321816000F0E7FC10B1012007B0C6
:1021000000BD054800F00EFDF9E700000010024098
:1021100040420F00002C0140280F00200F4808B556
:10212000816941F001018161816901F00101009142
:10213000C16941F08051C161C069002200F0805046
:1021400000900F21901E00F019F80548416821F019
:10215000E06141F00071416008BD000000100240E4
:102160000000014000F01F02012191404009800061
:1021700000F1E020C0F8001170470000F0B40E4BF1
:102180001B680C46C3F30223C3F10705042D00D9D5
:102190000425191D072901D2002300E0DB1E0126BA
:1021A00006FA05F1491E214099409E40761E1640D0
:1021B0003143F0BC01F002BC0CED00E0064900F038
:1021C000070208684FF6FF03184040EA0220034A5E
:1021D00010430860704700000CED00E00000FA05B5
:1021E0002DE9F84305460078354CC00754D0E06926
:1021F0000026C00008D4E06940F08050E061E0694A
:10220000012600F0805000902E480168C90512D4C4
:102210000168804641F480710160FFF7B9FD07460F
:1022200005E000BFFFF7B4FDC01B642823D8D8F831
:102230000000C005F6D5206A10F4407021D0A988AE
:1022400001F4407181421CD0206A1F49012220F410
:1022500040700A6000220A602062C00711D0FFF7B8
:1022600097FD074641F2883808E000BFFFF790FD70
:10227000C11B414502D90320BDE8F883206A8007CD
:10228000F4D5206A696820F44070084320621EB1CA
:10229000E06920F08050E0612878800705D560680B
:1022A000A96820F44040084360602878C00605D53E
:1022B0006068E96820F48000084360600020DBE784
:1022C0000010024000700040400442422DE9F047F7
:1022D000DFF8548105460E46D8F8000000F00700EC
:1022E000B0420CD2D8F8001021F007013143C8F8F1
:1022F0000010D8F8000000F00700B0426FD1286845
:102300004A4C810712D5400703D5606840F4E0606D
:1023100060602878000703D5606840F46050606012
:102320006068A96820F0F000084360602878C00762
:1023300044D06868012816D02168022816D0890781
:1023400000294CDA616821F0030101436160FFF765
:102350001FFD6968074641F2883001290ED0022925
:10236000814618D026E021688903E9E78901E7E77B
:10237000FFF70EFDC11B494501D918E08146606891
:10238000C0F381000128F3D118E000BFFFF700FD82
:10239000C11B49450BD86068C0F381000228F5D104
:1023A0000CE000BFFFF7F4FCC11B494502D9032034
:1023B000BDE8F087606810F00C0FF3D1D8F800107A
:1023C000404601F00701B1420BD9016821F0070135
:1023D00031430160006800F00700B04201D00120E5
:1023E000E6E72878400705D56068E96820F4E060F2
:1023F000084360602878000706D56068296920F4E2
:10240000605040EAC100606000F056F86168084A18
:10241000C1F30311515CC840064908600020FFF772
:1024200043FE0020C4E700000020024000100240EC
:1024300074810008000000200F2202600C4A5368DB
:1024400003F003034360536803F0F00383605368B1
:1024500003F4E063C36052684FF4E06303EAD2021E
:1024600002610448006800F007000860704700003F
:1024700000100240002002400448054900684968F5
:10248000044AC1F30221515CC8407047000000209B
:10249000001002408481000804480549006849682A
:1024A000044AC1F3C221515CC840704700000020BB
:1024B000001002408481000812A185B00FC98DE888
:1024C0000F0014A0144A006804905168134801F0EA
:1024D0000C03042B10D0082B0ED1C1F38343C90386
:1024E0001DF803000AD5516804AAC1F34041515CAC
:1024F0000A4A5043B0FBF1F005B070470849484321
:10250000FAE7000002030405060708090A0B0C0D90
:102510000E0F1010010200000010024000127A009D
:1025200000093D002DE9F84F04460078B94DC00779
:1025300048D06868C0F38100012807D06868C0F3FC
:102540008100022809D16868C00306D52868800385
:1025500038D5606800286FD034E06068B0F5803FFF
:102560000BD010B1B0F5A02F11D0286820F4803026
:102570002860286820F4802002E0286840F4803039
:102580002860606888B1FFF703FC064609E0286808
:1025900040F480202860F0E7FFF7FAFB801B6428F6
:1025A00075D828688003F7D50CE0FFF7F1FB0646E5
:1025B00005E000BFFFF7ECFB801B6428F0D828681B
:1025C0008003F7D42078944E80074FF001094FF034
:1025D00000083BD5686810F00C0F07D06868C0F39E
:1025E0008100022809D16868C00306D428688007E2
:1025F00014D5206901281FD110E02069B0B1C6F8B8
:102600000090FFF7C5FB074605E000BFFFF7C0FBE2
:10261000C01B0228C4D828688007F7D528686169DC
:1026200020F0F80040EAC10028600FE0C6F8008002
:10263000FFF7AEFB074606E0E9E000BFFFF7A8FBA7
:10264000C01B022823D828688007F7D42078000709
:102650002CD57248A169D9B1C0F80090FFF798FB5A
:10266000074604E0FFF794FBC01B02280FD8686AF6
:102670008007F7D56A484FF4FA510068B0FBF1F0D3
:10268000009000BF0098411E0091FAD20EE080E059
:10269000C0F80080FFF77CFB074604E0FFF778FBFB
:1026A000C01B022875D8686A8007F7D420784007D5
:1026B00060D5E8690027C00008D4E86940F0805080
:1026C000E861E869012700F08050009055480168F2
:1026D000C90513D40168834641F480710160FFF796
:1026E00057FB824606E000BFFFF752FBA0EB0A0053
:1026F00064284ED8DBF80000C005F5D5E068012855
:102700000AD008B1052813D0286A20F001002862F9
:10271000286A20F0040002E0286A40F001002862E4
:10272000E06841F2883B98B1FFF732FB82460BE04C
:10273000286A40F004002862EEE700BFFFF728FB9C
:10274000A0EB0A0159455AD8286A8007F6D50CE053
:10275000FFF71EFB824605E0FFF71AFBA0EB0A011C
:1027600059454CD8286A8007F6D41FB1E86920F093
:102770008050E861E06988B36968C1F3810102298A
:1027800045D00228C6F8608004D0FFF701FB04465C
:1027900038E034E0FFF7FCFA074604E0FFF7F8FA08
:1027A000C01B02282BD828688001F7D4206AB0F516
:1027B000803F05D16868A16820F400300843686054
:1027C000D4E908010843696821F47411084368607A
:1027D000C6F86090FFF7DCFA044606E015E000BF9B
:1027E000FFF7D6FA001B022809D828688001F7D520
:1027F0000BE000BFFFF7CCFA001B022802D9032030
:10280000BDE8F88F28688001F4D40020F8E70120A3
:10281000F6E70000001002400000424280044242FD
:10282000000000200070004070B5040005D00025B5
:10283000A56294F8510010B104E0012070BD20465B
:1028400000F034F8022084F851002068016821F07B
:1028500040010160D4E901010843D4E903121143A6
:10286000084361690843218B01F400710843E16961
:102870000843216A0843A16A084321680860A069E7
:10288000042101EA1040616A084321684860216818
:10289000E06A08612068C16921F40061C161656571
:1028A000012084F85100002070BD000000B585B003
:1028B0000021009101910291039100681049884222
:1028C0001BD11048C16941F48041C161C16901F463
:1028D00080410491816941F0080181618069694604
:1028E00000F0080004904FF4204000900220019076
:1028F000032003900448FFF75FF905B000BD000016
:102900000038004000100240000C01402DE9F84F53
:10291000044690F850000026994617460D460128B7
:102920000DD04FF0010B84F850B0FFF731FA80461C
:1029300094F85100B246012804D0022694E0022007
:10294000BDE8F88F002D7BD0002F79D0032084F8CC
:102950005100C4F854A02563A786E786C4F838A0C0
:10296000A4F83CA0A4F83EA0C4F844A0C4F840A039
:10297000A068B0F5004F04D12068016841F480419F
:10298000016020680168490603D4016841F04001F4
:102990000160E068B0F5006F606804D030B3E08E8D
:1029A000012823D03EE010B1E08E01281AD135F87D
:1029B000021B206805E020688168890706D535F884
:1029C000021BC160E08E401EE0860BE0B9F1000FF3
:1029D00034D0B9F1FF3F05D0FFF7DAF9A0EB0801D9
:1029E00049452BD2E08E0028E5D11EE0216815F87C
:1029F000010B087306E020688168890706D515F881
:102A0000011B0173E08E401EE0860BE0B9F1000F60
:102A100014D0B9F1FF3F05D0FFF7BAF9A0EB0801D8
:102A200049450BD2E08E0028E5D14B460122022118
:102A30002046CDF8008001F003F910B1032613E021
:102A400011E042464946204601F0EAF818B1012655
:102A50002020606508E0A06818B92068C168806817
:102A60000090606D00B1012684F851B084F850A048
:102A7000304665E77047704730B590F83C20012A32
:102A800020D0012280F83C20022380F83D300368EA
:102A90005C6824F070045C6003685C680D682C431B
:102AA0005C6003689C6824F080049C6003689C68F8
:102AB00049680C439C6080F83D20002180F83C1060
:102AC000084630BD022030BD10B5040003D094F894
:102AD0003D0010B107E0012010BD002084F83C004B
:102AE000204600F00DF8022084F83D00211D2068EA
:102AF00001F004FB012084F83D00002010BD00001F
:102B000008B50068B0F1804F08D10548C16941F0AF
:102B10000101C161C06900F00100009008BD000022
:102B2000001002400168CA6842F00102CA600068F1
:102B3000016841F0010101600020704770B5044652
:102B400090F83C00012817D0012584F83C50022061
:102B500084F83D002068826822F0770222F47F42E8
:102B600082600868502837D00DDC202859D005DC59
:102B700088B3102841D151E0022070BD302853D0D5
:102B800040283AD13FE060282ED070280BD0B0F515
:102B9000805F03D0B0F5005F2FD110E0206881681E
:102BA00021F0070115E0CB68D1E90121206801F08F
:102BB000E6FA2168886840F0770088601DE0CB68FD
:102BC000D1E90121206801F0DAFA2068816841F436
:102BD0008041816011E01EE0CA684968206801F008
:102BE00083FB5021206806E0CA684968206801F02C
:102BF0008CFB6021206801F0CCFA84F83D50002065
:102C000084F83C0070BDCA684968206801F06CFB1C
:102C100040212068EFE700212068ECE710212068C0
:102C2000E9E720212068E6E730212068E3E77047E4
:102C300070B50446006801694FF00005C943890773
:102C400015D4C168C943890711D4E91E0161012067
:102C50002077206880698007204602D0FFF7E7FFD1
:102C600004E000F0C9F8204600F04BF92577206811
:102C70000169C943490717D4C168C943490713D437
:102C80006FF004010161022020772068806910F450
:102C9000407F204602D0FFF7CAFF04E000F0ACF806
:102CA000204600F02EF9257720680169C9430907FD
:102CB00016D4C168C943090712D46FF00801016135
:102CC000042020772068C0698007204602D0FFF7E3
:102CD000AEFF04E000F090F8204600F012F92577EE
:102CE00020680169C943C90617D4C168C943C90628
:102CF00013D46FF010010161082020772068C069AB
:102D000010F4407F204602D0FFF791FF04E000F06E
:102D100073F8204600F0F5F8257720680169C9436B
:102D2000C90708D1C168C943C90704D1891E016117
:102D3000204600F0FFF820680169C943090609D45C
:102D4000C168C943090605D46FF0800101612046BE
:102D5000FFF790FE20680169C943490609D4C1689C
:102D6000C943490605D46FF040010161204600F0D7
:102D7000EBF820680169C94389060BD4C168C943CF
:102D8000890607D46FF0200101612046BDE870403C
:102D9000FFF771BE70BD000000B585B00021009145
:102DA0000191029103910068B0F1804F1BD10F484F
:102DB000816941F0040181618069694600F0040085
:102DC00004904FF4004000900220019003900848C6
:102DD000FEF7F2FE0748416821F4407141F0E061DE
:102DE00041F48071416005B000BD00000010024058
:102DF0000008014000000140704770B5044690F89B
:102E00003C000D4601280DD0012684F83C600220CC
:102E100084F83D0042B1042A18D0082A2AD00C2A8E
:102E20004DD139E0022070BD206801F0BBF9206867
:102E3000816941F0080181612068816921F0040104
:102E40008161206881692A69114311E0206801F0DD
:102E5000D1F92068816941F400618161206881694C
:102E600021F480618161206881692A6941EA022137
:102E7000816124E0206801F0E9F92068C16941F02E
:102E80000801C1612068C16921F00401C1612068A5
:102E9000C1692A69114311E0206801F003FA206832
:102EA000C16941F40061C1612068C16921F4806198
:102EB000C1612068C1692A6941EA0221C16184F8BF
:102EC0003D60002084F83C0070BD10B5040003D0C4
:102ED00094F83D0010B107E0012010BD002084F8F7
:102EE0003C00204600F00CF8022084F83D00211D33
:102EF000206801F003F9012084F83D00002010BD96
:102F00007047704710B504460068012201F02CF9A3
:102F100007492068884203D1416C41F40041416473
:102F20002068016841F001010160002010BD00002F
:102F3000002C014000680349884201D1FFF79AB88C
:102F400070470000002C0140704710B5044600682F
:102F5000416994F83920C1F3C011212A0BD151B134
:102F6000416921F080014161206B08B1FEF77EFCD0
:102F7000204601F06DFA2068416994F83A20C1F3C7
:102F80008011222A0BD151B1416921F040014161E8
:102F9000606B08B1FEF76AFC204601F04BFA002096
:102FA00010BD704770B5026804461068D168536957
:102FB00010F00F0F51D003F0010501F49076354366
:102FC0005DD0C20705D0CA0503D5E26B42F001020D
:102FD000E263420705D5DA0703D0E26B42F0020252
:102FE000E263820705D5DA0703D0E26B42F0040200
:102FF000E263020705D5DA0703D0E26B42F008026C
:10300000E263E26B002A34D0800604D5880602D53C
:10301000204601F026FA20684069E16BC0F3801079
:1030200001F008010143204624D001F003FA206892
:10303000416949061AD5416921F040014161606B3F
:10304000A0B11B494163606BFEF728FC002810D03B
:10305000606B416BBDE87040084783060FD58B0657
:103060000DD52046BDE8704001F0FBB92046FFF7C2
:1030700098FF70BDFFF795FF0020E06370BD030669
:1030800006D50B0604D52046BDE8704001F0ECBA29
:103090004006F3D54806F1D5D168204621F040011D
:1030A000D160202184F8391000F05DF970BD000076
:1030B0009543000870B5040004D094F83900002549
:1030C00010B106E0012070BD84F83850204600F0B1
:1030D00023F8242084F839002068C16821F40051C5
:1030E000C160204601F008FA2068016921F490418E
:1030F00001612068416921F02A0141612068C168AD
:1031000041F40051C160E563202084F8390084F85F
:103110003A00002070BD000070B586B0002506465C
:1031200000950195029503950068224988423FD198
:103130002149886940F480408861886900F48040B2
:103140000490886940F00400886188691B4C00F095
:103150000400049048150090022001900320039081
:1031600069462046FEF728FD2015CDE90005694691
:1031700020460295FEF720FD124C1148C4E90005D7
:103180008020C4E9025020202561C4E90550204672
:10319000E561FEF779FC08B1FEF7E6F874630022FA
:1031A000052125206662FEF7E9FF2520FEF7DAFFFC
:1031B00006B070BD00380140001002400008014018
:1031C00058000240E40E0020F8B5044690F83A009A
:1031D00020283CD1C1B3BAB394F83800012836D0C6
:1031E000012084F83800A162A2850025E563222031
:1031F00084F83A00636B17489862636B1648D8628C
:10320000636B16481863606B134645630846666B2C
:10321000216802463046091DFEF764FC20680168FB
:103220004168009184F83850C16841F48071C160F0
:103230002068416941F0010141612068416941F024
:10324000400141610020F8BDFFE70120FBE70220BB
:10325000F9E70000EF4300082B440008A5430008ED
:10326000704770470C4810B5C06D0C4C60710C482D
:10327000FFF76BFE4FF400510A48FEF780FD206A0D
:1032800004F034FF012806D1074900070860BFF3A6
:103290004F8FBFF36F8F10BD00000240240000204D
:1032A000A40E00200010014004ED00E02DE9F843D9
:1032B000044690F839001F4616460D46202850D186
:1032C000A5B19EB194F8380001284AD0012084F8B5
:1032D00038004FF00008C4F83C80212084F8390001
:1032E000FEF756FDA6848146E68426E00120BDE86F
:1032F000F883E08C401EE084A0684B46B0F5805F08
:103300004FF000024FF080012046009703D001F0FB
:10331000DCF9E8B90DE001F0D8F9C8B928882168CE
:10332000C0F308004860206908B16D1C05E0AD1CC1
:1033300003E0216815F8010B4860E08C0028D8D123
:103340004B46002240212046009701F0BEF908B10B
:103350000320CCE7202084F8390084F8388000204E
:10336000C5E70220C3E77047FEE701684A69D24318
:1033700052050CD46FF480624A610421016400217B
:1033800040F8301F20224273017301207047002053
:10339000704700002DE9F843044600680D46DDE95A
:1033A000089701689846164641F4807101604B46C3
:1033B00000224FF001112046009700F062F8E8B9B2
:1033C000216805F0FE0008613B464A461849204640
:1033D00000F088F828B1206C04280FD10120BDE846
:1033E000F88320684169806900903A464946204642
:1033F00000F0BCF820B1206C042813D00320EEE7C5
:10340000F5B2B8F1010F09D02168300A08613A46D7
:103410004946204600F0AAF80028ECD12068056152
:103420000020DCE72068016841F400710160D5E705
:103430000200010070B516460D4604461AE020460B
:10344000FFF793FF08B1012070BD681C12D025B1B1
:10345000FEF79EFC801BA8420CD954F8400F40F0A8
:10346000200044F81009002020602021617320739F
:10347000032070BD20684069C0434007DFD40020AE
:1034800070BD2DE9F0471E4690460D460446C1F337
:103490000747DDF8209012E0701C10D02EB1FEF727
:1034A00077FCA0EB0900B04209D9002044F8300FA6
:1034B00020216173A07320730320BDE8F08720688A
:1034C000012F0AD0806925EA00000004000C06D014
:1034D00000214145E0D00020EFE74069F3E70121FA
:1034E000F7E700002DE9F0479A4691460D4604465D
:1034F00000264FF02008C1F307472AE02068406902
:10350000C043400512D42068016841F40071016095
:1035100021686FF48060486104202064266384F889
:103520003D8084F83C600120BDE8F087B9F1FF3FA1
:103530000FD0B9F1000F05D0FEF72AFCA0EB0A016D
:10354000494506D944F8306F84F80D80267303206E
:10355000EAE72068012F07D0D0F8180025EA00001C
:103560000004000CE0D0C9E74069F7E770B51646E3
:103570000D4604461AE02046FFF7F7FE08B1012089
:1035800070BD681C12D025B1FEF702FC801BA8425A
:103590000CD954F8400F40F0200044F810090020E6
:1035A0002060202161732073032070BD2068406972
:1035B000C0430006DFD4002070BD000030B589B0E4
:1035C00018216846FCF723FE00241A480694079445
:1035D0001749089401600125C0E90245446105616D
:1035E0004FF460214460C161FDF7F2FF08B1FDF7BF
:1035F000BBFE1148009040F6FF70039040F214505B
:10360000049069460B48CDE90145FDF7BFFE08B1BE
:10361000FDF7AAFECDE9064506A906480894FDF780
:10362000E1FE002801D0FDF79FFE09B030BD00008B
:1036300000280140080A002000028000094808B55F
:10364000416941F0010141614069002200F001003F
:10365000009005210F20FEF791FDBDE808400F20E6
:10366000FEF780BD0010024030B59FB0002501215B
:103670001BA81B9502F0DCFA2C4C012120631CA82E
:103680001C9502F0D5FA606301211DA81D9502F07A
:10369000CFFAA063142226496846FCF79FFD00215B
:1036A000684602F0D8FA2249A0611422143105A814
:1036B000FCF794FD002105A802F0CDFA1C49E06159
:1036C000142228310AA8FCF789FD00210AA802F07B
:1036D000C2FA1749206214223C310FA8FCF77EFD84
:1036E00000210FA802F0B7FA11496062142250318C
:1036F00014A8FCF773FD002114A802F0ACFAA06234
:10370000206A04F09BF8606A04F098F8E06904F01D
:1037100095F807495439D1E90001CDE91901002193
:1037200019A802F081FAE0621FB030BD2400002029
:10373000E49100082DE9F04F85B00024434800943F
:10374000019402940394816941F0100181618169BF
:1037500001F010010491816941F0200181618169CA
:1037600001F020010491816941F0040181618169C6
:1037700001F004010491816941F0080181618069CF
:10378000DFF8CC9000F008004FF4005504900022C0
:1037900029464846FEF7F7FADFF8B8A04FF4A047ED
:1037A000002239465046FEF7EEFADFF8ACB04FF48F
:1037B0001068002241465846FEF7E5FA00950226B9
:1037C00001250396CDE9015469464846FEF7F4F910
:1037D0001E2000902148CDE9010569465846FEF7B4
:1037E000EBF900970396CDE9015469465046FEF780
:1037F000E3F9CDF800800396CDE9015469465846B7
:10380000FEF7DAF9002205210720FEF7B7FC0720B2
:10381000FEF7A8FC002205210820FEF7AFFC0820D7
:10382000FEF7A0FC002205210920FEF7A7FC0920D5
:10383000FEF798FC002205210A20FEF79FFC0A20D3
:10384000FEF790FC05B0BDE8F08F000000100240CC
:1038500000100140000C0140000801400000211050
:103860000D4810B50B4901600C49416000214FF42F
:1038700080428160C0E9031241618161C1610162DE
:10388000FEF78CFA002803D0BDE81040FDF76CBDB0
:1038900010BD000000540040B80D0020801A060042
:1038A000104810B50E4901604FF48271416000214B
:1038B0008160C1604FF400720161C0E905121022FD
:1038C000C0E90721416281620A21C162FEF7ACFFB3
:1038D000002803D0BDE81040FDF746BD10BD000034
:1038E000003800400C0E002010B58EB00024079464
:1038F000089409940A940B941C2168460C94FCF7D4
:1039000086FC1E484FF08041C0E900144FF6FF715D
:10391000C0E9024104618461FFF7D6F808B1FDF700
:1039200023FD4FF48050079007A91448FFF706F9CC
:1039300008B1FDF719FD1148FFF7C7FA08B1FDF707
:1039400013FD0B940BA90D480C94FFF795F808B1E3
:10395000FDF70AFD602000904FF4FA40CDE9010424
:103960000022694605480494FFF747FA08B1FDF7BD
:10397000FBFC0248FFF710FA0EB010BD640E0020E9
:103980000C4810B50A4901604FF4165141600021FE
:1039900081600C22C160C0E904128161C161FFF73E
:1039A00089FB002803D0BDE81040FDF7DDBC10BD49
:1039B00000380140A40E0020FEE770470907090EF9
:1039C000002806DA00F00F0000F1E02080F8141D56
:1039D000704700F1E02080F80014704770B50D4684
:1039E00011A1FCF71FFC04001CD000F0A1FC0F4E3D
:1039F00005F110020EA1306880692044FCF724FC18
:103A0000306805F10C020BA1006A2044FCF71CFC95
:103A1000306805F1080208A1406A2044BDE8704002
:103A2000FCF712BC70BD00004747410004000020B5
:103A30002531640025326400253464002DE9F0410D
:103A40000C4688B017464FA1FCF7ECFB05464EA18B
:103A5000FCF7E8FB00B101200DB1012100E00021DD
:103A600008427CD0284600F063FC04F12001474E58
:103A7000081FCDE90001306804F118031A1F4068DF
:103A800043A12844FCF7E0FB3068224644A180684B
:103A90002844FCF7D9FB04F12C000090306804F1B5
:103AA00028031A1FC0683FA12844FCF7CDFB3068EB
:103AB00004F130023AA100692844FCF7C5FB04F187
:103AC0003C000090306804F138031A1F406938A1A7
:103AD0002844FCF7B9FB306804F1400230A180694A
:103AE0002844FCF7B1FB04F15C000090306804F15D
:103AF00058031A1F406A31A12844FCF7A5FB20781F
:103B000056283CD00DF10C08CDF80080306805AB8C
:103B100004AAC06823A12844FCF796FB2A4905980B
:103B20000624484390FBF4F1284A049805AB50431F
:103B300001EBC010039904AA01EB8101490091FB3C
:103B4000F4F108443860CDF80080306818A140696D
:103B50002844FCF779FB1C490598484300E00EE037
:103B600090FBF4F1194A0498504301EBC0100399FB
:103B700001EB8101490091FBF4F10844786008B041
:103B8000BDE8F081524D43002A00000004000020EF
:103B90002532642532642532642E2532640000000B
:103BA000256300002532642532642E25356400002B
:103BB0002533642532642E253564000025326425C2
:103BC000326425326400000040420F002D310100B4
:103BD00070B50C460DA1FCF725FB050014D000F0D4
:103BE000A7FB0B4E221D0BA1306840682844FCF750
:103BF0002BFB306804F148031A1FC06906A1284452
:103C0000BDE87040FCF720BB70BD00005654470073
:103C100004000020253364002533642E253264001F
:103C200038B50B46009204460022802100F008F8C7
:103C3000002804D0606D40F020006065032038BD8E
:103C40002DE9F0411D4617460E460446DDF8188062
:103C500035E0681C33D02DB1FEF79AF8A0EB0800D0
:103C6000A8422CD32068416821F0E00141606068DF
:103C7000B0F5827F0BD1A068B0F5004F02D0B0F54F
:103C8000806F04D12068016821F040010160A06AC2
:103C9000B0F5005F0AD1206801684DF6FF7211404F
:103CA00001602068016841F400510160012084F83E
:103CB0005100002084F850000320BDE8F081206806
:103CC000806836EA000004D00020B842C1D100204C
:103CD000F3E70120F9E70000DFF8649108B500245C
:103CE00009F1080AC9F80040CAF80040DFF8588115
:103CF000C9F80440534E4FF4967708F1680BA9F1C8
:103D00003C05CAF804407460306840F0010030603F
:103D10004E493A4601F59670FCF760FA3A464B492F
:103D20004B48FFF751FA7068E86000232C705A1E68
:103D30001946686B03F06EFE414A43490832A1F50B
:103D40009670FDF712FB98F8001056296DD0D8F840
:103D50004400032869DDD9F8000000285DD0384907
:103D600037480831FDF766FA3A490090884254DA3C
:103D70009BF81C0000998007DBF8000009D5FCF7D0
:103D8000E7FBCBF80000DBF804000099FCF7E0FB50
:103D900008E0FCF78BFBCBF80000DBF8040000998F
:103DA000FCF784FBCBF804002B49DBF800205846D5
:103DB0008A4202DA12F1FF4F00D30460DBF80400FC
:103DC000884202DA10F1FF4F01D3CBF8044000988B
:103DD000FCF7B9FDDBE90423FCF7FEFBCBE90401AA
:103DE000FCF7C4FD1649283901F0EEFEFCF7ABFDE7
:103DF000CBE904016869FCF78DFDDBF81810084475
:103E00001149CBF818008831DBF800200A60DBF894
:103E10000420C1E9012001206870DAF80020C9F807
:103E20000020DAF80400C9F8040000231A461946F5
:103E3000686B03F0E9FE286A03F000FD63E7000009
:103E400060000020001000E0200D0020C80A0020C3
:103E5000A40E0020CDCC4C3E00401C461CB50C4EA0
:103E60000C4C751E0A49C91C481E02F013FA084A78
:103E7000084B521DCDE90046911E203B481E01F023
:103E80001DFC0A2001F0C4FE686A03F0D7FCE9E7D4
:103E900025000020A80D002002F05EFB4FF4FA7010
:103EA00001F0B6FE4FF6FF7423460B2229492A483B
:103EB000FFF7FCF9274923460B220B312648FFF771
:103EC000F5F9244923460B2216312348FFF7EEF972
:103ED000204923460E220E391F48FFF7E7F91D49F6
:103EE00023461C222A391C48FFF7E0F91A4C2068A7
:103EF000C16821F40051C16018494FF42070086076
:103F00002068C16841F40051C160FA2001F080FED0
:103F10001348007FC00703D042F210708106486347
:103F20001048FDF743FC2068C16841F01001C160F2
:103F30004FF496720C490848FFF746F90B4CE069BC
:103F400003F0F8FBA06903F079FC012001F060FEAA
:103F5000FBE70000C2910008A40E002008380140D1
:103F6000880D0020080A0020C80A00202400002034
:103F7000114808B5016841F08071016003F064FFE9
:103F80000E4C4FF0FF3500906421684603F02CFB87
:103F900000232A461946606B03F03CFD074A084996
:103FA000921DA1F1680001F0B3FD00231A461946E5
:103FB000606B03F029FEE7E7FCED00E02400002041
:103FC000880D00200C4F0D4C0D4E6FF00B08102586
:103FD0004FF47A790B48FDF784FAFCF785FC3946F3
:103FE000FCF7BCFA4146FCF7EBFAA06048463561A5
:103FF00001F00EFEEEE7000000000442880D0020F4
:1040000024000020080A002010B5502080F31188F9
:10401000BFF34F8FBFF36F8F03F01CFF18B104493C
:104020004FF080500860002080F3118810BD000020
:1040300004ED00E030B593B028216846FCF7E7F8BE
:1040400014210AA8FCF7E3F8002501200F9510952C
:104050001195010412958DE8230004904FF4E010AF
:10406000CDE90810022407946846FEF75BFA00B118
:10407000FEE70AA90F2081E831004FF4E060CDE9A6
:104080000D0502210AA8FEF721F900B1FEE74FF461
:10409000004011900F940FA8FEF7A2F8002800D05E
:1040A000FEE713B030BD00000D48016841F001018A
:1040B000016041680B4A1140416001680A4A1140A1
:1040C0000160016821F480210160416821F4FE0152
:1040D00041604FF41F0181600449C00308607047CC
:1040E000001002400000FFF8FFFFF6FE08ED00E0C0
:1040F0000148FEF79DBD0000280F0020F0B50268C2
:10410000164B174C174D4FF08047984205D0B842D8
:1041100003D0A04201D0A84203D122F070064A6821
:104120003243984205D0B84203D0A04201D0A84201
:1041300003D122F44074CA68224322F080044A6901
:10414000224302608A68C2620A688262984201D190
:104150000969016301214161F0BD0000002C0140AB
:10416000000400400008004010B50123046A8B40A1
:104170009C430462036A8A401343036210BD10B576
:10418000846842EA032224F47F440A432243826083
:1041900010BD826822F070020A4342F0070181607C
:1041A0007047000030B5026A22F001020262026A22
:1041B0004368846924F073050C682C4322F00205DF
:1041C0008A682A430A4DA8420BD122F00805CA6822
:1041D00023F440732A434D6922F004021D438B6986
:1041E0002B434360846149684163026230BD000033
:1041F000002C014030B5026A22F010020262026A0D
:10420000436884690D6824F4E64444EA05248D6813
:1042100022F0200242EA05120B4DA8420ED1CD68D1
:1042200022F0800242EA05124D6923F4406343EA1A
:1042300085038D6922F0400243EA8503436084616F
:1042400049688163026230BD002C014030B5026ACA
:1042500022F480720262036A4268C46923F4007324
:1042600024F073050C682C438D6843EA05230C4D3C
:10427000A8420ED1CD6823F4006343EA05234D69BB
:1042800022F4405242EA05128D6923F4806342EA27
:1042900005124260C4614968C163036230BD000019
:1042A000002C014030B5026A22F480520262046A96
:1042B0004268C3690D6823F4E64343EA05238D6829
:1042C00024F4005444EA0534064DA84204D14D6953
:1042D00022F4804242EA85124260C3614968016467
:1042E000046230BD002C014010B5036A046A24F05A
:1042F00001040462846924F0F00444EA021423F007
:104300000A020A438461026210BD10B5036A23F0F9
:10431000100303628369046A23F4704343EA0232A0
:1043200024F0A00343EA01118261016210BD000084
:1043300070B51749D1E900328C6820E0242D0BD0EC
:104340002A2D11D02C2D16D1CD686D1CCD608E6913
:10435000761C43F825600EE0D1E9055642F8256049
:104360004D696D1C4D6106E00E698D6944F826505B
:104370000D696D1C0D618D696D1C401C8D6105788A
:104380002A2DDBD10020C8600861886170BD000063
:104390000400002010B5406A0021C185C184FEF7E9
:1043A00000FE10BD70B5446A2068406994F8391069
:1043B000C0F3C0100025212904D118B1E58420469E
:1043C00000F046F82068406994F83A10C0F3801075
:1043D000222904D118B1E585204600F02BF8E06BC6
:1043E00040F01000E0632046FEF7DBFD70BD10B525
:1043F0000146406A09680968890613D40021C1850D
:104400000168CA6822F48072CA6001684A6922F0B1
:1044100001024A6101684A6922F040024A61202192
:1044200080F83A10FEF71CFF10BD10B5406AFEF789
:1044300018FF10BD0168CA6822F49072CA60016852
:104440004A6922F001024A61202180F83A1070473F
:104450000168CA6822F0C002CA60202180F83910C1
:10446000704710B590F83A10222901D0022010BDF3
:104470008168B1F5805F11D00169002901681FD002
:10448000496801F07F03816A4A1C82620B70C18D0A
:10449000491E0904090CC18518D02BE00269816A04
:1044A000002A0268526805D0D2B20A80816A491C8B
:1044B0008162ECE7C2F308020A80816A891CF7E78F
:1044C0004A68816A4B1C83620A70E0E70168CA6827
:1044D00022F02002CA600168CA6822F48072CA60B1
:1044E00001684A6922F001024A61202180F83A10ED
:1044F000FEF7B6FE002010BD2DE9F041044600682D
:104500000169E26821F44051114301612169A06809
:104510000843616908432168CA6841F20C639A4301
:104520000243CA6020684169A26921F440711143C5
:1045300041614C4920686425322688423CD1FDF710
:10454000ABFF00EBC00101EB001061688900B0FB1C
:10455000F1F7FDF7A1FF00EBC00101EB001061686E
:10456000B0468900B0FBF1F0B0FBF5F06FF0180138
:10457000484307EB800106EB0110B0FBF5F000F0BB
:10458000F006FDF789FF00EBC00101EB0010616848
:104590008900B0FBF1F0B0FBF5F006EB0016FDF77B
:1045A0007BFF00EBC00101EB001061688900B0FBEC
:1045B000F1F7FDF771FF3BE0FDF75EFF00EBC00197
:1045C00001EB001061688900B0FBF1F7FDF754FFC3
:1045D00000EBC00101EB00106168B0468900B0FB40
:1045E000F1F0B0FBF5F06FF01801484307EB8001E4
:1045F00006EB0110B0FBF5F000F0F006FDF73CFF14
:1046000000EBC00101EB001061688900B0FBF1F024
:10461000B0FBF5F006EB0016FDF72EFF00EBC00136
:1046200001EB001061688900B0FBF1F7FDF724FF92
:1046300000EBC00101EB001061688900B0FBF1F0F4
:10464000B0FBF5F06FF01801484307EB800108EB71
:104650000110B0FBF5F0216800F00F0030448860D5
:10466000BDE8F0810038014090F83910212901D0CF
:10467000022070478168B1F5805F016A0BD04A1C47
:104680000262026809785160C18C491E0904090C54
:10469000C1840ED017E009880268C1F30801516097
:1046A00001690029016A02D0491C0162ECE7891CFA
:1046B000FBE70168CA6822F08002CA600068C1682E
:1046C00041F04001C160002070472DE9F04198465B
:1046D00017460E460446069D1DE0681C1BD02DB1F2
:1046E000FDF756FBA0EB0800A84214D92068C1686A
:1046F00021F4D071C1602068416921F0010141615C
:10470000202084F8390084F83A00002084F838002A
:104710000320BDE8F0812068006836EA000004D07C
:104720000020B842D9D00020F3E70120F9E70000CB
:104730000A4808B500680168C943C90608D4C168B9
:10474000C90605D50168406800900448FEF78AFD57
:10475000BDE808400148FEF725BC0000A40E00207B
:10476000FEE700000FB4084B10B504A902AA039895
:1047700000F008FC044602A9002000F09AFF204641
:1047800010BC5DF814FB0000B3560008490050EA65
:10479000C12018BF04204A0D18BF40F0010040F2AC
:1047A000FF72B2EB515F08BF40F00200012808BF62
:1047B000052070472DE9F74F144694B00021C4E955
:1047C00002111599079121F00045C9498D4206DC77
:1047D0001599C4E9000117B00020BDE8F08FC54964
:1047E000DFF814A3A9423CDD0799C44E0029C44F49
:1047F000C44A1599534619DDFBF78FFF554506D07E
:10480000C14AC24BFBF789FFC4E900010AE04FF03F
:10481000D352BE4BFBF781FF32463B46FBF77DFF91
:10482000C4E9000117B00120BDE8F08FFBF7D4FE0A
:10483000554506D0B44AB54BFBF7CEFEC4E900019E
:104840000AE04FF0D352B14BFBF7C6FE32463B466F
:10485000FBF7C2FEC4E9000117B04FF0FF30BDE81E
:10486000F08FAB49A942159978DB21F000418346CE
:104870008846A84AA84BFBF756FF0022A74BFBF738
:10488000ABFEFCF721FC0990FCF733F806460F4617
:104890009C4A5346FBF747FF43465A46FBF740FF07
:1048A00080468A46984A994B30463946FBF73BFF8B
:1048B0002A0D01250B9242465346FBF731FF032D8B
:1048C000C4E9000139D00B98C1F30A51401A05EB35
:1048D00045111139814230DA9148C346784400EBE2
:1048E0000510CDF80CA00C90D0E9002330463946D5
:1048F000FBF719FF02460B460491069058460399B0
:10490000FBF70BFF80468A4602460B465846039942
:10491000FBF703FF049B069AFBF7FFFE83460C9808
:1049200003913946D0E902233046FBF7FCFE5A4694
:10493000039BFBF7F2FE6D1CBDE707980028A2BFA2
:10494000099817B0BDE8F08F616881F0004161609F
:10495000099817B04042BDE8F08FFFE784461598EC
:10496000C1F31301C0F30A50A0F2F5304FEA60180A
:1049700000F01F06C6F1200013900020069007905B
:1049800041F4801E05206D4676B1664A08EB0001B1
:104990007A4452F8213002EB8101B3404A681399FE
:1049A00022FA01F1194305E05F4908EB000279445E
:1049B00051F82210A1FB0E27A1FB0C131A449A42B6
:1049C00034BF0123002303EB070A05EB8003D3E97F
:1049D00001B70F448F4234BF0121002193448B441F
:1049E00011B1934502D903E0934501D2012100E0C2
:1049F0000021C3E901B7514445F82010011EA0F180
:104A00000100C1DC0298059F00F10050800F129058
:104A10000298DDE903568000FBF76BFF83462846CA
:104A20000D91FCF744FB6FF01D02FCF729FBCDE96B
:104A30000E013046FCF73BFB6FF03D02FCF720FB1C
:104A400080468A463846FCF732FB6FF05D02FCF781
:104A500017FB0746424653461191FBF7BDFDDDE9C2
:104A60000E23FBF7B9FD5A460D9BFBF7B5FD00255C
:104A70000E465A4628460D9BFBF74FFEDDE90E23F6
:104A8000FBF74BFE42465346FBF747FE3A46119B67
:104A9000FBF746FEDFF898A0244A5346FBF743FE97
:104AA00007468846234A244B31462846FBF73BFEFF
:104AB0003A464346FBF790FD074688464FF0A8422A
:104AC000534631462846FBF72EFE3A464346FBF74F
:104AD00083FD159A12F0004F04D0129A81F0004124
:104AE00052421292C4E90001129817B0BDE8F08F4B
:104AF000FB21E93F7CD90240FB21F93F7370032E73
:104B00008A19A33B000040543163621A61B4D03D5E
:104B1000FB21394183C8C96D305FE43F0000E03FAD
:104B2000F84900007449000056490000182D44540B
:104B3000FB21F93D3326A611460B113C2DE9FF4D13
:104B400021F0004807460C46B8F1795F08DAFCF717
:104B5000BBFA002801BF0020324904B0BDE8F08D47
:104B60003A46234610461946FBF7DDFD0546024648
:104B70002D480E460B460621784400F05DF82A4683
:104B80003346FBF7D0FDDDE9022382468B463846EB
:104B90002146FBF7C8FD04460F4652465B462846B1
:104BA0003146FBF7C0FD22463B46FBF7B6FD074604
:104BB0008A464FF0FF3228463146FCF761FA1B4A1D
:104BC00090450ADA3A465346FBF7A7FD04B00022A7
:104BD000BDE8F04D134BFBF7A3BD154A4245A8BFF6
:104BE000A8F500154FF00004B8BF124D22462B4621
:104BF000FBF793FD0646884622462B4600200949CE
:104C0000FBF78BFD04460D463A4653463046414677
:104C1000FBF783FD04B022462B46BDE8F04DFBF7C1
:104C20007FBD00000000F03F2C4700003333D33F2E
:104C30000000E93F0000D23F2DE9F0414F1E00EB9C
:104C4000C7010446D1E9000115461E4637F00602A9
:104C50000DD02A463346FBF766FD7F1E04EBC703E3
:104C6000D3E90023FBF7B8FC37F00602F1D1022F9D
:104C700025D0042F13D0062F18BFBDE8F0812A4697
:104C80003346FBF750FDD4E90A23FBF7A5FC2A467F
:104C90003346FBF748FDD4E90823FBF79DFC2A4681
:104CA0003346FBF740FDD4E90623FBF795FC2A4683
:104CB0003346FBF738FDD4E90423FBF78DFC2A4685
:104CC0003346FBF730FDD4E90223FBF785FC2A4687
:104CD0003346FBF728FDD4E90023BDE8F041FBF79C
:104CE0007BBC00002DE9FF4D054621F0004084B05B
:104CF0000C46B0F1795F0BDA2846FFF747FD042830
:104D000008BF00F06FF8284608B02146BDE8F08DD6
:104D10002A460B461046FBF706FD06460F462A4676
:104D20002346FBF700FD804626488A4632463B462E
:104D300005217844FFF780FF83461098029160B305
:104D4000214A224B40465146FBF7EDFCCDE90001DC
:104D50005A4640465146029BFBF7E5FC8246884690
:104D6000DDE906014FF0FF32FCF78AF9524643466F
:104D7000FBF7D3FC32463B46FBF7D5FCDDE90623C7
:104D8000FBF7CBFCDDE90023FBF7C7FC08B02A46A4
:104D90002346BDE8F04DFBF7C3BC0B465A463046F0
:104DA0003946FBF7C0FC084A084BFBF715FC4246A6
:104DB0005346FBF7B8FC08B02A462346BDE8F04D41
:104DC000FBF70ABC6A460000495555555555C5BF05
:104DD0000122FCF755B90022134610461146FBF795
:104DE00014BD0000024A00201107FCF749B9000079
:104DF00001FDFFFF02E008C8121F08C1002AFAD116
:104E000070477047002001E001C1121F002AFBD14A
:104E1000704700000149086070470000DC00002076
:104E20002DE9FF5FDDE90220010DDDF838B0024316
:104E300018D044F61050A1F2FF3141430D140F98E1
:104E4000012820D0A5EB0B00401C5FEA000A4FF0C0
:104E50000004474EDFF81C91A046504616D5CAF113
:104E6000000728E00F98012443A2012808D0002160
:104E700000980F9BC0E90021C0E90243BDE8FF9FF5
:104E80006FEA0B01F4E7CBF10000DEE7074612E022
:104E9000F80707D02246334640464946FBF743FC15
:104EA000804689462246334610461946FBF73BFCAE
:104EB00004460E467F10002FEAD1DDE90201BAF167
:104EC000000F42464B4602DAFBF72DFC01E0FBF7F0
:104ED0009CFC04460E460022284BFBF70BFF03D830
:104EE0004FF0FF30014607E00022254B20463146B7
:104EF000FBF772FBFBF7E5FE102409E0002C0ADB50
:104F00000A220023FBF764FD019B30321A55641E10
:104F100050EA0102F2D1641C019AC4F11103144455
:104F20000F9A012A03D0012208430DD10AE0084359
:104F300004D000204FF0110B0F9080E7A3EB0B057E
:104F40006D1E0DE05B4504DD4FF0000205F101052B
:104F500004E003DA4FF00002A5F10105002AECD0CD
:104F600000980F99C0E90231C0E9004586E70000CA
:104F7000000024400000F03F300000000000F0433B
:104F80000000E03F2DE9FF4F95B09B46894606465D
:104F900000250FE2252877D100242746F84A012171
:104FA000059400E0044316F8013F203B01FA03F0AA
:104FB0001042F7D130782A2811D06FF02F033078C3
:104FC000A0F13002092A16D8059A44F0020402EB37
:104FD000820203EB42021044761C0590EFE759F879
:104FE000042B0592002A03DA504244F40054059041
:104FF00044F00204761C30782E2816D116F8010FE2
:1050000044F004042A280DD06FF02F023078A0F16C
:105010003003092B09D807EB870302EB4303C718BA
:10502000761CF3E759F8047B761C30786C280FD097
:1050300006DC4C2817D068280DD06A2814D104E06B
:10504000742810D07A280FD10DE044F400140AE03F
:1050500044F4801401E044F440147278824202D196
:1050600004F58014761C761C307866280BD013DC8F
:10507000582877D009DC002875D04528F6D0462876
:10508000F4D047281AD19DE118E0632835D0642870
:1050900079D0652812D195E1702873D008DC672893
:1050A000F1D069286FD06E280DD06F2806D1B5E0F9
:1050B00073282CD0752875D0782874D05A46179943
:1050C00090476D1C75E1C4F30250022809D00328F3
:1050D0000DD0D9F8001004280DD00D6009F1040995
:1050E00067E1D9F80010EA17C1E90052F6E7D9F8EC
:1050F00000100D80F2E70D70F0E719F8041B8DF831
:10510000001000208DF80100EA46012003E059F864
:1051100004AB4FF0FF3061074FF0000102D40DE007
:1051200008F101018846B9420FDA8045F8DB1AF828
:1051300008100029F4D108E008F1010188468142F5
:10514000FADB1AF808100029F6D105985B46A0EBA7
:10515000080721463846179A00F094FA284400EBD5
:10516000080507E04DE029E10DE01AF8010B5A4669
:1051700017999047B8F10108F7D25B4621463846A7
:10518000179A13E142E00A220092C4F302524FF050
:10519000000A022A08D059F804CB032A4FEAEC711E
:1051A0000AD00DE029E02AE009F1070121F0070209
:1051B000F2E802C1914609E00FFA8CFC4FEAEC716B
:1051C000042A03D14FFA8CFC4FEAEC71002907DA6C
:1051D0000A460021DCF1000C61EB02012D2202E005
:1051E000220504D52B228DF80420012203E0E207DA
:1051F00001D02022F7E7904659E00A2102E0102270
:105200000DE010214FF0000A00910BE010224FF04A
:10521000000A44F004040827009203E008224FF03B
:10522000000A0092C4F30252022A05D059F804CBB6
:105230000021032A08D009E009F1070121F0070243
:10524000F2E802C1914605E01FFA8CFC042A01D164
:105250000CF0FF0C4FF00008220728D5702806D06C
:10526000009B83F0100353EA0A0305D00EE04022AE
:105270008DF80420012208E05CEA010206D0302209
:105280008DF804208DF8050002229046009B83F0E3
:10529000080353EA0A030AD15CEA010201D162075A
:1052A00005D530228DF804204FF001087F1E5828C4
:1052B00004D034A003900EA802900DE036A0F9E7C8
:1052C00053466046009AFBF783FB84460398825C52
:1052D0000298401E029002705CEA0100F0D1029830
:1052E00006A9081A00F1200A600702D524F48034C8
:1052F00000E00127574502DDA7EB0A0000E000208F
:1053000000EB0A01009005984144401A0590E00323
:1053100006D45B462146179A059800F0B3F9054478
:10532000002706E001A85A46C05D179990476D1CFA
:105330007F1C4745F6DBE0030CD55B462146179AF8
:10534000059800F09FF9054404E030205A4617996B
:1053500090476D1C0099481E00900029F5DC08E07C
:10536000029802995A460078491C02911799904771
:105370006D1CBAF10001AAF1010AF1DC65E100003F
:10538000092801003031323334353637383961621B
:1053900063646566000000003031323334353637DF
:1053A00038394142434445460000000000F058F9B6
:1053B0000544761C307800287FF4ECAD19B02846FF
:1053C000BDE8F08F620700D4062709F1070222F03A
:1053D000070CFCE80223E14603F000485FEA080CF2
:1053E00002D00FF2702C0DE05FEA045C02D50FF2E0
:1053F000682C07E05FEAC47C02D00FF2602C01E069
:10540000AFF2700C4FF0FF3823F00043CDF850C0DE
:1054100065280CD006DC452809D046281DD0472831
:105420003DD13DE0662818D067287ED138E00021C4
:10543000112F01DB112000E0781CCDE9000106A945
:105440000EA8FFF7EDFCDDE90F010E9A0391002194
:10545000009207F1010A04914DE04FF000400097DF
:10546000CDE9011006A90EA8FFF7DAFCDDE90F026D
:1054700003920E9B11990022DDF80CA00093049278
:1054800011B9791C00EB010AB7EB0A0004D4C0F192
:10549000FF3007F1010A0490AAEB0700019044E0F5
:1054A000012F00DA01270021112F01DD112000E07A
:1054B0003846CDE9000106A90EA8FFF7B1FCDDE9E9
:1054C0000F010E9A0391002104910092BA46210720
:1054D0000CD40399514500DA8A46BAF1010F05DD73
:1054E000009AAAF10101515C302908D0B84202DAD1
:1054F00010F1040F06DA0121CDE9011015E0AAF13F
:105500000101E9E7002805DC049901440491AAEBB4
:10551000000102E0411C514500DD8A460499401A11
:10552000401C01904FF000400290200704D40198E5
:10553000504501DBCDF8048000208DF84F00029823
:105540000DF14F07B0F1004F25D02B200E9002989F
:105550004FF0020800280CDA404202902D200E90F5
:1055600007E00A210298FBF71DFA3031029007F894
:10557000011DB8F10001A8F10108F2DC0298002831
:10558000EFD1791E0E980870307800F0200040F0BE
:10559000450007F8020D12A8C01B00F10708149877
:1055A000007800B1012000EB0A01019801EBE071E5
:1055B00005984144401A401E0590E00306D45B461E
:1055C0002146179A059800F05DF805441498007874
:1055D00018B15A46179990476D1CE00324D55B46D5
:1055E0002146179A059800F04DF805441CE00498F0
:1055F000002807DBDDE90301884203DD0098405CF9
:10560000179901E0179930205A469047049805F100
:105610000105401C04900198401E019004D12E20E9
:105620005A46179990476D1CBAF10001AAF1010A78
:10563000DDDC05E017F8010B5A46179990476D1C01
:10564000B8F10001A8F10108F4DC5B462146179A85
:105650000598ABE62D0000002B00000020000000A4
:105660002DE9F041044600251E461746880404D45F
:1056700005E039462020B0476D1C641EF9D5284648
:10568000BDE8F0812DE9F041044600251E46904614
:10569000C80301D5302700E02027880404D505E0A1
:1056A00041463846B0476D1C641EF9D52846BDE812
:1056B000F0810A68531C0B6010707047F0B50478D5
:1056C000DDE90557E6074FF0010C4FF0000419D053
:1056D0001E7F5FEAC67E4FF0804607D04FF6FF7E02
:1056E000C6F834E01E7F26F0010606E042F2107E86
:1056F000C6F834E01E7F46F001061E77AE7387F8C9
:1057000000C00BE00E78F60708D09678761C76B2CB
:105710009670012E00DD94709678EE730678B607C9
:105720000BD55678761C76B2567092F900E0764525
:1057300001D1761C56706E730DE00E78B6070CD54D
:105740001678761C76B2167092F901E0764501D192
:10575000761C16702E7387F800C0027852070AD59F
:1057600093F91C20960702D522F0020201E042F0D4
:1057700002021A7706E00A78520703D55C606C6073
:1057800087F800C00278120703D51C602C6087F8E8
:1057900000C004700C70F0BD0749884201DA262071
:1057A0007047054949420844B0F1D47F01D2132023
:1057B0007047002070470000000020410A498842DD
:1057C00001DA1B207047084949420144B1F1D47FF6
:1057D00001D21220704705490844B0F1D97F01D2A7
:1057E000092070470020704700002041000038BDAC
:1057F00000B5244B21F0004287B09A42DCBF002262
:10580000134629DD204B9A4208D140B94FF00100E0
:10581000FFF700FBFFF7DFFA07B000BD03DBFFF780
:10582000D7FA07B000BD02AAFEF7C4FF10F00301CB
:1058300004BF0DF1080C9CE80F000DD001200129D8
:105840000ED0022914D00DF1080C00909CE80F0036
:10585000FFF748FA07B000BDFFF770F907B000BDC9
:105860000DF1080C00909CE80F00FFF73BFA05E0F3
:105870000DF1080C9CE80F00FFF760F907B081F00C
:10588000004100BDFB21E93F0000F07F2DE9F0471A
:1058900091461E462AA22BA10FF2AC082BA7012885
:1058A00002D0022803D004E03546144601E0351D3D
:1058B0000C460021264800F064FF2649244800F0E9
:1058C00050FF25492868884205DAFBF73CF80B466B
:1058D000024622A104E0FBF736F80B46024621A15E
:1058E0002248FEF73FFF2868FFF756FF00F1180136
:1058F00009EB09101E2202EB400082B21B4B144838
:1059000000F0E6FE307F800701D53A4600E04246CF
:10591000234617A11548FEF725FF17490C4800F04C
:1059200020FF03210A4800F02CFF09EB4910BDE8D5
:10593000F047163082B20D4B0E21054800F0C8BE6C
:1059400041000000420000002B0000002D0000007C
:10595000380A00204386000800007A44252E32666B
:1059600000000000252E316600000000F80900202C
:1059700025732573000000008C8100082DE9F84391
:105980001646012811D001EB41151E2201EB01172B
:105990001C354FF00F0802EB470402280DD00328F6
:1059A0004ED00A460146012002E00A460146022086
:1059B00001B0BDE8F043FFF769BF3F493F4800F041
:1059C000D0FE03213D4800F0DCFEAAB23CA30E212C
:1059D0003A4800F07DFE0021384800F0D2FE3949F7
:1059E000364800F0BEFE3078412805D0562860D1F8
:1059F000A2B235A3182156E0062000EB4707034664
:105A00004546BAB278212D48CDF8008000F0FFFD60
:105A100000212A4800F09DFEBAB2032378212748CE
:105A2000009500F0F4FD0121244800F092FE28A129
:105A300029487268FEF796FEA2B2274B362132E063
:105A40001D491E4800F08DFE03211C4800F099FE00
:105A5000AAB222A30E21194800F03AFE00211748ED
:105A600000F08FFE1749154800F07BFE3078412882
:105A7000BCD11BA11848726CFEF774FEA2B2164B83
:105A800036210E4800F024FE0B490C4800F069FE58
:105A900008EB470082B213A36E21084800F018FEFD
:105AA000A2B211A36E2101B00448BDE8F04300F09A
:105AB0000FBEBDE8F88300008C810008380A002082
:105AC000434F5200438600084E4F2046495800007D
:105AD0002530336400000000F809002053504400D2
