:020000040800F2
:10000000C01800209901000813210008631F000890
:100010001121000831100008952800080000000098
:1000200000000000000000000000000001010008C6
:1000300033100008000000004501000831250008C9
:10004000B3010008B3010008B3010008B3010008C0
:10005000B3010008B3010008B3010008B3010008B0
:10006000B3010008B3010008B3010008B3010008A0
:10007000B3010008B3010008B3010008B301000890
:10008000B3010008B3010008B3010008B301000880
:10009000B3010008B3010008B3010008B301000870
:1000A000B3010008B3010008B3010008B301000860
:1000B000B3010008B3010008B3010008B301000850
:1000C000B3010008B3010008B3010008B301000840
:1000D000B301000889280008B3010008B301000833
:1000E000B3010008B3010008B3010008DFF80CD029
:1000F00000F098FD004800473D330008C01800207C
:10010000224B19680868B0E8F00F80F30988BFF344
:100110006F8F4FF0000080F311884EF00D0E704786
:100120000000000006480068006880F3088862B696
:1001300061B6BFF34F8FBFF36F8F00DF00BF00BF0B
:1001400008ED00E0EFF30980BFF36F8F0F4B1A68E3
:1001500020E9F00F106008B54FF0500080F31188CF
:10016000BFF34F8FBFF36F8F04F002FC4FF000001E
:1001700080F31188BDE8084019680868B0E8F00FFE
:1001800080F30988BFF36F8F704700BF48000020DD
:10019000EFF3058070470000064880470648004797
:1001A000FEE7FEE7FEE7FEE7FEE7FEE7FEE7FEE727
:1001B000FEE7FEE7A9250008ED000008202A04DB81
:1001C000203A21FA02F00021704721FA02F3D040D0
:1001D000C2F12002914008431946704740EA0103EA
:1001E0009B0703D009E008C9121F08C0042AFAD2ED
:1001F00003E011F8013B00F8013B521EF9D27047B1
:10020000D2B201E000F8012B491EFBD27047002258
:10021000F6E710B513460A4604461946FFF7F0FF05
:10022000204610BD30B505460020034600E05B1CAB
:10023000934205D2EC5CC85C201A01D1002CF6D1A7
:1002400030BD00000FB400B58DB010A909900B901F
:1002500000914FF0FF300A9000200C900548069066
:10026000054807906A4609A80F9900F0C7FB0DB032
:100270005DF814FB190A0008370A00082DE9FF5F32
:100280001D464FF0FF3BD5E9014691465F464FF0D2
:100290000008A9697F1C01988847296A8246884717
:1002A0000028F6D1BAF1FF3F0CD024F4C064002E30
:1002B00019DD600614D5BAF12B0F09D0BAF12D0F54
:1002C0000ED103E0584604B0BDE8F09F44F48064CA
:1002D000A9697F1C01988847761E8246002E02DDA0
:1002E000BAF1300F03D0B9F1000F26D032E0A9697E
:1002F000761E44F400747F1C019888478246002EC5
:1003000005DDBAF1780F06D0BAF1580F03D0B9F174
:10031000000F10D01EE0B9F1000F02D0B9F1100F9C
:1003200018D1A969761E24F400747F1C01988847AF
:100330008246102002E0082000E00A20814609E001
:1003400008FB0908A969761E44F400747F1C019813
:1003500088478246002E05DD4946504600F039FBAD
:100360000028EDDAE96901988847A00502D46FF00A
:100370000100A8E7E00725D1600613D5600502D586
:10038000C8F1000000E0404629680A1D2A6009689B
:10039000220501D5087015E0220701D5088011E07B
:1003A00008600FE02868011D29600068210502D55A
:1003B00080F8008006E0210702D5A0F8008001E067
:1003C000C0F8008038467EE72DE9FF5FD2E901A73B
:1003D0004FF00008916999461446DDF838B046465A
:1003E00001988847054659EA0B0005D009E0A16944
:1003F000761C019888470546216A284688470028C8
:10040000F5D1681C03D05FEACA7005D015E04FF043
:10041000FF3004B0BDE8F09F2068011D2160D0F8D6
:1004200000800AE05FEACA7001D108F8015BA169A7
:10043000761C7F1E019888470546002F1ADD681C30
:1004400018D0B9F1000F0DD0E81705EBD0604211BC
:1004500020F01F0059F822102A1A01209040014272
:10046000E0D107E0BBF1000FDCD1216A28468847C4
:100470000028D7D0E16901988847BBF1000F07D168
:10048000002E05DD5FEACA7002D1002188F8001055
:10049000A068B84203DDBBF1000F03D017B16FF0C5
:1004A0000100B6E73046B4E7F0B480EA0102D40FA9
:1004B0004200B2EB410F02D20246084611464A0002
:1004C00042D0C30DDDB2C1F3C752AD1A202D35DACB
:1004D000C1F3160141F4000204B15242C5F12006F5
:1004E00002FA06F12A411044B3EBD05F23D0C4B125
:1004F000012DA0EBC35009DCF0BC4FF0004202EA32
:10050000C352DBB200F5000000F0AFBA400000F1CA
:10051000807000EBC350A0F1807040EAD1704900B8
:1005200009E0490841EAC071A0EBC35000F50000A2
:10053000400800EBC350F0BC00F08EBA61420122CB
:1005400002EB4101001BF6E7F0BC704781F000416F
:10055000AAE780F00040A7E780EA010210B502F0A8
:100560000043400022D04A001FD0010E01EB12616F
:10057000C0F35600C2F3560240F4000042F40002F9
:10058000A0FB022000047F39140400D0401C50EA74
:10059000124001D44000491EC2B20C0604EBD01038
:1005A000401C4008802A02D003E0002010BD20F04B
:1005B0000100002900DA0020184310BD420005D0D8
:1005C000C0F3C7525242914201DC0020704700EB59
:1005D000C15070472DE9FE4F804681EA0300C00FED
:1005E0000C46009021F0004123F00045B8EB0200DA
:1005F000A94105D24046214690461C460B4602467C
:1006000023F00040104347D0270DC7F30A00C3F37F
:100610000A510290401A019040286BDAC3F313008C
:1006200040F4801B0098924620B10023D2EB030ACD
:1006300063EB0B0B01985946C0F14002504600F0A5
:10064000A7F906460D4650465946019A00F0AFF903
:1006500010EB08006141002487EA115284EAE77335
:100660001A4340D0009A62B3019A012A4FEA075216
:1006700015DC001B61EB02014FF0004202EA075259
:10068000CDE90042001C41F5801132462B4600F0B6
:1006900029FA03B0BDE8F08F40462146F9E7001B78
:1006A00061EB0201001C41F5801300185B4120182A
:1006B000A2F5001747EB030140EAD570B6196D416A
:1006C00011E06D084FEA360645EAC0754FEA075259
:1006D000001B61EB0201001C41F5801149084FEA43
:1006E00030000019514132462B4603B0BDE8F04FAF
:1006F00000F0E9B90098012240000023D0EB02028B
:1007000063EBE073009821464FEAE074B8EB000019
:1007100061EB0401E9E783F000435BE781F000410E
:1007200058E72DE9FE4F81EA030404F0004421F06C
:10073000004100944FF0000B23F0004350EA010405
:100740005ED052EA03045BD0C3F30A54C1F30A55E6
:100750002C44A4F2F3340194A0FB0254C1F313011E
:1007600041F48011C3F3130343F4801301FB0244EB
:1007700000FB034E840A970A44EA815447EA8357F0
:10078000A4FB076802958D0A05FB07854FEA932CA9
:1007900004FB0C542705029D4FEA065847EA16371A
:1007A000B5EB08056EEB070C870E920E47EA811732
:1007B00042EA8312A7FB0201B6EB0B0164EB0004D3
:1007C0002B0D43EA0C335E1844EB1C50DA465146BD
:1007D000E7FB0201C5F313044FEA0B3343EA14535A
:1007E0004FEA0432019C43EA0603A4F10C0402948C
:1007F000009CCDE900B400F075F903B0BDE8F08FBE
:1008000000200146F9E72DE9F04D81EA030404F0E8
:10081000004B21F0004514464FF0000A23F0004140
:1008200050EA050220D054EA01021DD0C5F30A5750
:100830000246C5F31303C1F31300C1F30A5640F493
:10084000801543F48013A7EB0608101BD64608F268
:10085000FD3873EB050002D308F1010801E092189E
:100860005B41B8F1000F03DA00200146BDE8F08DCE
:1008700000204FF48011064684460EE0171B73EBF0
:10088000050705D3121B63EB050306434CEA010C75
:1008900049084FEA300092185B4150EA0107EDD158
:1008A00052EA030012D082EA040083EA05010843F9
:1008B00005D0101BAB4106D20122002306E0002226
:1008C0004FF0004302E06FF0010253101AEB0600F4
:1008D0004CEB085110EB0A0041EB0B01BDE8F04D69
:1008E00000F0F1B80EB5C10F80EAE0700844CA0705
:1008F000002140F233438DE80E000A460B4600F01B
:10090000F1F803B000BD00F0004230F000400AD022
:10091000C10D01F56071C0F3160042EA0151C20831
:1009200040071143704700200146704701F0004323
:1009300030B421F0004150EA010206D00A0DA2F5C0
:100940006072C1F31301002A02DC30BC0020704742
:10095000440F44EAC104C100E01830BC00EBC250AF
:1009600000F07AB830B50B46014600202022012461
:1009700009E021FA02F59D4205D303FA02F5491B6D
:1009800004FA02F52844151EA2F10102F1DC30BD83
:10099000202A04DB203A00FA02F10020704791403F
:1009A000C2F1200320FA03F3194390407047202A34
:1009B00006DBCB17203A41FA02F043EAE07306E087
:1009C00041FA02F3D040C2F1200291400843194697
:1009D00070473A2800D2303820F02002412A01D353
:1009E000A2F13700884201D34FF0FF30704700007A
:1009F000026811441378016018467047D1600449B9
:100A000051610449116200211161114600F022B9BF
:100A1000F1090008490C0008426842B1016811F868
:100A2000013B23B1521EC0E9001218467047012154
:100A3000C160881E704742685AB1C368016843B9F3
:100A400083688B4205D0491E521CC0E90012002069
:100A500070474FF0FF3070470029A8BF7047401C17
:100A6000490008BF20F00100704710B4B0FA80FCC4
:100A700000FA0CF050EA010404BF10BC704749B101
:100A8000CCF1200421FA04F411FA0CF118BF012171
:100A900021430843A3EB0C01CB1D4FEA00614FEA51
:100AA000102042BF002010BC704700EBC350104420
:100AB0000029A4BF10BC7047401C490008BF20F0AB
:100AC000010010BC704710B5141E73F1000408DA61
:100AD000401C41F1000192185B411A4301D120F002
:100AE000010010BD2DE9F04D92469B4611B1B1FABF
:100AF00081F202E0B0FA80F220329046FFF748FF20
:100B000004460F4640EA0A0041EA0B0153465A46A2
:100B1000084313D0114653EA010019D0C8F140022E
:100B20005046FFF74BFB05460E4650465946424697
:100B3000FFF72EFF084305D0012004E02046394688
:100B4000BDE8F08D0020054346EAE0762C433743AC
:100B50000A986305E40AA0EB08000022FD0A44EAB3
:100B600047540A3002D500200146E9E70105101973
:100B70006941DDE9084500196941BDE8F04DA2E78A
:100B80002DE9F04D00231A461B1A8A4103DB002091
:100B90000146BDE8F08DC1F30A52C1F3130141F4DF
:100BA00080154FF0000BD10702D100186D41521E85
:100BB0000027044640F2FF11384601EB620A3E4628
:100BC0008046024600204FF48011FFF7F7FAC21961
:100BD0007141BB1846EB0100B4EB030C75EB000C44
:100BE00004D3E41A65EB000517460E46241908F1F4
:100BF00001006D4180463428E3DDF91946EB06001B
:100C0000091BA84103D24FF0FF32134601E0002236
:100C100013461BEB070046EB0A51BDE8F04DFFF70A
:100C200052BF0000064C074D06E0E06840F00103AB
:100C300094E8070098471034AC42F6D3FFF75AFA0D
:100C40000C5900082C590008C0B24FF4F05100F0C4
:100C5000DBB900002DE9F34F8BB04FF0000801F134
:100C60000C000C464FF0010B46460DF1080A0190AE
:100C70006269012101989047051E2DD0252D2CD0A9
:100C8000216A8847C0B16269012101989047216AB1
:100C900088470028F7D1411E62690198904700E01B
:100CA000761CA1690B988847216A88470028F7D1EC
:100CB000E1690B988847DBE7A1690B9888470746ED
:100CC000A84201D1761CD3E7E1690B9888477F1CC5
:100CD00002D1B8F1000F6FD046E1002762693D46AE
:100CE0003946019890472A2804D162690121019868
:100CF00090470125DFF884926269012101989047AD
:100D0000A0F130010A290AD24F45E5DC07EB870143
:100D100000EB4107303FDFD445F01005ECE7E90672
:100D200001D46FF000476C280AD04C2814D06828F2
:100D300015D06A280DD074281CD07A281AD01DE04E
:100D400062690121019890476C2802D045F00405A2
:100D500014E045F002050DE045F020050AE0626967
:100D6000012101989047682802D045F0080505E068
:100D700045F400656269012101989047C4E9015773
:100D800065283DD019DC58287AD00CDC452837D0AE
:100D900004DC252826D0412831D131E046282FD047
:100DA00047282CD12CE05B2877D0612828D06328F5
:100DB0007CD0642823D15AE0D0E06F2848D008DCEA
:100DC00066281DD067281BD0692821D06E2816D12F
:100DD00027E0702845D0732868D0752847D0782838
:100DE0000DD14DE0A1690B988847054625283FF4B1
:100DF00069AFE1690B9888476D1C3FF46AAFB3E0B7
:100E000023466A466FF001000B99AFF300809EE025
:100E100045F040006060A80723464FF0000236D43A
:100E20003EE0E8077FF447AF2068011D21600068BD
:100E3000290501D506701BE7290701D5068017E7AC
:100E4000A90703D5F117C0E9006111E706600FE7B4
:100E500045F040006060A80723464FF0080216D412
:100E60001EE040F60E0125EA0100606016E045F044
:100E700040006060A80723464FF00A0207D40FE045
:100E800045F040006060A80708D5234610226FF0A7
:100E900001000B99AFF3008059E007E023461022D0
:100EA0006FF001000B99FFF7E9F950E04FF00009EE
:100EB0004F464B46632802D05B2806D040E0E80648
:100EC00001D40120A06001273AE062690121019864
:100ED00090475E2805D14FF00109626949460198A3
:100EE0009047216939B900210A46534643F8212029
:100EF000491C0829FADBB0B3216969B9C11700EBB5
:100F0000D16253110AEB830122F01F02821A0120E1
:100F10000B68904003430B60626901210198904780
:100F20005D28E8D1B9F1000F09D00020514651F8F1
:100F30002020D24341F82020401C0828F7DB02ABD8
:100F4000224600976FF001000B99FFF73DFA002849
:100F50000CDA401C08D1BBF1000F05D04FF0FF3078
:100F60000DB0BDE8F08FFFE74046F9E7E90701D192
:100F700008F1010806444FF0000B79E6CCCCCC0C0C
:100F800070B521F0004303430CD0C1F30A5500248F
:100F9000D5EB040564EB0403D617AD1AB34102DBAD
:100FA0000020014670BD201841EB025170BD0EB506
:100FB00040F2334102910021CDE900110A460B466F
:100FC000FFF790FD03B000BD70B5C1F30A5201F008
:100FD00000450024C1F3130140F2FF3341F48011B6
:100FE0009A4201DA002070BD40F233439A42A2F2E5
:100FF000334203DC5242FFF7E1F800E090402C431B
:10100000F1D0404270BD00007F2801D9002208E0E5
:10101000064A02EB5002C007127800D1120902F012
:101020000F0201209040084070470000A8580008B7
:10103000FEE7704710B500F00FF8FFF764FC044AB4
:10104000044BFFF76EFBBDE81040FFF76FBC0000DC
:101050003480B74002E3B8402DE9F05F0546481BF5
:101060000C468010FFF73EFCDFF8CC90DFF8CCA0F8
:101070004A465346FFF755FBDFF8C4B000225B46F3
:10108000FFF7C1FB2F4A304BFFF74BFBFFF74EFC3E
:1010900006466968606802F079FCFFF723FC4A465F
:1010A0005346FFF73EFB00225B46FFF7ACFB254AA9
:1010B000254BFFF736FBFFF739FC80464FF0FF3139
:1010C0003046FFF77BFAFFF71EFC07460C46286800
:1010D000FFF708FC4A465346FFF723FB00225B4616
:1010E000FFF791FB174A184BFFF71BFB3A462346C5
:1010F000FFF770FA02F0D4F805460C464046FFF7B9
:1011000002FC2A462346FFF70CFBFFF70FFC0446C0
:1011100031460846FFF720FA054621460846FFF704
:101120001BFA2946FFF7C0F9FFF7EDFB02F048FC78
:10113000BDE8F05FFFF7FABB6F1283C0CA21094018
:101140000080664048AFBC9AF2D77A3E10B590F85E
:1011500021100024022903D00421816301243DE0F1
:1011600001680A6822F00E020A6001680A6822F02B
:1011700001020A601A4A0168914201D1012121E06D
:10118000174A1432914201D110211BE0144A28322F
:10119000914201D1891515E0114A3C32914201D1A9
:1011A00089140FE00E4A5032914202D14FF480313F
:1011B00008E00B4A6432914202D14FF4801101E001
:1011C0004FF08071064A083A5160012180F82110E1
:1011D000002180F82010416B01B18847204610BDE6
:1011E0000800024031B500F0F3F8009C0546601C91
:1011F00000D0641C00F0ECF8401BA042FAD338BDCC
:101200002DE9F84FDFF890A100220AF1040B1446F3
:1012100001274FF00F090BF1040E00BF0B6807FA0E
:1012200004F52B40AB4274D1DFF870C14E68A6EBD9
:101230000C0866452BD00DDC032E34D005DC36B30C
:10124000012E19D0022E2FD11BE0112E16D0122EF6
:101250002AD119E0B8F5881F19D006DCB8F5803F0F
:1012600015D0B8F5801F1FD111E0B8F5001F0ED0C2
:10127000B8F5041F18D10AE0CA6815E0CA68121D43
:1012800012E0CA6808320FE0CA680C320CE08A68C3
:101290002AB1012A4FF0080203D0456104E004227C
:1012A00002E0056100E00022FF2B01D8064601E0C4
:1012B00000F104064FEA840501D9A5F12005D6F80E
:1012C00000C009FA05F82CEA080C02FA05F54CEA08
:1012D000050CC6F800C04D68ED0057D5304DAE691D
:1012E00046F00106AE61AD6924F0030605F0010584
:1012F00000952C4D06EB050CDCF80850A6074FEACC
:10130000167809FA08F6B543274EB04202D10026F6
:1013100010E03BE0254EB04201D101260AE0244E08
:10132000B04201D1022605E0224EB04201D103268F
:1013300000E0042606FA08F62E43CCF808604D6853
:10134000DAF80060ED03554601D51E4300E09E43E8
:101350002E604D68DBF80060AD035D4601D51E438D
:1013600000E09E432E604D68DEF80060ED02754699
:1013700001D51E4300E09E432E604D68AD020E4D28
:101380002E6801D51E4300E09E432E60641C102C85
:10139000FFF444AFBDE8F88F0004014000001110D5
:1013A000001002400000014000080140000C014014
:1013B00000100140001401400C040140C2684A4082
:1013C000C26070470AB1016170470904FBE7000081
:1013D00001480068704700000400002002480168CE
:1013E000491C01607047000004000020074810B548
:1013F000016841F010010160032000F08BF80F201C
:1014000000F006F800F018F8002010BD002002409F
:1014100010B5044607484FF47A710068B0FBF1F04C
:1014200000F038FC00222146501E00F053F8002046
:1014300010BD0000000000201E4808B5816941F081
:1014400001018161806900F001000090032000F03B
:1014500061F8002211466FF00B0000F03BF800220B
:1014600011466FF00A0000F035F8002211466FF0C7
:10147000090000F02FF800221146501F00F02AF852
:1014800000221146101F00F025F800220F21901EA7
:1014900000F020F800220F21501E00F01BF8064833
:1014A000416821F0E0614160416841F000714160B4
:1014B00008BD0000001002400000014000F01F02C3
:1014C000012191404009800000F1E020C0F80011A6
:1014D00070470000F0B40E4B1B680C46C3F30223A8
:1014E000C3F10705042D00D90425191D072901D2D0
:1014F000002300E0DB1E012606FA05F1491E21400B
:1015000099409E40761E16403143F0BC00F002BE6A
:101510000CED00E0064900F0070208684FF6FF03F3
:10152000184040EA0220034A104308607047000058
:101530000CED00E00000FA052DE9F047DFF83C81F2
:1015400005460E46D8F8000000F00700B0420CD265
:10155000D8F8001021F007013143C8F80010D8F87E
:10156000000000F00700B04263D12878444C8007A7
:1015700005D56068A96820F0F0000843606028780D
:10158000C00745D06868012816D02168022816D007
:10159000890700294DDA616821F003010143616088
:1015A000FFF716FF6968074641F2883001290FD01E
:1015B0000229814619D027E021688903E9E78901DA
:1015C000E7E700BFFFF704FFC11B494501D918E059
:1015D00081466068C0F381000128F3D118E000BFA4
:1015E000FFF7F6FEC11B49450BD86068C0F38100C8
:1015F0000228F5D10CE000BFFFF7EAFEC11B494508
:1016000002D90320BDE8F087606810F00C0FF3D119
:10161000D8F80010404601F00701B1420BD901682B
:1016200021F0070131430160006800F00700B0427B
:1016300001D00120E6E72878400705D56068E96811
:1016400020F4E060084360602878000706D56068F1
:10165000296920F4605040EAC100606000F03CF865
:101660006168084AC1F30311515CC840064908602B
:101670000F20FFF7CDFE0020C4E70000002002404D
:10168000001002401C5200080000002001480068C1
:1016900070470000000000200448054900684968C0
:1016A000044AC1F30221515CC84070470000002089
:1016B000001002402C52000804480549006849689F
:1016C000044AC1F3C221515CC840704700000020A9
:1016D000001002402C52000810B512A385B00FCBA9
:1016E0008DE80F0013A0144B006804905A6813484B
:1016F00002F00C0104290FD008290DD1C2F3834454
:10170000D2031DF8041009D55A6804ABC2F3404255
:101710009A5CB0FBF2F0484305B010BD084848435E
:10172000FAE7000002030405060708090A0B0C0D7E
:101730000E0F1010010200000010024000127A008B
:1017400000093D002DE9F84F04460078B94DC00767
:1017500048D06868C0F38100012807D06868C0F3EA
:101760008100022809D16868C00306D52868800373
:1017700038D5606800286FD034E06068B0F5803FED
:101780000BD010B1B0F5A02F11D0286820F4803014
:101790002860286820F4802002E0286840F4803027
:1017A0002860606888B1FFF713FE064609E02868E4
:1017B00040F480202860F0E7FFF70AFE801B6428D1
:1017C00075D828688003F7D50CE0FFF701FE0646C0
:1017D00005E000BFFFF7FCFD801B6428F0D82868F7
:1017E0008003F7D42078944E80074FF001094FF022
:1017F00000083BD5686810F00C0F07D06868C0F38C
:101800008100022809D16868C00306D428688007CF
:1018100014D5206901281FD110E02069B0B1C6F8A5
:101820000090FFF7D5FD074605E000BFFFF7D0FDAC
:10183000C01B0228C4D828688007F7D528686169CA
:1018400020F0F80040EAC10028600FE0C6F80080F0
:10185000FFF7BEFD074606E0E9E000BFFFF7B8FD71
:10186000C01B022823D828688007F7D420780007F7
:101870002CD57248A169D9B1C0F80090FFF7A8FD36
:10188000074604E0FFF7A4FDC01B02280FD8686AD2
:101890008007F7D56A484FF4FA510068B0FBF1F0C1
:1018A000009000BF0098411E0091FAD20EE080E047
:1018B000C0F80080FFF78CFD074604E0FFF788FDC5
:1018C000C01B022875D8686A8007F7D420784007C3
:1018D00060D5E8690027C00008D4E86940F080506E
:1018E000E861E869012700F08050009055480168E0
:1018F000C90513D40168834641F480710160FFF784
:1019000067FD824606E000BFFFF762FDA0EB0A001C
:1019100064284ED8DBF80000C005F5D5E068012842
:101920000AD008B1052813D0286A20F001002862E7
:10193000286A20F0040002E0286A40F001002862D2
:10194000E06841F2883B98B1FFF742FD82460BE028
:10195000286A40F004002862EEE700BFFFF738FD78
:10196000A0EB0A0159455AD8286A8007F6D50CE041
:10197000FFF72EFD824605E0FFF72AFDA0EB0A01E6
:1019800059454CD8286A8007F6D41FB1E86920F081
:101990008050E861E06988B36968C1F38101022978
:1019A00045D00228C6F8608004D0FFF711FD044638
:1019B00038E034E0FFF70CFD074604E0FFF708FDD0
:1019C000C01B02282BD828688001F7D4206AB0F504
:1019D000803F05D16868A16820F400300843686042
:1019E000D4E908010843696821F474110843686068
:1019F000C6F86090FFF7ECFC044606E015E000BF77
:101A0000FFF7E6FC001B022809D828688001F7D5FB
:101A10000BE000BFFFF7DCFC001B022802D903200B
:101A2000BDE8F88F28688001F4D40020F8E7012091
:101A3000F6E70000001002400000424280044242EB
:101A4000000000200070004090F85100704770B511
:101A5000040005D00025A56294F8510010B104E0FF
:101A6000012070BD204600F033F8022084F85100B8
:101A70002068016821F040010160D4E901010843B8
:101A8000D4E903121143084361690843218B01F42F
:101A900000710843E1690843216A0843A16A0843C9
:101AA00021680860A069042101EA1040616A0843C6
:101AB000216848602168E06A08612068C16921F4F2
:101AC0000061C1616565012084F85100002070BD8E
:101AD00000B500680C4985B0884213D10B48C16934
:101AE00041F48041C161C069694600F480400490BE
:101AF0004FF42040009002200190032003900448FE
:101B0000FFF77EFB05B000BD00380040001002402A
:101B1000000C01402DE9F84F044690F850000026D3
:101B2000994617460D4601280DD04FF0010B84F859
:101B300050B0FFF74DFC804694F85100B2460128A2
:101B400004D0022694E00220BDE8F88F002D7BD05F
:101B5000002F79D0032084F85100C4F854A02563E5
:101B6000A786E786C4F838A0A4F83CA0A4F83EA055
:101B7000C4F844A0C4F840A0A068B0F5004F04D158
:101B80002068016841F480410160206801684906CD
:101B900003D4016841F040010160E068B0F5006FD6
:101BA000606804D030B3E08E012823D03EE010B14D
:101BB000E08E01281AD135F8021B206805E0206864
:101BC0008168890706D535F8021BC160E08E401E8A
:101BD000E0860BE0B9F1000F34D0B9F1FF3F05D03A
:101BE000FFF7F6FBA0EB080149452BD2E08E002859
:101BF000E5D11EE0216815F8010B087306E02068A6
:101C00008168890706D515F8011B0173E08E401E17
:101C1000E0860BE0B9F1000F14D0B9F1FF3F05D019
:101C2000FFF7D6FBA0EB080149450BD2E08E002858
:101C3000E5D14B46012202212046CDF8008000F07C
:101C400037FB10B1032613E011E042464946204617
:101C500000F01EFB18B101262020606508E0A06896
:101C600018B92068C16880680090606D00B10126D5
:101C700084F851B084F850A0304665E74FF0E02179
:101C80000428086903D020F004000861704740F080
:101C90000400FAE710B5401EB0F1807F01D30120A7
:101CA00010BD4FF0E02460610F21601700F032FAA0
:101CB0000020A06107202061002010BD70470000B7
:101CC00070B5026804461068D168536910F00F0FB0
:101CD00050D003F0010501F4907635435DD0C20782
:101CE00005D0CA0503D5E26B42F00102E263420768
:101CF00005D5DA0703D0E26B42F00202E263820705
:101D000005D5DA0703D0E26B42F00402E263020772
:101D100005D5DA0703D0E26B42F00802E263E26B1A
:101D2000002A33D0800604D5880602D5204600F06C
:101D300075FC20684069E16BC0F38010090700D48E
:101D400028B3204600F05CFC2068416949061AD59A
:101D5000416921F040014161606BA0B11B494163C1
:101D6000606BFFF7F3F9002810D0606B416BBDE8A2
:101D700070400847830610D58B060ED52046BDE877
:101D8000704000F04BBC2046FFF798FF70BD204626
:101D9000FFF794FF0020E06370BD030606D50B0635
:101DA00004D52046BDE8704000F03CBD4006F3D5A8
:101DB0004806F1D5D168204621F04001D1602021AC
:101DC00084F8391000F0CCF870BD0000F12500084F
:101DD00070B5040004D094F83900002510B106E075
:101DE000012070BD84F83850204600F023F82420EC
:101DF00084F839002068C16821F40051C160204690
:101E000000F058FC2068016921F4904101612068CC
:101E1000416921F02A0141612068C16841F4005103
:101E2000C160E563202084F8390084F83A0000207E
:101E300070BD000010B50068154986B0884225D1F4
:101E40001448816941F4804181618069124C00F439
:101E5000804004904FF40070009002200190032015
:101E6000039069462046FFF7CBF900212015CDE904
:101E70000001029169462046FFF7C2F900220521C0
:101E80002520FFF727FB2520FFF718FB06B010BD24
:101E900000380140001002400008014090F83A303C
:101EA000202B22D1F9B1F2B190F83830012B1CD09F
:101EB00081628285C2850021C163222280F83A2096
:101EC00080F838100168CA6842F48072CA600168FC
:101ED0004A6942F001024A610068C16841F020018C
:101EE000C160002070470120704702207047000049
:101EF00010B5154C0021616000681449884221D159
:101F000041141348FFF75AFA21780A290BD0114AD5
:101F100060781154401C60702146BDE810400122D9
:101F20000D48FFF7BBBF08496069091D02F06CFF4F
:101F30006068012806D1094900070860BFF34F8F88
:101F4000BFF36F8F10BD0000080000200038014073
:101F50000010014090050020B806002004ED00E0CC
:101F60007047FEE730B591B0002501210FA80F950D
:101F700001F022FA144C0121606110A8109501F0C3
:101F80001BFAA061142211496846FEF727F90021C7
:101F9000684601F02EFA0D49A0601422143105A8FC
:101FA000FEF71CF9002105A801F023FA0749E060BB
:101FB000142228310AA8FEF711F900210AA801F01D
:101FC00018FA206111B030BD08000020EC5600085E
:101FD0002DE9F041224886B0816941F0100181610C
:101FE000816901F010010491816941F02001816152
:101FF000816901F020010491816941F0080181614A
:10200000816901F008010491816941F00401816155
:102010008069144F00F004004FF400540490002233
:1020200021463846FFF7CEF9DFF83C804FF4A04652
:10203000002231464046FFF7C5F9009401240225ED
:102040006946384603950194FFF7DAF8CDE9006454
:10205000694640460395FFF7D3F806B0BDE8F08126
:102060000010024000100140000C0140104810B563
:102070000E4901604FF48271416000218160C160AE
:102080004FF400720161C0E90512C1610162416251
:1020900081620A21C162FFF7DAFC002805D0BDE8A1
:1020A00010404F2103A000F0F6BB10BD00380040E7
:1020B000AC0000202E2E2F5372632F7370692E6395
:1020C000000000000D4810B50B4901604FF4165197
:1020D0004160002181600C22C160C0E9041281616D
:1020E000C161FFF775FE002805D0BDE810404C2106
:1020F00003A000F0D0BB10BD00380140B80600209E
:102100002E2E2F5372632F75736172742E6300002D
:10211000FEE770470907090E002806DA00F00F00F5
:1021200000F1E02080F8141D704700F1E02080F8F5
:10213000001470477CB5414E0C460546326812E0EB
:10214000F168491CF16003782A2B08D02C2B09D1A7
:10215000736842F823107168491C716002E0B1682D
:10216000491CB160401C01780029E9D10020706051
:10217000B060F060062232A12846FEF753F800282E
:1021800048D104F11001081FCDE90001306804F1C5
:102190000803221D00682CA12844FEF753F830687C
:1021A00022462DA140682844FEF74CF804F11C009B
:1021B0000090306804F118031A1F806827A1284492
:1021C000FEF740F8306804F1200223A1C0682844DB
:1021D000FEF738F804F12C000090306804F1280371
:1021E0001A1F006920A12844FEF72CF8306804F17A
:1021F000300219A140692844FEF724F804F14C008C
:102200000090306804F148031A1F006A19A128449D
:10221000FEF718F806221AA12846FEF703F8002850
:102220000BD1306804F138031A1F806902B02844CA
:10223000BDE8704014A1FEF705B87CBD3800002051
:1022400024474E524D430000253264253264253226
:10225000642E2532640000002563000025326425C9
:1022600032642E25356400002533642532642E2522
:102270003564000025326425326425326400000094
:1022800024474E56544700002533642E25326400FF
:1022900038B50B46009204460022802100F008F871
:1022A000002804D0606D40F020006065032038BD38
:1022B0002DE9F0411D4617460E460446DDF818800C
:1022C00035E0681C33D02DB1FFF782F8A0EB080091
:1022D000A8422CD32068416821F0E0014160606889
:1022E000B0F5827F0BD1A068B0F5004F02D0B0F5F9
:1022F000806F04D12068016821F040010160A06A6C
:10230000B0F5005F0AD1206801684DF6FF721140F8
:1023100001602068016841F400510160012084F8E7
:102320005100002084F850000320BDE8F0812068AF
:10233000806836EA000004D00020B842C1D10020F5
:10234000F3E70120F9E70000012211491148FFF7E6
:10235000A5FD00250E4C6E1E00233246194660690D
:1023600002F0A8FB0C49A1F1D800FFF7E3FE65706D
:10237000012207490748FFF791FD00231A46194635
:10238000A06902F091FC012001F00AF8E4E70000E6
:1023900008000020B806002068060020012000F098
:1023A000FFFFFBE71CB5444D444C4FF0FF360023C4
:1023B00032461946A86902F07DFB414801F026FB30
:1023C00040493F4801F095FBE0680090D4E90123C3
:1023D0003A483DA11038D21C00F05EFA374B0A2271
:1023E000103B0021364801F05BFBE06C3BA100F59F
:1023F000FA6000903148D4E91123103800F04CFA0B
:102400002E4B1522103B00212D4801F049FB94F87A
:102410002010E069CDE900012848D4E9052333A163
:10242000103800F039FA254B2022103B00212448B7
:1024300001F036FB94F83010E06ACDE900011F4846
:10244000D4E909232EA1103800F026FA1B4B2B22C9
:10245000103B00211A4801F023FB184822782DA1D7
:10246000103800F019FA154B3622103B00211448A1
:1024700001F016FB1148D4E90D2329A1103800F012
:102480000BFA0E4B4122103B00210D4801F008FBD6
:102490000B4801F025FB00231A461946A86902F0F3
:1024A00003FC05492831A1F10800FEF7C3FDE861EE
:1024B000642000F075FF7AE708000020680600201D
:1024C000040500203452000854696D653A25303205
:1024D000643A253032643A25303264002530326463
:1024E0002E253032642E25346400000025303264FD
:1024F00020253032642E253033642025630000000F
:1025000025326420253032642E2530336420256343
:10251000000000005374617475733A256300000075
:1025200053706565643A2533642E253264000000DB
:1025300010B5FEF753FFBDE8104000F050BF30B5B6
:102540008FB001210804CDE9001000240294022577
:102550000491CDE907504FF4E01009906846FFF769
:10256000F1F800B1FEE70F20CDE90A054FF4E06075
:10257000CDE90C4002210AA80E94FEF7DDFF00B160
:10258000FEE7FFF783F84FF47A71B0FBF1F0FFF745
:1025900081FB0420FFF772FB00220F21501EFEF783
:1025A00099FF0FB030BD00000D48016841F00101F6
:1025B000016041680B4A1140416001680A4A1140BC
:1025C0000160016821F480210160416821F4FE016D
:1025D00041604FF41F0181600449C00308607047E7
:1025E000001002400000FFF8FFFFF6FE08ED00E0DB
:1025F00010B5406A0021C185C184FFF75FFB10BDA3
:102600000168CA6822F49072CA6001684A6922F0BF
:1026100001024A61202180F83A10704710B590F805
:102620003A10222901D0022010BD8168B1F5805FE7
:1026300011D00169002901681FD0496801F07F03AA
:10264000816A4A1C82620B70C18D491E0904090C03
:10265000C18518D02BE00269816A002A026852689D
:1026600005D0D2B20A80816A491C8162ECE7C2F3CC
:1026700008020A80816A891CF7E74A68816A4B1C54
:1026800083620A70E0E70168CA6822F02002CA602B
:102690000168CA6822F48072CA6001684A6922F03F
:1026A00001024A61202180F83A10FFF721FC002046
:1026B00010BD00002DE9F041044600680169E268A0
:1026C00021F44051114301612169A0680843616907
:1026D00008432168CA6841F20C639A430243CA6006
:1026E00020684169A26921F44071114341614C495C
:1026F00020686425322688423CD1FEF7DDFF00EBDE
:10270000C00101EB001061688900B0FBF1F7FEF732
:10271000D3FF00EBC00101EB00106168B0468900F7
:10272000B0FBF1F0B0FBF5F06FF01801484307EB98
:10273000800106EB0110B0FBF5F000F0F006FEF7AB
:10274000BBFF00EBC00101EB001061688900B0FB2A
:10275000F1F0B0FBF5F006EB0016FEF7ADFF00EB75
:10276000C00101EB001061688900B0FBF1F7FEF7D2
:10277000A3FF3BE0FEF790FF00EBC00101EB001070
:1027800061688900B0FBF1F7FEF786FF00EBC0013E
:1027900001EB00106168B0468900B0FBF1F0B0FBBE
:1027A000F5F06FF01801484307EB800106EB0110CC
:1027B000B0FBF5F000F0F006FEF76EFF00EBC00195
:1027C00001EB001061688900B0FBF1F0B0FBF5F09F
:1027D00006EB0016FEF760FF00EBC00101EB0010F6
:1027E00061688900B0FBF1F7FEF756FF00EBC0010E
:1027F00001EB001061688900B0FBF1F0B0FBF5F06F
:102800006FF01801484307EB800108EB0110B0FBA3
:10281000F5F0216800F00F0030448860BDE8F081D9
:102820000038014090F83910212901D0022070476A
:102830008168B1F5805F016A0BD04A1C02620268B0
:1028400009785160C18C491E0904090CC1840ED05D
:1028500017E009880268C1F3080151600169002985
:10286000016A02D0491C0162ECE7891CFBE70168A0
:10287000CA6822F08002CA600068C16841F0400165
:10288000C1600020704700000148FFF719BA00003E
:10289000B8060020FEE7FEE70FB4084B10B504A908
:1028A00002AA039800F056FB044602A9002000F09B
:1028B000F2FC204610BC5DF814FB000097320008C3
:1028C000490050EAC12018BF04204A0D18BF40F04B
:1028D000010040F2FF72B2EB515F08BF40F002000E
:1028E000012808BF052070472DE9F74F144694B022
:1028F0000021C4E902111599079121F00045C94949
:102900008D4206DC1599C4E9000117B00020BDE82E
:10291000F08FC549DFF814A3A9423CDD0799C44EE6
:102920000029C44FC44A1599534619DDFDF7F3FE3B
:10293000554506D0C14AC24BFDF7EDFEC4E9000182
:102940000AE04FF0D352BE4BFDF7E5FE32463B4660
:10295000FDF7E1FEC4E9000117B00120BDE8F08FEA
:10296000FDF738FE554506D0B44AB54BFDF732FEAB
:10297000C4E900010AE04FF0D352B14BFDF72AFE43
:1029800032463B46FDF726FEC4E9000117B04FF082
:10299000FF30BDE8F08FAB49A942159978DB21F0F3
:1029A000004183468846A84AA84BFDF7BAFE00229C
:1029B000A74BFDF70FFEFEF707FB0990FDF792FF0F
:1029C00006460F469C4A5346FDF7ABFE43465A4621
:1029D000FDF7A4FE80468A46984A994B3046394610
:1029E000FDF79FFE2A0D01250B9242465346FDF747
:1029F00095FE032DC4E9000139D00B98C1F30A51AB
:102A0000401A05EB45111139814230DA9148C3462D
:102A1000784400EB0510CDF80CA00C90D0E9002311
:102A200030463946FDF77DFE02460B46049106907E
:102A300058460399FDF76FFE80468A4602460B46CC
:102A400058460399FDF767FE049B069AFDF763FE5F
:102A500083460C9803913946D0E902233046FDF7AE
:102A600060FE5A46039BFDF756FE6D1CBDE70798B6
:102A70000028A2BF099817B0BDE8F08F616881F007
:102A800000416160099817B04042BDE8F08FFFE750
:102A900084461598C1F31301C0F30A50A0F2F53033
:102AA0004FEA601800F01F06C6F1200013900020C6
:102AB0000690079041F4801E05206D4676B1664A67
:102AC00008EB00017A4452F8213002EB8101B34057
:102AD0004A68139922FA01F1194305E05F4908EBAE
:102AE0000002794451F82210A1FB0E27A1FB0C1320
:102AF0001A449A4234BF0123002303EB070A05EB73
:102B00008003D3E901B70F448F4234BF0121002174
:102B100093448B4411B1934502D903E0934501D20C
:102B2000012100E00021C3E901B7514445F820101C
:102B3000011EA0F10100C1DC0298059F00F10050C8
:102B4000800F12900298DDE903568000FDF7CAFE5F
:102B5000834628460D91FEF72AFA6FF01D02FEF714
:102B60000FFACDE90E013046FEF721FA6FF03D0273
:102B7000FEF706FA80468A463846FEF718FA6FF0E6
:102B80005D02FEF7FDF90746424653461191FDF7F7
:102B900021FDDDE90E23FDF71DFD5A460D9BFDF7D6
:102BA00019FD00250E465A4628460D9BFDF7B3FD3C
:102BB000DDE90E23FDF7AFFD42465346FDF7ABFDC1
:102BC0003A46119BFDF7AAFDDFF898A0244A534628
:102BD000FDF7A7FD07468846234A244B3146284681
:102BE000FDF79FFD3A464346FDF7F4FC074688464D
:102BF0004FF0A842534631462846FDF792FD3A462B
:102C00004346FDF7E7FC159A12F0004F04D0129AE4
:102C100081F0004152421292C4E90001129817B0AB
:102C2000BDE8F08FFB21E93F7CD90240FB21F93F51
:102C30007370032E8A19A33B000040543163621A5B
:102C400061B4D03DFB21394183C8C96D305FE43F99
:102C50000000E03FA42D0000202D0000022D000008
:102C6000182D4454FB21F93D3326A611460B113C87
:102C70002DE9FF4D21F0004807460C46B8F1795F79
:102C800008DAFEF7A1F9002801BF0020324904B09C
:102C9000BDE8F08D3A46234610461946FDF741FD42
:102CA000054602462D480E460B460621784400F0A4
:102CB0005DF82A463346FDF734FDDDE902238246FE
:102CC0008B4638462146FDF72CFD04460F465246FA
:102CD0005B4628463146FDF724FD22463B46FDF77C
:102CE0001AFD07468A464FF0FF3228463146FEF766
:102CF00047F91B4A90450ADA3A465346FDF70BFD61
:102D000004B00022BDE8F04D134BFDF707BD154A96
:102D10004245A8BFA8F500154FF00004B8BF124DFA
:102D200022462B46FDF7F7FC0646884622462B46F0
:102D300000200949FDF7EFFC04460D463A4653468C
:102D400030464146FDF7E7FC04B022462B46BDE87D
:102D5000F04DFDF7E3BC00000000F03FD82A000072
:102D60003333D33F0000E93F0000D23F2DE9F0416B
:102D70004F1E00EBC7010446D1E9000115461E466F
:102D800037F006020DD02A463346FDF7CAFC7F1EF7
:102D900004EBC703D3E90023FDF71CFC37F0060260
:102DA000F1D1022F25D0042F13D0062F18BFBDE874
:102DB000F0812A463346FDF7B4FCD4E90A23FDF737
:102DC00009FC2A463346FDF7ACFCD4E90823FDF79D
:102DD00001FC2A463346FDF7A4FCD4E90623FDF79F
:102DE000F9FB2A463346FDF79CFCD4E90423FDF7A2
:102DF000F1FB2A463346FDF794FCD4E90223FDF7A4
:102E0000E9FB2A463346FDF78CFCD4E90023BDE8F4
:102E1000F041FDF7DFBB00002DE9FF4D054621F035
:102E2000004084B00C46B0F1795F0BDA2846FFF71A
:102E300047FD042808BF00F06FF8284608B0214677
:102E4000BDE8F08D2A460B461046FDF76AFC0646A3
:102E50000F462A462346FDF764FC804626488A46EC
:102E600032463B4605217844FFF780FF83461098A1
:102E7000029160B3214A224B40465146FDF751FC76
:102E8000CDE900015A4640465146029BFDF749FCF8
:102E900082468846DDE906014FF0FF32FEF770F802
:102EA00052464346FDF737FC32463B46FDF739FCB8
:102EB000DDE90623FDF72FFCDDE90023FDF72BFC00
:102EC00008B02A462346BDE8F04DFDF727BC0B4667
:102ED0005A4630463946FDF724FC084A084BFDF7B0
:102EE00079FB42465346FDF71CFC08B02A462346B0
:102EF000BDE8F04DFDF76EBB162A0000495555554B
:102F00005555C5BF0122FEF73BB8002213461046B7
:102F10001146FDF778BC0000024A00201107FEF7B9
:102F20002FB8000001FDFFFF02E008C8121F08C112
:102F3000002AFAD170477047002001E001C1121F3A
:102F4000002AFBD17047000001490860704700006B
:102F5000A80000202DE9FF4F8BB0884605460026CB
:102F600006E025280BD0DDE90D1290476D1C761C7C
:102F700028780028F5D10FB03046BDE8F08F002446
:102F8000A146A2460122AE4900E0044315F8013FE4
:102F9000203B02FA03F00842F7D128782A2810D003
:102FA0006FF02F022878A0F13001092915D809EB1C
:102FB000890102EB410144F0020400EB01096D1CA0
:102FC000F0E758F8041B5FEA010903D544F4005404
:102FD000C9F1000944F002046D1C28782E2817D18D
:102FE00015F8010F44F004042A280ED06FF02F02C8
:102FF0002878A0F1300109290AD80AEB8A0102EBEE
:10300000410100EB010A6D1CF2E758F804AB6D1C9E
:1030100028786C280FD006DC4C2817D068280DD0F3
:103020006A2814D104E0742810D07A280FD10DE05A
:1030300044F400140AE044F4801401E044F4401421
:103040006978814202D104F580146D1C6D1C2878CA
:10305000692865D006DC00288DD0632827D0642835
:1030600006D15DE06E2808D073282AD0752877D065
:10307000DDE90D129047761CE0E0C4F3025002280F
:1030800009D003280DD0D8F8001004280DD00E6008
:1030900008F10408D2E0D8F80010F217C1E9006284
:1030A000F6E7D8F800100E80F2E70E70F0E718F897
:1030B000041B8DF8001000208DF80100EB46012064
:1030C00003E058F804BB4FF0FF3061074FF00007F2
:1030D00001D40AE07F1C57450DDA8742FADB1BF862
:1030E00007100029F6D106E07F1C8742FCDB1BF8A5
:1030F00007100029F8D1DDE90D23A9EB070081466F
:10310000214600F0B1F83044C61904E0DDE90D12A3
:103110001BF8010B90477F1EF8D22146484688E0F5
:1031200058F8040BC4F302514FF00A0B032900D1E5
:1031300000B2042900D140B2002802DA40422D2119
:1031400002E0210505D52B218DF82410012104E092
:1031500006E0E10710D02021F6E708AF089113E060
:1031600058F8040BC4F302514FF00A0B032900D1A5
:1031700080B2042900D1C0B20021EEE75946FDF724
:10318000F1FB303107F8011D0028F7D1ADEB070046
:1031900000F1200B600702D524F4803401E04FF0E9
:1031A000010ADA4502DDAAEB0B0000E000208246AE
:1031B00000EB0B0108980144A9EB01000A90E00321
:1031C00006D4DDE90D2321460A9800F04DF80644A7
:1031D0004FF0000908E009A911F80900DDE90D1216
:1031E000904709F10109761C08998945F3DBE00352
:1031F0000CD5DDE90D2321460A9800F035F8064488
:1032000004E0DDE90D1230209047761CBAF1000190
:10321000AAF1010AF5DC05E0DDE90D1217F8010B52
:103220009047761CBBF10001ABF1010BF4DC0A986E
:103230002146DDE90D2300F005F806446D1C97E6F4
:10324000092801002DE9F041044600251E461746D5
:10325000880404D405E039462020B0476D1C641E64
:10326000F9D52846BDE8F0812DE9F0410446002556
:103270001E469046C80301D5302700E02027880469
:1032800004D505E041463846B0476D1C641EF9D5AB
:103290002846BDE8F0810A68531C0B601070704727
:1032A00000B5244B21F0004287B09A42DCBF0022D7
:1032B000134629DD204B9A4208D140B94FF0010056
:1032C000FFF742FEFFF721FE07B000BD03DBFFF76B
:1032D00019FE07B000BD02AAFFF706FB10F00301BC
:1032E00004BF0DF1080C9CE80F000DD0012001294E
:1032F0000ED0022914D00DF1080C00909CE80F00AC
:10330000FFF78AFD07B000BDFFF7B2FC07B000BDB4
:103310000DF1080C00909CE80F00FFF77DFD05E023
:103320000DF1080C9CE80F00FFF7A2FC07B081F03C
:10333000004100BDFB21E93F0000F07FFEF756F899
:10334000FFF7FDF8FEF744FEFEF790FEFEF7BAFE2B
:10335000012251030A48FEF735F80A4B0A4A0B4985
:103360000B4800F0F7FB0A4800F043FF0021084833
:1033700000F04FFFFEF7F6FD00F019F8FEE7000041
:1033800000100140D9450008A542000880570008F8
:103390000405002001460020842900D0C81C704785
:1033A00010B500B9012001F00FFA002010BD10B5D2
:1033B00001F0A2FA002010BD10B5012901D00020B3
:1033C00010BD03220021012001F050FB040004D0B5
:1033D00000231A46194601F067FC204610BD10B5BF
:1033E00001F0C2FD012803D0BDE8104001F028BB68
:1033F00010BD3EB504460D46B0F90800FFF7CAFF00
:1034000002A9CDE90001208A2B4682B2D4E900103E
:1034100001F07EFD012801D000203EBD02983EBD96
:103420002DE9F041184C0F460546E6682068001D5E
:1034300001F0E9F838B9206890F82C100120884094
:10344000216981432161681C07D137B12168BDE83A
:10345000F0410E48091D01F00EB920683544B5420F
:103460004560216805D2A06BBDE8F041091D01F05F
:10347000EAB8606B091D01F0E6F8A06A854200D247
:10348000A562BDE8F081000048000020AC080020E3
:103490002DE9F041054601F0FBF82E4CA068401CD8
:1034A000A06020682C4F10B1606940B32DE025600A
:1034B000A068012829D1002606EB860007EB8000D2
:1034C00001F0B3F8761C072EF6D323488C3001F0B8
:1034D000ACF82148A03001F0A8F81F48B43001F042
:1034E000A4F81D48C83001F0A0F81B48DC3001F0FA
:1034F0009CF819488C3060631430A06305E02068A4
:10350000E96AC06A884200D82560606A401C60622F
:10351000E96A0120226988401043206101EB8100A3
:1035200007EB8000291D01F0A6F801F0D1F86069D1
:1035300000280CD02068E96AC06A884207D207498F
:103540004FF080500860BFF34F8FBFF36F8FBDE81F
:10355000F081000048000020D007002004ED00E0CA
:1035600070B5114E114C17E001F0FAF93068B8B19E
:1035700001F0F2FD01F08CF8F068C568281D01F03B
:1035800042F8A068401EA0606068401E606001F0C4
:103590009FF8284600F055F860680028E4D170BD17
:1035A00001F0DAFDF8E7000098080020480000204C
:1035B00030B4026C0B46002A0BD0C1681144C160C4
:1035C0004468A14201D30168C16030BC1846FCF7D1
:1035D00005BE30BC70472DE9F041856B17460446A7
:1035E0000026026C82B1C7B1E068FCF7F7FDE16824
:1035F000206C091AE1602268914202D26168081ABF
:10360000E060022F16D017E02068A8B9606801F0CA
:103610001DFD0646002060600EE0A068FCF7DEFDA0
:10362000216CA0680844A0606168884204D32068C7
:10363000A06001E005B16D1E6D1CA5633046BDE8BC
:10364000F08110B50446006B01F056F82046BDE845
:10365000104001F051B8000010484FF4406142079B
:1036600006D0C01D0D4920F00700411AC1F5406188
:103670000B4A00230144C2E900030839103A21F043
:10368000070111604B600B600B1AC0E900139360D7
:103690004FF000405360D06070470000C008002029
:1036A000A0000020074C4FF08056074DFFF758FF51
:1036B00020680128FAD92E60BFF34F8FBFF36F8FB8
:1036C000F4E70000D007002004ED00E02DE9F0470A
:1036D0009A46DDE9098481466FF00303206B03EB12
:1036E00082021044089D20F00706700707D0502082
:1036F00080F31188BFF34F8FBFF36F8FFEE723185E
:103700000A5C83F834200A5C12B1401C1028F6D3FE
:10371000002784F84370072D00D30625E562C4E92D
:103720001157201D00F08CFF04F1180000F088FFF5
:103730002461C5F107006462A061E76484F85070F9
:1037400052464946304600F00FF92060B8F1000FAC
:1037500001D0C8F80040BDE8F087000030B511493D
:1037600000E011460A688242FBD34B685C18844231
:1037700003D1406818444860084643681C189442C6
:1037800009D1084C103C2468A24209D052681A445E
:1037900042600A6812680260814200D0086030BD51
:1037A0000460F9E7A000002010B5044600F070FFA7
:1037B000A06B28B15FF0000400F08AFF204610BD26
:1037C0000124F9E70648416B096829B1416BC968D2
:1037D000C9684968816270474FF0FF31FAE700001D
:1037E0004800002008484068401C4FF0500080F31B
:1037F000118804D0BFF34F8FBFF36F8FFEE7BFF385
:103800004F8FBFF36F8FFEE7840000202DE9F0415A
:10381000044600F03DFF94F9455004F1240609E008
:10382000606A48B1304601F05DFC08B100F0F2FF7B
:103830006D1E6DB2002DF3DC4FF0FF3684F845604D
:1038400000F046FF00F024FF94F9445004F1100703
:1038500009E0206948B1384601F044FC08B100F0A5
:10386000D9FF6D1E6DB2002DF3DC84F84460BDE815
:10387000F04100F02DBF00002DE9F0410546002782
:1038800001F06EF8314E306808B9FFF7E5FEF068D8
:1038900005424BD1C5B3083568070ED005F00700C7
:1038A000C0F108000544680707D0502080F3118854
:1038B000BFF34F8FBFF36F8FFEE72DB37068854264
:1038C00034D82248103001460C6801E020460C46EE
:1038D0006168A94202D221680029F7D131688C427F
:1038E00024D007682168016060680837411B1029EF
:1038F0000FD96019420708D0502080F31188BFF318
:103900004F8FBFF36F8FFEE710E041606560FFF7F8
:1039100025FF61687068401A7060B268904200D2FA
:10392000B060F06801430020C4E9000101F014FC1C
:10393000780707D0502080F31188BFF34F8FBFF373
:103940006F8FFEE73846BDE8F08100009000002050
:103950000449086818B10868826C521C82640868BF
:10396000704700004800002010B5031F4FF080741E
:103970001C601B1F21F001011960191F024B0B6015
:10398000143940380A6010BDE537000800EBD072EA
:10399000521001EBD173A2EB6302074B401A9A421B
:1039A00001DA064905E0044949428A4202DD034939
:1039B000494208447047000000175BCA00A493D630
:1039C0002DE9F04106460F46FDF7DAF8041E0D46D4
:1039D00018BF0120284320F00040C0F17F6000F1B3
:1039E000E040C00F0ED0301C18BF0120384320F03B
:1039F0000040C0F17F6000F1E040C00F04BF012033
:103A0000FFF7A2FA20462946BDE8F08101680A7C4A
:103A100090F83810406B5143C900FCF7F8BB2DE912
:103A2000F041044690F85E001F4615460E4630B140
:103A3000012809D002280CD0032815D10FE0E16C31
:103A400020468847284408E0E16C20468847301A21
:103A500009E0E16C20468847281AC5B204E0E16C11
:103A6000204688473044C6B2284684F8546084F81B
:103A7000550039460025204600F07EFA010003D0AB
:103A8000204600F0ADF9C5B22846BDE8F08138B552
:103A9000002B049C03D00094046B6468A04738BDDD
:103AA00030B4024C446030BC00F039B979420008AF
:103AB00070B50D461E46044690F8441090F8430039
:103AC000049B00F0A8FA002809D094F8421094F85A
:103AD000410033462A46BDE8704000F09CBA70BDF4
:103AE00010B5044600F014FB2046BDE8104000F07D
:103AF00088BB10B50446806C884209D004F1600090
:103B0000A16400F0D0FA2046BDE8104000F03CB8B7
:103B100010BD00000149C16470470000953D0008D8
:103B200070B5044600250498A564E362616384F8D7
:103B3000382084F83950012184F87D1084F87E10F3
:103B400020630168204688472046FFF7E3FF84F89A
:103B50005E5070BD38B50C46009313460546064AC4
:103B6000064900F05EFB08220549064B28460094F2
:103B7000FFF7D6FF38BD0000B9430008194500081B
:103B8000040100203140000810B5816C00291AD0D2
:103B900090F96D3080F8793090F96E2080F87A20B5
:103BA00090F8781000290ED001290DD090F96A40C4
:103BB00090F96C100C449C4201DD80F879408A42F7
:103BC00001DD80F87A1010BD90F96F108B4201DA98
:103BD00080F8791090F97010F1E72BB1012B05D026
:103BE000022B06D0104402E0084400E0801AC0B264
:103BF0007047401AFBE72BB1012B05D0022B06D0F2
:103C0000401A02E0104400E00844C0B27047801A35
:103C1000FBE710B503780C78A34207D9934203D28F
:103C2000501EC4B20C7001E000230370934205D211
:103C300024B1944200D90A70012010BD002010BDAB
:103C40007FB582B0044690F839009DF810104042CC
:103C500001EBC000C1B28DF810100A9D94F83B60D2
:103C600094F83A209DF80C00DDB1904217D2C818A4
:103C70008DF80400324601A904A8FFF7CAFF002806
:103C80000DD09DF804009DF810100095401AC3B2A5
:103C9000E56A9DF810209DF80C102046A84706B054
:103CA00070BDB142FBD218448DF8040001A903A8ED
:103CB000FFF7AFFF0028F2D09DF804009DF80C102C
:103CC000E3E738B5012B049C04D0022C14D0032C5C
:103CD00016D018E090F839506D4202EBC50290F80A
:103CE0003A50D2B28D4206D990F83B50954202D953
:103CF0000094C46AA04738BDC91A491CC9B202E081
:103D0000D21A521CD2B204F001040094FFF798FFBB
:103D100038BD38B5049C0094FFF7D3FF38BD2DE9BA
:103D2000F0471C4691468846064600F068FC002590
:103D30004FF6FF7772682178304690470346B842C5
:103D400025D0641CA3F57F40FE38F3D04A46414697
:103D50003046FFF764FE96F85E1031B1012907D0B6
:103D6000022908D003290FD10AE008EB000104E082
:103D700009EB000106E0A8EB000101F0FF0803E0F9
:103D8000A9EB000101F0FF092844C5B2D2E728469B
:103D9000BDE8F0870020704710B50C4600F006F82B
:103DA0000122641EA240801A40B210BD30B50568E1
:103DB000847A2A78E2406318DBB2082B09D36D1CA1
:103DC00005602D78C4F10804A5401543083BEAB20C
:103DD000DBB201248C40641E14408372204630BD47
:103DE0002DE9F843054600F1500400F0FAF815F902
:103DF000596F2046697BFFF7CFFF8146A97B20469C
:103E0000FFF7CAFF0746E97B2046593DFFF7C4FF8D
:103E1000804694F90800002855DDF019404247B269
:103E2000A37B20793A464946FFF7D7FE2071A37B52
:103E30003A4660794946FFF7DEFE60712179A77B3B
:103E400002460B4637B1012F09D0022F3ED0032F77
:103E50000DD143E0277A30443B44DBB206E0891BB6
:103E6000491C277A5B1CC9B2DBB23844C0B200904F
:103E70002846FFF71DFE30B30020A07184F807002C
:103E800095F862102046FFF791FF814695F8631080
:103E90002046FFF78BFF074600224946284600F0E0
:103EA00025F801223946284600F020F80121204655
:103EB000FFF77CFF0028EFD194F90700B042DFDB69
:103EC000207B85F87D004046BDE8F883277A5B1C9F
:103ED000C91B491CC9B2DBB2921B03E0277A3344E9
:103EE000DBB2D21B521CD2B2401CBFE72DE9F74F08
:103EF00084B00D46049C94F8567094F85780503462
:103F0000207AC01BC6B20196B54200D201954FFA85
:103F100088F279B2207994F805B0A37B924689465D
:103F2000FFF75BFE0290A37B524649465846FFF7D7
:103F300062FE0246069808B1217B02E0E07A50B9A1
:103F4000617B049880F87D10A07B0090DDE9013151
:103F50000498FFF79CFDB54207D3A81BC5B208F132
:103F60000100002700F0FF08CAE77819A07184F863
:103F7000078007B0BDE8F08F10B50246806C17309F
:103F8000FF2910D8612902D3B2F8742003E0412937
:103F900002D3B2F8722010444278B2B103788B4257
:103FA000F9D1801C10BDB2F876204FF6FF74104492
:103FB000027804EA022342781A4306D08A4201D1E9
:103FC000C01C10BD82781044F2E7002010BD0844E8
:103FD0004FF6FF720178407802EA0121084480B26E
:103FE000704730B5054600F1500401650020A0720D
:103FF00015F8641F2046FFF7D9FE20726978204625
:10400000FFF7D4FE6072687E207310B100206073E9
:1040100030BD0120FBE78A4205D2834201D89A4293
:1040200003D9012070478342F9D80020704700006F
:10403000F0B5046801F00707059E257C8024FC404C
:104040006A4302EBD101426B89B21144BEB900BF91
:1040500090F87D20012A06D80A7822430A7090F849
:104060007D20012A02D00A7862400A70640801D1DA
:104070008024491C5B1E13F0FF03E9D1F0BD90F8CA
:104080007D20012A06D80A7822430A7090F87D2004
:10409000012A02D00A7862400A705B1E294413F09C
:1040A000FF03ECD1F0BD70B505460878287048785C
:1040B00068708878A870C878E8700879287148799D
:1040C000687188790C46A871E079E871207A2872C5
:1040D000607A6872A07AA872E07AE872207B28730E
:1040E000607B6873A07BA873E07BE873207C2874F6
:1040F00011212046FFF76BFF688213212046FFF74E
:1041000066FFA88215212046FFF761FFE88270BD97
:104110002DE9F843064690F8387090F83950006859
:1041200000244FF6FF7890F81190316830462A4607
:104130000B7C716B04FB03FC1FFA8CFC08EACC0CB3
:1041400061440091002100F045F8641C6D1CE4B24C
:10415000EDB2BC4201D24D45E7D3BDE8F88370B55E
:1041600090F83820D10080F83B100468217C202989
:1041700000D31F21C90080F83A1090F83930D906D1
:10418000090E80F83C10657C9E18AE4201D9EA1AEF
:10419000D2B280F83D1001EBC20180F83E10F02150
:1041A00080F83F10A18AF02901D880F83F10A17D46
:1041B00080F8401070BD10B50446FFF7D0FF002016
:1041C00084F8410014F83A0F2072E0786072207988
:1041D000A07210BD1CB58DF805108DF80620049C4A
:1041E0008DF804300094012284686B460F21A047AB
:1041F0001CBD30B484680023A44630BC1A460A2192
:10420000604730B484680023A44630BC1A461021AD
:10421000604730B484680023A4460A4630BC0B21B2
:1042200060472DE9F04115460E460446069F00F012
:1042300009F86761A660C4E903532046BDE8F04170
:1042400000F012B8002140F8081B064A02604260E4
:104250008260C260C1758176C176FF2101764177A7
:1042600070470000D545000830B484680023A44698
:1042700030BC1A4609216047080001D00A2801D144
:104280004FF6FF70704713B50122046901AB172187
:10429000A0471CBD30B404691346A4460A4630BC8E
:1042A0001721604738B51446172908D016484FF42F
:1042B000805318291AD019291ED0002038BD1D4658
:1042C00011E000BF15F8010B641E8DF80000E4B288
:1042D0000E48FDF7B9FB0228FAD064230122694693
:1042E0000A48FDF717FC002CECD10AE00122194620
:1042F000FDF768F800BF04E000BF00221946FDF793
:1043000061F8012038BD0000000C0140AC00002025
:1043100030B4C4680023A44630BC1A461921604753
:1043200030B4C4680023A4460A4630BC1521604757
:1043300030B4C4681346A4460A4630BC172160470F
:10434000F8B50C464FEA000514F8011B182924D0D3
:104350000EDC152919D0162917D0172923D120785A
:104360008DF800006A4601212846FFF7E1FF0AE0C8
:10437000192912D0FE2916D122788DF80020292182
:10438000284600F036F9641CDEE722788DF800201C
:10439000EE6800232846B047F5E70023EE681A468A
:1043A0002846B047D0E7F8BD30B4C4680023A4461F
:1043B00030BC1A46182160472DE9F0410646A1F1AC
:1043C000140015019846144602F0F00706286BD237
:1043D000DFE800F063031A276363F8213046FFF734
:1043E00052FF01222C21304600F003F939463046B5
:1043F000FFF749FF01222C21304600F0FAF8E9B21C
:104400003046FFF740FF40E0F8213046FFF73BFF22
:1044100039463046FFF737FFE9B23046FFF733FF42
:1044200038E0FA213046FFF72EFF01222C213046DA
:1044300000F0DFF8454615E01C49082015F8012B6F
:1044400002F0F003120101F8013B401E01F8012BBC
:1044500010F0FF00F2D1083CE4B2144A10213046BB
:10446000FFF718FF082CE7D20DE02F78304607F051
:10447000F001FFF708FF3807010E3046FFF703FF92
:10448000641EE4B26D1C002CEFD101222C213046B9
:1044900000F0AFF80120BDE8F081356922463046D2
:1044A000AC46BDE8F04160470020F4E7C0070020BB
:1044B00070B50023456904461A462821A847002301
:1044C000E5681A4614212046A84701224B212046C0
:1044D00000F08FF8206829210279204600F089F841
:1044E00000224B21204600F084F82068292102791F
:1044F000204600F07EF801224B21204600F079F89A
:104500002068292142792046BDE8704000F071B84A
:104510000160897C8177704710B5092903D0BDE817
:10452000104000F007B80249FFF7F2FF012010BD6C
:10453000685700082DE9F0471E4682460A2906D032
:104540000B2909D00F2910D00020BDE8F087FFF714
:10455000AFFF1F49504602E022B11D49C91FFFF7B6
:10456000EFFE33E01A491331F9E7B079C006050EC2
:104570007079202D4FEA500803D3203DEDB208F1A9
:1045800008085046FFF710FF3E2150463768FFF7F6
:10459000C7FE002448F080092819C0B240F080010D
:1045A0005046FFF7BDFE49465046FFF7B9FE96F864
:1045B00004803A4641465046FFF7BAFE641CE4B216
:1045C0004744082CE8D35046FFF7A2FE0120BCE781
:1045D0002F5700080020704710B51046292902D037
:1045E0002C2904D102E0FCF7FDFD00E000BF012012
:1045F00010BD30B444690023A44630BC604700219C
:1046000080F823107047D0E9013201699A60D0E93F
:1046100001235A604A68824201D182684A600022BE
:1046200002610868401E0860704700F108014FF001
:10463000FF32C0E90112C1600161002101607047D1
:1046400000210161704730B50B685A1C02D000F19F
:10465000080202E0026904E02246546825689D428F
:10466000FAD953684B6099608A60516008610168AB
:10467000491C016030BD42684A6093688B60936852
:104680005960916008610168491C01607047000031
:10469000502080F31188BFF34F8FBFF36F8F0A490B
:1046A0004868401C486001280CD10848006810F098
:1046B000FF0F07D0502080F31188BFF34F8FBFF357
:1046C0006F8FFEE7704700008400002004ED00E0DB
:1046D0000849486828B1401E486001D180F311881C
:1046E0007047502080F31188BFF34F8FBFF36F8F57
:1046F000FEE700008400002070B5002827D0144D8C
:10470000A0F108046168E868014207D1502080F3F5
:104710001188BFF34F8FBFF36F8FFEE722683AB166
:10472000502080F31188BFF34F8FBFF36F8FFEE7E8
:104730008143616000F014F960686968084468604A
:104740002046FFF70BF8BDE8704000F005BD70BDD6
:104750009000002006484FF47A710068B0FBF1F138
:104760004FF0E020491E41610721016170470000C0
:104770000000002010B5FBF70BFD114910280ED3E7
:1047800000F1E02090F8F0030A78904207D2502020
:1047900080F31188BFF34F8FBFF36F8FFEE7094897
:1047A0000068896800F4E060884207D9502080F3EF
:1047B0001188BFF34F8FBFF36F8FFEE710BD00006E
:1047C000840000200CED00E010B5020014D00F486A
:1047D000006B38B1502080F31188BFF34F8FBFF3C7
:1047E0006F8FFEE700F0BCF800211046FEF718FEC0
:1047F00000F0B2FC002807D105494FF08050086056
:10480000BFF34F8FBFF36F8F10BD00004800002033
:1048100004ED00E001490120C86170474800002014
:1048200010B50C4650B1094909681831FFF70BFF64
:104830002046BDE810400121FEF7F2BD502080F374
:104840001188BFF34F8FBFF36F8FFEE74800002042
:1048500070B5040039D01D4DE06A2968C96A8842E4
:1048600033D2A069002804DB2868C06AC0F10700C1
:10487000A061E16A164E01EB8101606906EB8101DE
:1048800088421FD1201DFFF7BEFE012150B9E06A0A
:1048900000EB800256F8222022B92A6901FA00F0C2
:1048A00082432A612868C06AE0622A698140114314
:1048B000296100EB800006EB8000211DBDE87040FF
:1048C000FFF7D9BE2868C06AE06270BD48000020CA
:1048D000D007002028B107490A6A0260C968416010
:1048E0007047502080F31188BFF34F8FBFF36F8F55
:1048F000FEE70000480000201CB515480024CDE963
:1049000000402346802213A1144800F001FB012837
:1049100009D0401C1AD1502080F31188BFF34F8F6B
:10492000BFF36F8FFEE7502080F31188BFF34F8FE6
:10493000BFF36F8F06484FF0FF312C3881620121A1
:104940004161C460BDE81C4000F040B81CBD0000DF
:104950007400002049444C4500000000A5360008C2
:104960000248016B491C01637047000048000020A9
:104970001448016B11B10121C16170470021C1616F
:104980000169B1FA81F1C1F11F0101EB81020E4908
:1049900051F822306BB101EB820101F108034A6842
:1049A00052684A609A4201D152684A60D1680160F7
:1049B0007047502080F31188BFF34F8FBFF36F8F84
:1049C000FEE7000048000020D00700201CB5194970
:1049D00008780190FF20087008788DF800009DF895
:1049E0000000154A00F0500010700720906005E0AC
:1049F0009DF800305B008DF80030401E9DF80030BF
:104A00001B06F5D4000200F4E06090600198087085
:104A10000A48016841F470010160016841F0704189
:104A20000160FFF797FE00205060FBF77BFB002042
:104A30001CBD000000E400E08400002020ED00E048
:104A400010B5502080F31188BFF34F8FBFF36F8FE5
:104A500000F098FA18B104494FF080500860002027
:104A600080F3118810BD000004ED00E070B50E4623
:104A7000050013D0D6B105FB06F04830FEF7FCFE6A
:104A8000040009D004F1480120468EB10160C0E95C
:104A90000F56012100F0C4F8204670BD502080F36D
:104AA0001188BFF34F8FBFF36F8FFEE70020E4E75D
:104AB0000060ECE72DE9FF4F002683B09B468A4655
:104AC000040003D0BAF1000F08D011E0502080F3A9
:104AD0001188BFF34F8FBFF36F8FFEE7206C38B1A3
:104AE000502080F31188BFF34F8FBFF36F8FFEE725
:104AF00000F03AFADFF824814FF000094FF08057B8
:104B000048B9059838B1502080F31188BFF34F8F12
:104B1000BFF36F8FFEE7FFF7BBFDA56B45B35146B3
:104B20002046E668FEF744FDBBF1000F13D0E660B7
:104B3000606A50B104F1240000F0D4FA28B1C8F83A
:104B40000070BFF34F8FBFF36F8FFFF7C1FD0120E0
:104B500007B0BDE8F08F6D1EA563206810B9FEF7A1
:104B6000F7FE606020690028EFD004F11000E3E751
:104B7000059808B11EB106E0FFF7AAFD27E06846D8
:104B8000FFF7A8FE0126FFF7A3FDFFF7E9FEFFF7F9
:104B90007FFD94F94400401C01D184F8449094F9BD
:104BA0004500401C01D184F84590FFF791FD05A90F
:104BB000684600F077F9002820460AD0FEF726FE66
:104BC00000F0CAFA2046FEF7EFFD0028A3D000202F
:104BD000BEE7FEF7E9FDD8B1206830B9FFF758FD10
:104BE0006068FFF735FEFFF773FD04F124000599B7
:104BF000FFF716FE2046FEF709FE00F0ADFA00288A
:104C000089D1C8F80070BFF34F8FBFF36F8F82E771
:104C10002046FEF7FBFD00F09FFA7CE704ED00E084
:104C200070B50D46040025D0FFF732FDD4E90F2002
:104C3000216802FB001161600021A1632168A1606D
:104C40000A46D4E90F01401E00FB0121E160214624
:104C50004FF0FF3001F8440F487004F110008DB19F
:104C6000FFF7E3FC04F12400FFF7DFFCFFF730FD62
:104C7000012070BD502080F31188BFF34F8FBFF328
:104C80006F8FFEE721690029F0D000F02BFA002891
:104C9000ECD004494FF080500860BFF34F8FBFF352
:104CA0006F8FE3E704ED00E02DE9FF4782B01D467A
:104CB0008A464FF00008040003D0BAF1000F08D074
:104CC00011E0502080F31188BFF34F8FBFF36F8F37
:104CD000FEE7206C38B1502080F31188BFF34F8F6E
:104CE000BFF36F8FFEE7022D0AD1E06B012807D0DA
:104CF000502080F31188BFF34F8FBFF36F8FFEE713
:104D000000F032F93F4F4FF000094FF0805648B99C
:104D1000049838B1502080F31188BFF34F8FBFF350
:104D20006F8FFEE7FFF7B4FCA06BE16B884207D3FF
:104D3000022D05D00498D0B1B8F1000F1AD01EE0B2
:104D40002A4651462046FEF746FC616A19B104F135
:104D5000240000F0C7F920B13E60BFF34F8FBFF3CE
:104D60006F8FFFF7B5FC012006B0BDE8F087FFF7B5
:104D7000AFFC22E06846FFF7ADFD4FF00108FFF7FA
:104D8000A7FCFFF7EDFDFFF783FC94F94400401CFE
:104D900001D184F8449094F94500401C01D184F875
:104DA0004590FFF795FC04A9684600F07BF830B108
:104DB0002046FEF72BFD00F0CFF90020D4E7FFF7E7
:104DC00067FCA06BE16B884213D1FFF781FC04F113
:104DD00010000499FFF724FD2046FEF717FD00F0B0
:104DE000BBF900289ED13E60BFF34F8FBFF36F8F9A
:104DF00098E7FFF76DFC2046FEF708FD00F0ACF9E0
:104E000090E7000004ED00E070B50E46040009D004
:104E1000206C78B1502080F31188BFF34F8FBFF31F
:104E20006F8FFEE7502080F31188BFF34F8FBFF3E1
:104E30006F8FFEE7206848B9606838B1502080F372
:104E40001188BFF34F8FBFF36F8FFEE7FFF792FC20
:104E50005020EFF3118580F31188BFF34F8FBFF31C
:104E60006F8FA16BE06B884218D994F94500491CFB
:104E7000A163411C04D0401C84F8450001200EE0D1
:104E8000606A0028FAD004F1240000F02BF9002811
:104E9000F4D0002EF2D001203060EFE7002085F33F
:104EA000118870BD70B50D46040019D005B3FFF729
:104EB000EFFB164AD1682868431C0FD02368126A9A
:104EC000934202D062688A421AD96268891A814282
:104ED00016D2401A28602046FFF7FCFC002410E0A0
:104EE000502080F31188BFF34F8FBFF36F8FFEE721
:104EF000502080F31188BFF34F8FBFF36F8FFEE711
:104F00000124FFF7E5FB204670BD000048000020AB
:104F10002DE9FF5F8346DDE90E87994616468A46EE
:104F20009000FEF7A9FC05001AD05420FEF7A4FC5F
:104F3000040012D025630021CDE90241CDE90087AC
:104F40004B46324651465846FEF7C0FB2046FEF718
:104F50009FFA012004B0BDE8F09F2846FFF7CCFB84
:104F60004FF0FF30F6E700000548416919B1006BCA
:104F700018B10020704701207047022070470000E0
:104F8000480000202DE9F0412E4C0027206B40B155
:104F9000A069401CA061E06900B101273846BDE866
:104FA000F081E668761CE66013D1606B006838B16A
:104FB000502080F31188BFF34F8FBFF36F8FFEE750
:104FC000606BA16B6163A063206A401C2062FEF7E6
:104FD000F9FBA06ADFF87080864209D3606B006835
:104FE00080B1606BC068C568686886420DD2A062F7
:104FF0002068C06A00EB800158F821000128CAD956
:105000000127C8E74FF0FF30F1E7281DFFF7FBFA53
:10501000A86A18B105F11800FFF7F5FAE86A01214E
:10502000226981401143216100EB800108EB81007E
:10503000291DFFF720FBE86A2168C96A8842CDD3A1
:105040000127CBE748000020D007002070B50400FE
:105050004FF0000140D0214D2868844207D05020F5
:1050600080F31188BFF34F8FBFF36F8FFEE7A06C03
:1050700038B1401EA064636CE26A9A422CD040B101
:105080002AE0502080F31188BFF34F8FBFF36F8F5A
:10509000FEE7201DFFF7B7FA114A012150B9E06A77
:1050A00000EB800352F8233023B92B6901FA00F09A
:1050B00083432B61606CE062C0F10700A061E06A8D
:1050C0002B6981401943296100EB800002EB8000CD
:1050D000211DFFF7D0FA0121084670BD48000020CD
:1050E000D00700202DE9F041C068C468ACB104F1DC
:1050F00018000746FFF787FA154D286B0126A0B167
:1051000039461448FFF7B7FAE06A2968C96A884245
:105110001CD90120EE61BDE8F081502080F3118898
:10512000BFF34F8FBFF36F8FFEE7201DFFF76BFAC2
:10513000E16A2A6906FA01F01043286101EB810057
:105140000449B43901EB8000211DDBE70020E2E7D0
:1051500048000020840800202DE9F0472C4D002451
:105160002746286B38B1FFF793FA286B401E286357
:10517000286B40B146E0502080F31188BFF34F8F79
:10518000BFF36F8FFEE7A968224E0120D1B3A6F1CD
:10519000B40980463068E8B1F068C46804F11800CA
:1051A000FFF731FA201DFFF72EFAE06A2A6908FAA4
:1051B00000F11143296100EB800109EB8100211D01
:1051C000FFF759FAE06A2968C96A8842E2D3C5F84C
:1051D0001C80DFE70CB1FEF7F5FAAC6944B1464636
:1051E000FFF7D0FE00B1EE61641EF9D10020A86186
:1051F000E86938B10849012738070860BFF34F8FC5
:10520000BFF36F8FFFF764FA3846BDE8F087000000
:10521000480000208408002004ED00E000000000A9
:105220000000000001020304060708090000000056
:10523000010203045F0003030404030505091100D0
:10524000FD0AFD0BFF01930329049E200500F419BC
:105250002107B287198F04220845BE19122E022396
:1052600013A785394A129144725192482E4A1291DD
:1052700044022411B87C79428B0A45486594505405
:105280008C32002513A88439230A45429248C5521E
:10529000898822619A002613A8843943894C229375
:1052A00008A7230A45A4421A09270742BF19870005
:1052B000280DC47E59129144A437914C00290DC485
:1052C0007E1932914CA4179144042A0D788C792AC6
:1052D0002A369A459B0C002B0B788C7962B5434C8F
:1052E000AC062C08437719160A002D0617A51907D6
:1052F0002E06238719062F0DA884D952B15459AA16
:105300002C1503300DA7855933891ADF246A230031
:10531000310DA88479D2214D22D6DB2100320CA791
:10532000855933899A5451C703330DA7851957A15D
:10533000E258952422013410A78599C21949A22464
:1053400011498E521500350DA7851907A96A59957F
:105350002422013610A7855924A1545A5291D124F0
:105360006A2300370DA7851957A15428154AB5019E
:105370003811A7855933899A446D2651A349D446DB
:10538000003910A7855933891A4D2219551545241E
:10539000003A087387197690013B09937719769044
:1053A00085023C08968599325D753D0847951977C9
:1053B00084033E0996851952DD74043F0EA7855972
:1053C00033899A54A8550E95014015A9845935156D
:1053D0009184924249A1A45052482439A404410E18
:1053E000A78579D1E19A445492A8B109420EA785C4
:1053F000191619DB2122E3768800430DA78559246D
:105400001155CF22110500440CA785192515193F08
:10541000494A00450CA7851907A96A49AAF500461B
:105420000CA7851907A96A49AA2B00470FA7855918
:1054300033891A55A94693A88D00480BA7851932C0
:105440006E071A6F024909A6851926A17E324A0DF8
:10545000A7857944A95E44129188044B11A7851948
:105460003292448936A449442A329A004C09A785CD
:105470001952FDF5004D0DA78519B2CAA112A1F16F
:105480004D004E0DA78519325AC94231D5B8094F82
:105490000BA7853915197F935400500DA785192541
:1054A000151993A424D50A5117B87D594389482664
:1054B00091496412994426919024C23A4000520EB8
:1054C000A785191619B7434449454613530FA785B5
:1054D000391519555C964A69920A005409A685192E
:1054E00026A1FE04550BA7851932FE26511B015635
:1054F00010A78519323689924424910D57630057BD
:1055000011A78519325E2294082572A84C621100F9
:105510005810A78519329A446D1A8ECE246A340128
:10552000590DA8841942A24424A38AF5065A0AA751
:1055300085195745BD4A0F5B09C57E1937FD5B01CB
:105540005C13A884197280580E9003C472801C20CA
:105550009603045D09C47E1924FD93015E0A48B4D4
:1055600079529A4822145F07187C19870060073423
:10557000D6193205610C77853965A9E410A3490C69
:10558000620DA7851952558B8CB7430400630B77C6
:1055900085391519559BA402640BA785B95A0E319C
:1055A000DE2406650D7785391519ED4095492A00E9
:1055B000660DA6855923898E329A501B006712A763
:1055C0006D3987904424118948E28A8C26A90068A5
:1055D0000BA7851952558B8C6F02690BA685594212
:1055E0003984A827036A0ED56E79EA8099DE2814DB
:1055F000C904006B0FA78519524D12251A4D22526E
:1056000091096C09A6851944FDC9006D10788419AB
:1056100017158A8422A1482812A2006E0A778519DC
:1056200092251A6F026F0C77855933891A9B446D46
:1056300004700DA76D19251519274949AA0A710D7E
:10564000A76D5915118D4D22125535720B7785199D
:1056500092D144554700730C7785391519B94C938D
:105660005400740C97855952994DAA8B6C02750998
:1056700077851932BE490C760E778519329A4449DE
:10568000221B4E6300771078841942160945429117
:105690001C26220900780D7785193289DA343A936D
:1056A000A8097912A76D19329A44492292C88643F3
:1056B000594428047A0976851946998E067B0CB6DA
:1056C000855914A136A9502B017C07C27F191F06EA
:1056D0007D0DB6851953A1D69150D30C007E0A38A2
:1056E000BC39238A8434010000000000F05800080F
:1056F0009D230008FDFF0000000000008000000066
:10570000E8580008A5230008FFFF00000000000083
:1057100080000000FC580008492300080000000039
:105720000000000080000000181538150819FFFE61
:105730006418FE0A15381508150615021501FE0431
:1057400019FF181538150C1501FE0419FF0000008B
:10575000010005050106148C40420F0003041E28B9
:1057600018040000C0002000010005050106148C8B
:1057700040420F0003041E28100800008000400073
:10578000B7410008133D00084C5555555555A53FE8
:105790007751C1166CC156BF9015CB19A001FA3EC6
:1057A000AD529C804F7E92BEC4B1B4BD9EEE213EF0
:1057B000D43888BEE9FAA8BD00004054FB21F93F67
:1057C0003163621A61B4D03D0000601A61B4D03D0B
:1057D0007370032E8A19A33B0000002E8A19A33B85
:1057E000C14920259A837B39000000000000000099
:1057F0006E83F9A22915444ED15727FCC0DD34F53C
:10580000999562DB4190433CAB6351FE61C5BBDEC1
:105810003A6E24B7E0D24D42EA2E49061C92D109D5
:105820001CEB1DFE3EA729B1F53582E88444BB2E52
:1058300026709CE9417E5FB439D69139F43953839F
:105840008B5F849C3B28F9BDFF97F81F0F9805DEFE
:105850008B112FEF1F6D0A5ACF7E366DB709CB27FC
:10586000663F464F2DEA5F9EC7BA27757BF1E5EB91
:10587000F739073DEA92528AB15FFB6B085D8D1FD5
:10588000A6F810111111813FD561C119A0012ABFDD
:105890007DFEB157E31DC73EEB9C2B8AE6E55ABE61
:1058A0007CD5CF5A3AD9E53DDDDDDDDDDCBBBBDDA6
:1058B000DDDDDDDDDDDDDDDD9888888888888888B0
:1058C00077777777778888888555555666666666D0
:1058D00066666666666888888333333222222222AF
:1058E000222222222228888D6D794C434400000018
:1058F00064656661756C745461736B006D794750B3
:10590000535F706172736572000000002C590008CB
:1059100000000020AC000000282F0008D859000823
:10592000AC00002014180000382F000800A24A0420
:105930000000000000000000000000000000000067
:105940000000000000000000000000000000000057
:1059500000000000CC66A41E04F54E17646FA41E60
:10596000C8304F17F80600200000000000000000BB
:105970000000000000000000000000000000000027
:105980000000000000000000000000000000000017
:105990000000000000000000000000000000000007
:1059A00000000000000000000000000000000000F7
:1059B00000000000AAAAAAAA00000000000000003F
:1059C00000000000000000000000000000000000D7
:0859D0000000000000000000CF
:04000005080000ED02
:00000001FF
