:020000040800F2
:100000000017002099010008CF12000829110008EC
:10001000CD12000855020008DD170008000000009E
:1000200000000000000000000000000001010008C6
:1000300057020008000000004501000815140008E0
:10004000B3010008B3010008B3010008B3010008C0
:10005000B3010008B3010008B3010008B3010008B0
:10006000B3010008B3010008B3010008B3010008A0
:10007000B3010008B3010008B3010008B301000890
:10008000B3010008B3010008B3010008B301000880
:10009000B3010008B3010008B3010008B301000870
:1000A000B3010008B3010008B3010008B301000860
:1000B000B3010008B3010008B3010008B301000850
:1000C000B3010008B3010008B3010008B301000840
:1000D000B3010008D1170008B3010008B3010008FC
:1000E000B3010008B3010008B3010008DFF80CD029
:1000F00000F09EF80048004789190008001700200A
:10010000224B19680868B0E8F00F80F30988BFF344
:100110006F8F4FF0000080F311884EF00D0E704786
:100120000000000006480068006880F3088862B696
:1001300061B6BFF34F8FBFF36F8F00DF00BF00BF0B
:1001400008ED00E0EFF30980BFF36F8F0F4B1A68E3
:1001500020E9F00F106008B54FF0500080F31188CF
:10016000BFF34F8FBFF36F8F02F086FF4FF0000099
:1001700080F31188BDE8084019680868B0E8F00FFE
:1001800080F30988BFF36F8F704700BF2C000020F9
:10019000EFF3058070470000064880470648004797
:1001A000FEE7FEE7FEE7FEE7FEE7FEE7FEE7FEE727
:1001B000FEE7FEE78D140008ED00000840EA0103A9
:1001C0009B0703D009E008C9121F08C0042AFAD20D
:1001D00003E011F8013B00F8013B521EF9D27047D1
:1001E000D2B201E000F8012B491EFBD27047002279
:1001F000F6E710B513460A4604461946FFF7F0FF26
:10020000204610BD30B50B460146002020220124B7
:1002100009E021FA02F59D4205D303FA02F5491BD4
:1002200004FA02F52844151EA2F10102F1DC30BDEA
:10023000064C074D06E0E06840F0010394E8070033
:1002400098471034AC42F6D3FFF754FFF849000842
:10025000184A0008FEE7704710B590F821100024F6
:10026000022903D00421816301243DE001680A686A
:1002700022F00E020A6001680A6822F001020A6098
:100280001A4A0168914201D1012121E0174A143232
:10029000914201D110211BE0144A2832914201D130
:1002A000891515E0114A3C32914201D189140FE0C1
:1002B0000E4A5032914202D14FF4803108E00B4A8D
:1002C0006432914202D14FF4801101E04FF080710D
:1002D000064A083A5160012180F82110002180F877
:1002E0002010416B01B18847204610BD0800024034
:1002F00031B500F0F3F8009C0546601C00D0641C8A
:1003000000F0ECF8401BA042FAD338BD2DE9F84FBD
:10031000DFF890A100220AF1040B144601274FF0E8
:100320000F090BF1040E00BF0B6807FA04F52B4010
:10033000AB4274D1DFF870C14E68A6EB0C0866457D
:100340002BD00DDC032E34D005DC36B3012E19D0B2
:10035000022E2FD11BE0112E16D0122E2AD119E019
:10036000B8F5881F19D006DCB8F5803F15D0B8F570
:10037000801F1FD111E0B8F5001F0ED0B8F5041F83
:1003800018D10AE0CA6815E0CA68121D12E0CA68EE
:1003900008320FE0CA680C320CE08A682AB1012AE0
:1003A0004FF0080203D0456104E0042202E0056139
:1003B00000E00022FF2B01D8064601E000F1040610
:1003C0004FEA840501D9A5F12005D6F800C009FA45
:1003D00005F82CEA080C02FA05F54CEA050CC6F8FB
:1003E00000C04D68ED0057D5304DAE6946F00106AE
:1003F000AE61AD6924F0030605F0010500952C4DB2
:1004000006EB050CDCF80850A6074FEA167809FA47
:1004100008F6B543274EB04202D1002610E03BE07B
:10042000254EB04201D101260AE0244EB04201D14E
:10043000022605E0224EB04201D1032600E0042648
:1004400006FA08F62E43CCF808604D68DAF800602A
:10045000ED03554601D51E4300E09E432E604D68D6
:10046000DBF80060AD035D4601D51E4300E09E430E
:100470002E604D68DEF80060ED02754601D51E4322
:1004800000E09E432E604D68AD020E4D2E6801D5F2
:100490001E4300E09E432E60641C102CFFF444AF0A
:1004A000BDE8F88F00040140000011100010024068
:1004B0000000014000080140000C01400010014014
:1004C000001401400C040140C2684A40C2607047F9
:1004D0000AB1016170470904FBE7000001480068A8
:1004E000704700000400002002480168491C0160B8
:1004F0007047000004000020074810B5016841F073
:1005000010010160032000F08BF80F2000F006F8C6
:1005100000F018F8002010BD0020024010B504467D
:1005200007484FF47A710068B0FBF1F000F038FC36
:1005300000222146501E00F053F8002010BD00009C
:10054000000000201E4808B5816941F00101816169
:10055000806900F001000090032000F061F80022A3
:1005600011466FF00B0000F03BF8002211466FF0CF
:100570000A0000F035F8002211466FF0090000F083
:100580002FF800221146501F00F02AF800221146D1
:10059000101F00F025F800220F21901E00F020F817
:1005A00000220F21501E00F01BF80648416821F080
:1005B000E0614160416841F00071416008BD0000A8
:1005C000001002400000014000F01F020121914094
:1005D0004009800000F1E020C0F8001170470000E1
:1005E000F0B40E4B1B680C46C3F30223C3F107059E
:1005F000042D00D90425191D072901D2002300E08C
:10060000DB1E012606FA05F1491E214099409E4055
:10061000761E16403143F0BC00F05ABE0CED00E0EF
:10062000064900F0070208684FF6FF03184040EA49
:100630000220034A10430860704700000CED00E000
:100640000000FA052DE9F047DFF83C8105460E462B
:10065000D8F8000000F00700B0420CD2D8F8001023
:1006600021F007013143C8F80010D8F8000000F06D
:100670000700B04263D12878444C800705D56068F4
:10068000A96820F0F000084360602878C00745D0D2
:100690006868012816D02168022816D08907002929
:1006A0004DDA616821F0030101436160FFF716FF35
:1006B0006968074641F2883001290FD00229814636
:1006C00019D027E021688903E9E78901E7E700BF3E
:1006D000FFF704FFC11B494501D918E08146606856
:1006E000C0F381000128F3D118E000BFFFF7F6FE48
:1006F000C11B49450BD86068C0F381000228F5D1C1
:100700000CE000BFFFF7EAFEC11B494502D90320F8
:10071000BDE8F087606810F00C0FF3D1D8F8001036
:10072000404601F00701B1420BD9016821F00701F1
:1007300031430160006800F00700B04201D00120A1
:10074000E6E72878400705D56068E96820F4E060AE
:10075000084360602878000706D56068296920F49E
:10076000605040EAC100606000F03CF86168084AEF
:10077000C1F30311515CC840064908600F20FFF720
:10078000CDFE0020C4E7000000200240001002401F
:10079000243900080000002001480068704700006C
:1007A000000000200448054900684968044AC1F374
:1007B0000221515CC8407047000000200010024038
:1007C000343900080448054900684968044AC1F3FF
:1007D000C221515CC8407047000000200010024058
:1007E0003439000810B512A385B00FCB8DE80F0087
:1007F00013A0144B006804905A68134802F00C01CF
:1008000004290FD008290DD1C2F38344D2031DF867
:10081000041009D55A6804ABC2F340429A5CB0FB9D
:10082000F2F0484305B010BD08484843FAE700001D
:1008300002030405060708090A0B0C0D0E0F101021
:10084000010200000010024000127A0000093D0081
:100850002DE9F84F04460078B94DC00748D06868C4
:10086000C0F38100012807D06868C0F38100022826
:1008700009D16868C00306D52868800338D5606848
:1008800000286FD034E06068B0F5803F0BD010B125
:10089000B0F5A02F11D0286820F480302860286897
:1008A00020F4802002E0286840F4803028606068EE
:1008B00088B1FFF713FE064609E0286840F480205F
:1008C0002860F0E7FFF70AFE801B642875D82868C7
:1008D0008003F7D50CE0FFF701FE064605E000BFF8
:1008E000FFF7FCFD801B6428F0D828688003F7D44C
:1008F0002078944E80074FF001094FF000083BD557
:10090000686810F00C0F07D06868C0F381000228F7
:1009100009D16868C00306D42868800714D5206907
:1009200001281FD110E02069B0B1C6F80090FFF790
:10093000D5FD074605E000BFFFF7D0FDC01B02282C
:10094000C4D828688007F7D52868616920F0F800C6
:1009500040EAC10028600FE0C6F80080FFF7BEFD46
:10096000074606E0E9E000BFFFF7B8FDC01B02281C
:1009700023D828688007F7D4207800072CD5724840
:10098000A169D9B1C0F80090FFF7A8FD074604E0BF
:10099000FFF7A4FDC01B02280FD8686A8007F7D5AF
:1009A0006A484FF4FA510068B0FBF1F0009000BFC4
:1009B0000098411E0091FAD20EE080E0C0F800805D
:1009C000FFF78CFD074604E0FFF788FDC01B0228F7
:1009D00075D8686A8007F7D42078400760D5E86941
:1009E0000027C00008D4E86940F08050E861E86959
:1009F000012700F08050009055480168C90513D4C4
:100A00000168834641F480710160FFF767FD82460B
:100A100006E000BFFFF762FDA0EB0A0064284ED895
:100A2000DBF80000C005F5D5E06801280AD008B160
:100A3000052813D0286A20F001002862286A20F0D7
:100A4000040002E0286A40F001002862E06841F2F8
:100A5000883B98B1FFF742FD82460BE0286A40F0E0
:100A600004002862EEE700BFFFF738FDA0EB0A01A3
:100A700059455AD8286A8007F6D50CE0FFF72EFDB5
:100A8000824605E0FFF72AFDA0EB0A0159454CD844
:100A9000286A8007F6D41FB1E86920F08050E86129
:100AA000E06988B36968C1F38101022945D0022851
:100AB000C6F8608004D0FFF711FD044638E034E04A
:100AC000FFF70CFD074604E0FFF708FDC01B0228F6
:100AD0002BD828688001F7D4206AB0F5803F05D173
:100AE0006868A16820F4003008436860D4E9080110
:100AF0000843696821F4741108436860C6F860907F
:100B0000FFF7ECFC044606E015E000BFFFF7E6FC4B
:100B1000001B022809D828688001F7D50BE000BF28
:100B2000FFF7DCFC001B022802D90320BDE8F88F88
:100B300028688001F4D40020F8E70120F6E70000DF
:100B400000100240000042428004424200000020A7
:100B50000070004090F85100704770B5040005D057
:100B60000025A56294F8510010B104E0012070BD89
:100B7000204600F033F8022084F851002068016814
:100B800021F040010160D4E901010843D4E90312D6
:100B90001143084361690843218B01F40071084344
:100BA000E1690843216A0843A16A08432168086093
:100BB000A069042101EA1040616A08432168486085
:100BC0002168E06A08612068C16921F40061C1619F
:100BD0006565012084F85100002070BD00B50068F3
:100BE0000C4985B0884213D10B48C16941F480415A
:100BF000C161C069694600F4804004904FF4204010
:100C0000009002200190032003900448FFF77EFB30
:100C100005B000BD0038004000100240000C01404B
:100C20002DE9F84F044690F85000002699461746E3
:100C30000D4601280DD04FF0010B84F850B0FFF79E
:100C40004DFC804694F85100B246012804D002269B
:100C500094E00220BDE8F88F002D7BD0002F79D0E2
:100C6000032084F85100C4F854A02563A786E786C2
:100C7000C4F838A0A4F83CA0A4F83EA0C4F844A04E
:100C8000C4F840A0A068B0F5004F04D12068016806
:100C900041F48041016020680168490603D401687D
:100CA00041F040010160E068B0F5006F606804D079
:100CB00030B3E08E012823D03EE010B1E08E012851
:100CC0001AD135F8021B206805E020688168890781
:100CD00006D535F8021BC160E08E401EE0860BE0B1
:100CE000B9F1000F34D0B9F1FF3F05D0FFF7F6FBA3
:100CF000A0EB080149452BD2E08E0028E5D11EE08B
:100D0000216815F8010B087306E0206881688907DF
:100D100006D515F8011B0173E08E401EE0860BE03E
:100D2000B9F1000F14D0B9F1FF3F05D0FFF7D6FBA2
:100D3000A0EB080149450BD2E08E0028E5D14B46D7
:100D4000012202212046CDF8008000F0E1FA10B126
:100D5000032613E011E042464946204600F0C8FA57
:100D600018B101262020606508E0A06818B9206845
:100D7000C16880680090606D00B1012684F851B0B0
:100D800084F850A0304665E74FF0E0210428086958
:100D900003D020F004000861704740F00400FAE737
:100DA00010B5401EB0F1807F01D3012010BD4FF07F
:100DB000E02460610F21601700F08AFA0020A06132
:100DC00007202061002010BD7047000070B5026848
:100DD00004461068D168536910F00F0F50D003F02B
:100DE000010501F4907635435DD0C20705D0CA05F0
:100DF00003D5E26B42F00102E263420705D5DA0750
:100E000003D0E26B42F00202E263820705D5DA0703
:100E100003D0E26B42F00402E263020705D5DA0771
:100E200003D0E26B42F00802E263E26B002A33D0A7
:100E3000800604D5880602D5204600F061FB2068B4
:100E40004069E16BC0F38010090700D428B3204645
:100E500000F048FB2068416949061AD5416921F034
:100E600040014161606BA0B11B494163606BFFF7BA
:100E7000F3F9002810D0606B416BBDE87040084763
:100E8000830610D58B060ED52046BDE8704000F0D5
:100E900037BB2046FFF798FF70BD2046FFF794FF51
:100EA0000020E06370BD030606D50B0604D520467E
:100EB000BDE8704000F028BC4006F3D54806F1D5E7
:100EC000D168204621F04001D160202184F83910FA
:100ED00000F029F970BD0000D514000870B50400B9
:100EE00004D094F83900002510B106E0012070BD4F
:100EF00084F83850204600F023F8242084F8390084
:100F00002068C16821F40051C160204600F044FB14
:100F10002068016921F4904101612068416921F054
:100F20002A0141612068C16841F40051C160E56354
:100F3000202084F8390084F83A00002070BD0000B9
:100F400010B50068154986B0884225D114488169DA
:100F500041F4804181618069124C00F4804004902A
:100F60004FF4007000900220019003200390694626
:100F70002046FFF7CBF900212015CDE900010291B1
:100F800069462046FFF7C2F9002205212520FFF718
:100F900027FB2520FFF718FB06B010BD00380140E5
:100FA000001002400008014090F83A30202B22D176
:100FB000F9B1F2B190F83830012B1CD081628285F2
:100FC000C2850021C163222280F83A2080F83810BF
:100FD0000168CA6842F48072CA6001684A6942F0D6
:100FE00001024A610068C16841F02001C16000202F
:100FF00070470120704702207047000010B5154C63
:101000000021616000681449884222D121780D29AD
:101010000BD0124A60781154401C60702146BDE824
:10102000104001220E48FFF7BFBF4FF400510D489A
:10103000FFF74AFA07496069091D02F069FA60681A
:10104000012806D1084900070860BFF34F8FBFF39E
:101050006F8F10BD14000020003801407005002083
:10106000BC0500200010014004ED00E02DE9F8432C
:10107000044690F839001F4616460D46202850D1E8
:10108000A5B19EB194F8380001284AD0012084F817
:1010900038004FF00008C4F83C80212084F8390063
:1010A000FFF71CFAA6848146E68426E00120BDE80D
:1010B000F883E08C401EE084A0684B46B0F5805F6A
:1010C0004FF000024FF080012046009703D000F05F
:1010D0004CFBE8B90DE000F048FBC8B9288821684E
:1010E000C0F308004860206908B16D1C05E0AD1C24
:1010F00003E0216815F8010B4860E08C0028D8D186
:101100004B46002240212046009700F02EFB08B1FC
:101110000320CCE7202084F8390084F838800020B0
:10112000C5E70220C3E77047FEE7000010B590B0A6
:1011300000200F9001210FA800F064FC114C142234
:10114000114960616846FFF739F80021684600F0F0
:1011500076FC0D49A0601422143105A8FFF72EF883
:10116000002105A800F06BFC0749E060142228313B
:101170000AA8FFF723F800210AA800F060FC20610C
:1011800010B010BD14000020384900082DE9F041CE
:10119000224886B0816941F010018161816901F0C6
:1011A00010010491816941F020018161816901F0A0
:1011B00020010491816941F008018161816901F098
:1011C00008010491816941F0040181618069144F33
:1011D00000F004004FF400540490002221463846E9
:1011E000FFF776F9DFF83C804FF4A0460022314645
:1011F0004046FFF76DF90094012402256946384600
:1012000003950194FFF782F8CDE9006469464046F2
:101210000395FFF77BF806B0BDE8F08100100240AF
:1012200000100140000C0140104810B50E4901604B
:101230004FF48271416000218160C1604FF40072FF
:101240000161C0E90512C1610162416281620A2146
:10125000C162FFF782FC002805D0BDE810404F2195
:1012600003A000F0BCBA10BD003800408C00002084
:101270002E2E2F5372632F7370692E6300000000AF
:101280000D4810B50B4901604FF416514160002123
:1012900081600C22C160C0E904128161C161FFF765
:1012A0001DFE002805D0BDE810404C2103A000F031
:1012B00096BA10BD00380140BC0500202E2E2F53D9
:1012C00072632F75736172742E630000FEE77047BE
:1012D0000907090E002806DA00F00F0000F1E020EF
:1012E00080F8141D704700F1E02080F8001470476A
:1012F00038B50B46009204460022802100F008F821
:10130000002804D0606D40F020006065032038BDE7
:101310002DE9F0411D4617460E460446DDF81880BB
:1013200035E0681C33D02DB1FFF7D8F8A0EB0800EA
:10133000A8422CD32068416821F0E0014160606838
:10134000B0F5827F0BD1A068B0F5004F02D0B0F5A8
:10135000806F04D12068016821F040010160A06A1B
:10136000B0F5005F0AD1206801684DF6FF721140A8
:1013700001602068016841F400510160012084F897
:101380005100002084F850000320BDE8F08120685F
:10139000806836EA000004D00020B842C1D10020A5
:1013A000F3E70120F9E7000001220D490D48FFF79E
:1013B000FBFD00250A4C6E1E00233246194660696B
:1013C00001F0FCFE6423627807490648FFF74EFEF1
:1013D0006570012202490348FFF7E6FDECE70000D3
:1013E00014000020BC05002070050020012000F042
:1013F000FDFAFBE74FF47A74054800F069FE00F04F
:10140000EBFD034800F0F0FE204600F0EFFAF3E7B2
:10141000E404002010B5FFF767F8BDE8104000F0C5
:1014200004BB30B58FB001210804CDE900100024C1
:10143000029402250491CDE907504FF4E010099081
:101440006846FFF705FA00B1FEE70F20CDE90A056F
:101450004FF4E060CDE90C4002210AA80E94FFF79A
:10146000F1F800B1FEE7FFF797F94FF47A71B0FB9E
:10147000F1F0FFF795FC0420FFF786FC00220F2116
:10148000501EFFF7ADF80FB030BD00000D480168E9
:1014900041F00101016041680B4A1140416001685F
:1014A0000A4A11400160016821F48021016041680D
:1014B00021F4FE0141604FF41F0181600449C00323
:1014C00008607047001002400000FFF8FFFFF6FEC2
:1014D00008ED00E010B5406A0021C185C184FFF726
:1014E00073FC10BD0168CA6822F49072CA6001687A
:1014F0004A6922F001024A61202180F83A107047BF
:1015000010B590F83A10222901D0022010BD816850
:10151000B1F5805F11D00169002901681FD04968C9
:1015200001F07F03816A4A1C82620B70C18D491EE3
:101530000904090CC18518D02BE00269816A002AD0
:101540000268526805D0D2B20A80816A491C816261
:10155000ECE7C2F308020A80816A891CF7E74A684F
:10156000816A4B1C83620A70E0E70168CA6822F056
:101570002002CA600168CA6822F48072CA600168E9
:101580004A6922F001024A61202180F83A10FFF7EF
:1015900035FD002010BD00002DE9F0410446006833
:1015A0000169E26821F44051114301612169A06899
:1015B0000843616908432168CA6841F20C639A4391
:1015C0000243CA6020684169A26921F44071114355
:1015D00041614C4920686425322688423CD1FFF79E
:1015E000F1F800EBC00101EB001061688900B0FB6D
:1015F000F1F7FFF7E7F800EBC00101EB00106168BD
:10160000B0468900B0FBF1F0B0FBF5F06FF01801C7
:10161000484307EB800106EB0110B0FBF5F000F04A
:10162000F006FFF7CFF800EBC00101EB0010616896
:101630008900B0FBF1F0B0FBF5F006EB0016FFF708
:10164000C1F800EBC00101EB001061688900B0FB3C
:10165000F1F7FFF7B7F83BE0FFF7A4F800EBC001A4
:1016600001EB001061688900B0FBF1F7FFF79AF811
:1016700000EBC00101EB00106168B0468900B0FBCF
:10168000F1F0B0FBF5F06FF01801484307EB800173
:1016900006EB0110B0FBF5F000F0F006FFF782F862
:1016A00000EBC00101EB001061688900B0FBF1F0B4
:1016B000B0FBF5F006EB0016FFF774F800EBC00185
:1016C00001EB001061688900B0FBF1F7FFF76AF8E1
:1016D00000EBC00101EB001061688900B0FBF1F084
:1016E000B0FBF5F06FF01801484307EB800108EB01
:1016F0000110B0FBF5F0216800F00F003044886065
:10170000BDE8F0810038014090F83910212901D05E
:10171000022070478168B1F5805F016A0BD04A1CD6
:101720000262026809785160C18C491E0904090CE3
:10173000C1840ED017E009880268C1F30801516026
:1017400001690029016A02D0491C0162ECE7891C89
:10175000FBE70168CA6822F08002CA600068C168BD
:1017600041F04001C160002070472DE9F0419846EA
:1017700017460E460446069D1DE0681C1BD02DB181
:10178000FEF7ACFEA0EB0800A84214D92068C1689F
:1017900021F4D071C1602068416921F001014161EB
:1017A000202084F8390084F83A00002084F83800BA
:1017B0000320BDE8F0812068006836EA000004D00C
:1017C0000020B842D9D00020F3E70120F9E700005B
:1017D0000148FFF7FBBA0000BC050020FEE7FEE76A
:1017E0000FB4084B10B504A902AA039800F01CF826
:1017F000044602A9002000F0C1F8204610BC5DF8A4
:1018000014FB00007D19000802E008C8121F08C17F
:10181000002AFAD170477047002001E001C1121F71
:10182000002AFBD1704700002DE9FF4F89B09B468D
:101830000446002506E025280BD05A460B99904710
:10184000641C6D1C20780028F5D10DB02846BDE839
:10185000F08F0027B8460122474900E0074314F8FB
:10186000013F203B02FA03F00842F7D120782E28EE
:1018700019D114F8010F47F004072A280ED06FF091
:101880002F022078A0F1300109290CD808EB88013B
:1018900002EB410100EB0108641CF2E70A98641CAA
:1018A00050F8048B0A9020780028CED0642808D005
:1018B000692806D075281ED05A460B9990476D1C92
:1018C00058E00A994FF00A0901C90A91002802DA82
:1018D00040422D2102E0390504D52B218DF820103E
:1018E000012103E0F90704D02021F7E78A4608AE7A
:1018F0000DE00021FAE70A994FF00A0901C90A919F
:10190000F7E74946FEF77EFC303106F8011D002856
:10191000F7D1ADEB060000F12009780701D44FF0B4
:101920000108C84502DDA8EB090000E00020804660
:10193000002706E008A85A46C05D0B9990476D1C29
:101940007F1C5745F6DB04E030205A460B99904740
:101950006D1CB8F10001A8F10108F5DC05E016F8EE
:10196000010B5A460B9990476D1CB9F10001A9F182
:101970000109F4DC641C65E7092801000A68531CAE
:101980000B60107070470000FEF7B6FDFFF749FDD1
:10199000FFF7FCFBFFF748FCFFF772FC0122510345
:1019A0000A48FEF795FD0A4B0A4A0B490B4800F01E
:1019B00055FC0A4800F0A1FF0021084800F0ADFFE7
:1019C000FFF7B4FB00F019F8FEE70000001001403B
:1019D000E12C0008AD290008CC490008E4040020EF
:1019E00001460020842900D0C81C704710B500B9FA
:1019F000012001F06DFA002010BD10B501F000FBD0
:101A0000002010BD10B5012901D0002010BD032217
:101A10000021012001F0AEFB040004D000231A468F
:101A2000194601F0C5FC204610BD10B501F020FE9E
:101A3000012803D0BDE8104001F086BB10BD3EB5C3
:101A400004460D46B0F90800FFF7CAFF02A9CDE928
:101A50000001208A2B4682B2D4E9001001F0DCFD9F
:101A6000012801D000203EBD02983EBD2DE9F04185
:101A7000184C0F460546E6682068001D01F047F93E
:101A800038B9206890F82C100120884021698143E2
:101A90002161681C07D137B12168BDE8F0410E48CB
:101AA000091D01F06CB920683544B54245602168D4
:101AB00005D2A06BBDE8F041091D01F048B9606B8B
:101AC000091D01F044F9A06A854200D2A562BDE873
:101AD000F08100002C000020E80600202DE9F041F4
:101AE000054601F059F92E4CA068401CA060206802
:101AF0002C4F10B1606940B32DE02560A06801282B
:101B000029D1002606EB860007EB800001F011F9D1
:101B1000761C072EF6D323488C3001F00AF92148B1
:101B2000A03001F006F91F48B43001F002F91D4859
:101B3000C83001F0FEF81B48DC3001F0FAF8194813
:101B40008C3060631430A06305E02068E96AC06AE5
:101B5000884200D82560606A401C6062E96A012002
:101B6000226988401043206101EB810007EB80006F
:101B7000291D01F004F901F02FF9606900280CD04B
:101B80002068E96AC06A884207D207494FF080504E
:101B90000860BFF34F8FBFF36F8FBDE8F081000087
:101BA0002C0000200C06002004ED00E070B5114E62
:101BB000114C17E001F058FA3068B8B101F050FE4E
:101BC00001F0EAF8F068C568281D01F0A0F8A068E7
:101BD000401EA0606068401E606001F0FDF828466D
:101BE00000F055F860680028E4D170BD01F038FEBF
:101BF000F8E70000D40600202C00002030B4026C6E
:101C00000B46002A0BD0C1681144C1604468A14250
:101C100001D30168C16030BC1846FEF7CFBA30BCB2
:101C200070472DE9F041856B174604460026026C8B
:101C300082B1C7B1E068FEF7C1FAE168206C091A09
:101C4000E1602268914202D26168081AE060022FC6
:101C500016D017E02068A8B9606801F07BFD064641
:101C6000002060600EE0A068FEF7A8FA216CA06872
:101C70000844A0606168884204D32068A06001E045
:101C800005B16D1E6D1CA5633046BDE8F08110B531
:101C90000446006B01F0B4F82046BDE8104001F0A6
:101CA000AFB8000010484FF44061420706D0C01D95
:101CB0000D4920F00700411AC1F540610B4A00238D
:101CC0000144C2E900030839103A21F0070111600C
:101CD0004B600B600B1AC0E9001393604FF000409B
:101CE0005360D06070470000FC0600208400002094
:101CF000074C4FF08056074DFFF758FF206801282A
:101D0000FAD92E60BFF34F8FBFF36F8FF4E7000057
:101D10000C06002004ED00E02DE9F0479A46DDE9CD
:101D2000098481466FF00303206B03EB82021044A9
:101D3000089D20F00706700707D0502080F3118817
:101D4000BFF34F8FBFF36F8FFEE723180A5C83F852
:101D500034200A5C12B1401C1028F6D3002784F806
:101D60004370072D00D30625E562C4E91157201DF5
:101D700000F0EAFF04F1180000F0E6FF2461C5F16D
:101D800007006462A061E76484F8507052464946D7
:101D9000304600F00FF92060B8F1000F01D0C8F80C
:101DA0000040BDE8F087000030B5114900E0114661
:101DB0000A688242FBD34B685C18844203D14068B6
:101DC00018444860084643681C18944209D1084CDE
:101DD000103C2468A24209D052681A4442600A6842
:101DE00012680260814200D0086030BD0460F9E7EB
:101DF0008400002010B5044600F0CEFFA06B28B18F
:101E00005FF0000400F0E8FF204610BD0124F9E770
:101E10000648416B096829B1416BC968C9684968BE
:101E2000816270474FF0FF31FAE700002C0000207C
:101E300008484068401C4FF0500080F3118804D0DF
:101E4000BFF34F8FBFF36F8FFEE7BFF34F8FBFF32B
:101E50006F8FFEE7680000202DE9F041044600F096
:101E60009BFF94F9455004F1240609E0606A48B1EB
:101E7000304601F0BBFC08B101F050F86D1E6DB2A8
:101E8000002DF3DC4FF0FF3684F8456000F0A4FF2E
:101E900000F082FF94F9445004F1100709E0206932
:101EA00048B1384601F0A2FC08B101F037F86D1EC8
:101EB0006DB2002DF3DC84F84460BDE8F04100F021
:101EC0008BBF00002DE9F0410546002701F0CCF85A
:101ED000314E306808B9FFF7E5FEF06805424BD196
:101EE000C5B3083568070ED005F00700C0F108003B
:101EF0000544680707D0502080F31188BFF34F8F47
:101F0000BFF36F8FFEE72DB37068854234D8224847
:101F1000103001460C6801E020460C466168A94279
:101F200002D221680029F7D131688C4224D0076899
:101F30002168016060680837411B10290FD96019BA
:101F4000420708D0502080F31188BFF34F8FBFF3B2
:101F50006F8FFEE710E041606560FFF725FF616865
:101F60007068401A7060B268904200D2B060F06849
:101F700001430020C4E9000101F072FC780707D09A
:101F8000502080F31188BFF34F8FBFF36F8FFEE7B0
:101F90003846BDE8F081000074000020044908685C
:101FA00018B10868826C521C82640868704700008F
:101FB0002C00002010B5031F4FF080741C601B1F05
:101FC00021F001011960191F024B0B6014394038D0
:101FD0000A6010BD311E000838B52949294800F0B3
:101FE0000CF9294C29A1201D2268FFF7F9FB231DBC
:101FF0001E220021234800F0D7F820682449401C05
:102000002060204800F0F9F822A31E2235211D4847
:1020100000F0CAF821A32D2200211A4800F0C4F8CC
:1020200021A33E220021174800F0BEF821A30E2272
:102030005C21144800F0B8F820A31E225C2111484E
:1020400000F0B2F81FA32D225C210E4800F0ACF87E
:102050001DA33E225C210B4800F0A6F80120009051
:10206000802320220021074800F03BF84020009008
:10207000012300225A21034800F033F838BD000044
:10208000F33D0008E40400200800002025690A0050
:102090003C3900084B6D2F6800000000412B3A349A
:1020A000303537362E3200004F444F3A3135373312
:1020B000303800004261742E0000000031332E34AD
:1020C0000000000052706D00303030300000000021
:1020D00001680A7C90F83810406B5143C900FEF744
:1020E00086B82DE9F8438146089C1E461019C0B2F7
:1020F00000908819C3B215468846484600F05CF83F
:1021000000280ED00027002C0BD033462A4641462B
:102110004846009700F03FF86D1C641EEDB2E4B233
:10212000F1E7BDE8F8832DE9F041044690F85E0040
:102130001F4615460E4630B1012809D002280CD0A2
:10214000032815D10FE0E16C20468847284408E0B9
:10215000E16C20468847301A09E0E16C2046884748
:10216000281AC5B204E0E16C204688473044C6B264
:10217000284684F8546084F85500394600252046E6
:1021800000F07EFA010003D0204600F0ADF9C5B2A0
:102190002846BDE8F08138B5002B049C03D000949C
:1021A000046B6468A04738BD30B4024C446030BC56
:1021B00000F039B98129000870B50D461E46044665
:1021C00090F8441090F84300049B00F0A8FA00280F
:1021D00009D094F8421094F8410033462A46BDE8ED
:1021E000704000F09CBA70BD10B5044600F014FBBE
:1021F0002046BDE8104000F088BB10B50446806C56
:10220000884209D004F16000A16400F0D0FA2046B1
:10221000BDE8104000F03CB810BD00000149C164A9
:10222000704700009D24000870B5044600250498FE
:10223000A564E362616384F8382084F83950012191
:1022400084F87D1084F87E1020630168204688475A
:102250002046FFF7E3FF84F85E5070BD38B50C46AA
:10226000009313460546064A064900F05EFB082225
:102270000549064B28460094FFF7D6FF38BD0000FD
:10228000C12A0008212C0008E4000020392700089A
:1022900010B5816C00291AD090F96D3080F8793032
:1022A00090F96E2080F87A2090F8781000290ED0EE
:1022B00001290DD090F96A4090F96C100C449C42B1
:1022C00001DD80F879408A4201DD80F87A1010BD86
:1022D00090F96F108B4201DA80F8791090F9701044
:1022E000F1E72BB1012B05D0022B06D0104402E000
:1022F000084400E0801AC0B27047401AFBE72BB1D7
:10230000012B05D0022B06D0401A02E0104400E059
:102310000844C0B27047801AFBE710B503780C7808
:10232000A34207D9934203D2501EC4B20C7001E0FD
:1023300000230370934205D224B1944200D90A705D
:10234000012010BD002010BD7FB582B0044690F87A
:1023500039009DF81010404201EBC000C1B28DF869
:1023600010100A9D94F83B6094F83A209DF80C00F8
:10237000DDB1904217D2C8188DF80400324601A989
:1023800004A8FFF7CAFF00280DD09DF804009DF8AF
:1023900010100095401AC3B2E56A9DF810209DF810
:1023A0000C102046A84706B070BDB142FBD21844BD
:1023B0008DF8040001A903A8FFF7AFFF0028F2D0B1
:1023C0009DF804009DF80C10E3E738B5012B049C40
:1023D00004D0022C14D0032C16D018E090F83950F9
:1023E0006D4202EBC50290F83A50D2B28D4206D946
:1023F00090F83B50954202D90094C46AA04738BD7A
:10240000C91A491CC9B202E0D21A521CD2B204F055
:1024100001040094FFF798FF38BD38B5049C009480
:10242000FFF7D3FF38BD2DE9F0471C46914688469B
:10243000064600F068FC00254FF6FF7772682178A9
:10244000304690470346B84225D0641CA3F57F4030
:10245000FE38F3D04A4641463046FFF764FE96F810
:102460005E1031B1012907D0022908D003290FD10C
:102470000AE008EB000104E009EB000106E0A8EB2C
:10248000000101F0FF0803E0A9EB000101F0FF09E2
:102490002844C5B2D2E72846BDE8F087002070473F
:1024A00010B50C4600F006F80122641EA240801A06
:1024B00040B210BD30B50568847A2A78E2406318CE
:1024C000DBB2082B09D36D1C05602D78C4F108041C
:1024D000A5401543083BEAB2DBB201248C40641EE0
:1024E00014408372204630BD2DE9F843054600F1C3
:1024F000500400F0FAF815F9596F2046697BFFF790
:10250000CFFF8146A97B2046FFF7CAFF0746E97B3C
:102510002046593DFFF7C4FF804694F90800002883
:1025200055DDF019404247B2A37B20793A4649462F
:10253000FFF7D7FE2071A37B3A4660794946FFF743
:10254000DEFE60712179A77B02460B4637B1012F71
:1025500009D0022F3ED0032F0DD143E0277A30441B
:102560003B44DBB206E0891B491C277A5B1CC9B2DD
:10257000DBB23844C0B200902846FFF71DFE30B3EE
:102580000020A07184F8070095F862102046FFF73C
:1025900091FF814695F863102046FFF78BFF0746B1
:1025A00000224946284600F025F8012239462846EF
:1025B00000F020F801212046FFF77CFF0028EFD132
:1025C00094F90700B042DFDB207B85F87D004046B0
:1025D000BDE8F883277A5B1CC91B491CC9B2DBB272
:1025E000921B03E0277A3344DBB2D21B521CD2B2D7
:1025F000401CBFE72DE9F74F84B00D46049C94F8CA
:10260000567094F857805034207AC01BC6B2019699
:10261000B54200D201954FFA88F279B2207994F848
:1026200005B0A37B92468946FFF75BFE0290A37B31
:10263000524649465846FFF762FE0246069808B1E0
:10264000217B02E0E07A50B9617B049880F87D102C
:10265000A07B0090DDE901310498FFF79CFDB542B5
:1026600007D3A81BC5B208F10100002700F0FF083E
:10267000CAE77819A07184F8078007B0BDE8F08F29
:1026800010B50246806C1730FF2910D8612902D39B
:10269000B2F8742003E0412902D3B2F8722010444A
:1026A0004278B2B103788B42F9D1801C10BDB2F8E8
:1026B00076204FF6FF741044027804EA0223427831
:1026C0001A4306D08A4201D1C01C10BD8278104442
:1026D000F2E7002010BD08444FF6FF720178407801
:1026E00002EA0121084480B2704730B5054600F186
:1026F000500401650020A07215F8641F2046FFF702
:10270000D9FE207269782046FFF7D4FE6072687E99
:10271000207310B10020607330BD0120FBE78A42B6
:1027200005D2834201D89A4203D9012070478342DF
:10273000F9D8002070470000F0B5046801F00707E1
:10274000059E257C8024FC406A4302EBD101426B4C
:1027500089B21144BEB900BF90F87D20012A06D885
:102760000A7822430A7090F87D20012A02D00A7864
:1027700062400A70640801D18024491C5B1E13F07A
:10278000FF03E9D1F0BD90F87D20012A06D80A7830
:1027900022430A7090F87D20012A02D00A78624014
:1027A0000A705B1E294413F0FF03ECD1F0BD70B535
:1027B000054608782870487868708878A870C878C6
:1027C000E870087928714879687188790C46A87191
:1027D000E079E871207A2872607A6872A07AA8722B
:1027E000E07AE872207B2873607B6873A07BA87313
:1027F000E07BE873207C287411212046FFF76BFFF3
:10280000688213212046FFF766FFA8821521204623
:10281000FFF761FFE88270BD2DE9F843064690F8A6
:10282000387090F83950006800244FF6FF7890F81F
:102830001190316830462A460B7C716B04FB03FC17
:102840001FFA8CFC08EACC0C61440091002100F0D6
:1028500045F8641C6D1CE4B2EDB2BC4201D24D459A
:10286000E7D3BDE8F88370B590F83820D10080F840
:102870003B100468217C202900D31F21C90080F867
:102880003A1090F83930D906090E80F83C10657C72
:102890009E18AE4201D9EA1AD2B280F83D1001EB7F
:1028A000C20180F83E10F02180F83F10A18AF02983
:1028B00001D880F83F10A17D80F8401070BD10B5A0
:1028C0000446FFF7D0FF002084F8410014F83A0FC7
:1028D0002072E07860722079A07210BD1CB58DF86E
:1028E00005108DF80620049C8DF804300094012218
:1028F00084686B460F21A0471CBD30B48468002358
:10290000A44630BC1A460A21604730B484680023CC
:10291000A44630BC1A461021604730B484680023B6
:10292000A4460A4630BC0B2160472DE9F04115460C
:102930000E460446069F00F009F86761A660C4E9E8
:1029400003532046BDE8F04100F012B8002140F8E2
:10295000081B064A026042608260C260C1758176CF
:10296000C176FF210176417770470000DD2C000819
:1029700030B484680023A44630BC1A46092160475D
:10298000080001D00A2801D14FF6FF70704713B537
:102990000122046901AB1721A0471CBD30B40469B2
:1029A0001346A4460A4630BC1721604738B5144682
:1029B000172908D016484FF4805318291AD019291E
:1029C0001ED0002038BD1D4611E000BF15F8010BD8
:1029D000641E8DF80000E4B20E48FEF7BBF8022832
:1029E000FAD06423012269460A48FEF719F9002C3F
:1029F000ECD10AE001221946FDF76AFD00BF04E0B0
:102A000000BF00221946FDF763FD012038BD00001C
:102A1000000C01408C00002030B4C4680023A446A0
:102A200030BC1A461921604730B4C4680023A4465C
:102A30000A4630BC1521604730B4C4681346A4462A
:102A40000A4630BC17216047F8B50C464FEA00052E
:102A500014F8011B182924D00EDC152919D01629C9
:102A600017D0172923D120788DF800006A4601215C
:102A70002846FFF7E1FF0AE0192912D0FE2916D1F6
:102A800022788DF800202921284600F036F9641CB0
:102A9000DEE722788DF80020EE6800232846B04754
:102AA000F5E70023EE681A462846B047D0E7F8BDA0
:102AB00030B4C4680023A44630BC1A4618216047CD
:102AC0002DE9F0410646A1F114001501984614467F
:102AD00002F0F00706286BD2DFE800F063031A2744
:102AE0006363F8213046FFF752FF01222C21304664
:102AF00000F003F939463046FFF749FF01222C2147
:102B0000304600F0FAF8E9B23046FFF740FF40E007
:102B1000F8213046FFF73BFF39463046FFF737FFD5
:102B2000E9B23046FFF733FF38E0FA213046FFF7CD
:102B30002EFF01222C21304600F0DFF8454615E03B
:102B40001C49082015F8012B02F0F003120101F8CE
:102B5000013B401E01F8012B10F0FF00F2D1083CB0
:102B6000E4B2144A10213046FFF718FF082CE7D2D0
:102B70000DE02F78304607F0F001FFF708FF380727
:102B8000010E3046FFF703FF641EE4B26D1C002CFB
:102B9000EFD101222C21304600F0AFF80120BDE832
:102BA000F081356922463046AC46BDE8F0416047C9
:102BB0000020F4E7FC05002070B5002345690446B9
:102BC0001A462821A8470023E5681A461421204602
:102BD000A84701224B21204600F08FF820682921C8
:102BE0000279204600F089F800224B21204600F0AF
:102BF00084F8206829210279204600F07EF801221D
:102C00004B21204600F079F820682921427920469E
:102C1000BDE8704000F071B80160897C8177704731
:102C200010B5092903D0BDE8104000F007B80249EB
:102C3000FFF7F2FF012010BDB44900082DE9F0476D
:102C40001E4682460A2906D00B2909D00F2910D02A
:102C50000020BDE8F087FFF7AFFF1F49504602E0B4
:102C600022B11D49C91FFFF7EFFE33E01A491331A6
:102C7000F9E7B079C006050E7079202D4FEA5008AB
:102C800003D3203DEDB208F108085046FFF710FFCE
:102C90003E2150463768FFF7C7FE002448F0800900
:102CA0002819C0B240F080015046FFF7BDFE4946EA
:102CB0005046FFF7B9FE96F804803A464146504622
:102CC000FFF7BAFE641CE4B24744082CE8D3504630
:102CD000FFF7A2FE0120BCE77B49000800207047F7
:102CE00010B51046292902D02C2904D102E0FDF7A5
:102CF000FFFA00E000BF012010BD30B4446900239A
:102D0000A44630BC6047002180F823107047D0E90A
:102D1000013201699A60D0E901235A604A6882420F
:102D200001D182684A60002202610868401E086082
:102D3000704700F108014FF0FF32C0E90112C16095
:102D4000016100210160704700210161704730B5C9
:102D50000B685A1C02D000F1080202E0026904E08C
:102D60002246546825689D42FAD953684B609960A1
:102D70008A60516008610168491C016030BD426889
:102D80004A6093688B60936859609160086101683C
:102D9000491C016070470000502080F31188BFF388
:102DA0004F8FBFF36F8F0A494868401C4860012865
:102DB0000CD10848006810F0FF0F07D0502080F3B6
:102DC0001188BFF34F8FBFF36F8FFEE7704700008E
:102DD0006800002004ED00E00849486828B1401E62
:102DE000486001D180F311887047502080F311882A
:102DF000BFF34F8FBFF36F8FFEE700006800002026
:102E000070B5002827D0144DA0F108046168E86867
:102E1000014207D1502080F31188BFF34F8FBFF3D9
:102E20006F8FFEE722683AB1502080F31188BFF31C
:102E30004F8FBFF36F8FFEE78143616000F014F99D
:102E400060686968084468602046FEF7ADFFBDE829
:102E5000704000F005BD70BD7400002006484FF4BE
:102E60007A710068B0FBF1F14FF0E020491E41613A
:102E700007210161704700000000002010B5FDF738
:102E800087F9114910280ED300F1E02090F8F003E3
:102E90000A78904207D2502080F31188BFF34F8FF9
:102EA000BFF36F8FFEE709480068896800F4E060AF
:102EB000884207D9502080F31188BFF34F8FBFF3AA
:102EC0006F8FFEE710BD0000680000200CED00E0F1
:102ED00010B5020014D00F48006B38B1502080F3B9
:102EE0001188BFF34F8FBFF36F8FFEE700F0BCF880
:102EF00000211046FEF7BAFD00F0B2FC002807D111
:102F000005494FF080500860BFF34F8FBFF36F8FBC
:102F100010BD00002C00002004ED00E0014901205C
:102F2000C86170472C00002010B50C4650B109490B
:102F300009681831FFF70BFF2046BDE8104001215A
:102F4000FEF794BD502080F31188BFF34F8FBFF37D
:102F50006F8FFEE72C00002070B5040039D01D4DA6
:102F6000E06A2968C96A884233D2A069002804DB74
:102F70002868C06AC0F10700A061E16A164E01EB43
:102F80008101606906EB810188421FD1201DFFF796
:102F9000BEFE012150B9E06A00EB800256F8222003
:102FA00022B92A6901FA00F082432A612868C06ABE
:102FB000E0622A6981401143296100EB800006EB41
:102FC0008000211DBDE87040FFF7D9BE2868C06AA7
:102FD000E06270BD2C0000200C06002028B10749DB
:102FE0000A6A0260C96841607047502080F3118806
:102FF000BFF34F8FBFF36F8FFEE700002C00002060
:103000001CB515480024CDE900402346802213A1B9
:10301000144800F001FB012809D0401C1AD15020AF
:1030200080F31188BFF34F8FBFF36F8FFEE75020FF
:1030300080F31188BFF34F8FBFF36F8F06484FF0B7
:10304000FF312C38816201214161C460BDE81C4020
:1030500000F040B81CBD00005800002049444C4519
:1030600000000000F11C00080248016B491C0163CC
:10307000704700002C0000201448016B11B10121A1
:10308000C16170470021C1610169B1FA81F1C1F1EB
:103090001F0101EB81020E4951F822306BB101EBA7
:1030A000820101F108034A6852684A609A4201D1DC
:1030B00052684A60D16801607047502080F31188DF
:1030C000BFF34F8FBFF36F8FFEE700002C0000208F
:1030D0000C0600201CB5194908780190FF200870E3
:1030E00008788DF800009DF80000154A00F05000A7
:1030F00010700720906005E09DF800305B008DF8AF
:103100000030401E9DF800301B06F5D4000200F48C
:10311000E0609060019808700A48016841F470010D
:103120000160016841F070410160FFF797FE0020E7
:103130005060FCF7F7FF00201CBD000000E400E039
:103140006800002020ED00E010B5502080F31188C9
:10315000BFF34F8FBFF36F8F00F098FA18B1044997
:103160004FF080500860002080F3118810BD0000EF
:1031700004ED00E070B50E46050013D0D6B105FB96
:1031800006F04830FEF79EFE040009D004F1480125
:1031900020468EB10160C0E90F56012100F0C4F84D
:1031A000204670BD502080F31188BFF34F8FBFF3CE
:1031B0006F8FFEE70020E4E70060ECE72DE9FF4FAA
:1031C000002683B09B468A46040003D0BAF1000F64
:1031D00008D011E0502080F31188BFF34F8FBFF368
:1031E0006F8FFEE7206C38B1502080F31188BFF359
:1031F0004F8FBFF36F8FFEE700F03AFADFF82481BC
:103200004FF000094FF0805748B9059838B1502069
:1032100080F31188BFF34F8FBFF36F8FFEE7FFF787
:10322000BBFDA56B45B351462046E668FEF7E6FCBC
:10323000BBF1000F13D0E660606A50B104F12400C6
:1032400000F0D4FA28B1C8F80070BFF34F8FBFF375
:103250006F8FFFF7C1FD012007B0BDE8F08F6D1E35
:10326000A563206810B9FEF799FE60602069002808
:10327000EFD004F11000E3E7059808B11EB106E0B5
:10328000FFF7AAFD27E06846FFF7A8FE0126FFF733
:10329000A3FDFFF7E9FEFFF77FFD94F94400401C12
:1032A00001D184F8449094F94500401C01D184F880
:1032B0004590FFF791FD05A9684600F077F90028D1
:1032C00020460AD0FEF7C8FD00F0CAFA2046FEF7F5
:1032D00091FD0028A3D00020BEE7FEF78BFDD8B1FA
:1032E000206830B9FFF758FD6068FFF735FEFFF73B
:1032F00073FD04F124000599FFF716FE2046FEF742
:10330000ABFD00F0ADFA002889D1C8F80070BFF31A
:103310004F8FBFF36F8F82E72046FEF79DFD00F0D1
:103320009FFA7CE704ED00E070B50D46040025D05F
:10333000FFF732FDD4E90F20216802FB0011616024
:103340000021A1632168A1600A46D4E90F01401E53
:1033500000FB0121E16021464FF0FF3001F8440FEE
:10336000487004F110008DB1FFF7E3FC04F1240074
:10337000FFF7DFFCFFF730FD012070BD502080F328
:103380001188BFF34F8FBFF36F8FFEE721690029CC
:10339000F0D000F02BFA0028ECD004494FF0805018
:1033A0000860BFF34F8FBFF36F8FE3E704ED00E0DA
:1033B0002DE9FF4782B01D468A464FF00008040001
:1033C00003D0BAF1000F08D011E0502080F311882B
:1033D000BFF34F8FBFF36F8FFEE7206C38B15020E3
:1033E00080F31188BFF34F8FBFF36F8FFEE7022D7D
:1033F0000AD1E06B012807D0502080F31188BFF379
:103400004F8FBFF36F8FFEE700F032F93F4F4FF061
:1034100000094FF0805648B9049838B1502080F325
:103420001188BFF34F8FBFF36F8FFEE7FFF7B4FC38
:10343000A06BE16B884207D3022D05D00498D0B170
:10344000B8F1000F1AD01EE02A4651462046FEF77A
:10345000E8FB616A19B104F1240000F0C7F920B15A
:103460003E60BFF34F8FBFF36F8FFFF7B5FC0120B6
:1034700006B0BDE8F087FFF7AFFC22E06846FFF733
:10348000ADFD4FF00108FFF7A7FCFFF7EDFDFFF7DB
:1034900083FC94F94400401C01D184F8449094F9D1
:1034A0004500401C01D184F84590FFF795FC04A924
:1034B000684600F07BF830B12046FEF7CDFC00F006
:1034C000CFF90020D4E7FFF767FCA06BE16B8842DF
:1034D00013D1FFF781FC04F110000499FFF724FDDC
:1034E0002046FEF7B9FC00F0BBF900289ED13E60F3
:1034F000BFF34F8FBFF36F8F98E7FFF76DFC204648
:10350000FEF7AAFC00F0ACF990E7000004ED00E043
:1035100070B50E46040009D0206C78B1502080F3BD
:103520001188BFF34F8FBFF36F8FFEE7502080F3FA
:103530001188BFF34F8FBFF36F8FFEE7206848B944
:10354000606838B1502080F31188BFF34F8FBFF30C
:103550006F8FFEE7FFF792FC5020EFF3118580F3A9
:103560001188BFF34F8FBFF36F8FA16BE06B884261
:1035700018D994F94500491CA163411C04D0401C92
:1035800084F8450001200EE0606A0028FAD004F1BA
:10359000240000F02BF90028F4D0002EF2D00120F6
:1035A0003060EFE7002085F3118870BD70B50D46DF
:1035B000040019D005B3FFF7EFFB164AD16828685D
:1035C000431C0FD02368126A934202D062688A4279
:1035D0001AD96268891A814216D2401A2860204698
:1035E000FFF7FCFC002410E0502080F31188BFF3AB
:1035F0004F8FBFF36F8FFEE7502080F31188BFF32A
:103600004F8FBFF36F8FFEE70124FFF7E5FB2046E6
:1036100070BD00002C0000202DE9FF5F8346DDE92E
:103620000E87994616468A469000FEF74BFC050029
:103630001AD05420FEF746FC040012D02563002166
:10364000CDE90241CDE900874B4632465146584606
:10365000FEF762FB2046FEF741FA012004B0BDE808
:10366000F09F2846FFF7CCFB4FF0FF30F6E7000055
:103670000548416919B1006B18B10020704701205D
:1036800070470220704700002C0000202DE9F04117
:103690002E4C0027206B40B1A069401CA061E0695E
:1036A00000B101273846BDE8F081E668761CE66087
:1036B00013D1606B006838B1502080F31188BFF3DC
:1036C0004F8FBFF36F8FFEE7606BA16B6163A063E9
:1036D000206A401C2062FEF79BFBA06ADFF8708026
:1036E000864209D3606B006880B1606BC068C568B2
:1036F000686886420DD2A0622068C06A00EB800133
:1037000058F821000128CAD90127C8E74FF0FF3037
:10371000F1E7281DFFF7FBFAA86A18B105F11800B8
:10372000FFF7F5FAE86A012122698140114321611E
:1037300000EB800108EB8100291DFFF720FBE86A00
:103740002168C96A8842CDD30127CBE72C0000202D
:103750000C06002070B504004FF0000140D0214D50
:103760002868844207D0502080F31188BFF34F8F20
:10377000BFF36F8FFEE7A06C38B1401EA064636C8E
:10378000E26A9A422CD040B12AE0502080F311889E
:10379000BFF34F8FBFF36F8FFEE7201DFFF7B7FA20
:1037A000114A012150B9E06A00EB800352F823303E
:1037B00023B92B6901FA00F083432B61606CE0624E
:1037C000C0F10700A061E06A2B69814019432961BB
:1037D00000EB800002EB8000211DFFF7D0FA0121F1
:1037E000084670BD2C0000200C0600202DE9F04199
:1037F000C068C468ACB104F118000746FFF787FA47
:10380000154D286B0126A0B139461448FFF7B7FAC9
:10381000E06A2968C96A88421CD90120EE61BDE8C6
:10382000F081502080F31188BFF34F8FBFF36F8F6B
:10383000FEE7201DFFF76BFAE16A2A6906FA01F03C
:103840001043286101EB81000449B43901EB800089
:10385000211DDBE70020E2E72C000020C00600204D
:103860002DE9F0472C4D00242746286B38B1FFF78F
:1038700093FA286B401E2863286B40B146E0502025
:1038800080F31188BFF34F8FBFF36F8FFEE7A968F6
:10389000224E0120D1B3A6F1B40980463068E8B1C8
:1038A000F068C46804F11800FFF731FA201DFFF733
:1038B0002EFAE06A2A6908FA00F11143296100EB47
:1038C000800109EB8100211DFFF759FAE06A2968A0
:1038D000C96A8842E2D3C5F81C80DFE70CB1FEF765
:1038E00097FAAC6944B14646FFF7D0FE00B1EE61ED
:1038F000641EF9D10020A861E86938B108490127A0
:1039000038070860BFF34F8FBFF36F8FFFF764FA7C
:103910003846BDE8F08700002C000020C0060020DB
:1039200004ED00E0000000000000000001020304BC
:103930000607080900000000010203045F000303FA
:103940000404030505091100FD0AFD0BFF019303A3
:1039500029049E200500F4192107B287198F04223B
:103960000845BE19122E022313A785394A12914425
:10397000725192482E4A129144022411B87C794225
:103980008B0A4548659450548C32002513A884391D
:10399000230A45429248C552898822619A0026131B
:1039A000A8843943894C229308A7230A45A4421AC4
:1039B00009270742BF198700280DC47E5912914478
:1039C000A437914C00290DC47E1932914CA4179153
:1039D00044042A0D788C792A2A369A459B0C002BB0
:1039E0000B788C7962B5434CAC062C0843771916DA
:1039F0000A002D0617A519072E06238719062F0D75
:103A0000A884D952B15459AA2C1503300DA7855951
:103A100033891ADF246A2300310DA88479D2214D1D
:103A200022D6DB2100320CA7855933899A5451C71D
:103A300003330DA7851957A1E258952422013410AC
:103A4000A78599C21949A22411498E521500350D36
:103A5000A7851907A96A59952422013610A7855907
:103A600024A1545A5291D1246A2300370DA78519F5
:103A700057A15428154AB5013811A7855933899A99
:103A8000446D2651A349D446003910A7855933897E
:103A90001A4D221955154524003A08738719769056
:103AA000013B09937719769085023C0896859932F7
:103AB0005D753D084795197784033E09968519522F
:103AC000DD74043F0EA7855933899A54A8550E9585
:103AD000014015A9845935159184924249A1A450F9
:103AE00052482439A404410EA78579D1E19A44545F
:103AF00092A8B109420EA785191619DB2122E37697
:103B00008800430DA78559241155CF221105004483
:103B10000CA785192515193F494A00450CA7851999
:103B200007A96A49AAF500460CA7851907A96A4999
:103B3000AA2B00470FA7855933891A55A94693A880
:103B40008D00480BA78519326E071A6F024909A626
:103B5000851926A17E324A0DA7857944A95E4412B3
:103B60009188044B11A785193292448936A449449F
:103B70002A329A004C09A7851952FDF5004D0DA770
:103B80008519B2CAA112A1F14D004E0DA7851932B7
:103B90005AC94231D5B8094F0BA7853915197F93FA
:103BA0005400500DA7851925151993A424D50A5141
:103BB00017B87D5943894826914964129944269142
:103BC0009024C23A4000520EA785191619B74344F3
:103BD00049454613530FA785391519555C964A690F
:103BE000920A005409A6851926A1FE04550BA78543
:103BF0001932FE26511B015610A7851932368992BB
:103C00004424910D5763005711A78519325E229401
:103C1000082572A84C6211005810A78519329A44E1
:103C20006D1A8ECE246A3401590DA8841942A2441B
:103C300024A38AF5065A0AA785195745BD4A0F5B82
:103C400009C57E1937FD5B015C13A8841972805881
:103C50000E9003C472801C209603045D09C47E1973
:103C600024FD93015E0A48B479529A4822145F07F2
:103C7000187C198700600734D6193205610C7785E6
:103C80003965A9E410A3490C620DA7851952558B1B
:103C90008CB7430400630B7785391519559BA40233
:103CA000640BA785B95A0E31DE2406650D77853978
:103CB0001519ED4095492A00660DA6855923898E70
:103CC000329A501B006712A76D39879044241189DE
:103CD00048E28A8C26A900680BA7851952558B8C5F
:103CE0006F02690BA68559423984A827036A0ED54D
:103CF0006E79EA8099DE2814C904006B0FA7851934
:103D0000524D12251A4D225291096C09A68519446B
:103D1000FDC9006D1078841917158A8422A14828DE
:103D200012A2006E0A77851992251A6F026F0C771E
:103D3000855933891A9B446D04700DA76D1925159B
:103D400019274949AA0A710DA76D5915118D4D22E0
:103D5000125535720B77851992D144554700730C73
:103D60007785391519B94C935400740C97855952BD
:103D7000994DAA8B6C02750977851932BE490C766C
:103D80000E778519329A4449221B4E6300771078CA
:103D900084194216094542911C26220900780D77A4
:103DA00085193289DA343A93A8097912A76D193244
:103DB0009A44492292C88643594428047A09768550
:103DC0001946998E067B0CB6855914A136A9502B3D
:103DD000017C07C27F191F067D0DB6851953A1D638
:103DE0009150D30C007E0A38BC39238A84340100F8
:103DF0000000006000040405060506061D2C00F8FE
:103E00001EF81E0003D2077B0B2A20060080E00C60
:103E1000210DC4A3200BFF814911284400220FA8C3
:103E2000B0390D439C8C1022248C0800233DCF9385
:103E3000E05C444811214584101942444811214551
:103E40008414115244081521F1E0374448112144EB
:103E500086C8839F50548410914244481121458460
:103E6000141152440891210400242ACF94DC6C647C
:103E7000696A2ED59A26654A944A872D61B2D51A69
:103E8000B56DB584C9A24397AA4499226D56A5245D
:103E90004B57002539CF93E02CA448181A8166C4EB
:103EA000902124908C3142880CD9B19492253B9674
:103EB000DAB19492253B969A4164CA10394264C49F
:103EC00008322346903941A804B121002632EF93ED
:103ED000E05C05532D5A53092922A48890255B964E
:103EE0006CD19226CFA123418C0431124490904092
:103EF00042020D471B9D2054A40DA3652508270CE5
:103F0000A4A0F90A238E08090200281BC8B3204D7B
:103F1000C20695A188D0208A06D1FF8A1055840850
:103F200015A24A0800291FC8B3E02CA10815A28ACF
:103F3000102942544D45883E1A441B4264CA9029B8
:103F4000344C10002A1DAD99F55C43878519138206
:103F5000C4144D92154BF240C42461C6041B3A0AA6
:103F6000002B0F8BA1E64CE468F3E0812372B401CF
:103F70002C0CC4A0DE1A2250888902002D088BA0C8
:103F8000EA0C1F382E0A84A0E01A225088002F2342
:103F9000CE9BE0AC24895249944AA25412255992EE
:103FA00028C992444996244A92289544A9244A292A
:103FB00000301ACF93E05C0553AD69428A0439FCA6
:103FC000FFDF912045A4CDAA84A5003111C8B3E03C
:103FD0004CD454F1E0811842F4FFFF003224CF9317
:103FE000E05C0553AD69428A0439BC23218E6851D7
:103FF000A2258B122D4A69514A8B122D59F4C10FFB
:104000003321CF93DF0C7F5AB228D1A29416256AB0
:10401000F22052B384C9D22F869130628491324407
:10402000003421CF93E05C64C7D2762C6DC7D27682
:104030002C25A488901A43880C2132841EFC8E2CD7
:104040003D023521CF93E00C7F4096BE28C5A6895E
:104050008B5224C8A1234B6FD1A123418A489B5581
:10406000094B013624CF93E05C0553AD69428A04C5
:10407000396CE9A2149B262ECC9428950E7F47829A
:10408000149136AB1296023722CF93E00C7F402C6E
:104090003312C488564A966851B29416254B69511A
:1040A000B2442B254BB45272003826CF93E05C0506
:1040B00053AD69428A0439FCAC4499226D16AD694E
:1040C000428A0439FC8E0429226D56252C050039BC
:1040D00025CF93E05C0553AD69428A0439FCB312E5
:1040E000654C3869C3AA04596AD161478214913674
:1040F000AB1296023A0F24A2E41A22508887500489
:104100000A11003B1064A2E21A2250888750040A68
:104110003151003C1749AAE58CC146112A43A62219
:1041200052E28695AA19B17102033D0D6E99250DD3
:104130003F580FF1830F163E1849AAE50C018791ED
:104140002A46AC5429625391A90DA961E202023FAB
:1041500021EF93E05C0553AD69428A0439ECC85203
:104160005AB24A83262B254BBF87583059C2E200EA
:10417000406C9B94D8AFE781347E10F4C1C073C605
:10418000CC962A5DA614922284D49028B38604A1EA
:1041900045688A14424388101A4284D010228486CB
:1041A0001021348408A12144080D214268081142DD
:1041B0004388101A4284D0102284A60C21440F4652
:1041C000107A3084D08330C4CA902A0FB03CC0F239
:1041D000E0CE037B40F481D807C11B014131CF936E
:1041E000E06C6489D6D4A4C11BA21B418C0431129B
:1041F000C4880C23326C0C213284C810223468111C
:104200001B264D4811213684188971D8114231CFAF
:1042100093E00CC916B16942AA043112C448901B3C
:10422000416E043112C4481032D1840D9B26A44A39
:104230001023410E3F2341AA4413368B9201431CA5
:10424000CF93E05C0553AD69428A0439DCD2FF7735
:10425000D8912045A4CDAA84A5004418CF93E00CA2
:10426000AAD83471418C0439FCFF3F23E1A2091B19
:1042700055004513CF93E00C7F4096FE960D6FC816
:10428000D2DF3EF8014612CF93E00C7F4096FE96B7
:104290000D6FC8D2FF2D00471DCF93E05C0553ADD5
:1042A00069428A0439DCD2477B87DF912055C249B5
:1042B0001B5625084811CF93E00CE4F0FFEEC10F28
:1042C000D0E1FF1D014908C4A3200BFF074A15CF09
:1042D00093E0BCF4FFFF161D7624481169B32A61F0
:1042E00029004B3CCF93E00CC49291205582501191
:1042F0004264C894A188482112A548104B86EEE07C
:104300004193260F1E44978C043112A588902243B6
:10431000884C1942640815215582180962054C0E13
:10432000CF93E00C64E9FFFFDF3EF8014D28CF9307
:10433000E00CE4D0A5D26A0D372D5C3CF8C18A129E
:10434000284AA02881640892214886A00983260C67
:104350003AFC1D014E25CF93E00CE4D025CB4C95C3
:10436000AA451BB161D30405111444909040420248
:10437000491B8E76A559EED0114F1ACF93E05C05FC
:1043800053AD69428A0439FCFFDF912045A4CDAAD0
:1043900084A500501ECF93E00CC916B16942C80431
:1043A0003112E4F03312A44A3461B3281959FADF08
:1043B00002511ACF93E05C0553AD69428A0439FC7F
:1043C000FFDF912045A40D235625085234CF93E0FA
:1043D0000CC916B16942C8043112E4F03312A44A80
:1043E0003461B36811194284065143880CA931A481
:1043F000889022428A083112C4481023418E00530B
:1044000024CF93E05C0553AD69428A0439DC12265F
:104410005BAD51DB564B982C3AEC489022D2665556
:10442000C25200540ECF93E00C7F4696FEFFFF155C
:10443000005514CF93E00CE4F0FFFFEF489022D238
:104440006655C252005635CF93E00CE4D091184720
:104450008218096243481121456614194264089183
:104460002134880CA931A4889022428AC83012E4F1
:104470004690C3DD497B4A962A00571ECD9BE00C2F
:10448000A4F03F0982240892202846A018816204E3
:104490008A07FF054FD4A8295839CF93E00CE44888
:1044A0001023418A082932A3C8102243111952440B
:1044B00048912046821CBA83F7101909622488119A
:1044C000214486101942949022428A08B121C4D016
:1044D000115930CF93E00CE4488C23418A082922FB
:1044E00084CA50448610115244889120860EE141BE
:1044F000939692254A9652B29492255A942C51B290
:10450000005A23CF93E00C7F5A942C51B244C91225
:10451000254B942C51B244C912254B942C51B244D2
:104520008B3EF8015B0FC9ABE00C1FA8A2FFFF5741
:104530000F1E185C20CE9BE00C448916A5B428B54C
:1045400044A9254A2D516A89122D4A69514A8B5234
:104550004B94005D0FC8B3E00C1F08A2FFFF470F8C
:104560001E185E0EABA0FF3CA5CE902042040D01AC
:104570005F087380DE0C3F60600DC7B0FD0C8408DF
:104580008D1A446800612AF192605D2695B16254EB
:104590000D3132C4C810234DD9A2369E1423428E49
:1045A000083922E488942AF320C483208F0E0962FC
:1045B0001CEF93E00C64E92F4AB169E2A21409727E
:1045C000F87F978A848B266C489402631BEF92E0F5
:1045D0005C0553AD69428A0439DCD2EFB023418ACD
:1045E000489B55094B01641BEF93E0BCF45725C869
:1045F0003069E182543AFCBF2341AA849336AC4A25
:1046000010651EEF92E05C0553AD69528844A974B1
:10461000B87BF003B4B413438A489B55094B016639
:1046200019EF93E07C25CFA55A448610194264E91E
:104630005D939E91A5FFEF006729EF93D85C6A9880
:10464000B47051A644A974B84B55A24C9136AB52E4
:10465000A1234B6DB2354D5A90C3DD03126D56A5A3
:10466000016815EF93E00C64E92F4AB169E2A214E6
:104670000972F8FFEF086914E69BE01A628890114E
:104680000F9808FDFF27268A90196A18EBA4D88C8A
:1046900002C911140F3BFAFFFF3B34685EA4395581
:1046A00006006B33EF93E00C64E9EF9091205582A4
:1046B000141142450891A1880C2122A4489422415A
:1046C0002C3355AA4C103241A80C994A4811215557
:1046D00082180972046C10E893200B84E8FFFF3FF6
:1046E0004271C44C016D3BFA92A00F248A956292EC
:1046F000E64192072A4A1D4A570C1D3974E4D091AD
:1047000043470E1D3974E4D09143470E1D3974E4BC
:10471000D09143470E1D3974E4D09143470E1D05D7
:104720006E13EF92E00C244AB169E2A2140972F808
:10473000FFEF086F19EF92E05C0553AD69428A0400
:1047400039FCBF23418A489B55094B01701DEF93EB
:10475000D80C244AB169E2A2140972F87F978A84BE
:104760008B266C4894224BBF05711BEF93D85C25B8
:10477000C83069E182543AFCBF2341AA849336AC25
:104780004A90A53F7211EC92200C241E7C40240D0F
:1047900042FAFF4300731FED92604CC510A95951B6
:1047A00026152E4B224B950A654954A8D29458B22F
:1047B000265921007415EA8B202BC4E8470F1E28C8
:1047C0002146FF9FA13964AA007513EF92E00CE423
:1047D000F0FFDF912055C2491B5625087633EF9232
:1047E000E00CE4D091184782180962434811214532
:1047F0006614194264080D2243880CA931A48890DC
:1048000022328C043112E446904377F04A43007719
:1048100050FB92E00FE408A2A3825C3122E38A11EC
:1048200021568C0829634448191B43EA10A151877B
:10483000283A440D226A480C1A45860411626348DE
:104840001021466408652488504682CC907124C8A3
:10485000201C4106E1218487109E3279CA14007819
:104860002CEF92E00CE4481023418A0C21325411C1
:104870002145821CBA9326CB122D6AF0203212C435
:10488000881022438812524488A1237935EF93D8A7
:104890002CC3889022428A08292284080DA28610FF
:1048A00019426408911936841809622488912046B7
:1048B00062E01D1AAD53B2E4C2104B95EE644100A4
:1048C0007A18EF92E00C7F5AB2D2929596AC946827
:1048D000C9A2444B167DF0037B1F6AACDC7CC34845
:1048E0001532538A18FD15A942A504162B468E18B9
:1048F000FD593153C5C80D7C09C4C41C0DFF1F08E8
:104900007D1E6AAC1C0D0289953246AC18FD590D0E
:104910004515AA8A18FDAA142143A58809047E0E0C
:10492000B090EA0C64CC38F986D408007F06008089
:10493000E00C000000000000DC490008ED13000856
:10494000000000000000000080000000D4490008C2
:10495000F5130008000000000000000080000000C7
:10496000E8490008A9130008FDFF0000000000004E
:1049700080000000181538150819FFFE6418FE0A9B
:1049800015381508150615021501FE0419FF18152E
:1049900038150C1501FE0419FF0000000100050583
:1049A0000106148C40420F0003041E281804000066
:1049B000C0002000010005050106148C40420F00D4
:1049C00003041E281008000080004000BF280008D3
:1049D0001B2400086D794C43440000006465666147
:1049E000756C745461736B006D794750535F7061DF
:1049F0007273657200000000184A00080000002071
:104A00008C00000008180008A44A00088C00002050
:104A1000741600001818000800A24A0400000000E4
:104A20000000000000000000000000000000000086
:104A30000000000000000000000000000000000076
:104A40000000000000000000000000000000000066
:104A50000000000000000000000000000000000056
:104A60000000000000000000000000000000000046
:104A70000000000000000000000000000000000036
:104A800000000000AAAAAAAA00000000000000007E
:104A90000000000000000000000000000000000016
:044AA0000000000012
:04000005080000ED02
:00000001FF
