:020000040800F2
:1000000000210020990100086F2B00083F250008FF
:100010006D2B0008F90E00083934000800000000BC
:1000200000000000000000000000000001010008C6
:10003000130F000800000000450100084D300008C3
:10004000B3010008B3010008B3010008B3010008C0
:10005000B3010008B3010008B3010008AD0F0008A8
:10006000B30F0008B90F0008BF0F0008B301000864
:10007000B3010008B3010008B3010008B301000890
:10008000B3010008B3010008B3010008B301000880
:10009000B3010008B3010008B3010008B301000870
:1000A000B30100081D310008B3010008B3010008C6
:1000B000B3010008B3010008B3010008B301000850
:1000C000B3010008B3010008B3010008B301000840
:1000D000B30100082D340008B3010008B301000883
:1000E000B3010008B3010008B3010008DFF80CD029
:1000F00000F040FD00480047213D0008002100209D
:10010000224B19680868B0E8F00F80F30988BFF344
:100110006F8F4FF0000080F311884EF00D0E704786
:100120000000000006480068006880F3088862B696
:1001300061B6BFF34F8FBFF36F8F00DF00BF00BF0B
:1001400008ED00E0EFF30980BFF36F8F0F4B1A68E3
:1001500020E9F00F106008B54FF0500080F31188CF
:10016000BFF34F8FBFF36F8F05F062FA4FF00000BF
:1001700080F31188BDE8084019680868B0E8F00FFE
:1001800080F30988BFF36F8F704700BF64000020C1
:10019000EFF3058070470000064880470648004797
:1001A000FEE7FEE7FEE7FEE7FEE7FEE7FEE7FEE727
:1001B000FEE7FEE7D5300008ED000008202A04DB4A
:1001C000203A21FA02F00021704721FA02F3D040D0
:1001D000C2F12002914008431946704740EA0103EA
:1001E0009B0703D009E008C9121F08C0042AFAD2ED
:1001F00003E011F8013B00F8013B521EF9D27047B1
:10020000D2B201E000F8012B491EFBD27047002258
:10021000F6E710B513460A4604461946FFF7F0FF05
:10022000204610BD30B505460020034600E05B1CAB
:10023000934205D2EC5CC85C201A01D1002CF6D1A7
:1002400030BD00000FB400B58DB010A909900B901F
:1002500000914FF0FF300A9000200C900548069066
:10026000054807906A4609A80F9900F091FB0DB068
:100270005DF814FBAD090008CB0900082DE9FF5F0C
:100280001D464FF0FF3BD5E9014691465F464FF0D2
:100290000008A9697F1C01988847296A8246884717
:1002A0000028F6D1BAF1FF3F0CD024F4C064002E30
:1002B00019DD600614D5BAF12B0F09D0BAF12D0F54
:1002C0000ED103E0584604B0BDE8F09F44F48064CA
:1002D000A9697F1C01988847761E8246002E02DDA0
:1002E000BAF1300F03D0B9F1000F26D032E0A9697E
:1002F000761E44F400747F1C019888478246002EC5
:1003000005DDBAF1780F06D0BAF1580F03D0B9F174
:10031000000F10D01EE0B9F1000F02D0B9F1100F9C
:1003200018D1A969761E24F400747F1C01988847AF
:100330008246102002E0082000E00A20814609E001
:1003400008FB0908A969761E44F400747F1C019813
:1003500088478246002E05DD4946504600F004FBE2
:100360000028EDDAE96901988847A00502D46FF00A
:100370000100A8E7E00725D1600613D5600502D586
:10038000C8F1000000E0404629680A1D2A6009689B
:10039000220501D5087015E0220701D5088011E07B
:1003A00008600FE02868011D29600068210502D55A
:1003B00080F8008006E0210702D5A0F8008001E067
:1003C000C0F8008038467EE72DE9FF5FD2E901A73B
:1003D0004FF00008916999461446DDF838B046465A
:1003E00001988847054659EA0B0005D009E0A16944
:1003F000761C019888470546216A284688470028C8
:10040000F5D1681C03D05FEACA7005D015E04FF043
:10041000FF3004B0BDE8F09F2068011D2160D0F8D6
:1004200000800AE05FEACA7001D108F8015BA169A7
:10043000761C7F1E019888470546002F1ADD681C30
:1004400018D0B9F1000F0DD0E81705EBD0604211BC
:1004500020F01F0059F822102A1A01209040014272
:10046000E0D107E0BBF1000FDCD1216A28468847C4
:100470000028D7D0E16901988847BBF1000F07D168
:10048000002E05DD5FEACA7002D1002188F8001055
:10049000A068B84203DDBBF1000F03D017B16FF0C5
:1004A0000100B6E73046B4E7F0B480EA0102D40FA9
:1004B0004200B2EB410F02D20246084611464A0002
:1004C00042D0C30DDDB2C1F3C752AD1A202D35DACB
:1004D000C1F3160141F4000204B15242C5F12006F5
:1004E00002FA06F12A411044B3EBD05F23D0C4B125
:1004F000012DA0EBC35009DCF0BC4FF0004202EA32
:10050000C352DBB200F5000000F079BA400000F100
:10051000807000EBC350A0F1807040EAD1704900B8
:1005200009E0490841EAC071A0EBC35000F50000A2
:10053000400800EBC350F0BC00F058BA6142012201
:1005400002EB4101001BF6E7F0BC704781F000416F
:10055000AAE780F00040A7E72DE9FE4F804681EA38
:100560000300C00F0C46009021F0004123F000452D
:10057000B8EB0200A94105D24046214690461C46F0
:100580000B46024623F00040104347D0270DC7F327
:100590000A00C3F30A510290401A019040286BDA16
:1005A000C3F3130040F4801B0098924620B100234F
:1005B000D2EB030A63EB0B0B01985946C0F14002E2
:1005C000504600F0B0F906460D4650465946019A8D
:1005D00000F0B8F910EB08006141002487EA1152DD
:1005E00084EAE7731A4340D0009A62B3019A012A61
:1005F0004FEA075215DC001B61EB02014FF000428D
:1006000002EA0752CDE90042001C41F58011324652
:100610002B4600F031FA03B0BDE8F08F404621468A
:10062000F9E7001B61EB0201001C41F58013001883
:100630005B412018A2F5001747EB030140EAD57093
:10064000B6196D4111E06D084FEA360645EAC075EE
:100650004FEA0752001B61EB0201001C41F58011BB
:1006600049084FEA30000019514132462B4603B089
:10067000BDE8F04F00F0F1B90098012240000023DE
:10068000D0EB020263EBE073009821464FEAE0747E
:10069000B8EB000061EB0401E9E783F000435BE79E
:1006A00081F0004158E72DE9FE4F81EA030404F090
:1006B000004421F0004100944FF0000B23F0004370
:1006C00050EA01045ED052EA03045BD0C3F30A543B
:1006D000C1F30A552C44A4F2F3340194A0FB025454
:1006E000C1F3130141F48011C3F3130343F48013E6
:1006F00001FB024400FB034E840A970A44EA81543A
:1007000047EA8357A4FB076802958D0A05FB078516
:100710004FEA932C04FB0C542705029D4FEA065820
:1007200047EA1637B5EB08056EEB070C870E920EFD
:1007300047EA811742EA8312A7FB0201B6EB0B01DD
:1007400064EB00042B0D43EA0C335E1844EB1C50A1
:10075000DA465146E7FB0201C5F313044FEA0B33B7
:1007600043EA14534FEA0432019C43EA0603A4F11E
:100770000C040294009CCDE900B400F07DF903B0B4
:10078000BDE8F08F00200146F9E72DE9F04D81EA40
:10079000030404F0004B21F0004514464FF0000A1A
:1007A00023F0004150EA050220D054EA01021DD096
:1007B000C5F30A570246C5F31303C1F31300C1F38F
:1007C0000A5640F4801543F48013A7EB0608101B6B
:1007D000D64608F2FD3873EB050002D308F1010894
:1007E00001E092185B41B8F1000F03DA00200146E6
:1007F000BDE8F08D00204FF48011064684460EE0DF
:10080000171B73EB050705D3121B63EB05030643A8
:100810004CEA010C49084FEA300092185B4150EA5B
:100820000107EDD152EA030012D082EA040083EA04
:100830000501084305D0101BAB4106D2012200235D
:1008400006E000224FF0004302E06FF00102531077
:100850001AEB06004CEB085110EB0A0041EB0B01C0
:10086000BDE8F04D00F0F9B896230022114600F0E3
:10087000C6B800F0004230F000400AD0C10D01F5CA
:100880006071C0F3160042EA0151C20840071143EB
:10089000704700200146704730B50B4601460020E6
:1008A0002022012409E021FA02F59D4205D303FA32
:1008B00002F5491B04FA02F52844151EA2F10102B3
:1008C000F1DC30BD2DE9F05F0546002092469B46E5
:1008D00088460646814640241BE028464146474656
:1008E0002246FFF76BFC53465A46C01A914110D37B
:1008F00011461846224600F016F82D1A67EB01083B
:100900004F4622460120002100F00DF817EB0009A8
:100910004E41201EA4F10104DFDC484631462A4640
:100920004346BDE8F09F202A04DB203A00FA02F19A
:10093000002070479140C2F1200320FA03F31943CD
:1009400090407047202A06DBCB17203A41FA02F08C
:1009500043EAE07306E041FA02F3D040C2F120021C
:1009600091400843194670473A2800D2303820F0A9
:100970002002412A01D3A2F13700884201D34FF06F
:10098000FF307047026811441378016018467047C1
:10099000D16004495161044911620021116111467D
:1009A00000F000B985090008990B0008426842B1BF
:1009B000016811F8013B23B1521EC0E9001218462C
:1009C00070470121C160881E704742685AB1C368F0
:1009D000016843B983688B4205D0491E521CC0E9A7
:1009E0000012002070474FF0FF3070470029A8BF69
:1009F0007047401C490008BF20F00100704710B448
:100A0000B0FA80FC00FA0CF050EA010404BF10BCFC
:100A1000704749B1CCF1200421FA04F411FA0CF129
:100A200018BF012121430843A3EB0C01CB1D4FEA62
:100A300000614FEA102042BF002010BC704700EB5D
:100A4000C35010440029A4BF10BC7047401C49008B
:100A500008BF20F0010010BC704710B5141E73F1E0
:100A6000000408DA401C41F1000192185B411A436E
:100A700001D120F0010010BD2DE9F04D92469B46BA
:100A800011B1B1FA81F202E0B0FA80F22032904660
:100A9000FFF749FF04460F4640EA0A0041EA0B010E
:100AA00053465A46084313D0114653EA010019D061
:100AB000C8F140025046FFF781FB05460E465046FE
:100AC00059464246FFF72FFF084305D0012004E0B6
:100AD00020463946BDE8F08D0020054346EAE07621
:100AE0002C4337430A986305E40AA0EB0800002270
:100AF000FD0A44EA47540A3002D500200146E9E7DE
:100B0000010510196941DDE9084500196941BDE891
:100B1000F04DA2E7C1F30A52C1F3130140F2FF33D3
:100B200041F480119A4202DA00200146704740F2F7
:100B300033439A42A2F2334202DC5242FFF73EBBF9
:100B4000FFF7F1BE30B5041E71F1000404DB4FF075
:100B50000044404264EB0101141E73F1000405DB04
:100B60001C464FF00043524263EB0403994208BF16
:100B7000904230BD064C074D06E0E06840F00103AE
:100B800094E8070098471034AC42F6D3FFF7B2FA66
:100B9000C0780008E0780008C0B24FF4F05100F0CF
:100BA00097B900002DE9F34F8BB04FF0000801F129
:100BB0000C000C464FF0010B46460DF1080A01905F
:100BC0006269012101989047051E2DD0252D2CD05A
:100BD000216A8847C0B16269012101989047216A62
:100BE00088470028F7D1411E62690198904700E0CC
:100BF000761CA1690B988847216A88470028F7D19D
:100C0000E1690B988847DBE7A1690B98884707469D
:100C1000A84201D1761CD3E7E1690B9888477F1C75
:100C200002D1B8F1000F6FD046E1002762693D465E
:100C30003946019890472A2804D162690121019818
:100C400090470125DFF8849262690121019890475D
:100C5000A0F130010A290AD24F45E5DC07EB8701F4
:100C600000EB4107303FDFD445F01005ECE7E90623
:100C700001D46FF000476C280AD04C2814D06828A3
:100C800015D06A280DD074281CD07A281AD01DE0FF
:100C900062690121019890476C2802D045F0040553
:100CA00014E045F002050DE045F020050AE0626918
:100CB000012101989047682802D045F0080505E019
:100CC00045F400656269012101989047C4E9015724
:100CD00065283DD019DC58287AD00CDC452837D05F
:100CE00004DC252826D0412831D131E046282FD0F8
:100CF00047282CD12CE05B2877D0612828D06328A6
:100D00007CD0642823D15AE0D0E06F2848D008DC9A
:100D100066281DD067281BD0692821D06E2816D1DF
:100D200027E0702845D0732868D0752847D07828E8
:100D30000DD14DE0A1690B988847054625283FF461
:100D400069AFE1690B9888476D1C3FF46AAFB3E067
:100D500023466A466FF001000B99AFF300809EE0D6
:100D600045F040006060A80723464FF0000236D4EB
:100D70003EE0E8077FF447AF2068011D216000686E
:100D8000290501D506701BE7290701D5068017E75D
:100D9000A90703D5F117C0E9006111E706600FE765
:100DA00045F040006060A80723464FF0080216D4C3
:100DB0001EE040F60E0125EA0100606016E045F0F5
:100DC00040006060A80723464FF00A0207D40FE0F6
:100DD00045F040006060A80708D5234610226FF058
:100DE00001000B99AFF3008059E007E02346102281
:100DF0006FF001000B99FFF741FA50E04FF0000946
:100E00004F464B46632802D05B2806D040E0E806F8
:100E100001D40120A06001273AE062690121019814
:100E200090475E2805D14FF0010962694946019853
:100E30009047216939B900210A46534643F82120D9
:100E4000491C0829FADBB0B3216969B9C11700EB65
:100E5000D16253110AEB830122F01F02821A012092
:100E60000B68904003430B60626901210198904731
:100E70005D28E8D1B9F1000F09D00020514651F8A2
:100E80002020D24341F82020401C0828F7DB02AB89
:100E9000224600976FF001000B99FFF795FA0028A2
:100EA0000CDA401C08D1BBF1000F05D04FF0FF3029
:100EB0000DB0BDE8F08FFFE74046F9E7E90701D143
:100EC00008F1010806444FF0000B79E6CCCCCC0CBD
:100ED0007F2801D9002208E0064A02EB5002C00731
:100EE000127800D1120902F00F0201209040084050
:100EF0007047000044780008FEE7002800DA40420E
:100F00000014404341F2C6714843000EC0F1F600A0
:100F100070477047081A0649884201DD054905E017
:100F200003494942884202DA02494942084470476B
:100F300000F36F06001A20F310B50C460346416813
:100F40006068FFF7E7FF024618682168084400EB75
:100F5000D0704010FFF7D1FF4243120A1968206891
:100F6000FFF7D8FF002A00DA5242002800DA404298
:100F7000824201D9114600E0014600D2104691B1EB
:100F80004FF06E0200FB02F2B2FBF1F202FB00F244
:100F900002F1800201EB1220C0EB401101EB801046
:100FA0004FEA502010BD4FF0000010BD022000F0AD
:100FB0007DB8042000F07AB8082000F077B810203F
:100FC00000F074B8FEE7000010B590F8211000247E
:100FD000022903D00421816301243DE001680A68ED
:100FE00022F00E020A6001680A6822F001020A601B
:100FF0001A4A0168914201D1012121E0174A1432B5
:10100000914201D110211BE0144A2832914201D1B2
:10101000891515E0114A3C32914201D189140FE043
:101020000E4A5032914202D14FF4803108E00B4A0F
:101030006432914202D14FF4801101E04FF080718F
:10104000064A083A5160012180F82110002180F8F9
:101050002010416B01B18847204610BD08000240B6
:1010600070B5044600F01AF90546601C02D0044829
:101070000078044400F012F9401BA042FAD370BD7E
:1010800004000020074810B5406904F0C3FE0128A1
:1010900006D1054900070860BFF34F8FBFF36F8F7C
:1010A00010BD00002000002004ED00E0044910B550
:1010B0000A68024202D00860FFF7E4FF10BD00009A
:1010C000140401402DE9F84FDFF890A100220AF145
:1010D000040B144601274FF00F090BF1040E00BF5B
:1010E0000B6807FA04F52B40AB4274D1DFF870C1EE
:1010F0004E68A6EB0C0866452BD00DDC032E34D0D1
:1011000005DC36B3012E19D0022E2FD11BE0112E93
:1011100016D0122E2AD119E0B8F5881F19D006DC96
:10112000B8F5803F15D0B8F5801F1FD111E0B8F594
:10113000001F0ED0B8F5041F18D10AE0CA6815E0E8
:10114000CA68121D12E0CA6808320FE0CA680C3281
:101150000CE08A682AB1012A4FF0080203D04561E9
:1011600004E0042202E0056100E00022FF2B01D828
:10117000064601E000F104064FEA840501D9A5F115
:101180002005D6F800C009FA05F82CEA080C02FA86
:1011900005F54CEA050CC6F800C04D68ED0057D5C2
:1011A000304DAE6946F00106AE61AD6924F003062C
:1011B00005F0010500952C4D06EB050CDCF80850F8
:1011C000A6074FEA167809FA08F6B543274EB0424B
:1011D00002D1002610E03BE0254EB04201D10126AD
:1011E0000AE0244EB04201D1022605E0224EB04270
:1011F00001D1032600E0042606FA08F62E43CCF8B7
:1012000008604D68DAF80060ED03554601D51E43CD
:1012100000E09E432E604D68DBF80060AD035D4644
:1012200001D51E4300E09E432E604D68DEF800604D
:10123000ED02754601D51E4300E09E432E604D68C9
:10124000AD020E4D2E6801D51E4300E09E432E6078
:10125000641C102CFFF444AFBDE8F88F000401407B
:101260000000111000100240000001400008014081
:10127000000C014000100140001401400C0401402A
:101280008068084000D001207047C2684A40C260B0
:1012900070470AB1016170470904FBE701488068A3
:1012A000704700000400002070B504001BD094F8C3
:1012B0003D00002520B984F83C50204600F042FA59
:1012C000242084F83D002068016821F001010160BC
:1012D00000F0F2FB404A6168914201D83F4900E0CA
:1012E0003F49884201D2012070BD3E492368B0FBCE
:1012F000F1F159606368934206D94FF496735943EC
:101300004FF47A73B1FBF3F12368491C19626168E9
:10131000914210D84900401EB0FBF1F2521CC2F3BA
:101320000B02042A01D2042022E0B0FBF1F0401CA1
:10133000C0F30B001CE0A368CBB301EBC10202EBCE
:101340000116421EB2FBF6F2521C42F48042120514
:1013500036D06BB301EBC10202EB0111401EB0FBB2
:10136000F1F0401CC0F30B0040F4804040F400401A
:101370002168C861D4E90701084321680860D4E9FD
:101380000310084321688860D4E9050108432168F7
:10139000C8602068016841F00101016025642020D7
:1013A00084F83D00256384F83E50002070BD00E0C5
:1013B00008E001EB4106421EB2FBF6F2521CC6E702
:1013C0000120D5E701EB4101401EB0FBF1F0401CCC
:1013D000C0F30B00CAE70000A086010080841E0055
:1013E00000093D0040420F002DE9FF4F83B09A46AF
:1013F000DDE9118793460446DDF84090FFF74EFF84
:10140000054694F83D00202872D1192301227B491A
:101410002046009501F097F90028F5D194F83C009A
:10142000012865D0012084F83C0020680168C907C4
:1014300003D1016841F0010101602068016821F4D5
:1014400000610160222084F83D00402084F83E00C5
:1014500000262664C4F82490A4F82A806848E06234
:10146000608D2085CDE9007553465A462046049983
:1014700001F07AF828B1206C84F83C60042851D03F
:1014800075E0208DDFF87C8168B1012814D0022836
:10149000206801681ED041F48061016020684169C4
:1014A000806900909BE02068416981690091016832
:1014B00041F40071016092E02068016821F48061CC
:1014C000016072B62068416981690091016841F448
:1014D00000710AE041F40061016072B62068416960
:1014E00081690091016821F48061016062B676E053
:1014F00081E0032850D801280BD002283B464FF04A
:10150000000241462046009512D001F01CF970BB44
:1015100013E02A463946204601F08AF930B1206CA2
:10152000202824D0012007B0BDE8F08F20684BE0D0
:1015300001F009F9D8B972B61BE02068016821F4FE
:101540008061016072B620680169606A421C626253
:101550000170208D401E2085608D401E60853B46B9
:10156000002241462046009501F0EDF808B1032025
:10157000D9E72068016841F40071016020680169C1
:10158000606A421C62620170208D401E2085608D61
:10159000401E608562B6C9E72A463946204601F0FA
:1015A00047F90028BBD120680169606A421C626269
:1015B0000170208D401E2085608D401E6085206852
:1015C0004169C94349070AD40169606A421C6262E1
:1015D0000170208D401E2085608D401E6085208D0D
:1015E000002886D1202084F83D0084F83E6084F8ED
:1015F0003C60002097E7022095E700000200100001
:101600000000FFFF040001002DE9FF4F83B09A4660
:10161000DDE9118793460446DDF84090FFF73EFE72
:10162000064694F83D0020287DD119230122434924
:101630002046009601F087F800287CD194F83C0001
:10164000012878D0012084F83C0020680168C9078F
:1016500003D1016841F0010101602068016821F4B3
:1016600000610160212084F83D00402084F83E00A4
:1016700000252564C4F82490A4F82A803048E0624C
:10168000608D2085CDE9007653465A462046049960
:1016900000F0E2FF80B3206C84F83C50042848D06E
:1016A00008E032463946204601F0F3F830B1206CAC
:1016B000042839D0032007B0BDE8F08F606A411CD0
:1016C0006162216800780861208D401E80B220850B
:1016D000618D491E618521684A69D24352070BD446
:1016E00068B1606A421C626200780861208D401E09
:1016F0002085608D401E6085208D0028D1D1324626
:101700003946204600F0F8FF0028D0D154F83D0BB0
:10171000016841F400710160202004F81E09E5779A
:1017200065770020C7E706E02068016841F4007192
:1017300001600120BFE70220BDE7000002001000A9
:101740000000FFFF10B586B00021009101910291C9
:10175000039100680F4988421AD10F4CA06940F0EC
:101760000800A061A069694600F008000490C0204C
:10177000009012200190032003900848FFF7A2FC7C
:10178000E06940F40010E061E06900F400100490AA
:1017900006B010BD0054004000100240000C014093
:1017A000024881680278114481607047040000207B
:1017B000074810B5016841F010010160032000F0F6
:1017C00093F8002000F006F800F03EF8002010BD6D
:1017D0000020024000B5014687B00022192000F029
:1017E00063F8192000F054F81348816941F400614E
:1017F0008161806905A900F400600690684600F0E8
:101800003BF900F069F90D490D4AB0FBF1F10D48C3
:10181000491E0260416040F2E7320021C0E9032125
:10182000816000F04BFC10B1012007B000BD0548FD
:1018300000F060FCF9E700000010024040420F0099
:10184000002C0140340800200F4808B5816941F0A0
:1018500001018161816901F001010091C16941F0DB
:101860008051C161C069002200F0805000900F21BA
:10187000901E00F019F80548416821F0E06141F040
:101880000071416008BD00000010024000000140EE
:1018900000F01F02012191404009800000F1E0208A
:1018A000C0F8001170470000F0B40E4B1B680C46E6
:1018B000C3F30223C3F10705042D00D90425191D24
:1018C000072901D2002300E0DB1E012606FA05F1FC
:1018D000491E214099409E40761E16403143F0BC7F
:1018E00001F046B90CED00E0064900F00702086877
:1018F0004FF6FF03184040EA0220034A10430860F5
:10190000704700000CED00E00000FA052DE9F047FB
:10191000DFF8548105460E46D8F8000000F00700B5
:10192000B0420CD2D8F8001021F007013143C8F8BA
:101930000010D8F8000000F00700B0426FD128680E
:101940004A4C810712D5400703D5606840F4E06037
:1019500060602878000703D5606840F460506060DC
:101960006068A96820F0F000084360602878C0072C
:1019700044D06868012816D02168022816D089074B
:1019800000294CDA616821F0030101436160FFF72F
:1019900085FC6968074641F2883001290ED002298A
:1019A000814618D026E021688903E9E78901E7E745
:1019B000FFF774FCC11B494501D918E081466068F6
:1019C000C0F381000128F3D118E000BFFFF766FCE7
:1019D000C11B49450BD86068C0F381000228F5D1CE
:1019E0000CE000BFFFF75AFCC11B494502D9032098
:1019F000BDE8F087606810F00C0FF3D1D8F8001044
:101A0000404601F00701B1420BD9016821F00701FE
:101A100031430160006800F00700B04201D00120AE
:101A2000E6E72878400705D56068E96820F4E060BB
:101A3000084360602878000706D56068296920F4AB
:101A4000605040EAC100606000F056F86168084AE2
:101A5000C1F30311515CC840064908600020FFF73C
:101A6000B9FE0020C4E70000002002400010024040
:101A70009C5E0008000000200F2202600C4A5368A0
:101A800003F003034360536803F0F003836053687B
:101A900003F4E063C36052684FF4E06303EAD202E8
:101AA00002610448006800F0070008607047000009
:101AB00000100240002002400448054900684968BF
:101AC000044AC1F30221515CC84070470000002065
:101AD00000100240AC5E00080448054900684968EF
:101AE000044AC1F3C221515CC84070470000002085
:101AF00000100240AC5E000812A185B00FC98DE84D
:101B00000F0014A0144A006804905168134801F0B3
:101B10000C03042B10D0082B0ED1C1F38343C9034F
:101B20001DF803000AD5516804AAC1F34041515C75
:101B30000A4A5043B0FBF1F005B0704708494843EA
:101B4000FAE7000002030405060708090A0B0C0D5A
:101B50000E0F1010010200000010024000127A0067
:101B600000093D002DE9F84F04460078B94DC00743
:101B700048D06868C0F38100012807D06868C0F3C6
:101B80008100022809D16868C00306D5286880034F
:101B900038D5606800286FD034E06068B0F5803FC9
:101BA0000BD010B1B0F5A02F11D0286820F48030F0
:101BB0002860286820F4802002E0286840F4803003
:101BC0002860606888B1FFF769FB064609E028686D
:101BD00040F480202860F0E7FFF760FB801B64285A
:101BE00075D828688003F7D50CE0FFF757FB064649
:101BF00005E000BFFFF752FB801B6428F0D828687F
:101C00008003F7D42078944E80074FF001094FF0FD
:101C100000083BD5686810F00C0F07D06868C0F367
:101C20008100022809D16868C00306D428688007AB
:101C300014D5206901281FD110E02069B0B1C6F881
:101C40000090FFF72BFB074605E000BFFFF726FBE0
:101C5000C01B0228C4D828688007F7D528686169A6
:101C600020F0F80040EAC10028600FE0C6F80080CC
:101C7000FFF714FB074606E0E9E000BFFFF70EFBA5
:101C8000C01B022823D828688007F7D420780007D3
:101C90002CD57248A169D9B1C0F80090FFF7FEFABF
:101CA000074604E0FFF7FAFAC01B02280FD8686A5B
:101CB0008007F7D56A484FF4FA510068B0FBF1F09D
:101CC000009000BF0098411E0091FAD20EE080E023
:101CD000C0F80080FFF7E2FA074604E0FFF7DEFAFB
:101CE000C01B022875D8686A8007F7D4207840079F
:101CF00060D5E8690027C00008D4E86940F080504A
:101D0000E861E869012700F08050009055480168BB
:101D1000C90513D40168834641F480710160FFF75F
:101D2000BDFA824606E000BFFFF7B8FAA0EB0A0052
:101D300064284ED8DBF80000C005F5D5E06801281E
:101D40000AD008B1052813D0286A20F001002862C3
:101D5000286A20F0040002E0286A40F001002862AE
:101D6000E06841F2883B98B1FFF798FA82460BE0B1
:101D7000286A40F004002862EEE700BFFFF78EFA01
:101D8000A0EB0A0159455AD8286A8007F6D50CE01D
:101D9000FFF784FA824605E0FFF780FAA0EB0A011C
:101DA00059454CD8286A8007F6D41FB1E86920F05D
:101DB0008050E861E06988B36968C1F38101022954
:101DC00045D00228C6F8608004D0FFF767FA0446C1
:101DD00038E034E0FFF762FA074604E0FFF75EFA06
:101DE000C01B02282BD828688001F7D4206AB0F5E0
:101DF000803F05D16868A16820F40030084368601E
:101E0000D4E908010843696821F474110843686043
:101E1000C6F86090FFF742FA044606E015E000BFFE
:101E2000FFF73CFA001B022809D828688001F7D583
:101E30000BE000BFFFF732FA001B022802D9032093
:101E4000BDE8F88F28688001F4D40020F8E701206D
:101E5000F6E70000001002400000424280044242C7
:101E6000000000200070004090F85100704770B5ED
:101E7000040005D00025A56294F8510010B104E0DB
:101E8000012070BD204600F033F8022084F8510094
:101E90002068016821F040010160D4E90101084394
:101EA000D4E903121143084361690843218B01F40B
:101EB00000710843E1690843216A0843A16A0843A5
:101EC00021680860A069042101EA1040616A0843A2
:101ED000216848602168E06A08612068C16921F4CE
:101EE0000061C1616565012084F85100002070BD6A
:101EF00000B585B000210091019102910391006825
:101F0000104988421BD11048C16941F48041C16128
:101F1000C16901F480410491816941F00801816146
:101F20008069694600F0080004904FF4204000905A
:101F300002200190032003900448FFF7C3F805B086
:101F400000BD00000038004000100240000C0140BD
:101F50002DE9F84F044690F85000002699461746A0
:101F60000D4601280DD04FF0010B84F850B0FFF75B
:101F700095F9804694F85100B246012804D0022613
:101F800094E00220BDE8F88F002D7BD0002F79D09F
:101F9000032084F85100C4F854A02563A786E7867F
:101FA000C4F838A0A4F83CA0A4F83EA0C4F844A00B
:101FB000C4F840A0A068B0F5004F04D120680168C3
:101FC00041F48041016020680168490603D401683A
:101FD00041F040010160E068B0F5006F606804D036
:101FE00030B3E08E012823D03EE010B1E08E01280E
:101FF0001AD135F8021B206805E02068816889073E
:1020000006D535F8021BC160E08E401EE0860BE06D
:10201000B9F1000F34D0B9F1FF3F05D0FFF73EF919
:10202000A0EB080149452BD2E08E0028E5D11EE047
:10203000216815F8010B087306E02068816889079C
:1020400006D515F8011B0173E08E401EE0860BE0FB
:10205000B9F1000F14D0B9F1FF3F05D0FFF71EF919
:10206000A0EB080149450BD2E08E0028E5D14B4694
:10207000012202212046CDF8008000F06FFE10B151
:10208000032613E011E042464946204600F056FE82
:1020900018B101262020606508E0A06818B9206802
:1020A000C16880680090606D00B1012684F851B06D
:1020B00084F850A0304665E77047704710B50400BB
:1020C00003D094F83D0010B107E0012010BD0020BE
:1020D00084F83C00204600F00CF8022084F83D0013
:1020E000211D206801F020F8012084F83D00002027
:1020F00010BD70470168CA6842F00102CA600068FA
:10210000016841F00101016000207047704770B51F
:102110000446006801694FF00005C943890715D4DA
:10212000C168C943890711D4E91E016101202077E4
:10213000206880698007204602D0FFF7E7FF04E0AF
:1021400000F098F8204600F096F82577206801699D
:10215000C943490717D4C168C943490713D46FF06D
:1021600004010161022020772068806910F4407F1B
:10217000204602D0FFF7CAFF04E000F07BF82046BB
:1021800000F079F8257720680169C943090716D45A
:10219000C168C943090712D46FF008010161042026
:1021A00020772068C0698007204602D0FFF7AEFF85
:1021B00004E000F05FF8204600F05DF82577206825
:1021C0000169C943C90617D4C168C943C90613D4F4
:1021D0006FF010010161082020772068C06910F4B9
:1021E000407F204602D0FFF791FF04E000F042F864
:1021F000204600F040F8257720680169C943C907E7
:1022000008D1C168C943C90704D1891E01612046AC
:1022100000F032F820680169C943090609D4C16891
:10222000C943090605D46FF0800101612046FFF71C
:1022300043FF20680169C943490609D4C168C943FD
:10224000490605D46FF040010161204600F01EF8F8
:1022500020680169C94389060BD4C168C94389064E
:1022600007D46FF0200101612046BDE87040FFF700
:1022700024BF70BD7047704700680349884201D190
:10228000FFF78EBA70470000002C0140704770477E
:1022900070B5026804461068D168536910F00F0FDA
:1022A00051D003F0010501F4907635435DD0C207AB
:1022B00005D0CA0503D5E26B42F00102E263420792
:1022C00005D5DA0703D0E26B42F00202E26382072F
:1022D00005D5DA0703D0E26B42F00402E26302079D
:1022E00005D5DA0703D0E26B42F00802E263E26B45
:1022F000002A34D0800604D5880602D5204600F096
:102300005FFF20684069E16BC0F3801001F00801B5
:102310000143204624D000F045FF2068416949066A
:102320001AD5416921F040014161606BA0B11B49A0
:102330004163606BFEF748FE002810D0606B416B74
:10234000BDE87040084783060FD58B060DD52046A3
:10235000BDE8704000F034BF2046FFF798FF70BD25
:10236000FFF795FF0020E06370BD030606D50B065E
:1023700004D52046BDE8704001F026B84006F3D5EC
:102380004806F1D5D168204621F04001D1602021D6
:1023900084F8391000F0D2F870BD000095310008C3
:1023A00070B5040004D094F83900002510B106E09F
:1023B000012070BD84F83850204600F023F8242016
:1023C00084F839002068C16821F40051C1602046BA
:1023D00000F042FF2068016921F49041016120680A
:1023E000416921F02A0141612068C16841F400512E
:1023F000C160E563202084F8390084F83A000020A9
:1024000070BD000030B585B00024009401940294A2
:1024100003940068184988422CD11848816941F416
:1024200080418161816901F480410491816941F0B9
:10243000040181618069124D00F0040004904FF4A2
:102440000070009002200190032003906946284606
:10245000FEF738FE2815CDE90004694628460294A7
:10246000FEF730FE002205212520FFF71DFA25206A
:10247000FFF70EFA05B030BD0038014000100240F1
:102480000008014090F83A30202B22D1F9B1F2B186
:1024900090F83830012B1CD081628285C2850021E2
:1024A000C163222280F83A2080F838100168CA6897
:1024B00042F48072CA6001684A6942F001024A61CE
:1024C0000068C16841F02001C16000207047012010
:1024D000704702207047000010B50068114988421B
:1024E0001ED141141048FEF7D0FE10490A780A2A7E
:1024F0000AD00F4B48781A54401C4870BDE8104071
:1025000001220C48FFF7BEBF086903F083FC0128D5
:1025100006D1094900070860BFF34F8FBFF36F8FE3
:1025200010BD0000003801400010014020000020D4
:1025300028060020F407002004ED00E07047FEE7C5
:1025400001684A69D24352050CD46FF480624A6133
:1025500004210164002140F8301F202242730173DE
:1025600001207047002070472DE9F84F04460068AD
:1025700089460B9D01689846174641F480610160C9
:102580002068016841F48071016000954FF0011AE4
:102590000022514620460A9B00F0D5F8F0BB216886
:1025A00009F0FE0008610AF1010B2B46594620464E
:1025B0000A9A00F0F9F818B1206C042812D03AE019
:1025C00020684169806900902A4620460A9900F0F7
:1025D00060F950B1206C04282DD12068016841F4C5
:1025E000007101600120BDE8F88FFEB2B8F1010F63
:1025F00009D02168380A08612A4620460A9900F065
:1026000048F90028E6D1206806612A4620460A9942
:1026100000F03FF90028DDD1206800E00BE0016800
:1026200041F48071016000950022514620460A9BCA
:1026300000F089F808B10320D5E7216809F0FF0010
:1026400040F0010008612B46594620460A9A00F0E6
:10265000ABF80028B0D1C6E72DE9F843044600687E
:102660000D46DDE9089701689846164641F48071E9
:1026700001604B4600224FF001112046009700F008
:1026800062F8E8B9216805F0FE0008613B464A4659
:102690001849204600F088F828B1206C04280FD192
:1026A0000120BDE8F88320684169806900903A46BE
:1026B0004946204600F0EDF820B1206C042813D0E4
:1026C0000320EEE7F5B2B8F1010F09D02168300A16
:1026D00008613A464946204600F0DBF80028ECD174
:1026E000206805610020DCE72068016841F4007182
:1026F0000160D5E70200010070B516460D4604469C
:102700001AE02046FFF71CFF08B1012070BD681CCD
:1027100012D025B1FEF7C2FD801BA8420CD954F897
:10272000400F40F0200044F81009002020602021D4
:1027300061732073032070BD20684069C043400767
:10274000DFD4002070BD2DE9F0471E4690460D46AF
:102750000446C1F30747DDF8209012E0701C10D04A
:102760002EB1FEF79BFDA0EB0900B04209D9002075
:1027700044F8300F20216173A07320730320BDE85B
:10278000F0872068012F0AD0806925EA0000000444
:10279000000C06D000214145E0D00020EFE7406961
:1027A000F3E70121F7E700002DE9F0479A4691464B
:1027B0000D46044600264FF02008C1F307472AE0E3
:1027C00020684069C043400512D42068016841F484
:1027D0000071016021686FF480604861042020640A
:1027E000266384F83D8084F83C600120BDE8F087D2
:1027F000B9F1FF3F0FD0B9F1000F05D0FEF74EFD44
:10280000A0EB0A01494506D944F8306F84F80D80E1
:1028100026730320EAE72068012F07D0D0F81800BC
:1028200025EA00000004000CE0D0C9E74069F7E7A2
:102830002DE9F041002590460E460446202721E070
:102840004069C043C0060CD421686FF01000486195
:102850002564256384F83D7084F83C500120BDE870
:10286000F0812EB1FEF71AFDA0EB0800B04209D9A5
:1028700054F8400F40F0200044F8040967702570B8
:102880000320ECE720684169C9434906D8D40020F9
:10289000E5E770B516460D4604461AE02046FFF7F8
:1028A0004FFE08B1012070BD681C12D025B1FEF7A3
:1028B000F5FC801BA8420CD954F8400F40F02000D2
:1028C00044F8100900202060202161732073032048
:1028D00070BD20684069C0430006DFD4002070BD91
:1028E00030B59FB0002501211BA81B9501F05CFAB3
:1028F0002B4C012120621CA81C9501F055FA606246
:1029000001211DA81D9501F04FFAA062142225494E
:102910006846FDF763FC0021684601F058FA21493A
:10292000A0601422143105A8FDF758FC002105A869
:1029300001F04DFA1B49E060142228310AA8FDF786
:102940004DFC00210AA801F042FA16492061142228
:102950003C310FA8FDF742FC00210FA801F037FA27
:10296000104960611422503114A8FDF737FC002192
:1029700014A801F02CFAA061206902F0F9FD606949
:1029800002F0F6FD07490839D1E90001CDE9190146
:10299000002119A801F004FAE0611FB030BD000069
:1029A00020000020807700082DE9F04385B0002446
:1029B0003A480094019402940394816941F0100113
:1029C0008161816901F010010491816941F0200168
:1029D0008161816901F020010491816941F0040164
:1029E0008161816901F004010491816941F008016C
:1029F00081618069DFF8A88000F008004FF400557D
:102A00000490002229464046FEF743FCDFF89490EC
:102A10004FF4A047002239464846FEF73AFC00959D
:102A2000022601250396CDE9015469464046FEF78A
:102A300049FB1E2000901C48CDE9010569461B4852
:102A4000FEF740FB00970396CDE9015469464846DE
:102A5000FEF738FB002205210720FEF725FF07209F
:102A6000FEF716FF002205210820FEF71DFF0820B3
:102A7000FEF70EFF002205210920FEF715FF0920B1
:102A8000FEF706FF002205210A20FEF70DFF0A20AF
:102A9000FEF7FEFE05B0BDE8F08300000010024026
:102AA00000100140000C014000002110000801400E
:102AB0000D4810B50B4901600C49416000214FF4ED
:102AC00080428160C0E9031241618161C16101629C
:102AD000FEF7EAFB002803D0BDE81040FEF772BA0B
:102AE00010BD00000054004048070020A0860100EF
:102AF0000F4810B50D4901604FF48271416000210B
:102B00008160C1604FF400720161C0E90512C161CA
:102B10000162416281620A21C162FFF7A8F90028BF
:102B200003D0BDE81040FEF74DBA10BD003800409C
:102B30009C0700200C4810B50A4901604FF416515B
:102B40004160002181600C22C160C0E904128161F2
:102B5000C161FFF725FC002803D0BDE81040FEF757
:102B600031BA10BD00380140F4070020FEE770477D
:102B70000907090E002806DA00F00F0000F1E02036
:102B800080F8141D704700F1E02080F800147047B1
:102B90002DE9FF41524E17460C460546326812E0B9
:102BA000F168491CF16003782A2B08D02C2B09D13D
:102BB000736842F823107168491C716002E0B168C3
:102BC000491CB160401C01780029E9D100207060E7
:102BD000B060F060062243A12846FDF723FB0028E1
:102BE0006BD104F11001081FCDE90001306804F138
:102BF0000803221D00683DA12844FDF723FB30682F
:102C000022463EA140682844FDF71CFB04F11C004D
:102C10000090306804F118031A1F806838A1284416
:102C2000FDF710FB306804F1200234A1C06828448D
:102C3000FDF708FB04F12C000090306804F1280334
:102C40001A1F006931A12844FDF7FCFA306804F12D
:102C500030022AA140692844FDF7F4FA04F14C003F
:102C60000090306804F148031A1F006A2AA1284422
:102C7000FDF7E8FA207856281FD0306803AB02AA87
:102C8000806828A12844FDF7DDFA029840F6354116
:102C90004843039903AB01EB40103860306802AA47
:102CA00020A100692844FDF7CDFA029940F635408D
:102CB0004143039800EB4110786006221BA128468F
:102CC000FDF7B0FA002808D1306804F138031A1F64
:102CD000806918A12844FDF7B5FABDE8FF8100001E
:102CE0001000002024474E524D4300002532642539
:102CF00032642532642E2532640000002563000012
:102D00002532642532642E25356400002533642580
:102D100032642E2535640000253264253264253264
:102D2000640000002535642E2535640024474E5686
:102D3000544700002533642E2532640038B50B4615
:102D4000009204460022802100F008F8002804D0F8
:102D5000606D40F020006065032038BD2DE9F04132
:102D60001D4617460E460446DDF8188035E0681CFF
:102D700033D02DB1FEF792FAA0EB0800A8422CD375
:102D80002068416821F0E00141606068B0F5827F11
:102D90000BD1A068B0F5004F02D0B0F5806F04D120
:102DA0002068016821F040010160A06AB0F5005F71
:102DB0000AD1206801684DF6FF7211400160206859
:102DC000016841F400510160012084F851000020A5
:102DD00084F850000320BDE8F0812068806836EA5E
:102DE000000004D00020B842C1D10020F3E7012048
:102DF000F9E700001FB5DFF8DC904FF0040BCDE9D8
:102E0000009B4FF0050A4C4601230022A0213248C6
:102E1000CDF808A0FEF7E8FA3048002560600834D5
:102E200004F1080725603D606560DFF8B480A4F117
:102E300034067D6000235A1E1946706A02F084FC35
:102E4000244A27491032A1F1C800FFF7A1FE98F8E3
:102E50000000562829D0206818B31E491031A1F16E
:102E60000800FEF769F8FDF7FFFC1E490390884251
:102E700017DAD9F800000399FDF716FBC9F800002E
:102E8000CDE9009B01230022A0211348CDF808A022
:102E9000FEF7BAFBD9F804000399FDF705FBC9F862
:102EA00004003868206078686060002375701A46F6
:102EB0001946706A02F042FD064901222C390A487F
:102EC000FFF7E0FA306902F053FB012000F05CFFED
:102ED000B0E700004C00002048070020000020411F
:102EE000F0060020CDCC4C3EF40700200EB5DFF8F4
:102EF000D880344D08F129060027A6F12C040A20B9
:102F000000F042FF04212846FEF7BAF90028A07815
:102F10004CD020F00100A07002212846FEF7B0F945
:102F20000028A07845D020F00200A070102128468B
:102F3000FEF7A6F90028A0783ED020F00400A0708B
:102F400008212846FEF79CF90028A07837D020F009
:102F50000800A070C0B2810709D598F80120521C62
:102F6000D2B288F80120032A01D988F801704107FC
:102F700000D5776000070BD5376005200421009647
:102F8000CDE9011001230022A0211048FEF73CFBEF
:102F90000D4900231A46491EE06902F0CFFC0A20C1
:102FA00000F0F2FE606902F0E3FAA8E740F00100E9
:102FB000B1E740F00200B8E740F00400BFE740F09E
:102FC0000800C6E700080140230000204807002051
:102FD000012204490448FFF755FA012000F0D4FE0D
:102FE000FBE7000020000020F407002008B5124C89
:102FF0004FF0FF3500232A461946606A02F0A4FB11
:103000000E4801F0E7FA0C4BA078DB1C03F1290213
:1030100000900B4902F1100001F0BEF9074801F0E1
:1030200065FB00231A461946606A02F087FC64209B
:1030300000F0AAFEDEE70000200000209C05002032
:10304000F0060020012000F09FFEFBE710B55020A5
:1030500080F31188BFF34F8FBFF36F8F02F08EFDA7
:1030600018B104494FF080500860002080F31188A7
:1030700010BD000004ED00E030B58FB02821684697
:10308000FDF7C5F814210AA8FDF7C1F801210804CD
:10309000CDE900100024029402250491CDE90750E7
:1030A0004FF4E01009906846FEF75CFD00B1FEE7C2
:1030B0000F20CDE90A054FF4E060CDE90C40022174
:1030C0000AA80E94FEF722FC002800D0FEE70FB0FD
:1030D00030BD00000D48016841F001010160416808
:1030E0000B4A1140416001680A4A114001600168C1
:1030F00021F480210160416821F4FE0141604FF418
:103100001F0181600449C00308607047001002403D
:103110000000FFF8FFFFF6FE08ED00E00148FEF7B3
:10312000F6BF000034080020F0B50268164B174CBB
:10313000174D4FF08047984205D0B84203D0A042C7
:1031400001D0A84203D122F070064A683243984267
:1031500005D0B84203D0A04201D0A84203D122F446
:103160004074CA68224322F080044A692243026004
:103170008A68C2620A688262984201D10969016361
:1031800001214161F0BD0000002C0140000400401D
:103190000008004010B5406A0021C185C184FFF7D6
:1031A00076F810BD0168CA6822F49072CA6001689E
:1031B0004A6922F001024A61202180F83A107047E2
:1031C00010B590F83A10222901D0022010BD816874
:1031D000B1F5805F11D00169002901681FD04968ED
:1031E00001F07F03816A4A1C82620B70C18D491E07
:1031F0000904090CC18518D02BE00269816A002AF4
:103200000268526805D0D2B20A80816A491C816284
:10321000ECE7C2F308020A80816A891CF7E74A6872
:10322000816A4B1C83620A70E0E70168CA6822F079
:103230002002CA600168CA6822F48072CA6001680C
:103240004A6922F001024A61202180F83A10FFF712
:1032500043F9002010BD00002DE9F041044600684C
:103260000169E26821F44051114301612169A068BC
:103270000843616908432168CA6841F20C639A43B4
:103280000243CA6020684169A26921F44071114378
:1032900041614C4920686425322688423CD1FEF7C2
:1032A0001BFC00EBC00101EB001061688900B0FB62
:1032B000F1F7FEF711FC00EBC00101EB00106168B3
:1032C000B0468900B0FBF1F0B0FBF5F06FF01801EB
:1032D000484307EB800106EB0110B0FBF5F000F06E
:1032E000F006FEF7F9FB00EBC00101EB001061688E
:1032F0008900B0FBF1F0B0FBF5F006EB0016FEF72D
:10330000EBFB00EBC00101EB001061688900B0FB32
:10331000F1F7FEF7E1FB3BE0FEF7CEFB00EBC0016F
:1033200001EB001061688900B0FBF1F7FEF7C4FB08
:1033300000EBC00101EB00106168B0468900B0FBF2
:10334000F1F0B0FBF5F06FF01801484307EB800196
:1033500006EB0110B0FBF5F000F0F006FEF7ACFB59
:1033600000EBC00101EB001061688900B0FBF1F0D7
:10337000B0FBF5F006EB0016FEF79EFB00EBC0017C
:1033800001EB001061688900B0FBF1F7FEF794FBD8
:1033900000EBC00101EB001061688900B0FBF1F0A7
:1033A000B0FBF5F06FF01801484307EB800108EB24
:1033B0000110B0FBF5F0216800F00F003044886088
:1033C000BDE8F0810038014090F83910212901D082
:1033D000022070478168B1F5805F016A0BD04A1CFA
:1033E0000262026809785160C18C491E0904090C07
:1033F000C1840ED017E009880268C1F3080151604A
:1034000001690029016A02D0491C0162ECE7891CAC
:10341000FBE70168CA6822F08002CA600068C168E0
:1034200041F04001C1600020704700000148FEF7F4
:103430002FBF0000F4070020FEE700000FB4084B88
:1034400010B504A902AA039800F0CEF8044602A918
:10345000002000F060FC204610BC5DF814FB00006A
:10346000173D000802E008C8121F08C1002AFAD15F
:1034700070477047002001E001C1121F002AFBD1F4
:10348000704700002DE9FF5FDDE90220010DDDF846
:1034900038B0024318D044F61050A1F2FF31414336
:1034A0000D140F98012820D0A5EB0B00401C5FEAFB
:1034B000000A4FF00004474EDFF81C91A04650462A
:1034C00016D5CAF1000728E00F98012443A201286D
:1034D00008D0002100980F9BC0E90021C0E90243F9
:1034E000BDE8FF9F6FEA0B01F4E7CBF10000DEE7D8
:1034F000074612E0F80707D02246334640464946C1
:10350000FDF7D1F8804689462246334610461946D3
:10351000FDF7C9F804460E467F10002FEAD1DDE919
:103520000201BAF1000F42464B4602DAFDF7BBF842
:1035300001E0FDF72AF904460E460022284BFDF76C
:1035400001FB03D84FF0FF30014607E00022254B76
:1035500020463146FDF700F8FDF7DCFA102409E0BB
:10356000002C0ADB0A220023FDF7ACF9019B303264
:103570001A55641E50EA0102F2D1641C019AC4F18A
:10358000110314440F9A012A03D0012208430DD1DC
:103590000AE0084304D000204FF0110B0F9080E7A1
:1035A000A3EB0B056D1E0DE05B4504DD4FF0000243
:1035B00005F1010504E003DA4FF00002A5F1010571
:1035C000002AECD000980F99C0E90231C0E900450B
:1035D00086E70000000024400000F03F30000000BB
:1035E0000000F0430000E03F2DE9FF4F95B09B46FF
:1035F0008946064600250FE2252877D10024274674
:10360000F84A0121059400E0044316F8013F203BED
:1036100001FA03F01042F7D130782A2811D06FF068
:103620002F033078A0F13002092A16D8059A44F009
:10363000020402EB820203EB42021044761C059066
:10364000EFE759F8042B0592002A03DA504244F4BC
:103650000054059044F00204761C30782E2816D1D0
:1036600016F8010F44F004042A280DD06FF02F0241
:103670003078A0F13003092B09D807EB870302EB60
:103680004303C718761CF3E759F8047B761C30789F
:103690006C280FD006DC4C2817D068280DD06A287B
:1036A00014D104E0742810D07A280FD10DE044F42E
:1036B00000140AE044F4801401E044F440147278E9
:1036C000824202D104F58014761C761C307866287C
:1036D0000BD013DC582877D009DC002875D045289A
:1036E000F6D04628F4D047281AD19DE118E0632887
:1036F00035D0642879D0652812D195E1702873D02F
:1037000008DC6728F1D069286FD06E280DD06F28AB
:1037100006D1B5E073282CD0752875D0782874D0E0
:103720005A46179990476D1C75E1C4F30250022860
:1037300009D003280DD0D9F8001004280DD00D6051
:1037400009F1040967E1D9F80010EA17C1E900524C
:10375000F6E7D9F800100D80F2E70D70F0E719F8E0
:10376000041B8DF8001000208DF80100EA460120AE
:1037700003E059F804AB4FF0FF3061074FF0000150
:1037800002D40DE008F101018846B9420FDA804504
:10379000F8DB1AF808100029F4D108E008F101015B
:1037A00088468142FADB1AF808100029F6D10598FC
:1037B0005B46A0EB080721463846179A00F094FABA
:1037C000284400EB080507E04DE029E10DE01AF878
:1037D000010B5A4617999047B8F10108F7D25B469A
:1037E00021463846179A13E142E00A220092C4F3B8
:1037F00002524FF0000A022A08D059F804CB032ADB
:103800004FEAEC710AD00DE029E02AE009F1070146
:1038100021F00702F2E802C1914609E00FFA8CFCA0
:103820004FEAEC71042A03D14FFA8CFC4FEAEC7199
:10383000002907DA0A460021DCF1000C61EB0201E5
:103840002D2202E0220504D52B228DF8042001222E
:1038500003E0E20701D02022F7E7904659E00A2171
:1038600002E010220DE010214FF0000A00910BE061
:1038700010224FF0000A44F004040827009203E0ED
:1038800008224FF0000A0092C4F30252022A05D027
:1038900059F804CB0021032A08D009E009F10701F7
:1038A00021F00702F2E802C1914605E01FFA8CFC04
:1038B000042A01D10CF0FF0C4FF00008220728D594
:1038C000702806D0009B83F0100353EA0A0305D04A
:1038D0000EE040228DF80420012208E05CEA01029B
:1038E00006D030228DF804208DF805000222904683
:1038F000009B83F0080353EA0A030AD15CEA010241
:1039000001D1620705D530228DF804204FF001085F
:103910007F1E582804D034A003900EA802900DE01A
:1039200036A0F9E753466046009AFCF7CBFF844681
:103930000398825C0298401E029002705CEA0100CB
:10394000F0D1029806A9081A00F1200A600702D5F2
:1039500024F4803400E00127574502DDA7EB0A007C
:1039600000E0002000EB0A01009005984144401A55
:103970000590E00306D45B462146179A059800F0AF
:10398000B3F90544002706E001A85A46C05D17991F
:1039900090476D1C7F1C4745F6DBE0030CD55B466A
:1039A0002146179A059800F09FF9054404E030205D
:1039B0005A46179990476D1C0099481E009000299F
:1039C000F5DC08E0029802995A460078491C0291F9
:1039D000179990476D1CBAF10001AAF1010AF1DCB8
:1039E00065E10000092801003031323334353637C3
:1039F000383961626364656600000000303132333B
:103A000034353637383941424344454600000000DA
:103A100000F058F90544761C307800287FF4ECADAE
:103A200019B02846BDE8F08F620700D4062709F1D7
:103A3000070222F0070CFCE80223E14603F00048ED
:103A40005FEA080C02D00FF2702C0DE05FEA045C14
:103A500002D50FF2682C07E05FEAC47C02D00FF2B7
:103A6000602C01E0AFF2700C4FF0FF3823F0004300
:103A7000CDF850C065280CD006DC452809D0462872
:103A80001DD047283DD13DE0662818D067287ED15B
:103A900038E00021112F01DB112000E0781CCDE976
:103AA000000106A90EA8FFF7EDFCDDE90F010E9A53
:103AB00003910021009207F1010A04914DE04FF0BB
:103AC00000400097CDE9011006A90EA8FFF7DAFC27
:103AD000DDE90F0203920E9B11990022DDF80CA084
:103AE0000093049211B9791C00EB010AB7EB0A00AC
:103AF00004D4C0F1FF3007F1010A0490AAEB0700DB
:103B0000019044E0012F00DA01270021112F01DD8F
:103B1000112000E03846CDE9000106A90EA8FFF704
:103B2000B1FCDDE90F010E9A03910021049100928E
:103B3000BA4621070CD40399514500DA8A46BAF1F6
:103B4000010F05DD009AAAF10101515C302908D06E
:103B5000B84202DA10F1040F06DA0121CDE90110B2
:103B600015E0AAF10101E9E7002805DC0499014408
:103B70000491AAEB000102E0411C514500DD8A4698
:103B80000499401A401C01904FF000400290200719
:103B900004D40198504501DBCDF8048000208DF855
:103BA0004F0002980DF14F07B0F1004F25D02B20A8
:103BB0000E9002984FF0020800280CDA4042029062
:103BC0002D200E9007E00A210298FCF765FE3031A7
:103BD000029007F8011DB8F10001A8F10108F2DC1C
:103BE00002980028EFD1791E0E980870307800F006
:103BF000200040F0450007F8020D12A8C01B00F19C
:103C000007081498007800B1012000EB0A01019820
:103C100001EBE07105984144401A401E0590E00315
:103C200006D45B462146179A059800F05DF80544D6
:103C30001498007818B15A46179990476D1CE00304
:103C400024D55B462146179A059800F04DF80544A7
:103C50001CE00498002807DBDDE90301884203DD4E
:103C60000098405C179901E0179930205A46904718
:103C7000049805F10105401C04900198401E019034
:103C800004D12E205A46179990476D1CBAF10001B5
:103C9000AAF1010ADDDC05E017F8010B5A46179975
:103CA00090476D1CB8F10001A8F10108F4DC5B46F7
:103CB0002146179A0598ABE62D0000002B00000066
:103CC000200000002DE9F041044600251E4617465D
:103CD000880404D405E039462020B0476D1C641EDA
:103CE000F9D52846BDE8F0812DE9F04104460025CC
:103CF0001E469046C80301D5302700E020278804DF
:103D000004D505E041463846B0476D1C641EF9D520
:103D10002846BDE8F0810A68531C0B60107070479C
:103D2000FDF746FDFFF7A8F9FEF73EFEFEF7E0FEC1
:103D3000FEF700FFFEF7BCFE012251030A48FDF723
:103D4000A8FA0A4B0A4A0B490B4800F00BFD0A4837
:103D500001F057F80021084801F063F8FEF7C0FDB4
:103D600000F019F8FEE7000000100140E9510008DA
:103D7000B54E00083C7800089C0500200146002054
:103D8000842900D0C81C704710B500B9012001F08B
:103D900023FB002010BD10B501F0B6FB002010BDC4
:103DA00003C8002201F0ACBC10B5012901D00020ED
:103DB00010BD03220021012001F0A2FC040004D068
:103DC00000231A46194601F0B9FD204610BD3EB544
:103DD00004460D46B0F90800FFF7D0FF02A9CDE96F
:103DE0000001208A2B4682B2D4E9001001F08CFE3B
:103DF000012801D000203EBD02983EBD2DE9F041D2
:103E0000184C0F460546E6682068001D01F003FACD
:103E100038B9206890F82C1001208840216981432E
:103E20002161681C07D137B12168BDE8F0410E4817
:103E3000091D01F028BA20683544B5424560216863
:103E400005D2A06BBDE8F041091D01F004BA606B1A
:103E5000091D01F000FAA06A854200D2A562BDE802
:103E6000F081000064000020600900202DE9F0418D
:103E7000054601F015FA2E4CA068401CA060206891
:103E80002C4F10B1606940B32DE02560A068012877
:103E900029D1002606EB860007EB800001F0CDF962
:103EA000761C072EF6D323488C3001F0C6F9214842
:103EB000A03001F0C2F91F48B43001F0BEF91D482E
:103EC000C83001F0BAF91B48DC3001F0B6F91948E6
:103ED0008C3060631430A06305E02068E96AC06A32
:103EE000884200D82560606A401C6062E96A01204F
:103EF000226988401043206101EB810007EB8000BC
:103F0000291D01F0C0F901F0EBF9606900280CD01F
:103F10002068E96AC06A884207D207494FF080509A
:103F20000860BFF34F8FBFF36F8FBDE8F0810000D3
:103F3000640000208408002004ED00E070B5114EFC
:103F4000114C17E001F06CFB3068B8B101F000FFD4
:103F500001F0A6F9F068C568281D01F05CF9A068B9
:103F6000401EA0606068401E606001F0B9F92846FC
:103F700000F055F860680028E4D170BD01F0E8FE5B
:103F8000F8E700004C0900206400002030B4026C07
:103F90000B46002A0BD0C1681144C1604468A1429D
:103FA00001D30168C16030BC1846FCF717B930BCBA
:103FB00070472DE9F041856B174604460026026CD8
:103FC00082B1C7B1E068FCF709F9E168206C091A11
:103FD000E1602268914202D26168081AE060022F13
:103FE00016D017E02068A8B9606801F02BFE0646DD
:103FF000002060600EE0A068FCF7F0F8216CA0687B
:104000000844A0606168884204D32068A06001E091
:1040100005B16D1E6D1CA5633046BDE8F08110B57D
:104020000446006B01F070F92046BDE8104001F035
:104030006BB900000F4841F28831420705D0C01D1E
:104040000C4A20F00700821A891A0B4A0023014407
:10405000C2E900030839103A21F0070111604B60F2
:104060000B600B1AC0E9001393604FF000405360DF
:10407000D060704774090020B0000020074C4FF05A
:104080008056074DFFF75AFF20680128FAD92E60A5
:10409000BFF34F8FBFF36F8FF4E700008408002059
:1040A00004ED00E02DE9F0479A46DDE909848146F8
:1040B0006FF00303206B03EB82021044089D20F095
:1040C0000706700707D0502080F31188BFF34F8F89
:1040D000BFF36F8FFEE723180A5C83F834200A5C75
:1040E00012B1401C1028F6D3002784F84370072D26
:1040F00000D30625E562C4E91157201D01F0A8F898
:1041000004F1180001F0A4F82461C5F1070064620D
:10411000A061E76484F8507052464946304600F08A
:1041200029F92060B8F1000F01D0C8F80040BDE8BF
:10413000F087000030B5114900E011460A6882425C
:10414000FBD34B685C18844203D140681844486034
:10415000084643681C18944209D1084C103C246856
:10416000A24209D052681A4442600A68126802608A
:10417000814200D0086030BD0460F9E7B000002043
:1041800010B5044601F08CF8A06B28B15FF0000474
:1041900001F0A6F8204610BD0124F9E70648416B5E
:1041A000096829B1416BC968C9684968816270476B
:1041B0004FF0FF31FAE70000640000200848406833
:1041C000401C4FF0500080F3118804D0BFF34F8F94
:1041D000BFF36F8FFEE7BFF34F8FBFF36F8FFEE725
:1041E000B8000020002150B10A4B42699A420FD119
:1041F000806AA3F1280290420AD040B108E0502022
:1042000080F31188BFF34F8FBFF36F8FFEE701215B
:1042100008467047600900202DE9F041044601F08E
:104220003FF894F9455004F1240609E0606A48B16A
:10423000304601F053FD08B101F0F4F86D1E6DB287
:10424000002DF3DC4FF0FF3684F8456001F048F8AC
:1042500001F026F894F9445004F1100709E02069B0
:1042600048B1384601F03AFD08B101F0DBF86D1EA7
:104270006DB2002DF3DC84F84460BDE8F04101F03C
:104280002FB800002DE9F0410546002701F0C8F9DC
:10429000314E306808B9FFF7CDFEF06805424BD1CA
:1042A000C5B3083568070ED005F00700C0F1080057
:1042B0000544680707D0502080F31188BFF34F8F63
:1042C000BFF36F8FFEE72DB37068854234D8224864
:1042D000103001460C6801E020460C466168A94296
:1042E00002D221680029F7D131688C4224D00768B6
:1042F0002168016060680837411B10290FD96019D7
:10430000420708D0502080F31188BFF34F8FBFF3CE
:104310006F8FFEE710E041606560FFF70BFF61689B
:104320007068401A7060B268904200D2B060F06865
:1043300001430020C4E9000101F00AFD780707D01D
:10434000502080F31188BFF34F8FBFF36F8FFEE7CC
:104350003846BDE8F0810000A0000020044908684C
:1043600018B10868826C521C8264086870470000AB
:104370006400002010B5031F4FF080741C601B1FE9
:1043800021F001011960191F024B0B6014394038EC
:104390000A6010BDBD4100082DE9F8430C460646F1
:1043A000984615460021754800F0B9F974497348DC
:1043B00000F0A5F92868FCF75CFA02460B4671A1EB
:1043C0007248FFF73BF8724F2868B84201DA1321B0
:1043D00000E000216D4B402268482B3100F066F967
:1043E00098F8010030B101284FD0022871D003287D
:1043F0002AD198E06749614800F081F903215F48BC
:1044000000F08DF964A31C220E215C4800F04EF9E7
:1044100000215A4800F083F95949584800F06FF9D3
:104420002078412805D056280ED11E225BA31821E2
:1044300007E05CA15548626BFFF700F8534B1E2262
:1044400047214E4800F032F90220009080231F22BD
:1044500000214A4800F0C7F84020009002230022C3
:104460001221464800F0BFF84A49444800F047F995
:104470000321424800F053F901B03C22BDE8F0436B
:1044800049A30E213D4800F011B942493B4800F0D4
:1044900036F90321394800F042F944A318220E21CD
:1044A000364800F003F90021344800F038F940495B
:1044B000324800F024F9E0680090D4E901233DA1DE
:1044C0003248D21CFEF7BAFF1B22304B1421B8E74A
:1044D000FFE73049294800F012F90321274800F08E
:1044E0001EF938A31C220E21244800F0DFF8002119
:1044F000224800F014F92249204800F000F96868C9
:10450000FCF7B7F902460B461EA12048FEF796FFBE
:104510006868B84201DA132100E000211E221B4B1B
:1045200016482B318EE71B49144800F0E8F80321A8
:10453000124800F0F4F824A31C220E210F4800F0CA
:10454000B5F800210D4800F0EAF812490B4800F0D8
:10455000D6F81EA10D483268FEF770FF0B4B0E22F5
:104560002621064800F0A2F818A108487268FEF754
:1045700065FF1C22054B262163E700009C050020F7
:10458000346C0008252E326600000000C4040020B0
:1045900000002041B45E0008535044004E4F2046B6
:1045A00049580000253364004F443100544D000049
:1045B0006B630008253032643A253032643A253086
:1045C000326400004F4432004C4F430025303130FC
:1045D0006400000001680A7C90F83810406B514379
:1045E000C900FBF714BE2DE9F8438146089C1E461E
:1045F0001019C0B200908819C3B2154688464846C3
:1046000000F05CF800280ED00027002C0BD03346B9
:104610002A4641464846009700F03FF86D1C641E4C
:10462000EDB2E4B2F1E7BDE8F8832DE9F0410446CC
:1046300090F85E001F4615460E4630B1012809D09D
:1046400002280CD0032815D10FE0E16C20468847E2
:10465000284408E0E16C20468847301A09E0E16C04
:1046600020468847281AC5B204E0E16C20468847F6
:104670003044C6B2284684F8546084F85500394660
:104680000025204600F080FA010003D0204600F00B
:10469000AFF9C5B22846BDE8F08138B5002B049CBF
:1046A00003D00094046B6468A04738BD30B4024C5A
:1046B000446030BC00F03BB9894E000870B50D462F
:1046C0001E46044690F8441090F84300049B00F006
:1046D000AAFA002809D094F8421094F84100334611
:1046E0002A46BDE8704000F09EBA70BD10B5044681
:1046F00000F016FB2046BDE8104000F08ABB10B564
:104700000446806C884209D004F16000A16400F086
:10471000D2FA2046BDE8104000F03EB810BD80F847
:104720005E1070470149C16470470000A549000848
:1047300070B5044600250498A564E362616384F8BB
:10474000382084F83950012184F87D1084F87E10D7
:1047500020630168204688472046FFF7E3FF84F87E
:104760005E5070BD38B50C46009313460546064AA8
:10477000064900F05EFB08220549064B28460094D6
:10478000FFF7D6FF38BD0000C94F000829510008C7
:10479000C4000020414C000810B5816C00291AD0DB
:1047A00090F96D3080F8793090F96E2080F87A2099
:1047B00090F8781000290ED001290DD090F96A40A8
:1047C00090F96C100C449C4201DD80F879408A42DB
:1047D00001DD80F87A1010BD90F96F108B4201DA7C
:1047E00080F8791090F97010F1E72BB1012B05D00A
:1047F000022B06D0104402E0084400E0801AC0B248
:104800007047401AFBE72BB1012B05D0022B06D0D5
:10481000401A02E0104400E00844C0B27047801A19
:10482000FBE710B503780C78A34207D9934203D273
:10483000501EC4B20C7001E000230370934205D2F5
:1048400024B1944200D90A70012010BD002010BD8F
:104850007FB582B0044690F839009DF810104042B0
:1048600001EBC000C1B28DF810100A9D94F83B60B6
:1048700094F83A209DF80C00DDB1904217D2C81888
:104880008DF80400324601A904A8FFF7CAFF0028EA
:104890000DD09DF804009DF810100095401AC3B289
:1048A000E56A9DF810209DF80C102046A84706B038
:1048B00070BDB142FBD218448DF8040001A903A8D1
:1048C000FFF7AFFF0028F2D09DF804009DF80C1010
:1048D000E3E738B5012B049C04D0022C14D0032C40
:1048E00016D018E090F839506D4202EBC50290F8EE
:1048F0003A50D2B28D4206D990F83B50954202D937
:104900000094C46AA04738BDC91A491CC9B202E064
:10491000D21A521CD2B204F001040094FFF798FF9F
:1049200038BD38B5049C0094FFF7D3FF38BD2DE99E
:10493000F0471C4691468846064600F068FC002574
:104940004FF6FF7772682178304690470346B842A9
:1049500025D0641CA3F57F40FE38F3D04A4641467B
:104960003046FFF762FE96F85E1031B1012907D09C
:10497000022908D003290FD10AE008EB000104E066
:1049800009EB000106E0A8EB000101F0FF0803E0DD
:10499000A9EB000101F0FF092844C5B2D2E728467F
:1049A000BDE8F0870020704710B50C4600F006F80F
:1049B0000122641EA240801A40B210BD30B50568C5
:1049C000847A2A78E2406318DBB2082B09D36D1C85
:1049D00005602D78C4F10804A5401543083BEAB2F0
:1049E000DBB201248C40641E14408372204630BD2B
:1049F0002DE9F843054600F1500400F0FAF815F9E6
:104A0000596F2046697BFFF7CFFF8146A97B20467F
:104A1000FFF7CAFF0746E97B2046593DFFF7C4FF71
:104A2000804694F90800002855DDF019404247B24D
:104A3000A37B20793A464946FFF7D7FE2071A37B36
:104A40003A4660794946FFF7DEFE60712179A77B1F
:104A500002460B4637B1012F09D0022F3ED0032F5B
:104A60000DD143E0277A30443B44DBB206E0891B9A
:104A7000491C277A5B1CC9B2DBB23844C0B2009033
:104A80002846FFF71BFE30B30020A07184F8070012
:104A900095F862102046FFF791FF814695F8631064
:104AA0002046FFF78BFF074600224946284600F0C4
:104AB00025F801223946284600F020F80121204639
:104AC000FFF77CFF0028EFD194F90700B042DFDB4D
:104AD000207B85F87D004046BDE8F883277A5B1C83
:104AE000C91B491CC9B2DBB2921B03E0277A3344CD
:104AF000DBB2D21B521CD2B2401CBFE72DE9F74FEC
:104B000084B00D46049C94F8567094F85780503445
:104B1000207AC01BC6B20196B54200D201954FFA69
:104B200088F279B2207994F805B0A37B9246894641
:104B3000FFF75BFE0290A37B524649465846FFF7BB
:104B400062FE0246069808B1217B02E0E07A50B985
:104B5000617B049880F87D10A07B0090DDE9013135
:104B60000498FFF79AFDB54207D3A81BC5B208F118
:104B70000100002700F0FF08CAE77819A07184F847
:104B8000078007B0BDE8F08F10B50246806C173083
:104B9000FF2910D8612902D3B2F8742003E041291B
:104BA00002D3B2F8722010444278B2B103788B423B
:104BB000F9D1801C10BDB2F876204FF6FF74104476
:104BC000027804EA022342781A4306D08A4201D1CD
:104BD000C01C10BD82781044F2E7002010BD0844CC
:104BE0004FF6FF720178407802EA0121084480B252
:104BF000704730B5054600F1500401650020A072F1
:104C000015F8641F2046FFF7D9FE20726978204608
:104C1000FFF7D4FE6072687E207310B100206073CD
:104C200030BD0120FBE78A4205D2834201D89A4277
:104C300003D9012070478342F9D800207047000053
:104C4000F0B5046801F00707059E257C8024FC4030
:104C50006A4302EBD101426B89B21144BEB900BF75
:104C600090F87D20012A06D80A7822430A7090F82D
:104C70007D20012A02D00A7862400A70640801D1BE
:104C80008024491C5B1E13F0FF03E9D1F0BD90F8AE
:104C90007D20012A06D80A7822430A7090F87D20E8
:104CA000012A02D00A7862400A705B1E294413F080
:104CB000FF03ECD1F0BD70B5054608782870487840
:104CC00068708878A870C878E87008792871487981
:104CD000687188790C46A871E079E871207A2872A9
:104CE000607A6872A07AA872E07AE872207B2873F2
:104CF000607B6873A07BA873E07BE873207C2874DA
:104D000011212046FFF76BFF688213212046FFF731
:104D100066FFA88215212046FFF761FFE88270BD7B
:104D20002DE9F843064690F8387090F8395000683D
:104D300000244FF6FF7890F81190316830462A46EB
:104D40000B7C716B04FB03FC1FFA8CFC08EACC0C97
:104D500061440091002100F045F8641C6D1CE4B230
:104D6000EDB2BC4201D24D45E7D3BDE8F88370B542
:104D700090F83820D10080F83B100468217C20296D
:104D800000D31F21C90080F83A1090F83930D906B5
:104D9000090E80F83C10657C9E18AE4201D9EA1AD3
:104DA000D2B280F83D1001EBC20180F83E10F02134
:104DB00080F83F10A18AF02901D880F83F10A17D2A
:104DC00080F8401070BD10B50446FFF7D0FF0020FA
:104DD00084F8410014F83A0F2072E078607220796C
:104DE000A07210BD1CB58DF805108DF80620049C2E
:104DF0008DF804300094012284686B460F21A0478F
:104E00001CBD30B484680023A44630BC1A460A2175
:104E1000604730B484680023A44630BC1A46102191
:104E2000604730B484680023A4460A4630BC0B2196
:104E300060472DE9F04115460E460446069F00F0F6
:104E400009F86761A660C4E903532046BDE8F04154
:104E500000F012B8002140F8081B064A02604260C8
:104E60008260C260C1758176C176FF21017641778B
:104E700070470000E551000830B484680023A44660
:104E800030BC1A4609216047080001D00A2801D128
:104E90004FF6FF70704713B50122046901AB17216B
:104EA000A0471CBD30B404691346A4460A4630BC72
:104EB0001721604738B51446172908D016484FF413
:104EC000805318291AD019291ED0002038BD1D463C
:104ED00011E000BF15F8010B641E8DF80000E4B26C
:104EE0000E48FCF7C1FF0228FAD06423012269466C
:104EF0000A48FDF72DF8002CECD10AE001221946F2
:104F0000FCF7C7F900BF04E000BF00221946FCF718
:104F1000C0F9012038BD0000000C01409C070020B2
:104F200030B4C4680023A44630BC1A461921604737
:104F300030B4C4680023A4460A4630BC152160473B
:104F400030B4C4681346A4460A4630BC17216047F3
:104F5000F8B50C464FEA000514F8011B182924D0B7
:104F60000EDC152919D0162917D0172923D120783E
:104F70008DF800006A4601212846FFF7E1FF0AE0AC
:104F8000192912D0FE2916D122788DF80020292166
:104F9000284600F036F9641CDEE722788DF8002000
:104FA000EE6800232846B047F5E70023EE681A466E
:104FB0002846B047D0E7F8BD30B4C4680023A44603
:104FC00030BC1A46182160472DE9F0410646A1F190
:104FD000140015019846144602F0F00706286BD21B
:104FE000DFE800F063031A276363F8213046FFF718
:104FF00052FF01222C21304600F003F93946304699
:10500000FFF749FF01222C21304600F0FAF8E9B2FF
:105010003046FFF740FF40E0F8213046FFF73BFF06
:1050200039463046FFF737FFE9B23046FFF733FF26
:1050300038E0FA213046FFF72EFF01222C213046BE
:1050400000F0DFF8454615E01C49082015F8012B53
:1050500002F0F003120101F8013B401E01F8012BA0
:1050600010F0FF00F2D1083CE4B2144A102130469F
:10507000FFF718FF082CE7D20DE02F78304607F035
:10508000F001FFF708FF3807010E3046FFF703FF76
:10509000641EE4B26D1C002CEFD101222C2130469D
:1050A00000F0AFF80120BDE8F081356922463046B6
:1050B000AC46BDE8F04160470020F4E774080020EA
:1050C00070B50023456904461A462821A8470023E5
:1050D000E5681A4614212046A84701224B212046A4
:1050E00000F08FF8206829210279204600F089F825
:1050F00000224B21204600F084F820682921027903
:10510000204600F07EF801224B21204600F079F87D
:105110002068292142792046BDE8704000F071B82E
:105120000160897C8177704710B5092903D0BDE8FB
:10513000104000F007B80249FFF7F2FF012010BD50
:10514000247800082DE9F0471E4682460A2906D039
:105150000B2909D00F2910D00020BDE8F087FFF7F8
:10516000AFFF1F49504602E022B11D49C91FFFF79A
:10517000EFFE33E01A491331F9E7B079C006050EA6
:105180007079202D4FEA500803D3203DEDB208F18D
:1051900008085046FFF710FF3E2150463768FFF7DA
:1051A000C7FE002448F080092819C0B240F08001F1
:1051B0005046FFF7BDFE49465046FFF7B9FE96F848
:1051C00004803A4641465046FFF7BAFE641CE4B2FA
:1051D0004744082CE8D35046FFF7A2FE0120BCE765
:1051E000EB7700080020704710B51046292902D03F
:1051F0002C2904D102E0FBF733FF00E000BF0120BF
:1052000010BD30B444690023A44630BC604700217F
:1052100080F823107047D0E9013201699A60D0E923
:1052200001235A604A68824201D182684A600022A2
:1052300002610868401E0860704700F108014FF0E5
:10524000FF32C0E90112C1600161002101607047B5
:1052500000210161704730B50B685A1C02D000F183
:10526000080202E0026904E02246546825689D4273
:10527000FAD953684B6099608A605160086101688F
:10528000491C016030BD42684A6093688B60936836
:105290005960916008610168491C01607047000015
:1052A000502080F31188BFF34F8FBFF36F8F0A49EF
:1052B0004868401C486001280CD10848006810F07C
:1052C000FF0F07D0502080F31188BFF34F8FBFF33B
:1052D0006F8FFEE770470000B800002004ED00E08B
:1052E0000849486828B1401E486001D180F3118800
:1052F0007047502080F31188BFF34F8FBFF36F8F3B
:10530000FEE70000B800002070B5002827D0144D3B
:10531000A0F108046168E868014207D1502080F3D9
:105320001188BFF34F8FBFF36F8FFEE722683AB14A
:10533000502080F31188BFF34F8FBFF36F8FFEE7CC
:105340008143616000F06CF96068696808446860D6
:105350002046FEF7EFFEBDE8704000F0F9BC70BDDE
:10536000A000002006484FF47A710068B0FBF1F10C
:105370004FF0E020491E41610721016170470000A4
:105380000000002010B5FAF703FF114910280ED3D2
:1053900000F1E02090F8F0030A78904207D2502004
:1053A00080F31188BFF34F8FBFF36F8FFEE709487B
:1053B0000068896800F4E060884207D9502080F3D3
:1053C0001188BFF34F8FBFF36F8FFEE710BD000052
:1053D000B80000200CED00E010B5020014D00F481A
:1053E000006B38B1502080F31188BFF34F8FBFF3AB
:1053F0006F8FFEE700F014F900211046FEF7FEFC67
:1054000000F0A6FC002807D105494FF08050086045
:10541000BFF34F8FBFF36F8F10BD000064000020FB
:1054200004ED00E001490120C861704764000020DC
:1054300010B50C4650B1094909681831FFF70BFF48
:105440002046BDE810400121FEF7D8BC502080F373
:105450001188BFF34F8FBFF36F8FFEE7640000200A
:1054600070B5040039D01D4DE06A2968C96A8842C8
:1054700033D2A069002804DB2868C06AC0F10700A5
:10548000A061E16A164E01EB8101606906EB8101C2
:1054900088421FD1201DFFF7BEFE012150B9E06AEE
:1054A00000EB800256F8222022B92A6901FA00F0A6
:1054B00082432A612868C06AE0622A6981401143F8
:1054C000296100EB800006EB8000211DBDE87040E3
:1054D000FFF7D9BE2868C06AE06270BD6400002092
:1054E0008408002028B107490A6A0260C96841603F
:1054F0007047502080F31188BFF34F8FBFF36F8F39
:10550000FEE70000640000201CB515480024CDE92A
:1055100000402346802213A1144800F0F5FA012828
:1055200009D0401C1AD1502080F31188BFF34F8F4F
:10553000BFF36F8FFEE7502080F31188BFF34F8FCA
:10554000BFF36F8F06484FF0FF312C388162012185
:105550004161C460BDE81C4000F098B81CBD00006B
:105560009000002049444C45000000007D400008A8
:1055700070B50446FFF794FE264D04B92C68201D33
:10558000FFF749FE58B9E06A234A00EB800152F860
:10559000211021B901218140286988432861A06A2E
:1055A00018B104F11800FFF736FE1B48211DDC304E
:1055B000FFF769FEFFF794FE686928B1FFF770FEF8
:1055C000FEF7ECFDFFF78CFE2868844213D1686972
:1055D00090B1286B38B1502080F31188BFF34F8F02
:1055E000BFF36F8FFEE70D494FF080500860BFF3A7
:1055F0004F8FBFF36F8F70BD0748A968DC3000681C
:10560000884202D10020286070BDBDE8704000F0E3
:105610000FB80000640000208408002004ED00E0C2
:105620000248016B491C01637047000064000020C0
:105630001448016B11B10121C16170470021C161A2
:105640000169B1FA81F1C1F11F0101EB81020E493B
:1056500051F822306BB101EB820101F108034A6875
:1056600052684A609A4201D152684A60D16801602A
:105670007047502080F31188BFF34F8FBFF36F8FB7
:10568000FEE7000064000020840800201CB51949D2
:1056900008780190FF20087008788DF800009DF8C8
:1056A0000000154A00F0500010700720906005E0DF
:1056B0009DF800305B008DF80030401E9DF80030F2
:1056C0001B06F5D4000200F4E060906001980870B9
:1056D0000A48016841F470010160016841F07041BD
:1056E0000160FFF73FFE00205060FAF71BFD00202D
:1056F0001CBD000000E400E0B800002020ED00E048
:1057000070B50E46050013D0D6B105FB06F0483043
:10571000FEF7B8FD040009D004F1480120468EB11F
:105720000160C0E90F56012100F0C4F8204670BDA9
:10573000502080F31188BFF34F8FBFF36F8FFEE7C8
:105740000020E4E70060ECE72DE9FF4F002683B07E
:105750009B468A46040003D0BAF1000F08D011E03E
:10576000502080F31188BFF34F8FBFF36F8FFEE798
:10577000206C38B1502080F31188BFF34F8FBFF3F6
:105780006F8FFEE700F0ECF9DFF824814FF000099D
:105790004FF0805748B9059838B1502080F31188F0
:1057A000BFF34F8FBFF36F8FFEE7FFF779FDA56B58
:1057B00045B351462046E668FEF7E8FBBBF1000F13
:1057C00013D0E660606A50B104F1240000F086FA5C
:1057D00028B1C8F80070BFF34F8FBFF36F8FFFF78A
:1057E0007FFD012007B0BDE8F08F6D1EA563206826
:1057F00010B9FEF7B3FD606020690028EFD004F116
:105800001000E3E7059808B11EB106E0FFF768FD58
:1058100027E06846FFF766FE0126FFF761FDFFF708
:10582000FFFEFFF73DFD94F94400401C01D184F8D0
:10583000449094F94500401C01D184F84590FFF74D
:105840004FFD05A9684600F029F9002820460AD036
:10585000FEF7E2FC00F07CFA2046FEF791FC0028FF
:10586000A3D00020BEE7FEF78BFCD8B1206830B98A
:10587000FFF716FD6068FFF7F3FDFFF731FD04F158
:1058800024000599FFF7D4FD2046FEF7C5FC00F083
:105890005FFA002889D1C8F80070BFF34F8FBFF3BB
:1058A0006F8F82E72046FEF7B7FC00F051FA7CE7E5
:1058B00004ED00E070B50D46040025D0FFF7F0FCC4
:1058C000D4E90F20216802FB001161600021A1636F
:1058D0002168A1600A46D4E90F01401E00FB0121A6
:1058E000E16021464FF0FF3001F8440F487004F1A9
:1058F00010008DB1FFF7A1FC04F12400FFF79DFC1F
:10590000FFF7EEFC012070BD502080F31188BFF33B
:105910004F8FBFF36F8FFEE721690029F0D000F0B1
:10592000DDF90028ECD004494FF080500860BFF347
:105930004F8FBFF36F8FE3E704ED00E02DE9FF47E2
:1059400082B01D468A464FF00008040003D0BAF129
:10595000000F08D011E0502080F31188BFF34F8F63
:10596000BFF36F8FFEE7206C38B1502080F31188B1
:10597000BFF34F8FBFF36F8FFEE7022D0AD1E06BAD
:10598000012807D0502080F31188BFF34F8FBFF359
:105990006F8FFEE700F0E4F83F4F4FF000094FF043
:1059A000805648B9049838B1502080F31188BFF36D
:1059B0004F8FBFF36F8FFEE7FFF772FCA06BE16BB9
:1059C000884207D3022D05D00498D0B1B8F1000F5A
:1059D0001AD01EE02A4651462046FEF7EAFA616ACE
:1059E00019B104F1240000F079F920B13E60BFF351
:1059F0004F8FBFF36F8FFFF773FC012006B0BDE838
:105A0000F087FFF76DFC22E06846FFF76BFD4FF073
:105A10000108FFF765FCFFF703FEFFF741FC94F96F
:105A20004400401C01D184F8449094F94500401C86
:105A300001D184F84590FFF753FC04A9684600F0B3
:105A40002DF830B12046FEF7E7FB00F081F9002089
:105A5000D4E7FFF725FCA06BE16B884213D1FFF779
:105A60003FFC04F110000499FFF7E2FC2046FEF72A
:105A7000D3FB00F06DF900289ED13E60BFF34F8F3D
:105A8000BFF36F8F98E7FFF72BFC2046FEF7C4FBB0
:105A900000F05EF990E7000004ED00E070B50D46FF
:105AA000040019D005B3FFF7FBFB164AD16828683C
:105AB000431C0FD02368126A934202D062688A4264
:105AC0001AD96268891A814216D2401A2860204683
:105AD000FFF708FD002410E0502080F31188BFF389
