:020000040800F2
:10000000D018002099010008732300086721000818
:1000100071230008F1100008592A000800000000B0
:1000200000000000000000000000000001010008C6
:100030000B1100080000000045010008F52600082B
:10004000B3010008B3010008B3010008B3010008C0
:10005000B3010008B3010008B3010008DD11000876
:10006000E3110008E9110008EF110008B3010008CE
:10007000B3010008B3010008B3010008B301000890
:10008000B3010008B3010008B3010008B301000880
:10009000B3010008B3010008B3010008B301000870
:1000A000B3010008B3010008B3010008B301000860
:1000B000B3010008B3010008B3010008B301000850
:1000C000B3010008B3010008B3010008B301000840
:1000D000B30100084D2A0008B3010008B30100086D
:1000E000B3010008B3010008B3010008DFF80CD029
:1000F00000F0F8FD00480047713A0008D0180020D1
:10010000224B19680868B0E8F00F80F30988BFF344
:100110006F8F4FF0000080F311884EF00D0E704786
:100120000000000006480068006880F3088862B696
:1001300061B6BFF34F8FBFF36F8F00DF00BF00BF0B
:1001400008ED00E0EFF30980BFF36F8F0F4B1A68E3
:1001500020E9F00F106008B54FF0500080F31188CF
:10016000BFF34F8FBFF36F8F05F034F84FF00000EF
:1001700080F31188BDE8084019680868B0E8F00FFE
:1001800080F30988BFF36F8F704700BF4C000020D9
:10019000EFF3058070470000064880470648004797
:1001A000FEE7FEE7FEE7FEE7FEE7FEE7FEE7FEE727
:1001B000FEE7FEE76D270008ED000008202A04DBBB
:1001C000203A21FA02F00021704721FA02F3D040D0
:1001D000C2F12002914008431946704740EA0103EA
:1001E0009B0703D009E008C9121F08C0042AFAD2ED
:1001F00003E011F8013B00F8013B521EF9D27047B1
:10020000D2B201E000F8012B491EFBD27047002258
:10021000F6E710B513460A4604461946FFF7F0FF05
:10022000204610BD30B505460020034600E05B1CAB
:10023000934205D2EC5CC85C201A01D1002CF6D1A7
:1002400030BD00000FB400B58DB010A909900B901F
:1002500000914FF0FF300A9000200C900548069066
:10026000054807906A4609A80F9900F0F7FB0DB002
:100270005DF814FB790A0008970A00082DE9FF5F72
:100280001D464FF0FF3BD5E9014691465F464FF0D2
:100290000008A9697F1C01988847296A8246884717
:1002A0000028F6D1BAF1FF3F0CD024F4C064002E30
:1002B00019DD600614D5BAF12B0F09D0BAF12D0F54
:1002C0000ED103E0584604B0BDE8F09F44F48064CA
:1002D000A9697F1C01988847761E8246002E02DDA0
:1002E000BAF1300F03D0B9F1000F26D032E0A9697E
:1002F000761E44F400747F1C019888478246002EC5
:1003000005DDBAF1780F06D0BAF1580F03D0B9F174
:10031000000F10D01EE0B9F1000F02D0B9F1100F9C
:1003200018D1A969761E24F400747F1C01988847AF
:100330008246102002E0082000E00A20814609E001
:1003400008FB0908A969761E44F400747F1C019813
:1003500088478246002E05DD4946504600F06AFB7C
:100360000028EDDAE96901988847A00502D46FF00A
:100370000100A8E7E00725D1600613D5600502D586
:10038000C8F1000000E0404629680A1D2A6009689B
:10039000220501D5087015E0220701D5088011E07B
:1003A00008600FE02868011D29600068210502D55A
:1003B00080F8008006E0210702D5A0F8008001E067
:1003C000C0F8008038467EE72DE9FF5FD2E901A73B
:1003D0004FF00008916999461446DDF838B046465A
:1003E00001988847054659EA0B0005D009E0A16944
:1003F000761C019888470546216A284688470028C8
:10040000F5D1681C03D05FEACA7005D015E04FF043
:10041000FF3004B0BDE8F09F2068011D2160D0F8D6
:1004200000800AE05FEACA7001D108F8015BA169A7
:10043000761C7F1E019888470546002F1ADD681C30
:1004400018D0B9F1000F0DD0E81705EBD0604211BC
:1004500020F01F0059F822102A1A01209040014272
:10046000E0D107E0BBF1000FDCD1216A28468847C4
:100470000028D7D0E16901988847BBF1000F07D168
:10048000002E05DD5FEACA7002D1002188F8001055
:10049000A068B84203DDBBF1000F03D017B16FF0C5
:1004A0000100B6E73046B4E7F0B480EA0102D40FA9
:1004B0004200B2EB410F02D20246084611464A0002
:1004C00042D0C30DDDB2C1F3C752AD1A202D35DACB
:1004D000C1F3160141F4000204B15242C5F12006F5
:1004E00002FA06F12A411044B3EBD05F23D0C4B125
:1004F000012DA0EBC35009DCF0BC4FF0004202EA32
:10050000C352DBB200F5000000F0DFBA400000F19A
:10051000807000EBC350A0F1807040EAD1704900B8
:1005200009E0490841EAC071A0EBC35000F50000A2
:10053000400800EBC350F0BC00F0BEBA614201229B
:1005400002EB4101001BF6E7F0BC704781F000416F
:10055000AAE780F00040A7E780EA010210B502F0A8
:100560000043400022D04A001FD0010E01EB12616F
:10057000C0F35600C2F3560240F4000042F40002F9
:10058000A0FB022000047F39140400D0401C50EA74
:10059000124001D44000491EC2B20C0604EBD01038
:1005A000401C4008802A02D003E0002010BD20F04B
:1005B0000100002900DA0020184310BD420005D0D8
:1005C000C0F3C7525242914201DC0020704700EB59
:1005D000C15070472DE9FE4F804681EA0300C00FED
:1005E0000C46009021F0004123F00045B8EB0200DA
:1005F000A94105D24046214690461C460B4602467C
:1006000023F00040104347D0270DC7F30A00C3F37F
:100610000A510290401A019040286BDAC3F313008C
:1006200040F4801B0098924620B10023D2EB030ACD
:1006300063EB0B0B01985946C0F14002504600F0A5
:10064000D8F906460D4650465946019A00F0E0F9A1
:1006500010EB08006141002487EA115284EAE77335
:100660001A4340D0009A62B3019A012A4FEA075216
:1006700015DC001B61EB02014FF0004202EA075259
:10068000CDE90042001C41F5801132462B4600F0B6
:1006900059FA03B0BDE8F08F40462146F9E7001B48
:1006A00061EB0201001C41F5801300185B4120182A
:1006B000A2F5001747EB030140EAD570B6196D416A
:1006C00011E06D084FEA360645EAC0754FEA075259
:1006D000001B61EB0201001C41F5801149084FEA43
:1006E00030000019514132462B4603B0BDE8F04FAF
:1006F00000F019BA0098012240000023D0EB02025A
:1007000063EBE073009821464FEAE074B8EB000019
:1007100061EB0401E9E783F000435BE781F000410E
:1007200058E72DE9FE4F81EA030404F0004421F06C
:10073000004100944FF0000B23F0004350EA010405
:100740005ED052EA03045BD0C3F30A54C1F30A55E6
:100750002C44A4F2F3340194A0FB0254C1F313011E
:1007600041F48011C3F3130343F4801301FB0244EB
:1007700000FB034E840A970A44EA815447EA8357F0
:10078000A4FB076802958D0A05FB07854FEA932CA9
:1007900004FB0C542705029D4FEA065847EA16371A
:1007A000B5EB08056EEB070C870E920E47EA811732
:1007B00042EA8312A7FB0201B6EB0B0164EB0004D3
:1007C0002B0D43EA0C335E1844EB1C50DA465146BD
:1007D000E7FB0201C5F313044FEA0B3343EA14535A
:1007E0004FEA0432019C43EA0603A4F10C0402948C
:1007F000009CCDE900B400F0A5F903B0BDE8F08F8E
:1008000000200146F9E72DE9F04D81EA030404F0E8
:10081000004B21F0004514464FF0000A23F0004140
:1008200050EA050220D054EA01021DD0C5F30A5750
:100830000246C5F31303C1F31300C1F30A5640F493
:10084000801543F48013A7EB0608101BD64608F268
:10085000FD3873EB050002D308F1010801E092189E
:100860005B41B8F1000F03DA00200146BDE8F08DCE
:1008700000204FF48011064684460EE0171B73EBF0
:10088000050705D3121B63EB050306434CEA010C75
:1008900049084FEA300092185B4150EA0107EDD158
:1008A00052EA030012D082EA040083EA05010843F9
:1008B00005D0101BAB4106D20122002306E0002226
:1008C0004FF0004302E06FF0010253101AEB0600F4
:1008D0004CEB085110EB0A0041EB0B01BDE8F04D69
:1008E00000F021B90EB5C10F80EAE0700844CA07D4
:1008F000002140F233438DE80E000A460B4600F01B
:1009000021F903B000BD00F0004230F000400AD0F1
:10091000C10D01F56071C0F3160042EA0151C20831
:1009200040071143704700200146704701F0004323
:1009300030B421F0004150EA010206D00A0DA2F5C0
:100940006072C1F31301002A02DC30BC0020704742
:10095000440F44EAC104C100E01830BC00EBC250AF
:1009600000F0AAB830B50B46014600202022012431
:1009700009E021FA02F59D4205D303FA02F5491B6D
:1009800004FA02F52844151EA2F10102F1DC30BD83
:100990002DE9F05F0546002092469B4688460646B4
:1009A000814640241BE02846414647462246FFF741
:1009B00005FC53465A46C01A914110D311461846B9
:1009C000224600F016F82D1A67EB01084F46224622
:1009D0000120002100F00DF817EB00094E41201E08
:1009E000A4F10104DFDC484631462A464346BDE80F
:1009F000F09F202A04DB203A00FA02F10020704721
:100A00009140C2F1200320FA03F31943904070474C
:100A1000202A06DBCB17203A41FA02F043EAE073C2
:100A200006E041FA02F3D040C2F1200291400843AF
:100A3000194670473A2800D2303820F02002412A67
:100A400001D3A2F13700884201D34FF0FF30704745
:100A5000026811441378016018467047D160044958
:100A600051610449116200211161114600F052B92F
:100A7000510A0008090D0008426842B1016811F8E6
:100A8000013B23B1521EC0E90012184670470121F4
:100A9000C160881E704742685AB1C368016843B993
:100AA00083688B4205D0491E521CC0E90012002009
:100AB00070474FF0FF3070470029A8BF7047401CB7
:100AC000490008BF20F00100704710B4B0FA80FC64
:100AD00000FA0CF050EA010404BF10BC704749B1A1
:100AE000CCF1200421FA04F411FA0CF118BF012111
:100AF00021430843A3EB0C01CB1D4FEA00614FEAF1
:100B0000102042BF002010BC704700EBC3501044BF
:100B10000029A4BF10BC7047401C490008BF20F04A
:100B2000010010BC704710B5141E73F1000408DA00
:100B3000401C41F1000192185B411A4301D120F0A1
:100B4000010010BD2DE9F04D92469B4611B1B1FA5E
:100B500081F202E0B0FA80F220329046FFF749FFBE
:100B600004460F4640EA0A0041EA0B0153465A4642
:100B7000084313D0114653EA010019D0C8F14002CE
:100B80005046FFF71BFB05460E4650465946424667
:100B9000FFF72FFF084305D0012004E02046394627
:100BA000BDE8F08D0020054346EAE0762C4337434C
:100BB0000A986305E40AA0EB08000022FD0A44EA53
:100BC00047540A3002D500200146E9E70105101913
:100BD0006941DDE9084500196941BDE8F04DA2E72A
:100BE0002DE9F04D00231A461B1A8A4103DB002031
:100BF0000146BDE8F08DC1F30A52C1F3130141F47F
:100C000080154FF0000BD10702D100186D41521E24
:100C10000027044640F2FF11384601EB620A3E46C7
:100C20008046024600204FF48011FFF7C7FAC21930
:100C30007141BB1846EB0100B4EB030C75EB000CE3
:100C400004D3E41A65EB000517460E46241908F193
:100C500001006D4180463428E3DDF91946EB0600BA
:100C6000091BA84103D24FF0FF32134601E00022D6
:100C700013461BEB070046EB0A51BDE8F04DFFF7AA
:100C800052BFC1F30A52C1F3130140F2FF3341F4E2
:100C900080119A4202DA00200146704740F2334345
:100CA0009A42A2F2334202DC5242FFF787BAFFF7C0
:100CB000A0BE000030B5041E71F1000404DB4FF04B
:100CC0000044404264EB0101141E73F1000405DB93
:100CD0001C464FF00043524263EB0403994208BFA5
:100CE000904230BD064C074D06E0E06840F001033D
:100CF00094E8070098471034AC42F6D3FFF7FAF9AE
:100D0000B46C0008D46C0008C0B24FF4F05100F08D
:100D1000DBB900002DE9F34F8BB04FF0000801F173
:100D20000C000C464FF0010B46460DF1080A0190ED
:100D30006269012101989047051E2DD0252D2CD0E8
:100D4000216A8847C0B16269012101989047216AF0
:100D500088470028F7D1411E62690198904700E05A
:100D6000761CA1690B988847216A88470028F7D12B
:100D7000E1690B988847DBE7A1690B98884707462C
:100D8000A84201D1761CD3E7E1690B9888477F1C04
:100D900002D1B8F1000F6FD046E1002762693D46ED
:100DA0003946019890472A2804D1626901210198A7
:100DB00090470125DFF884926269012101989047EC
:100DC000A0F130010A290AD24F45E5DC07EB870183
:100DD00000EB4107303FDFD445F01005ECE7E906B2
:100DE00001D46FF000476C280AD04C2814D0682832
:100DF00015D06A280DD074281CD07A281AD01DE08E
:100E000062690121019890476C2802D045F00405E1
:100E100014E045F002050DE045F020050AE06269A6
:100E2000012101989047682802D045F0080505E0A7
:100E300045F400656269012101989047C4E90157B2
:100E400065283DD019DC58287AD00CDC452837D0ED
:100E500004DC252826D0412831D131E046282FD086
:100E600047282CD12CE05B2877D0612828D0632834
:100E70007CD0642823D15AE0D0E06F2848D008DC29
:100E800066281DD067281BD0692821D06E2816D16E
:100E900027E0702845D0732868D0752847D0782877
:100EA0000DD14DE0A1690B988847054625283FF4F0
:100EB00069AFE1690B9888476D1C3FF46AAFB3E0F6
:100EC00023466A466FF001000B99AFF300809EE065
:100ED00045F040006060A80723464FF0000236D47A
:100EE0003EE0E8077FF447AF2068011D21600068FD
:100EF000290501D506701BE7290701D5068017E7EC
:100F0000A90703D5F117C0E9006111E706600FE7F3
:100F100045F040006060A80723464FF0080216D451
:100F20001EE040F60E0125EA0100606016E045F083
:100F300040006060A80723464FF00A0207D40FE084
:100F400045F040006060A80708D5234610226FF0E6
:100F500001000B99AFF3008059E007E0234610220F
:100F60006FF001000B99FFF789F950E04FF000098D
:100F70004F464B46632802D05B2806D040E0E80687
:100F800001D40120A06001273AE0626901210198A3
:100F900090475E2805D14FF00109626949460198E2
:100FA0009047216939B900210A46534643F8212068
:100FB000491C0829FADBB0B3216969B9C11700EBF4
:100FC000D16253110AEB830122F01F02821A012021
:100FD0000B68904003430B606269012101989047C0
:100FE0005D28E8D1B9F1000F09D00020514651F831
:100FF0002020D24341F82020401C0828F7DB02AB18
:10100000224600976FF001000B99FFF7DDF90028E9
:101010000CDA401C08D1BBF1000F05D04FF0FF30B7
:101020000DB0BDE8F08FFFE74046F9E7E90701D1D1
:1010300008F1010806444FF0000B79E6CCCCCC0C4B
:1010400070B521F0004303430CD0C1F30A550024CE
:10105000D5EB040564EB0403D617AD1AB34102DBEC
:101060000020014670BD201841EB025170BD0EB545
:1010700040F2334102910021CDE900110A460B46AE
:10108000FFF760FD03B000BD70B5C1F30A5201F077
:1010900000450024C1F3130140F2FF3341F48011F5
:1010A0009A4201DA002070BD40F233439A42A2F224
:1010B000334203DC5242FFF781F800E090402C43BA
:1010C000F1D0404270BD00007F2801D9002208E025
:1010D000064A02EB5002C007127800D1120902F052
:1010E0000F0201209040084070470000506C00083B
:1010F000FEE7002800DA40420014404341F2C67186
:101100004843000EC0F1F60070477047081A0649C0
:10111000884201DD054905E003494942884202DA77
:10112000024949420844704700F36F06001A20F351
:1011300010B50B46044641685868FFF7E7FF0246C2
:1011400020681968084400EBD0704010FFF7D1FF09
:101150004243120A21681868FFF7D8FF002A00DA14
:101160005242002800DA4042824201D9114600E092
:10117000014600D21046A9B14FF06E0200FB02F208
:10118000B2FBF1F202FB00F202F1800201EB12204D
:10119000C0EB401101EB80104FEA5020A0F10A0192
:1011A0005B2900D3002010BD10B500F023F8FFF735
:1011B000AAFB064A064BFFF7B4FAFFF7B7FB05494F
:1011C000054A0144914200D3002010BD3480B7404D
:1011D00002E3B84091EDFCC55EBAC903022000F0FD
:1011E00005B9042000F002B9082000F0FFB8102073
:1011F00000F0FCB82DE9F05F05460C460868296848
:10120000401AFFF76FFBDFF8D090DFF8D0A04A4616
:101210005346FFF786FADFF8C8B000225B46FFF7B7
:10122000F2FA304A304BFFF77CFAFFF77FFB0646B5
:101230006968606802F0B8FFFFF754FB4A465346FE
:10124000FFF76FFA00225B46FFF7DDFA254A264BCF
:10125000FFF767FAFFF76AFB80464FF0FF31304631
:10126000FFF7ACF9FFF74FFB07460C462868FFF77E
:1012700039FB4A465346FFF754FA00225B46FFF714
:10128000C2FA184A184BFFF74CFA3A462346FFF7C2
:10129000A1F902F09FFB05460C464046FFF733FBE1
:1012A0002A462346FFF73DFAFFF740FB0446314646
:1012B0000846FFF751F9054621460846FFF74CF965
:1012C0002946FFF7F1F8FFF71EFB02F087FFBDE8A4
:1012D000F05FFFF72BBB00006F1283C0CA210940EB
:1012E0000080664048AFBC9AF2D77A3E10B590F8BD
:1012F00021100024022903D00421816301243DE050
:1013000001680A6822F00E020A6001680A6822F089
:1013100001020A601A4A0168914201D1012121E0CB
:10132000174A1432914201D110211BE0144A28328D
:10133000914201D1891515E0114A3C32914201D107
:1013400089140FE00E4A5032914202D14FF480319D
:1013500008E00B4A6432914202D14FF4801101E05F
:101360004FF08071064A083A5160012180F821103F
:10137000002180F82010416B01B18847204610BD44
:101380000800024031B500F025F9009C0546601CBC
:1013900000D0641C00F01EF9401BA042FAD338BDF7
:1013A00010B50D4C022810D0042810D0082810D0F9
:1013B000102809D16068FFF7A6FA084A084BFFF722
:1013C00009F9FFF7B3FA606010BD0648FBE706486D
:1013D000F9E70020F7E70000080000207B14AE4783
:1013E000E17AF43F0AD7CD410AD75341044910B5F9
:1013F0000A68024202D00860FFF7D2FF10BD000069
:10140000140401402DE9F84FDFF890A100220AF101
:10141000040B144601274FF00F090BF1040E00BF17
:101420000B6807FA04F52B40AB4274D1DFF870C1AA
:101430004E68A6EB0C0866452BD00DDC032E34D08D
:1014400005DC36B3012E19D0022E2FD11BE0112E50
:1014500016D0122E2AD119E0B8F5881F19D006DC53
:10146000B8F5803F15D0B8F5801F1FD111E0B8F551
:10147000001F0ED0B8F5041F18D10AE0CA6815E0A5
:10148000CA68121D12E0CA6808320FE0CA680C323E
:101490000CE08A682AB1012A4FF0080203D04561A6
:1014A00004E0042202E0056100E00022FF2B01D8E5
:1014B000064601E000F104064FEA840501D9A5F1D2
:1014C0002005D6F800C009FA05F82CEA080C02FA43
:1014D00005F54CEA050CC6F800C04D68ED0057D57F
:1014E000304DAE6946F00106AE61AD6924F00306E9
:1014F00005F0010500952C4D06EB050CDCF80850B5
:10150000A6074FEA167809FA08F6B543274EB04207
:1015100002D1002610E03BE0254EB04201D1012669
:101520000AE0244EB04201D1022605E0224EB0422C
:1015300001D1032600E0042606FA08F62E43CCF873
:1015400008604D68DAF80060ED03554601D51E438A
:1015500000E09E432E604D68DBF80060AD035D4601
:1015600001D51E4300E09E432E604D68DEF800600A
:10157000ED02754601D51E4300E09E432E604D6886
:10158000AD020E4D2E6801D51E4300E09E432E6035
:10159000641C102CFFF444AFBDE8F88F0004014038
:1015A000000011100010024000000140000801403E
:1015B000000C014000100140001401400C040140E7
:1015C000C2684A40C26070470AB1016170470904AD
:1015D000FBE700000148006870470000040000209D
:1015E00002480168491C01607047000004000020A7
:1015F000074810B5016841F010010160032000F0B8
:101600008BF80F2000F006F800F018F8002010BD4D
:101610000020024010B5044607484FF47A71006874
:10162000B0FBF1F000F038FC00222146501E00F023
:1016300053F8002010BD0000000000201E4808B52F
:10164000816941F001018161806900F00100009031
:10165000032000F061F8002211466FF00B0000F04B
:101660003BF8002211466FF00A0000F035F8002226
:1016700011466FF0090000F02FF800221146501FAC
:1016800000F02AF800221146101F00F025F8002271
:101690000F21901E00F020F800220F21501E00F0B4
:1016A0001BF80648416821F0E0614160416841F063
:1016B0000071416008BD00000010024000000140C0
:1016C00000F01F02012191404009800000F1E0205C
:1016D000C0F8001170470000F0B40E4B1B680C46B8
:1016E000C3F30223C3F10705042D00D90425191DF6
:1016F000072901D2002300E0DB1E012606FA05F1CE
:10170000491E214099409E40761E16403143F0BC50
:1017100000F030BE0CED00E0064900F0070208685A
:101720004FF6FF03184040EA0220034A10430860C6
:10173000704700000CED00E00000FA052DE9F047CD
:10174000DFF83C8105460E46D8F8000000F007009F
:10175000B0420CD2D8F8001021F007013143C8F88C
:101760000010D8F8000000F00700B04263D12878DC
:10177000444C800705D56068A96820F0F000084354
:1017800060602878C00745D06868012816D02168B5
:10179000022816D0890700294DDA616821F003017B
:1017A00001436160FFF716FF6968074641F2883020
:1017B00001290FD00229814619D027E02168890329
:1017C000E9E78901E7E700BFFFF704FFC11B4945CF
:1017D00001D918E081466068C0F381000128F3D187
:1017E00018E000BFFFF7F6FEC11B49450BD8606843
:1017F000C0F381000228F5D10CE000BFFFF7EAFE3C
:10180000C11B494502D90320BDE8F087606810F08C
:101810000C0FF3D1D8F80010404601F00701B14297
:101820000BD9016821F0070131430160006800F025
:101830000700B04201D00120E6E72878400705D52F
:101840006068E96820F4E060084360602878000779
:1018500006D56068296920F4605040EAC1006060E4
:1018600000F03CF86168084AC1F30311515CC840BC
:10187000064908600F20FFF7CDFE0020C4E70000F6
:101880000020024000100240805A000800000020A2
:101890000148006870470000000000200448054926
:1018A00000684968044AC1F30221515CC84070478E
:1018B0000000002000100240905A0008044805492A
:1018C00000684968044AC1F3C221515CC8407047AE
:1018D0000000002000100240905A000810B512A32A
:1018E00085B00FCB8DE80F0013A0144B0068049057
:1018F0005A68134802F00C0104290FD008290DD1B1
:10190000C2F38344D2031DF8041009D55A6804AB0E
:10191000C2F340429A5CB0FBF2F0484305B010BD00
:1019200008484843FAE700000203040506070809CF
:101930000A0B0C0D0E0F10100102000000100240E7
:1019400000127A0000093D002DE9F84F04460078A6
:10195000B94DC00748D06868C0F38100012807D09E
:101960006868C0F38100022809D16868C00306D501
:101970002868800338D5606800286FD034E060683C
:10198000B0F5803F0BD010B1B0F5A02F11D0286872
:1019900020F480302860286820F4802002E0286845
:1019A00040F480302860606888B1FFF713FE064677
:1019B00009E0286840F480202860F0E7FFF70AFE7D
:1019C000801B642875D828688003F7D50CE0FFF7E2
:1019D00001FE064605E000BFFFF7FCFD801B642802
:1019E000F0D828688003F7D42078944E80074FF011
:1019F00001094FF000083BD5686810F00C0F07D0C4
:101A00006868C0F38100022809D16868C00306D461
:101A10002868800714D5206901281FD110E02069AB
:101A2000B0B1C6F80090FFF7D5FD074605E000BF4E
:101A3000FFF7D0FDC01B0228C4D828688007F7D55F
:101A40002868616920F0F80040EAC10028600FE0D2
:101A5000C6F80080FFF7BEFD074606E0E9E000BFDC
:101A6000FFF7B8FDC01B022823D828688007F7D4E9
:101A7000207800072CD57248A169D9B1C0F8009030
:101A8000FFF7A8FD074604E0FFF7A4FDC01B0228EE
:101A90000FD8686A8007F7D56A484FF4FA51006892
:101AA000B0FBF1F0009000BF0098411E0091FAD207
:101AB0000EE080E0C0F80080FFF78CFD074604E0F0
:101AC000FFF788FDC01B022875D8686A8007F7D425
:101AD0002078400760D5E8690027C00008D4E8698D
:101AE00040F08050E861E869012700F080500090E4
:101AF00055480168C90513D40168834641F48071D3
:101B00000160FFF767FD824606E000BFFFF762FD58
:101B1000A0EB0A0064284ED8DBF80000C005F5D51C
:101B2000E06801280AD008B1052813D0286A20F0FF
:101B300001002862286A20F0040002E0286A40F0D0
:101B400001002862E06841F2883B98B1FFF742FD4E
:101B500082460BE0286A40F004002862EEE700BFEE
:101B6000FFF738FDA0EB0A0159455AD8286A8007CB
:101B7000F6D50CE0FFF72EFD824605E0FFF72AFDC3
:101B8000A0EB0A0159454CD8286A8007F6D41FB14A
:101B9000E86920F08050E861E06988B36968C1F3C2
:101BA0008101022945D00228C6F8608004D0FFF7E1
:101BB00011FD044638E034E0FFF70CFD074604E071
:101BC000FFF708FDC01B02282BD828688001F7D436
:101BD000206AB0F5803F05D16868A16820F4003024
:101BE00008436860D4E908010843696821F4741166
:101BF00008436860C6F86090FFF7ECFC044606E016
:101C000015E000BFFFF7E6FC001B022809D8286892
:101C10008001F7D50BE000BFFFF7DCFC001B0228BA
:101C200002D90320BDE8F88F28688001F4D4002091
:101C3000F8E70120F6E700000010024000004242F1
:101C400080044242000000200070004090F85100E3
:101C5000704770B5040005D00025A56294F85100C6
:101C600010B104E0012070BD204600F033F80220DE
:101C700084F851002068016821F040010160D4E936
:101C800001010843D4E90312114308436169084381
:101C9000218B01F400710843E1690843216A08437C
:101CA000A16A084321680860A069042101EA104084
:101CB000616A0843216848602168E06A0861206819
:101CC000C16921F40061C1616565012084F851009A
:101CD000002070BD00B500680C4985B0884213D162
:101CE0000B48C16941F48041C161C069694600F493
:101CF000804004904FF42040009002200190032087
:101D000003900448FFF77EFB05B000BD003800409B
:101D100000100240000C01402DE9F84F044690F8F5
:101D200050000026994617460D4601280DD04FF069
:101D3000010B84F850B0FFF74DFC804694F8510039
:101D4000B246012804D0022694E00220BDE8F88FB4
:101D5000002D7BD0002F79D0032084F85100C4F8E7
:101D600054A02563A786E786C4F838A0A4F83CA051
:101D7000A4F83EA0C4F844A0C4F840A0A068B0F500
:101D8000004F04D12068016841F48041016020685F
:101D90000168490603D4016841F040010160E06830
:101DA000B0F5006F606804D030B3E08E012823D016
:101DB0003EE010B1E08E01281AD135F8021B2068F0
:101DC00005E020688168890706D535F8021BC160E7
:101DD000E08E401EE0860BE0B9F1000F34D0B9F17F
:101DE000FF3F05D0FFF7F6FBA0EB080149452BD2DA
:101DF000E08E0028E5D11EE0216815F8010B08737C
:101E000006E020688168890706D515F8011B017373
:101E1000E08E401EE0860BE0B9F1000F14D0B9F15E
:101E2000FF3F05D0FFF7D6FBA0EB080149450BD2D9
:101E3000E08E0028E5D14B46012202212046CDF854
:101E4000008000F089FB10B1032613E011E0424648
:101E50004946204600F070FB18B10126202060653D
:101E600008E0A06818B92068C16880680090606DBB
:101E700000B1012684F851B084F850A0304665E7DF
:101E80004FF0E0210428086903D020F00400086125
:101E9000704740F00400FAE710B5401EB0F1807FB3
:101EA00001D3012010BD4FF0E02460610F216017C5
:101EB00000F060FA0020A06107202061002010BD22
:101EC0007047000070B5026804461068D168536915
:101ED00010F00F0F50D003F0010501F49076354358
:101EE0005DD0C20705D0CA0503D5E26B42F00102FE
:101EF000E263420705D5DA0703D0E26B42F0020243
:101F0000E263820705D5DA0703D0E26B42F00402F0
:101F1000E263020705D5DA0703D0E26B42F008025C
:101F2000E263E26B002A33D0800604D5880602D52E
:101F3000204600F055FC20684069E16BC0F380103A
:101F4000090700D428B3204600F03CFC2068416912
:101F500049061AD5416921F040014161606BA0B189
:101F60001B494163606BFFF7C1F9002810D0606B1B
:101F7000416BBDE870400847830610D58B060ED52F
:101F80002046BDE8704000F02BBC2046FFF798FFCC
:101F900070BD2046FFF794FF0020E06370BD03068C
:101FA00006D50B0604D52046BDE8704000F01CBDE8
:101FB0004006F3D54806F1D5D168204621F040010E
:101FC000D160202184F8391000F0CCF870BD0000F9
:101FD000B527000870B5040004D094F83900002536
:101FE00010B106E0012070BD84F83850204600F0A2
:101FF00023F8242084F839002068C16821F40051B6
:10200000C160204600F038FC2068016921F490414D
:1020100001612068416921F02A0141612068C1689D
:1020200041F40051C160E563202084F8390084F850
:102030003A00002070BD000010B50068154986B058
:10204000884225D11448816941F4804181618069C9
:10205000124C00F4804004904FF400700090022075
:1020600001900320039069462046FFF7CBF9002139
:102070002015CDE90001029169462046FFF7C2F91B
:10208000002205212520FFF727FB2520FFF718FB5D
:1020900006B010BD003801400010024000080140A9
:1020A00090F83A30202B22D1F9B1F2B190F83830C3
:1020B000012B1CD081628285C2850021C16322224E
:1020C00080F83A2080F838100168CA6842F48072BB
:1020D000CA6001684A6942F001024A610068C16849
:1020E00041F02001C16000207047012070470220AC
:1020F0007047000010B5154C0021E16000681449DC
:10210000884221D141141348FFF75AFA21780A294D
:102110000BD0114A60781154401C60702146BDE814
:10212000104001220D48FFF7BBBF0849E0690C31A0
:1021300003F09CFAE068012806D10949000708600D
:10214000BFF34F8FBFF36F8F10BD0000080000205A
:102150000038014000100140E4050020080500207F
:1021600004ED00E07047FEE730B591B00025012195
:102170000FA80F9501F0BAFC144C0121E06110A8E2
:10218000109501F0B3FC2062142211496846FEF755
:1021900025F80021684601F0C6FC0D492061142293
:1021A000143105A8FEF71AF8002105A801F0BBFCC0
:1021B00007496061142228310AA8FEF70FF80021B0
:1021C0000AA801F0B0FCA06111B030BD08000020E9
:1021D000946A00082DE9F041374886B0816941F0E2
:1021E00010018161816901F010010491816941F060
:1021F00020018161816901F020010491816941F030
:1022000004018161816901F004010491816941F057
:10221000080181618069294F00F008004FF40054E3
:102220000490002221463846FFF7CEF9DFF890806F
:102230004FF4A046002231464046FFF7C5F900940E
:10224000012402256946384603950194FFF7DAF820
:102250001E2000901B48CDE9010469461A48FFF78B
:10226000D1F8CDE90064694640460395FFF7CAF806
:10227000002205210720FFF72FFA0720FFF720FA99
:10228000002205210820FFF727FA0820FFF718FA97
:10229000002205210920FFF71FFA0920FFF710FA95
:1022A000002205210A20FFF717FA0A20FFF708FA93
:1022B00006B0BDE8F08100000010024000100140AF
:1022C000000C01400000211000080140104810B52A
:1022D0000E4901604FF48271416000218160C1604C
:1022E0004FF400720161C0E90512C16101624162EF
:1022F00081620A21C162FFF7ACFC002805D0BDE86D
:1023000010404F2103A000F0A8BB10BD00380040D2
:10231000B00000202E2E2F5372632F7370692E632E
:10232000000000000D4810B50B4901604FF4165134
:102330004160002181600C22C160C0E9041281610A
:10234000C161FFF747FE002805D0BDE810404C21D1
:1023500003A000F082BB10BD00380140080500203A
:102360002E2E2F5372632F75736172742E630000CB
:10237000FEE770470907090E002806DA00F00F0093
:1023800000F1E02080F8141D704700F1E02080F893
:10239000001470472DE9FF41504E17460C46054684
:1023A000326812E0F168491CF16003782A2B08D0EA
:1023B0002C2B09D1736842F823107168491C716095
:1023C00002E0B168491CB160401C01780029E9D1E4
:1023D00000207060B060F060062241A12846FDF741
:1023E00021FF002868D104F11001081FCDE9000188
:1023F000306804F10803221D00683BA12844FDF762
:1024000021FF306822463CA140682844FDF71AFFAE
:1024100004F11C000090306804F118031A1F806852
:1024200036A12844FDF70EFF306803AB02AA80688E
:1024300035A12844FDF706FF029840F63541484390
:10244000039904F1200201EB4010386030682AA1A2
:10245000C0682844FDF7F6FE04F12C0000903068B7
:1024600004F128031A1F006929A12844FDF7EAFE98
:10247000306803AB02AA006923A12844FDF7E2FEFD
:10248000029840F635414843039904F1300201EBCC
:1024900040107860306818A140692844FDF7D2FEEA
:1024A00004F14C000090306804F148031A1F006AE0
:1024B0001AA12844FDF7C6FE06221BA12846FDF7F7
:1024C000B1FE002808D1306804F138031A1F806972
:1024D00017A12844FDF7B6FEBDE8FF813C000020AF
:1024E00024474E524D430000253264253264253284
:1024F000642E253264000000256300002532642527
:1025000032642E25356400002535642E253564009F
:102510002533642532642E25356400002532642578
:10252000326425326400000024474E5654470000B0
:102530002533642E2532640038B50B4600920446DC
:102540000022802100F008F8002804D0606D40F0DF
:1025500020006065032038BD2DE9F0411D46174677
:102560000E460446DDF8188035E0681C33D02DB1E6
:10257000FFF730F8A0EB0800A8422CD32068416890
:1025800021F0E00141606068B0F5827F0BD1A06866
:10259000B0F5004F02D0B0F5806F04D1206801681B
:1025A00021F040010160A06AB0F5005F0AD1206807
:1025B00001684DF6FF72114001602068016841F426
:1025C00000510160012084F85100002084F850007F
:1025D0000320BDE8F0812068806836EA000004D05E
:1025E0000020B842C1D10020F3E70120F9E7000044
:1025F000012228492848FFF753FD264CDFF89C802C
:102600004FF0FF39002604F12C0704F124050023C4
:102610004A461946E06902F07FFE1E4A1F492C32E5
:10262000A1F1C800FFF7B6FE98F8000056281DD0AB
:102630002868D8B117492C31A1F10800FEF7B4FD84
:102640006168FDF731FF16496060884200DD666011
:1026500010492C31A1F10800FEF76AFDA168084479
:1026600042F21071A060884200D9A66038682860E4
:10267000786868606670012206490748FFF710FD18
:1026800000231A461946206A02F040FF012001F09B
:1026900021FABCE70800002008050020AC06002055
:1026A000E1FAC742012001F015FAFBE70E4C4FF0AA
:1026B000FF3500232A461946206A02F02DFE0B48FA
:1026C00001F0B2FDD4E90101094A01F0F9FC074823
:1026D00001F036FE00231A461946206A02F016FF62
:1026E000642001F0F7F9E4E7080000205805002015
:1026F000AC06002010B5FEF773FFBDE8104001F0F6
:1027000008BA30B58FB001210804CDE900100024CB
:10271000029402250491CDE907504FF4E01009908E
:102720006846FFF711F900B1FEE70F20CDE90A0571
:102730004FF4E060CDE90C4002210AA80E94FEF7A8
:10274000FDFF00B1FEE7FFF7A3F84FF47A71B0FB8D
:10275000F1F0FFF7A1FB0420FFF792FB00220F210D
:10276000501EFEF7B9FF0FB030BD00000D480168E4
:1027700041F00101016041680B4A1140416001686C
:102780000A4A11400160016821F48021016041681A
:1027900021F4FE0141604FF41F0181600449C00330
:1027A00008607047001002400000FFF8FFFFF6FECF
:1027B00008ED00E010B5406A0021C185C184FFF733
:1027C0007FFB10BD0168CA6822F49072CA6001687C
:1027D0004A6922F001024A61202180F83A107047CC
:1027E00010B590F83A10222901D0022010BD81685E
:1027F000B1F5805F11D00169002901681FD04968D7
:1028000001F07F03816A4A1C82620B70C18D491EF0
:102810000904090CC18518D02BE00269816A002ADD
:102820000268526805D0D2B20A80816A491C81626E
:10283000ECE7C2F308020A80816A891CF7E74A685C
:10284000816A4B1C83620A70E0E70168CA6822F063
:102850002002CA600168CA6822F48072CA600168F6
:102860004A6922F001024A61202180F83A10FFF7FC
:1028700041FC002010BD00002DE9F0410446006835
:102880000169E26821F44051114301612169A068A6
:102890000843616908432168CA6841F20C639A439E
:1028A0000243CA6020684169A26921F44071114362
:1028B00041614C4920686425322688423CD1FEF7AC
:1028C000FDFF00EBC00101EB001061688900B0FB67
:1028D000F1F7FEF7F3FF00EBC00101EB00106168B8
:1028E000B0468900B0FBF1F0B0FBF5F06FF01801D5
:1028F000484307EB800106EB0110B0FBF5F000F058
:10290000F006FEF7DBFF00EBC00101EB0010616891
:102910008900B0FBF1F0B0FBF5F006EB0016FEF716
:10292000CDFF00EBC00101EB001061688900B0FB36
:10293000F1F7FEF7C3FF3BE0FEF7B0FF00EBC0018D
:1029400001EB001061688900B0FBF1F7FEF7A6FF0C
:1029500000EBC00101EB00106168B0468900B0FBDC
:10296000F1F0B0FBF5F06FF01801484307EB800180
:1029700006EB0110B0FBF5F000F0F006FEF78EFF5D
:1029800000EBC00101EB001061688900B0FBF1F0C1
:10299000B0FBF5F006EB0016FEF780FF00EBC00180
:1029A00001EB001061688900B0FBF1F7FEF776FFDC
:1029B00000EBC00101EB001061688900B0FBF1F091
:1029C000B0FBF5F06FF01801484307EB800108EB0E
:1029D0000110B0FBF5F0216800F00F003044886072
:1029E000BDE8F0810038014090F83910212901D06C
:1029F000022070478168B1F5805F016A0BD04A1CE4
:102A00000262026809785160C18C491E0904090CF0
:102A1000C1840ED017E009880268C1F30801516033
:102A200001690029016A02D0491C0162ECE7891C96
:102A3000FBE70168CA6822F08002CA600068C168CA
:102A400041F04001C1600020704700000148FFF7DD
:102A500039BA000008050020FEE7FEE70FB4084B76
:102A600010B504A902AA039800F018FC044602A9B4
:102A7000002000F0AAFF204610BC5DF814FB000007
:102A8000CB390008490050EAC12018BF04204A0D84
:102A900018BF40F0010040F2FF72B2EB515F08BF77
:102AA00040F00200012808BF052070472DE9F74FCC
:102AB000144694B00021C4E902111599079121F040
:102AC0000045C9498D4206DC1599C4E9000117B0DB
:102AD0000020BDE8F08FC549DFF814A3A9423CDD12
:102AE0000799C44E0029C44FC44A1599534619DDAD
:102AF000FDF711FE554506D0C14AC24BFDF70BFE4E
:102B0000C4E900010AE04FF0D352BE4BFDF703FECB
:102B100032463B46FDF7FFFDC4E9000117B0012036
:102B2000BDE8F08FFDF756FD554506D0B44AB54BCC
:102B3000FDF750FDC4E900010AE04FF0D352B14B5C
:102B4000FDF748FD32463B46FDF744FDC4E9000170
:102B500017B04FF0FF30BDE8F08FAB49A94215998F
:102B600078DB21F0004183468846A84AA84BFDF750
:102B7000D8FD0022A74BFDF72DFDFEF785FA099041
:102B8000FDF7B0FE06460F469C4A5346FDF7C9FDC9
:102B900043465A46FDF7C2FD80468A46984A994BFD
:102BA00030463946FDF7BDFD2A0D01250B92424600
:102BB0005346FDF7B3FD032DC4E9000139D00B984E
:102BC000C1F30A51401A05EB45111139814230DA3F
:102BD0009148C346784400EB0510CDF80CA00C904A
:102BE000D0E9002330463946FDF79BFD02460B46EF
:102BF0000491069058460399FDF78DFD80468A465C
:102C000002460B4658460399FDF785FD049B069A3C
:102C1000FDF781FD83460C9803913946D0E90223E4
:102C20003046FDF77EFD5A46039BFDF774FD6D1C93
:102C3000BDE707980028A2BF099817B0BDE8F08F3C
:102C4000616881F000416160099817B04042BDE8B9
:102C5000F08FFFE784461598C1F31301C0F30A50C3
:102C6000A0F2F5304FEA601800F01F06C6F1200010
:102C7000139000200690079041F4801E05206D46B9
:102C800076B1664A08EB00017A4452F8213002EB33
:102C90008101B3404A68139922FA01F1194305E012
:102CA0005F4908EB0002794451F82210A1FB0E277E
:102CB000A1FB0C131A449A4234BF0123002303EBF7
:102CC000070A05EB8003D3E901B70F448F4234BFF5
:102CD0000121002193448B4411B1934502D903E0B3
:102CE000934501D2012100E00021C3E901B751441D
:102CF00045F82010011EA0F10100C1DC0298059FDB
:102D000000F10050800F12900298DDE90356800018
:102D1000FDF7E8FD834628460D91FEF7A8F96FF010
:102D20001D02FEF78DF9CDE90E013046FEF79FF941
:102D30006FF03D02FEF784F980468A463846FEF77A
:102D400096F96FF05D02FEF77BF90746424653465F
:102D50001191FDF73FFCDDE90E23FDF73BFC5A46E0
:102D60000D9BFDF737FC00250E465A4628460D9B65
:102D7000FDF7D1FCDDE90E23FDF7CDFC42465346BD
:102D8000FDF7C9FC3A46119BFDF7C8FCDFF898A097
:102D9000244A5346FDF7C5FC07468846234A244B80
:102DA00031462846FDF7BDFC3A464346FDF712FC86
:102DB000074688464FF0A842534631462846FDF75D
:102DC000B0FC3A464346FDF705FC159A12F0004F59
:102DD00004D0129A81F0004152421292C4E90001DB
:102DE000129817B0BDE8F08FFB21E93F7CD9024073
:102DF000FB21F93F7370032E8A19A33B0000405456
:102E00003163621A61B4D03DFB21394183C8C96D79
:102E1000305FE43F0000E03F883F0000043F0000D7
:102E2000E63E0000182D4454FB21F93D3326A6113F
:102E3000460B113C2DE9FF4D21F0004807460C469A
:102E4000B8F1795F08DAFEF71FF9002801BF00200A
:102E5000324904B0BDE8F08D3A4623461046194683
:102E6000FDF75FFC054602462D480E460B4606213F
:102E7000784400F05DF82A463346FDF752FCDDE960
:102E8000022382468B4638462146FDF74AFC04461B
:102E90000F4652465B4628463146FDF742FC224625
:102EA0003B46FDF738FC07468A464FF0FF3228467E
:102EB0003146FEF7C5F81B4A90450ADA3A465346B2
:102EC000FDF729FC04B00022BDE8F04D134BFDF7DF
:102ED00025BC154A4245A8BFA8F500154FF00004CF
:102EE000B8BF124D22462B46FDF715FC0646884614
:102EF00022462B4600200949FDF70DFC04460D46ED
:102F00003A46534630464146FDF705FC04B022469A
:102F10002B46BDE8F04DFDF701BC00000000F03F7E
:102F2000BC3C00003333D33F0000E93F0000D23FF8
:102F30002DE9F0414F1E00EBC7010446D1E9000125
:102F400015461E4637F006020DD02A463346FDF7D9
:102F5000E8FB7F1E04EBC703D3E90023FDF73AFB30
:102F600037F00602F1D1022F25D0042F13D0062FFF
:102F700018BFBDE8F0812A463346FDF7D2FBD4E9FD
:102F80000A23FDF727FB2A463346FDF7CAFBD4E99F
:102F90000823FDF71FFB2A463346FDF7C2FBD4E9A1
:102FA0000623FDF717FB2A463346FDF7BAFBD4E9A3
:102FB0000423FDF70FFB2A463346FDF7B2FBD4E9A5
:102FC0000223FDF707FB2A463346FDF7AAFBD4E9A7
:102FD0000023BDE8F041FDF7FDBA00002DE9FF4DEB
:102FE000054621F0004084B00C46B0F1795F0BDA61
:102FF0002846FFF747FD042808BF00F06FF8284671
:1030000008B02146BDE8F08D2A460B461046FDF774
:1030100088FB06460F462A462346FDF782FB80467C
:1030200026488A4632463B4605217844FFF780FF12
:1030300083461098029160B3214A224B4046514684
:10304000FDF76FFBCDE900015A4640465146029B11
:10305000FDF767FB82468846DDE906014FF0FF3247
:10306000FDF7EEFF52464346FDF755FB32463B4621
:10307000FDF757FBDDE90623FDF74DFBDDE90023F6
:10308000FDF749FB08B02A462346BDE8F04DFDF7A1
:1030900045BB0B465A4630463946FDF742FB084AC7
:1030A000084BFDF797FA42465346FDF73AFB08B046
:1030B0002A462346BDE8F04DFDF78CBAFA3B0000E6
:1030C000495555555555C5BF0122FDF7B9BF0022D9
:1030D000134610461146FDF796BB0000024A002039
:1030E0001107FDF7ADBF000001FDFFFF02E008C8BA
:1030F000121F08C1002AFAD170477047002001E072
:1031000001C1121F002AFBD170470000014908606D
:1031100070470000AC0000202DE9FF5F82B0002165
:10312000DDE90430020DDDF840B0034318D044F669
:103130001050A2F2FF3242431514119801281FD0FB
:10314000A5EB0B00401C5FEA000A4FF000064E4F53
:10315000DFF83891B046504615D5CAF1000413E0A7
:10316000119801244AA3012801D16FEA0B010298AA
:10317000119AC0E90031C0E9024206B0BDE8F09FF3
:10318000CBF10000DFE704460021404A491842EB3A
:103190000450CDE9001012E0E00707D032463B466C
:1031A00040464946FDF7BDFA8046894632463B46D1
:1031B00010461946FDF7B5FA06460F466410002C76
:1031C000EAD1DDE90401DDE90023BAF1000F06DAF6
:1031D000FDF7A7FA42464B46FDF7A3FA05E0FDF7D7
:1031E00012FB42464B46FDF70EFB04460E460022FC
:1031F000284BFDF75FFD03D84FF0FF30014607E095
:103200000022254B20463146FDF7E4F9FDF739FD54
:10321000102409E0002C0ADB0A220023FDF7B8FB8A
:10322000039B30321A55641E50EA0102F2D1641C2D
:10323000039AC4F111031444119A012A03D0012204
:1032400008430DD10AE0084304D000204FF0110BD1
:10325000119072E7A3EB0B056D1E0DE05B4504DDDD
:103260004FF0000205F1010504E003DA4FF000021F
:10327000A5F10105002AECD002981199C0E90231AC
:10328000C0E9004579E70000000014400000F03F6D
:10329000300000000000F0430000E03F2DE9FF4F48
:1032A00095B09B468946064600250FE2252877D132
:1032B00000242746F84A0121059400E0044316F84B
:1032C000013F203B01FA03F01042F7D130782A2861
:1032D00011D06FF02F033078A0F13002092A16D8F0
:1032E000059A44F0020402EB820203EB420210440E
:1032F000761C0590EFE759F8042B0592002A03DAB3
:10330000504244F40054059044F00204761C307896
:103310002E2816D116F8010F44F004042A280DD0E7
:103320006FF02F023078A0F13003092B09D807EB9A
:10333000870302EB4303C718761CF3E759F8047BB5
:10334000761C30786C280FD006DC4C2817D0682803
:103350000DD06A2814D104E0742810D07A280FD137
:103360000DE044F400140AE044F4801401E044F455
:1033700040147278824202D104F58014761C761CC7
:10338000307866280BD013DC582877D009DC002869
:1033900075D04528F6D04628F4D047281AD19DE1AB
:1033A00018E0632835D0642879D0652812D195E1DA
:1033B000702873D008DC6728F1D069286FD06E2898
:1033C0000DD06F2806D1B5E073282CD0752875D0A4
:1033D000782874D05A46179990476D1C75E1C4F34C
:1033E0000250022809D003280DD0D9F80010042873
:1033F0000DD00D6009F1040967E1D9F80010EA1752
:10340000C1E90052F6E7D9F800100D80F2E70D701F
:10341000F0E719F8041B8DF8001000208DF801006A
:10342000EA46012003E059F804AB4FF0FF30610792
:103430004FF0000102D40DE008F101018846B942C5
:103440000FDA8045F8DB1AF808100029F4D108E0FB
:1034500008F1010188468142FADB1AF808100029B8
:10346000F6D105985B46A0EB080721463846179A27
:1034700000F094FA284400EB080507E04DE029E14C
:103480000DE01AF8010B5A4617999047B8F1010858
:10349000F7D25B4621463846179A13E142E00A22EA
:1034A0000092C4F302524FF0000A022A08D059F8E1
:1034B00004CB032A4FEAEC710AD00DE029E02AE0A0
:1034C00009F1070121F00702F2E802C1914609E083
:1034D0000FFA8CFC4FEAEC71042A03D14FFA8CFCF2
:1034E0004FEAEC71002907DA0A460021DCF1000CF2
:1034F00061EB02012D2202E0220504D52B228DF87A
:103500000420012203E0E20701D02022F7E79046E1
:1035100059E00A2102E010220DE010214FF0000ACC
:1035200000910BE010224FF0000A44F00404082739
:10353000009203E008224FF0000A0092C4F3025206
:10354000022A05D059F804CB0021032A08D009E04B
:1035500009F1070121F00702F2E802C1914605E0F6
:103560001FFA8CFC042A01D10CF0FF0C4FF000086C
:10357000220728D5702806D0009B83F0100353EA59
:103580000A0305D00EE040228DF80420012208E055
:103590005CEA010206D030228DF804208DF8050087
:1035A00002229046009B83F0080353EA0A030AD1E3
:1035B0005CEA010201D1620705D530228DF80420B2
:1035C0004FF001087F1E582804D034A003900EA8A5
:1035D00002900DE036A0F9E753466046009AFDF7E9
:1035E000D7F984460398825C0298401E02900270CC
:1035F0005CEA0100F0D1029806A9081A00F1200A3D
:10360000600702D524F4803400E00127574502DD2D
:10361000A7EB0A0000E0002000EB0A0100900598EB
:103620004144401A0590E00306D45B462146179AB0
:10363000059800F0B3F90544002706E001A85A46B2
:10364000C05D179990476D1C7F1C4745F6DBE00372
:103650000CD55B462146179A059800F09FF9054462
:1036600004E030205A46179990476D1C0099481E77
:1036700000900029F5DC08E0029802995A4600788B
:10368000491C0291179990476D1CBAF10001AAF1EB
:10369000010AF1DC65E10000092801003031323314
:1036A000343536373839616263646566000000007E
:1036B0003031323334353637383941424344454668
:1036C0000000000000F058F90544761C307800280E
:1036D0007FF4ECAD19B02846BDE8F08F620700D446
:1036E000062709F1070222F0070CFCE80223E14655
:1036F00003F000485FEA080C02D00FF2702C0DE0D6
:103700005FEA045C02D50FF2682C07E05FEAC47C34
:1037100002D00FF2602C01E0AFF2700C4FF0FF38D6
:1037200023F00043CDF850C065280CD006DC4528B6
:1037300009D046281DD047283DD13DE0662818D045
:1037400067287ED138E00021112F01DB112000E035
:10375000781CCDE9000106A90EA8FFF7DDFCDDE924
:103760000F010E9A03910021009207F1010A0491C2
:103770004DE04FF000400097CDE9011006A90EA8DA
:10378000FFF7CAFCDDE90F0203920E9B119900229C
:10379000DDF80CA00093049211B9791C00EB010A2A
:1037A000B7EB0A0004D4C0F1FF3007F1010A04901E
:1037B000AAEB0700019044E0012F00DA0127002165
:1037C000112F01DD112000E03846CDE9000106A9E6
:1037D0000EA8FFF7A1FCDDE90F010E9A039100216D
:1037E00004910092BA4621070CD40399514500DA9E
:1037F0008A46BAF1010F05DD009AAAF10101515C78
:10380000302908D0B84202DA10F1040F06DA01219B
:10381000CDE9011015E0AAF10101E9E7002805DC76
:10382000049901440491AAEB000102E0411C5145B6
:1038300000DD8A460499401A401C01904FF0004078
:103840000290200704D40198504501DBCDF8048094
:1038500000208DF84F0002980DF14F07B0F1004F96
:1038600025D02B200E9002984FF0020800280CDA89
:10387000404202902D200E9007E00A210298FDF7A9
:1038800071F83031029007F8011DB8F10001A8F17C
:103890000108F2DC02980028EFD1791E0E9808701A
:1038A000307800F0200040F0450007F8020D12A823
:1038B000C01B00F107081498007800B1012000EB4C
:1038C0000A01019801EBE07105984144401A401E3D
:1038D0000590E00306D45B462146179A059800F050
:1038E0005DF805441498007818B15A461799904726
:1038F0006D1CE00324D55B462146179A059800F01D
:103900004DF805441CE00498002807DBDDE90301BD
:10391000884203DD0098405C179901E01799302038
:103920005A469047049805F10105401C04900198FF
:10393000401E019004D12E205A46179990476D1CC5
:10394000BAF10001AAF1010ADDDC05E017F8010B6C
:103950005A46179990476D1CB8F10001A8F101086B
:10396000F4DC5B462146179A0598ABE62D00000073
:103970002B000000200000002DE9F0410446002546
:103980001E461746880404D405E039462020B04777
:103990006D1C641EF9D52846BDE8F0812DE9F04183
:1039A000044600251E469046C80301D5302700E096
:1039B0002027880404D505E041463846B0476D1CF1
:1039C000641EF9D52846BDE8F0810A68531C0B60D7
:1039D0001070704700B5244B21F0004287B09A4226
:1039E000DCBF0022134629DD204B9A4208D140B9A2
:1039F0004FF00100FFF78AFBFFF769FB07B000BD3E
:103A000003DBFFF761FB07B000BD02AAFFF74EF82A
:103A100010F0030104BF0DF1080C9CE80F000DD05D
:103A2000012001290ED0022914D00DF1080C0090BC
:103A30009CE80F00FFF7D2FA07B000BDFFF7FAF9D4
:103A400007B000BD0DF1080C00909CE80F00FFF7D7
:103A5000C5FA05E00DF1080C9CE80F00FFF7EAF944
:103A600007B081F0004100BDFB21E93F0000F07F7D
:103A7000FDF7BEFDFEF745FEFEF7ACFBFEF726FCAC
:103A8000FEF750FC012251030A48FDF79DFD0A4B49
:103A90000A4A0B490B4800F08FFC0A4800F0DBFF94
:103AA0000021084800F0E7FFFEF75EFB00F019F880
:103AB000FEE70000001001403D4E0008094B0008E1
:103AC000286B00085805002001460020842900D0FA
:103AD000C81C704710B500B9012001F0A7FA0020FA
:103AE00010BD10B501F03AFB002010BD10B5012942
:103AF00001D0002010BD03220021012001F0E8FBCD
:103B0000040004D000231A46194601F0FFFC2046A9
:103B100010BD10B501F05AFE012803D0BDE81040D9
:103B200001F0C0BB10BD3EB504460D46B0F908001B
:103B3000FFF7CAFF02A9CDE90001208A2B4682B215
:103B4000D4E9001001F016FE012801D000203EBD8E
:103B500002983EBD2DE9F041184C0F460546E66837
:103B60002068001D01F081F938B9206890F82C1008
:103B700001208840216981432161681C07D137B148
:103B80002168BDE8F0410E48091D01F0A6B9206882
:103B90003544B5424560216805D2A06BBDE8F041CF
:103BA000091D01F082B9606B091D01F07EF9A06A60
:103BB000854200D2A562BDE8F08100004C000020E3
:103BC000B80800202DE9F041054601F093F92E4C8C
:103BD000A068401CA06020682C4F10B1606940B301
:103BE0002DE02560A068012829D1002606EB86007B
:103BF00007EB800001F04BF9761C072EF6D3234823
:103C00008C3001F044F92148A03001F040F91F4800
:103C1000B43001F03CF91D48C83001F038F91B48B8
:103C2000DC3001F034F919488C3060631430A06343
:103C300005E02068E96AC06A884200D82560606AA9
:103C4000401C6062E96A01202269884010432061BB
:103C500001EB810007EB8000291D01F03EF901F026
:103C600069F9606900280CD02068E96AC06A884256
:103C700007D207494FF080500860BFF34F8FBFF362
:103C80006F8FBDE8F08100004C000020DC070020B1
:103C900004ED00E070B5114E114C17E001F092FAFE
:103CA0003068B8B101F08AFE01F024F9F068C56807
:103CB000281D01F0DAF8A068401EA0606068401E70
:103CC000606001F037F9284600F055F86068002878
:103CD000E4D170BD01F072FEF8E70000A4080020F6
:103CE0004C00002030B4026C0B46002A0BD0C16897
:103CF0001144C1604468A14201D30168C16030BC75
:103D00001846FCF76BBA30BC70472DE9F041856B63
:103D1000174604460026026C82B1C7B1E068FCF782
:103D20005DFAE168206C091AE1602268914202D2D2
:103D30006168081AE060022F16D017E02068A8B961
:103D4000606801F0B5FD0646002060600EE0A068E6
:103D5000FCF744FA216CA0680844A06061688842BE
:103D600004D32068A06001E005B16D1E6D1CA56341
:103D70003046BDE8F08110B50446006B01F0EEF866
:103D80002046BDE8104001F0E9B8000010484FF4AB
:103D90004061420706D0C01D0D4920F00700411ABE
:103DA000C1F540610B4A00230144C2E90003083910
:103DB000103A21F0070111604B600B600B1AC0E94B
:103DC000001393604FF000405360D06070470000D4
:103DD000CC080020A4000020074C4FF08056074D6F
:103DE000FFF758FF20680128FAD92E60BFF34F8FE4
:103DF000BFF36F8FF4E70000DC07002004ED00E064
:103E00002DE9F0479A46DDE9098481466FF0030306
:103E1000206B03EB82021044089D20F00706700718
:103E200007D0502080F31188BFF34F8FBFF36F8FFF
:103E3000FEE723180A5C83F834200A5C12B1401CA8
:103E40001028F6D3002784F84370072D00D30625E9
:103E5000E562C4E91157201D01F024F804F11800AF
:103E600001F020F82461C5F107006462A061E764F5
:103E700084F8507052464946304600F00FF92060F1
:103E8000B8F1000F01D0C8F80040BDE8F08700008D
:103E900030B5114900E011460A688242FBD34B68F5
:103EA0005C18844203D1406818444860084643685F
:103EB0001C18944209D1084C103C2468A24209D035
:103EC00052681A4442600A6812680260814200D057
:103ED000086030BD0460F9E7A400002010B5044676
:103EE00001F008F8A06B28B15FF0000401F022F89F
:103EF000204610BD0124F9E70648416B096829B145
:103F0000416BC968C9684968816270474FF0FF31E9
:103F1000FAE700004C00002008484068401C4FF0C1
:103F2000500080F3118804D0BFF34F8FBFF36F8F21
:103F3000FEE7BFF34F8FBFF36F8FFEE788000020CF
:103F40002DE9F041044600F0D5FF94F9455004F105
:103F5000240609E0606A48B1304601F0F5FC08B17A
:103F600001F08AF86D1E6DB2002DF3DC4FF0FF36C4
:103F700084F8456000F0DEFF00F0BCFF94F9445087
:103F800004F1100709E0206948B1384601F0DCFC73
:103F900008B101F071F86D1E6DB2002DF3DC84F8EC
:103FA0004460BDE8F04100F0C5BF00002DE9F041DC
:103FB0000546002701F006F9314E306808B9FFF7D1
:103FC000E5FEF06805424BD1C5B3083568070ED051
:103FD00005F00700C0F108000544680707D050202D
:103FE00080F31188BFF34F8FBFF36F8FFEE72DB3C0
:103FF0007068854234D82248103001460C6801E0D0
:1040000020460C466168A94202D221680029F7D1F6
:1040100031688C4224D007682168016060680837E5
:10402000411B10290FD96019420708D0502080F396
:104030001188BFF34F8FBFF36F8FFEE710E0416031
:104040006560FFF725FF61687068401A7060B268AC
:10405000904200D2B060F06801430020C4E9000142
:1040600001F0ACFC780707D0502080F31188BFF333
:104070004F8FBFF36F8FFEE73846BDE8F081000039
:10408000940000200449086818B10868826C521C2A
:1040900082640868704700004C00002010B5031FC0
:1040A0004FF080741C601B1F21F001011960191F63
:1040B000024B0B60143940380A6010BD193F0008EC
:1040C00038B50546144600212B4800F052F92B491B
:1040D000294800F03EF92078412805D056280ED115
:1040E0001E2227A3182107E027A12848626BFEF7AC
:1040F000B5FC264B1E2247211F4800F001F9284637
:10410000FCF701FC02460B4621A12048FEF7A6FC65
:104110002148854201DA132100E000211B4B402297
:1041200015482B3100F0ECF80220009080231F226C
:104130000021114800F081F8402000900223002265
:1041400017210D4800F079F814490B4800F001F9E7
:104150000321094800F00DF911A31C221221064881
:1041600000F0CEF801B03C22BDE830400DA3122192
:10417000014800F0C5B80000580500204F5F000856
:104180004E4F204649580000253364004805002062
:10419000252E32660000000000002041985A0008D9
:1041A00053504400494E540000EBD072521001EBC2
:1041B000D173A2EB6302074B401A9A4201DA064917
:1041C00005E0044949428A4202DD03494942084464
:1041D0007047000000175BCA00A493D62DE9F04198
:1041E00006460F46FCF7FCFC041E0D4618BF0120D6
:1041F000284320F00040C0F17F6000F1E040C00F94
:104200000ED0301C18BF0120384320F00040C0F110
:104210007F6000F1E040C00F04BF0120FEF776FF91
:1042200020462946BDE8F08101680A7C90F83810E4
:10423000406B5143C900FBF7EABF2DE9F8438146C3
:10424000089C1E461019C0B200908819C3B21546CA
:104250008846484600F05CF800280ED00027002C65
:104260000BD033462A4641464846009700F03FF8B7
:104270006D1C641EEDB2E4B2F1E7BDE8F8832DE9F0
:10428000F041044690F85E001F4615460E4630B1D8
:10429000012809D002280CD0032815D10FE0E16CC9
:1042A00020468847284408E0E16C20468847301AB9
:1042B00009E0E16C20468847281AC5B204E0E16CA9
:1042C000204688473044C6B2284684F8546084F8B3
:1042D000550039460025204600F080FA010003D041
:1042E000204600F0AFF9C5B22846BDE8F08138B5E8
:1042F000002B049C03D00094046B6468A04738BD75
:1043000030B4024C446030BC00F03BB9DD4A0008D8
:1043100070B50D461E46044690F8441090F84300D0
:10432000049B00F0AAFA002809D094F8421094F8EF
:10433000410033462A46BDE8704000F09EBA70BD89
:1043400010B5044600F016FB2046BDE8104000F012
:104350008ABB10B50446806C884209D004F1600025
:10436000A16400F0D2FA2046BDE8104000F03EB84B
:1043700010BD80F85E1070470149C16470470000AD
:10438000F945000870B5044600250498A564E36269
:10439000616384F8382084F83950012184F87D1055
:1043A00084F87E1020630168204688472046FFF786
:1043B000E3FF84F85E5070BD38B50C460093134699
:1043C0000546064A064900F05EFB08220549064BF1
:1043D00028460094FFF7D6FF38BD00001D4C0008AA
:1043E0007D4D0008080100209548000810B5816C3B
:1043F00000291AD090F96D3080F8793090F96E204C
:1044000080F87A2090F8781000290ED001290DD07C
:1044100090F96A4090F96C100C449C4201DD80F8E0
:1044200079408A4201DD80F87A1010BD90F96F1052
:104430008B4201DA80F8791090F97010F1E72BB116
:10444000012B05D0022B06D0104402E0084400E006
:10445000801AC0B27047401AFBE72BB1012B05D080
:10446000022B06D0401A02E0104400E00844C0B21B
:104470007047801AFBE710B503780C78A34207D980
:10448000934203D2501EC4B20C7001E000230370AB
:10449000934205D224B1944200D90A70012010BD84
:1044A000002010BD7FB582B0044690F839009DF819
:1044B0001010404201EBC000C1B28DF810100A9DEF
:1044C00094F83B6094F83A209DF80C00DDB19042DE
:1044D00017D2C8188DF80400324601A904A8FFF7C6
:1044E000CAFF00280DD09DF804009DF8101000951B
:1044F000401AC3B2E56A9DF810209DF80C102046C2
:10450000A84706B070BDB142FBD218448DF8040034
:1045100001A903A8FFF7AFFF0028F2D09DF804001F
:104520009DF80C10E3E738B5012B049C04D0022C55
:1045300014D0032C16D018E090F839506D4202EBDD
:10454000C50290F83A50D2B28D4206D990F83B504D
:10455000954202D90094C46AA04738BDC91A491CC3
:10456000C9B202E0D21A521CD2B204F00104009483
:10457000FFF798FF38BD38B5049C0094FFF7D3FFD0
:1045800038BD2DE9F0471C4691468846064600F0A6
:1045900068FC00254FF6FF77726821783046904717
:1045A0000346B84225D0641CA3F57F40FE38F3D003
:1045B0004A4641463046FFF762FE96F85E1031B13A
:1045C000012907D0022908D003290FD10AE008EBFE
:1045D000000104E009EB000106E0A8EB000101F096
:1045E000FF0803E0A9EB000101F0FF092844C5B270
:1045F000D2E72846BDE8F0870020704710B50C468A
:1046000000F006F80122641EA240801A40B210BDDC
:1046100030B50568847A2A78E2406318DBB2082B4B
:1046200009D36D1C05602D78C4F10804A54015431D
:10463000083BEAB2DBB201248C40641E1440837252
:10464000204630BD2DE9F843054600F1500400F046
:10465000FAF815F9596F2046697BFFF7CFFF8146BD
:10466000A97B2046FFF7CAFF0746E97B2046593D54
:10467000FFF7C4FF804694F90800002855DDF019C3
:10468000404247B2A37B20793A464946FFF7D7FE1E
:104690002071A37B3A4660794946FFF7DEFE6071E0
:1046A0002179A77B02460B4637B1012F09D0022F93
:1046B0003ED0032F0DD143E0277A30443B44DBB298
:1046C00006E0891B491C277A5B1CC9B2DBB238445F
:1046D000C0B200902846FFF71BFE30B30020A07147
:1046E00084F8070095F862102046FFF791FF814695
:1046F00095F863102046FFF78BFF074600224946D6
:10470000284600F025F801223946284600F020F816
:1047100001212046FFF77CFF0028EFD194F9070024
:10472000B042DFDB207B85F87D004046BDE8F883A2
:10473000277A5B1CC91B491CC9B2DBB2921B03E080
:10474000277A3344DBB2D21B521CD2B2401CBFE7E3
:104750002DE9F74F84B00D46049C94F8567094F8F8
:1047600057805034207AC01BC6B20196B54200D2A1
:1047700001954FFA88F279B2207994F805B0A37BBD
:1047800092468946FFF75BFE0290A37B524649465C
:104790005846FFF762FE0246069808B1217B02E008
:1047A000E07A50B9617B049880F87D10A07B00907E
:1047B000DDE901310498FFF79AFDB54207D3A81B44
:1047C000C5B208F10100002700F0FF08CAE7781918
:1047D000A07184F8078007B0BDE8F08F10B50246DD
:1047E000806C1730FF2910D8612902D3B2F87420E9
:1047F00003E0412902D3B2F8722010444278B2B1EA
:1048000003788B42F9D1801C10BDB2F876204FF6A8
:10481000FF741044027804EA022342781A4306D057
:104820008A4201D1C01C10BD82781044F2E70020FA
:1048300010BD08444FF6FF720178407802EA01216A
:10484000084480B2704730B5054600F15004016558
:104850000020A07215F8641F2046FFF7D9FE2072D1
:1048600069782046FFF7D4FE6072687E207310B12D
:104870000020607330BD0120FBE78A4205D28342ED
:1048800001D89A4203D9012070478342F9D8002009
:1048900070470000F0B5046801F00707059E257C0D
:1048A0008024FC406A4302EBD101426B89B211447F
:1048B000BEB900BF90F87D20012A06D80A782243AD
:1048C0000A7090F87D20012A02D00A7862400A70AE
:1048D000640801D18024491C5B1E13F0FF03E9D159
:1048E000F0BD90F87D20012A06D80A7822430A708C
:1048F00090F87D20012A02D00A7862400A705B1E7F
:10490000294413F0FF03ECD1F0BD70B505460878DB
:104910002870487868708878A870C878E870087936
:1049200028714879687188790C46A871E079E87136
:10493000207A2872607A6872A07AA872E07AE872A7
:10494000207B2873607B6873A07BA873E07BE8738F
:10495000207C287411212046FFF76BFF6882132109
:104960002046FFF766FFA88215212046FFF761FF6A
:10497000E88270BD2DE9F843064690F8387090F84B
:104980003950006800244FF6FF7890F81190316894
:1049900030462A460B7C716B04FB03FC1FFA8CFC2F
:1049A00008EACC0C61440091002100F045F8641C39
:1049B0006D1CE4B2EDB2BC4201D24D45E7D3BDE877
:1049C000F88370B590F83820D10080F83B10046867
:1049D000217C202900D31F21C90080F83A1090F8CB
:1049E0003930D906090E80F83C10657C9E18AE421D
:1049F00001D9EA1AD2B280F83D1001EBC20180F869
:104A00003E10F02180F83F10A18AF02901D880F8EB
:104A10003F10A17D80F8401070BD10B50446FFF72F
:104A2000D0FF002084F8410014F83A0F2072E0789B
:104A300060722079A07210BD1CB58DF805108DF83C
:104A40000620049C8DF804300094012284686B4693
:104A50000F21A0471CBD30B484680023A44630BC9D
:104A60001A460A21604730B484680023A44630BC4B
:104A70001A461021604730B484680023A4460A46D1
:104A800030BC0B2160472DE9F04115460E46044627
:104A9000069F00F009F86761A660C4E90353204649
:104AA000BDE8F04100F012B8002140F8081B064AAA
:104AB000026042608260C260C1758176C176FF216A
:104AC0000176417770470000394E000830B48468A1
:104AD0000023A44630BC1A4609216047080001D0D3
:104AE0000A2801D14FF6FF70704713B501220469FF
:104AF00001AB1721A0471CBD30B404691346A4467E
:104B00000A4630BC1721604738B51446172908D02B
:104B100016484FF4805318291AD019291ED00020A6
:104B200038BD1D4611E000BF15F8010B641E8DF85D
:104B30000000E4B20E48FDF789F80228FAD0642399
:104B4000012269460A48FDF7E7F8002CECD10AE09B
:104B500001221946FCF738FD00BF04E000BF002227
:104B60001946FCF731FD012038BD0000000C014062
:104B7000B000002030B4C4680023A44630BC1A46FC
:104B80001921604730B4C4680023A4460A4630BCEB
:104B90001521604730B4C4681346A4460A4630BCA9
:104BA00017216047F8B50C464FEA000514F8011BC1
:104BB000182924D00EDC152919D0162917D0172949
:104BC00023D120788DF800006A4601212846FFF79E
:104BD000E1FF0AE0192912D0FE2916D122788DF8BA
:104BE00000202921284600F036F9641CDEE72278EF
:104BF0008DF80020EE6800232846B047F5E7002333
:104C0000EE681A462846B047D0E7F8BD30B4C4680D
:104C10000023A44630BC1A46182160472DE9F04114
:104C20000646A1F1140015019846144602F0F0075B
:104C300006286BD2DFE800F063031A276363F821CC
:104C40003046FFF752FF01222C21304600F003F9D5
:104C500039463046FFF749FF01222C21304600F04B
:104C6000FAF8E9B23046FFF740FF40E0F82130465D
:104C7000FFF73BFF39463046FFF737FFE9B23046D2
:104C8000FFF733FF38E0FA213046FFF72EFF01220D
:104C90002C21304600F0DFF8454615E01C4908207D
:104CA00015F8012B02F0F003120101F8013B401E40
:104CB00001F8012B10F0FF00F2D1083CE4B2144AD5
:104CC00010213046FFF718FF082CE7D20DE02F78AF
:104CD000304607F0F001FFF708FF3807010E3046B5
:104CE000FFF703FF641EE4B26D1C002CEFD101221C
:104CF0002C21304600F0AFF80120BDE8F081356985
:104D000022463046AC46BDE8F04160470020F4E75B
:104D1000CC07002070B50023456904461A462821B7
:104D2000A8470023E5681A4614212046A847012217
:104D30004B21204600F08FF8206829210279204677
:104D400000F089F800224B21204600F084F820680A
:104D500029210279204600F07EF801224B212046CD
:104D600000F079F82068292142792046BDE870409A
:104D700000F071B80160897C8177704710B509290E
:104D800003D0BDE8104000F007B80249FFF7F2FF7A
:104D9000012010BD106B00082DE9F0471E46824629
:104DA0000A2906D00B2909D00F2910D00020BDE810
:104DB000F087FFF7AFFF1F49504602E022B11D49BF
:104DC000C91FFFF7EFFE33E01A491331F9E7B07955
:104DD000C006050E7079202D4FEA500803D3203D00
:104DE000EDB208F108085046FFF710FF3E2150468B
:104DF0003768FFF7C7FE002448F080092819C0B2C1
:104E000040F080015046FFF7BDFE49465046FFF78F
:104E1000B9FE96F804803A4641465046FFF7BAFE7E
:104E2000641CE4B24744082CE8D35046FFF7A2FEC6
:104E30000120BCE7D76A00080020704710B5104673
:104E4000292902D02C2904D102E0FCF79BFA00E0CA
:104E500000BF012010BD30B444690023A44630BC1B
:104E60006047002180F823107047D0E901320169C2
:104E70009A60D0E901235A604A68824201D182686F
:104E80004A60002202610868401E0860704700F115
:104E900008014FF0FF32C0E90112C1600161002139
:104EA0000160704700210161704730B50B685A1CE2
:104EB00002D000F1080202E0026904E022465468D0
:104EC00025689D42FAD953684B6099608A605160A9
:104ED00008610168491C016030BD42684A609368FE
:104EE0008B6093685960916008610168491C01609A
:104EF00070470000502080F31188BFF34F8FBFF33D
:104F00006F8F0A494868401C486001280CD1084846
:104F1000006810F0FF0F07D0502080F31188BFF316
:104F20004F8FBFF36F8FFEE77047000088000020AF
:104F300004ED00E00849486828B1401E486001D1EE
:104F400080F311887047502080F31188BFF34F8F92
:104F5000BFF36F8FFEE700008800002070B50028C7
:104F600027D0144DA0F108046168E868014207D118
:104F7000502080F31188BFF34F8FBFF36F8FFEE790
:104F800022683AB1502080F31188BFF34F8FBFF3EE
:104F90006F8FFEE78143616000F014F96068696813
:104FA000084468602046FEF773FFBDE8704000F0DB
:104FB00005BD70BD9400002006484FF47A7100686A
:104FC000B0FBF1F14FF0E020491E41610721016182
:104FD000704700000000002010B5FBF7D9F8114918
:104FE00010280ED300F1E02090F8F0030A789042E8
:104FF00007D2502080F31188BFF34F8FBFF36F8F1C
:10500000FEE709480068896800F4E060884207D933
:10501000502080F31188BFF34F8FBFF36F8FFEE7EF
:1050200010BD0000880000200CED00E010B502006B
:1050300014D00F48006B38B1502080F31188BFF3B3
:105040004F8FBFF36F8FFEE700F0BCF800211046D2
:10505000FEF780FD00F0B2FC002807D105494FF0B3
:1050600080500860BFF34F8FBFF36F8F10BD0000FB
:105070004C00002004ED00E001490120C8617047A8
:105080004C00002010B50C4650B109490968183190
:10509000FFF70BFF2046BDE810400121FEF75ABD87
:1050A000502080F31188BFF34F8FBFF36F8FFEE75F
:1050B0004C00002070B5040039D01D4DE06A29680D
:1050C000C96A884233D2A069002804DB2868C06A14
:1050D000C0F10700A061E16A164E01EB8101606931
:1050E00006EB810188421FD1201DFFF7BEFE012182
:1050F00050B9E06A00EB800256F8222022B92A69F2
:1051000001FA00F082432A612868C06AE0622A69D5
:1051100081401143296100EB800006EB8000211DD6
:10512000BDE87040FFF7D9BE2868C06AE06270BD74
:105130004C000020DC07002028B107490A6A026001
:10514000C96841607047502080F31188BFF34F8FCA
:10515000BFF36F8FFEE700004C0000201CB5154820
:105160000024CDE900402346802213A1144800F01A
:1051700001FB012809D0401C1AD1502080F311886E
:10518000BFF34F8FBFF36F8FFEE7502080F311887E
:10519000BFF34F8FBFF36F8F06484FF0FF312C38AE
:1051A000816201214161C460BDE81C4000F040B84B
:1051B0001CBD00007800002049444C450000000060
:1051C000D93D00080248016B491C0163704700008B
:1051D0004C0000201448016B11B10121C1617047DE
:1051E0000021C1610169B1FA81F1C1F11F0101EB37
:1051F00081020E4951F822306BB101EB820101F1BD
:1052000008034A6852684A609A4201D152684A606B
:10521000D16801607047502080F31188BFF34F8F31
:10522000BFF36F8FFEE700004C000020DC0700207A
:105230001CB5194908780190FF20087008788DF88E
:1052400000009DF80000154A00F050001070072083
:10525000906005E09DF800305B008DF80030401E46
:105260009DF800301B06F5D4000200F4E060906069
:10527000019808700A48016841F4700101600168F2
:1052800041F070410160FFF797FE00205060FAF78F
:1052900049FF00201CBD000000E400E08800002061
:1052A00020ED00E010B5502080F31188BFF34F8F40
:1052B000BFF36F8F00F098FA18B104494FF0805097
:1052C0000860002080F3118810BD000004ED00E0AC
:1052D00070B50E46050013D0D6B105FB06F0483078
:1052E000FEF764FE040009D004F1480120468EB1A7
:1052F0000160C0E90F56012100F0C4F8204670BDDE
:10530000502080F31188BFF34F8FBFF36F8FFEE7FC
:105310000020E4E70060ECE72DE9FF4F002683B0B2
:105320009B468A46040003D0BAF1000F08D011E072
:10533000502080F31188BFF34F8FBFF36F8FFEE7CC
:10534000206C38B1502080F31188BFF34F8FBFF32A
:105350006F8FFEE700F03AFADFF824814FF0000982
:105360004FF0805748B9059838B1502080F3118824
:10537000BFF34F8FBFF36F8FFEE7FFF7BBFDA56B4A
:1053800045B351462046E668FEF7ACFCBBF1000F82
:1053900013D0E660606A50B104F1240000F0D4FA42
:1053A00028B1C8F80070BFF34F8FBFF36F8FFFF7BE
:1053B000C1FD012007B0BDE8F08F6D1EA563206818
:1053C00010B9FEF75FFE606020690028EFD004F19D
:1053D0001000E3E7059808B11EB106E0FFF7AAFD4B
:1053E00027E06846FFF7A8FE0126FFF7A3FDFFF7B9
:1053F000E9FEFFF77FFD94F94400401C01D184F8D9
:10540000449094F94500401C01D184F84590FFF781
:1054100091FD05A9684600F077F9002820460AD0DA
:10542000FEF78EFD00F0CAFA2046FEF757FD002871
:10543000A3D00020BEE7FEF751FDD8B1206830B9F7
:10544000FFF758FD6068FFF735FEFFF773FD04F1C5
:1054500024000599FFF716FE2046FEF771FD00F0C7
:10546000ADFA002889D1C8F80070BFF34F8FBFF3A1
:105470006F8F82E72046FEF763FD00F09FFA7CE71E
:1054800004ED00E070B50D46040025D0FFF732FDB5
:10549000D4E90F20216802FB001161600021A163A3
:1054A0002168A1600A46D4E90F01401E00FB0121DA
:1054B000E16021464FF0FF3001F8440F487004F1DD
:1054C00010008DB1FFF7E3FC04F12400FFF7DFFCCF
:1054D000FFF730FD012070BD502080F31188BFF32D
:1054E0004F8FBFF36F8FFEE721690029F0D000F0E6
:1054F0002BFA0028ECD004494FF080500860BFF32D
:105500004F8FBFF36F8FE3E704ED00E02DE9FF4716
:1055100082B01D468A464FF00008040003D0BAF15D
:10552000000F08D011E0502080F31188BFF34F8F97
:10553000BFF36F8FFEE7206C38B1502080F31188E5
:10554000BFF34F8FBFF36F8FFEE7022D0AD1E06BE1
:10555000012807D0502080F31188BFF34F8FBFF38D
:105560006F8FFEE700F032F93F4F4FF000094FF028
:10557000805648B9049838B1502080F31188BFF3A1
:105580004F8FBFF36F8FFEE7FFF7B4FCA06BE16BAB
:10559000884207D3022D05D00498D0B1B8F1000F8E
:1055A0001AD01EE02A4651462046FEF7AEFB616A3D
:1055B00019B104F1240000F0C7F920B13E60BFF337
:1055C0004F8FBFF36F8FFFF7B5FC012006B0BDE82A
:1055D000F087FFF7AFFC22E06846FFF7ADFD4FF024
:1055E0000108FFF7A7FCFFF7EDFDFFF783FC94F937
:1055F0004400401C01D184F8449094F94500401CBB
:1056000001D184F84590FFF795FC04A9684600F0A5
:105610007BF830B12046FEF793FC00F0CFF9002074
:10562000D4E7FFF767FCA06BE16B884213D1FFF76B
:1056300081FC04F110000499FFF724FD2046FEF7D9
:105640007FFC00F0BBF900289ED13E60BFF34F8F76
:10565000BFF36F8F98E7FFF76DFC2046FEF770FCF5
:1056600000F0ACF990E7000004ED00E070B50E46E4
:10567000040009D0206C78B1502080F31188BFF36A
:105680004F8FBFF36F8FFEE7502080F31188BFF379
:105690004F8FBFF36F8FFEE7206848B9606838B15D
:1056A000502080F31188BFF34F8FBFF36F8FFEE759
:1056B000FFF792FC5020EFF3118580F31188BFF3C0
:1056C0004F8FBFF36F8FA16BE06B884218D994F9AD
:1056D0004500491CA163411C04D0401C84F84500CE
:1056E00001200EE0606A0028FAD004F1240000F0E6
:1056F0002BF90028F4D0002EF2D001203060EFE723
:10570000002085F3118870BD70B50D46040019D0D6
:1057100005B3FFF7EFFB164AD1682868431C0FD08A
:105720002368126A934202D062688A421AD9626878
:10573000891A814216D2401A28602046FFF7FCFCE5
:10574000002410E0502080F31188BFF34F8FBFF387
:105750006F8FFEE7502080F31188BFF34F8FBFF3A8
:105760006F8FFEE70124FFF7E5FB204670BD0000C8
:105770004C0000202DE9FF5F8346DDE90E87994646
:1057800016468A469000FEF711FC05001AD05420F8
:10579000FEF70CFC040012D025630021CDE9024184
:1057A000CDE900874B46324651465846FEF728FB66
:1057B0002046FEF707FA012004B0BDE8F09F284616
:1057C000FFF7CCFB4FF0FF30F6E7000005484169DA
:1057D00019B1006B18B100207047012070470220FA
:1057E000704700004C0000202DE9F0412E4C0027AE
:1057F000206B40B1A069401CA061E06900B10127A5
:105800003846BDE8F081E668761CE66013D1606B2F
:10581000006838B1502080F31188BFF34F8FBFF379
:105820006F8FFEE7606BA16B6163A063206A401C11
:105830002062FEF761FBA06ADFF87080864209D320
:10584000606B006880B1606BC068C568686886423C
:105850000DD2A0622068C06A00EB800158F82100D8
:105860000128CAD90127C8E74FF0FF30F1E7281D0A
:10587000FFF7FBFAA86A18B105F11800FFF7F5FA6F
:10588000E86A0121226981401143216100EB800116
:1058900008EB8100291DFFF720FBE86A2168C96A2F
:1058A0008842CDD30127CBE74C000020DC07002045
:1058B00070B504004FF0000140D0214D28688442AB
:1058C00007D0502080F31188BFF34F8FBFF36F8F45
:1058D000FEE7A06C38B1401EA064636CE26A9A4295
:1058E0002CD040B12AE0502080F31188BFF34F8FB5
:1058F000BFF36F8FFEE7201DFFF7B7FA114A0121B2
:1059000050B9E06A00EB800352F8233023B92B69C9
:1059100001FA00F083432B61606CE062C0F1070084
:10592000A061E06A2B6981401943296100EB800086
:1059300002EB8000211DFFF7D0FA0121084670BD5F
:105940004C000020DC0700202DE9F041C068C4684D
:10595000ACB104F118000746FFF787FA154D286B24
:105960000126A0B139461448FFF7B7FAE06A296862
:10597000C96A88421CD90120EE61BDE8F08150203F
:1059800080F31188BFF34F8FBFF36F8FFEE7201DA9
:10599000FFF76BFAE16A2A6906FA01F01043286101
:1059A00001EB81000449B43901EB8000211DDBE7E4
:1059B0000020E2E74C000020900800202DE9F0478D
:1059C0002C4D00242746286B38B1FFF793FA286B3B
:1059D000401E2863286B40B146E0502080F31188B8
:1059E000BFF34F8FBFF36F8FFEE7A968224E0120F0
:1059F000D1B3A6F1B40980463068E8B1F068C46854
:105A000004F11800FFF731FA201DFFF72EFAE06AC3
:105A10002A6908FA00F11143296100EB800109EBC2
:105A20008100211DFFF759FAE06A2968C96A884296
:105A3000E2D3C5F81C80DFE70CB1FEF75DFAAC6974
:105A400044B14646FFF7D0FE00B1EE61641EF9D1C5
:105A50000020A861E86938B10849012738070860C3
:105A6000BFF34F8FBFF36F8FFFF764FA3846BDE87F
:105A7000F08700004C0000209008002004ED00E0BA
:105A800000000000000000000102030406070809EE
:105A900000000000010203045F0003030404030587
:105AA00005091100FD0AFD0BFF01930329049E2047
:105AB0000500F4192107B287198F04220845BE1981
:105AC000122E022313A785394A129144725192482B
:105AD0002E4A129144022411B87C79428B0A45481F
