:020000040800F2
:1000000068170020990100087B180008D71600081F
:1000100079180008BD080008ED1E00080000000067
:1000200000000000000000000000000001010008C6
:10003000BF0800080000000045010008891B0008F7
:10004000B3010008B3010008B3010008B3010008C0
:10005000B3010008B3010008B3010008B3010008B0
:10006000B3010008B3010008B3010008B3010008A0
:10007000B3010008B3010008B3010008B301000890
:10008000B3010008B3010008B3010008B301000880
:10009000B3010008B3010008B3010008B301000870
:1000A000B3010008B3010008B3010008B301000860
:1000B000B3010008B3010008B3010008B301000850
:1000C000B3010008B3010008B3010008B301000840
:1000D000B3010008E11E0008B3010008B3010008E5
:1000E000B3010008B3010008B3010008DFF80CD029
:1000F00000F022FA00480047852200086817002017
:10010000224B19680868B0E8F00F80F30988BFF344
:100110006F8F4FF0000080F311884EF00D0E704786
:100120000000000006480068006880F3088862B696
:1001300061B6BFF34F8FBFF36F8F00DF00BF00BF0B
:1001400008ED00E0EFF30980BFF36F8F0F4B1A68E3
:1001500020E9F00F106008B54FF0500080F31188CF
:10016000BFF34F8FBFF36F8F03F066FB4FF00000BC
:1001700080F31188BDE8084019680868B0E8F00FFE
:1001800080F30988BFF36F8F704700BF2000002005
:10019000EFF3058070470000064880470648004797
:1001A000FEE7FEE7FEE7FEE7FEE7FEE7FEE7FEE727
:1001B000FEE7FEE7011C0008ED00000840EA01032D
:1001C0009B0703D009E008C9121F08C0042AFAD20D
:1001D00003E011F8013B00F8013B521EF9D27047D1
:1001E000D2B201E000F8012B491EFBD27047002279
:1001F000F6E710B513460A4604461946FFF7F0FF26
:10020000204610BD30B505460020034600E05B1CCB
:10021000934205D2EC5CC85C201A01D1002CF6D1C7
:1002200030BD00000FB400B58DB010A909900B903F
:1002300000914FF0FF300A9000200C900548069086
:10024000054807906A4609A80F9900F047F90DB0D4
:100250005DF814FBF9040008170500082DE9FF5F9D
:100260001D464FF0FF3BD5E9014691465F464FF0F2
:100270000008A9697F1C01988847296A8246884737
:100280000028F6D1BAF1FF3F0CD024F4C064002E50
:1002900019DD600614D5BAF12B0F09D0BAF12D0F74
:1002A0000ED103E0584604B0BDE8F09F44F48064EA
:1002B000A9697F1C01988847761E8246002E02DDC0
:1002C000BAF1300F03D0B9F1000F26D032E0A9699E
:1002D000761E44F400747F1C019888478246002EE5
:1002E00005DDBAF1780F06D0BAF1580F03D0B9F195
:1002F000000F10D01EE0B9F1000F02D0B9F1100FBD
:1003000018D1A969761E24F400747F1C01988847CF
:100310008246102002E0082000E00A20814609E021
:1003200008FB0908A969761E44F400747F1C019833
:1003300088478246002E05DD4946504600F0BAF84F
:100340000028EDDAE96901988847A00502D46FF02A
:100350000100A8E7E00725D1600613D5600502D5A6
:10036000C8F1000000E0404629680A1D2A600968BB
:10037000220501D5087015E0220701D5088011E09B
:1003800008600FE02868011D29600068210502D57A
:1003900080F8008006E0210702D5A0F8008001E087
:1003A000C0F8008038467EE72DE9FF5FD2E901A75B
:1003B0004FF00008916999461446DDF838B046467A
:1003C00001988847054659EA0B0005D009E0A16964
:1003D000761C019888470546216A284688470028E8
:1003E000F5D1681C03D05FEACA7005D015E04FF064
:1003F000FF3004B0BDE8F09F2068011D2160D0F8F7
:1004000000800AE05FEACA7001D108F8015BA169C7
:10041000761C7F1E019888470546002F1ADD681C50
:1004200018D0B9F1000F0DD0E81705EBD0604211DC
:1004300020F01F0059F822102A1A01209040014292
:10044000E0D107E0BBF1000FDCD1216A28468847E4
:100450000028D7D0E16901988847BBF1000F07D188
:10046000002E05DD5FEACA7002D1002188F8001075
:10047000A068B84203DDBBF1000F03D017B16FF0E5
:100480000100B6E73046B4E730B50B460146002020
:100490002022012409E021FA02F59D4205D303FA46
:1004A00002F5491B04FA02F52844151EA2F10102C7
:1004B000F1DC30BD3A2800D2303820F02002412A49
:1004C00001D3A2F13700884201D34FF0FF307047CB
:1004D000026811441378016018467047D1600449DE
:1004E00051610449116200211161114600F03CB8CC
:1004F000D10400085D050008426842B1016811F8A6
:10050000013B23B1521EC0E9001218467047012179
:10051000C160881E704742685AB1C368016843B918
:1005200083688B4205D0491E521CC0E9001200208E
:1005300070474FF0FF307047064C074D06E0E0680B
:1005400040F0010394E8070098471034AC42F6D31A
:10055000FFF7D0FD0447000824470008C0B24FF45D
:10056000F05100F097B900002DE9F34F8BB04FF038
:10057000000801F10C000C464FF0010B46460DF14E
:10058000080A01906269012101989047051E2DD04B
:10059000252D2CD0216A8847C0B1626901210198BC
:1005A0009047216A88470028F7D1411E6269019867
:1005B000904700E0761CA1690B988847216A88471C
:1005C0000028F7D1E1690B988847DBE7A1690B9810
:1005D00088470746A84201D1761CD3E7E1690B980A
:1005E00088477F1C02D1B8F1000F6FD046E1002789
:1005F00062693D463946019890472A2804D16269CC
:100600000121019890470125DFF884926269012158
:1006100001989047A0F130010A290AD24F45E5DC44
:1006200007EB870100EB4107303FDFD445F01005B1
:10063000ECE7E90601D46FF000476C280AD04C289B
:1006400014D0682815D06A280DD074281CD07A28B8
:100650001AD01DE062690121019890476C2802D0F0
:1006600045F0040514E045F002050DE045F02005D5
:100670000AE06269012101989047682802D045F09C
:10068000080505E045F4006562690121019890477D
:10069000C4E9015765283DD019DC58287AD00CDC14
:1006A000452837D004DC252826D0412831D131E037
:1006B00046282FD047282CD12CE05B2877D0612802
:1006C00028D063287CD0642823D15AE0D0E06F285A
:1006D00048D008DC66281DD067281BD0692821D0A7
:1006E0006E2816D127E0702845D0732868D0752869
:1006F00047D078280DD14DE0A1690B988847054671
:1007000025283FF469AFE1690B9888476D1C3FF4D9
:100710006AAFB3E023466A466FF001000B99AFF36E
:1007200000809EE045F040006060A80723464FF03F
:10073000000236D43EE0E8077FF447AF2068011D91
:1007400021600068290501D506701BE7290701D53E
:10075000068017E7A90703D5F117C0E9006111E783
:1007600006600FE745F040006060A80723464FF0A1
:10077000080216D41EE040F60E0125EA0100606072
:1007800016E045F040006060A80723464FF00A02DB
:1007900007D40FE045F040006060A80708D5234665
:1007A00010226FF001000B99AFF3008059E007E0D1
:1007B000234610226FF001000B99FFF74FFD50E028
:1007C0004FF000094F464B46632802D05B2806D005
:1007D00040E0E80601D40120A06001273AE0626908
:1007E0000121019890475E2805D14FF00109626907
:1007F000494601989047216939B900210A46534674
:1008000043F82120491C0829FADBB0B3216969B9F2
:10081000C11700EBD16253110AEB830122F01F02D2
:10082000821A01200B68904003430B60626901212A
:10083000019890475D28E8D1B9F1000F09D0002058
:10084000514651F82020D24341F82020401C08286E
:10085000F7DB02AB224600976FF001000B99FFF720
:10086000A3FD00280CDA401C08D1BBF1000F05D015
:100870004FF0FF300DB0BDE8F08FFFE74046F9E7DD
:10088000E90701D108F1010806444FF0000B79E6B1
:10089000CCCCCC0C7F2801D9002208E0064A02EB20
:1008A0005002C007127800D1120902F00F02012095
:1008B000904008407047000050460008FEE770472F
:1008C00010B590F821100024022903D0042181637F
:1008D00001243DE001680A6822F00E020A60016806
:1008E0000A6822F001020A601A4A0168914201D1A5
:1008F000012121E0174A1432914201D110211BE05D
:10090000144A2832914201D1891515E0114A3C322E
:10091000914201D189140FE00E4A5032914202D126
:100920004FF4803108E00B4A6432914202D14FF417
:10093000801101E04FF08071064A083A51600121B0
:1009400080F82110002180F82010416B01B1884708
:10095000204610BD0800024031B500F0F3F8009CBD
:100960000546601C00D0641C00F0ECF8401BA0425F
:10097000FAD338BD2DE9F84FDFF890A100220AF133
:10098000040B144601274FF00F090BF1040E00BFB2
:100990000B6807FA04F52B40AB4274D1DFF870C145
:1009A0004E68A6EB0C0866452BD00DDC032E34D028
:1009B00005DC36B3012E19D0022E2FD11BE0112EEB
:1009C00016D0122E2AD119E0B8F5881F19D006DCEE
:1009D000B8F5803F15D0B8F5801F1FD111E0B8F5EC
:1009E000001F0ED0B8F5041F18D10AE0CA6815E040
:1009F000CA68121D12E0CA6808320FE0CA680C32D9
:100A00000CE08A682AB1012A4FF0080203D0456140
:100A100004E0042202E0056100E00022FF2B01D87F
:100A2000064601E000F104064FEA840501D9A5F16C
:100A30002005D6F800C009FA05F82CEA080C02FADD
:100A400005F54CEA050CC6F800C04D68ED0057D519
:100A5000304DAE6946F00106AE61AD6924F0030683
:100A600005F0010500952C4D06EB050CDCF808504F
:100A7000A6074FEA167809FA08F6B543274EB042A2
:100A800002D1002610E03BE0254EB04201D1012604
:100A90000AE0244EB04201D1022605E0224EB042C7
:100AA00001D1032600E0042606FA08F62E43CCF80E
:100AB00008604D68DAF80060ED03554601D51E4325
:100AC00000E09E432E604D68DBF80060AD035D469C
:100AD00001D51E4300E09E432E604D68DEF80060A5
:100AE000ED02754601D51E4300E09E432E604D6821
:100AF000AD020E4D2E6801D51E4300E09E432E60D0
:100B0000641C102CFFF444AFBDE8F88F00040140D2
:100B100000001110001002400000014000080140D8
:100B2000000C014000100140001401400C04014081
:100B3000C2684A40C26070470AB101617047090447
:100B4000FBE7000001480068704700000400002037
:100B500002480168491C0160704700000400002041
:100B6000074810B5016841F010010160032000F052
:100B70008BF80F2000F006F800F018F8002010BDE8
:100B80000020024010B5044607484FF47A7100680F
:100B9000B0FBF1F000F038FC00222146501E00F0BE
:100BA00053F8002010BD0000000000201E4808B5CA
:100BB000816941F001018161806900F001000090CC
:100BC000032000F061F8002211466FF00B0000F0E6
:100BD0003BF8002211466FF00A0000F035F80022C1
:100BE00011466FF0090000F02FF800221146501F47
:100BF00000F02AF800221146101F00F025F800220C
:100C00000F21901E00F020F800220F21501E00F04E
:100C10001BF80648416821F0E0614160416841F0FD
:100C20000071416008BD000000100240000001405A
:100C300000F01F02012191404009800000F1E020F6
:100C4000C0F8001170470000F0B40E4B1B680C4652
:100C5000C3F30223C3F10705042D00D90425191D90
:100C6000072901D2002300E0DB1E012606FA05F168
:100C7000491E214099409E40761E16403143F0BCEB
:100C800000F0FCBD0CED00E0064900F0070208682A
:100C90004FF6FF03184040EA0220034A1043086061
:100CA000704700000CED00E00000FA052DE9F04768
:100CB000DFF83C8105460E46D8F8000000F007003A
:100CC000B0420CD2D8F8001021F007013143C8F827
:100CD0000010D8F8000000F00700B04263D1287877
:100CE000444C800705D56068A96820F0F0000843EF
:100CF00060602878C00745D06868012816D0216850
:100D0000022816D0890700294DDA616821F0030115
:100D100001436160FFF716FF6968074641F28830BA
:100D200001290FD00229814619D027E021688903C3
:100D3000E9E78901E7E700BFFFF704FFC11B494569
:100D400001D918E081466068C0F381000128F3D121
:100D500018E000BFFFF7F6FEC11B49450BD86068DD
:100D6000C0F381000228F5D10CE000BFFFF7EAFED6
:100D7000C11B494502D90320BDE8F087606810F027
:100D80000C0FF3D1D8F80010404601F00701B14232
:100D90000BD9016821F0070131430160006800F0C0
:100DA0000700B04201D00120E6E72878400705D5CA
:100DB0006068E96820F4E060084360602878000714
:100DC00006D56068296920F4605040EAC10060607F
:100DD00000F03CF86168084AC1F30311515CC84057
:100DE000064908600F20FFF7CDFE0020C4E7000091
:100DF0000020024000100240E440000800000020F3
:100E000001480068704700000000002004480549C0
:100E100000684968044AC1F30221515CC840704728
:100E20000000002000100240F4400008044805497A
:100E300000684968044AC1F3C221515CC840704748
:100E40000000002000100240F440000810B512A37A
:100E500085B00FCB8DE80F0013A0144B00680490F1
:100E60005A68134802F00C0104290FD008290DD14B
:100E7000C2F38344D2031DF8041009D55A6804ABA9
:100E8000C2F340429A5CB0FBF2F0484305B010BD9B
:100E900008484843FAE7000002030405060708096A
:100EA0000A0B0C0D0E0F1010010200000010024082
:100EB00000127A0000093D002DE9F84F0446007841
:100EC000B94DC00748D06868C0F38100012807D039
:100ED0006868C0F38100022809D16868C00306D59C
:100EE0002868800338D5606800286FD034E06068D7
:100EF000B0F5803F0BD010B1B0F5A02F11D028680D
:100F000020F480302860286820F4802002E02868DF
:100F100040F480302860606888B1FFF713FE064611
:100F200009E0286840F480202860F0E7FFF70AFE17
:100F3000801B642875D828688003F7D50CE0FFF77C
:100F400001FE064605E000BFFFF7FCFD801B64289C
:100F5000F0D828688003F7D42078944E80074FF0AB
:100F600001094FF000083BD5686810F00C0F07D05E
:100F70006868C0F38100022809D16868C00306D4FC
:100F80002868800714D5206901281FD110E0206946
:100F9000B0B1C6F80090FFF7D5FD074605E000BFE9
:100FA000FFF7D0FDC01B0228C4D828688007F7D5FA
:100FB0002868616920F0F80040EAC10028600FE06D
:100FC000C6F80080FFF7BEFD074606E0E9E000BF77
:100FD000FFF7B8FDC01B022823D828688007F7D484
:100FE000207800072CD57248A169D9B1C0F80090CB
:100FF000FFF7A8FD074604E0FFF7A4FDC01B022889
:101000000FD8686A8007F7D56A484FF4FA5100682C
:10101000B0FBF1F0009000BF0098411E0091FAD2A1
:101020000EE080E0C0F80080FFF78CFD074604E08A
:10103000FFF788FDC01B022875D8686A8007F7D4BF
:101040002078400760D5E8690027C00008D4E86927
:1010500040F08050E861E869012700F0805000907E
:1010600055480168C90513D40168834641F480716D
:101070000160FFF767FD824606E000BFFFF762FDF3
:10108000A0EB0A0064284ED8DBF80000C005F5D5B7
:10109000E06801280AD008B1052813D0286A20F09A
:1010A00001002862286A20F0040002E0286A40F06B
:1010B00001002862E06841F2883B98B1FFF742FDE9
:1010C00082460BE0286A40F004002862EEE700BF89
:1010D000FFF738FDA0EB0A0159455AD8286A800766
:1010E000F6D50CE0FFF72EFD824605E0FFF72AFD5E
:1010F000A0EB0A0159454CD8286A8007F6D41FB1E5
:10110000E86920F08050E861E06988B36968C1F35C
:101110008101022945D00228C6F8608004D0FFF77B
:1011200011FD044638E034E0FFF70CFD074604E00B
:10113000FFF708FDC01B02282BD828688001F7D4D0
:10114000206AB0F5803F05D16868A16820F40030BE
:1011500008436860D4E908010843696821F4741100
:1011600008436860C6F86090FFF7ECFC044606E0B0
:1011700015E000BFFFF7E6FC001B022809D828682D
:101180008001F7D50BE000BFFFF7DCFC001B022855
:1011900002D90320BDE8F88F28688001F4D400202C
:1011A000F8E70120F6E7000000100240000042428C
:1011B00080044242000000200070004090F851007E
:1011C000704770B5040005D00025A56294F8510061
:1011D00010B104E0012070BD204600F033F8022079
:1011E00084F851002068016821F040010160D4E9D1
:1011F00001010843D4E9031211430843616908431C
:10120000218B01F400710843E1690843216A084316
:10121000A16A084321680860A069042101EA10401E
:10122000616A0843216848602168E06A08612068B3
:10123000C16921F40061C1616565012084F8510034
:10124000002070BD00B500680C4985B0884213D1FC
:101250000B48C16941F48041C161C069694600F42D
:10126000804004904FF42040009002200190032021
:1012700003900448FFF77EFB05B000BD0038004036
:1012800000100240000C01402DE9F84F044690F890
:1012900050000026994617460D4601280DD04FF004
:1012A000010B84F850B0FFF74DFC804694F85100D4
:1012B000B246012804D0022694E00220BDE8F88F4F
:1012C000002D7BD0002F79D0032084F85100C4F882
:1012D00054A02563A786E786C4F838A0A4F83CA0EC
:1012E000A4F83EA0C4F844A0C4F840A0A068B0F59B
:1012F000004F04D12068016841F4804101602068FA
:101300000168490603D4016841F040010160E068CA
:10131000B0F5006F606804D030B3E08E012823D0B0
:101320003EE010B1E08E01281AD135F8021B20688A
:1013300005E020688168890706D535F8021BC16081
:10134000E08E401EE0860BE0B9F1000F34D0B9F119
:10135000FF3F05D0FFF7F6FBA0EB080149452BD274
:10136000E08E0028E5D11EE0216815F8010B087316
:1013700006E020688168890706D515F8011B01730E
:10138000E08E401EE0860BE0B9F1000F14D0B9F1F9
:10139000FF3F05D0FFF7D6FBA0EB080149450BD274
:1013A000E08E0028E5D14B46012202212046CDF8EF
:1013B000008000F083FA10B1032613E011E04246EA
:1013C0004946204600F06AFA18B1012620206065DF
:1013D00008E0A06818B92068C16880680090606D56
:1013E00000B1012684F851B084F850A0304665E77A
:1013F0004FF0E0210428086903D020F004000861C0
:10140000704740F00400FAE710B5401EB0F1807F4D
:1014100001D3012010BD4FF0E02460610F2160175F
:1014200000F02CFA0020A06107202061002010BDF0
:101430007047000070B5026804461068D1685369AF
:1014400010F00F0F50D003F0010501F490763543F2
:101450005DD0C20705D0CA0503D5E26B42F0010298
:10146000E263420705D5DA0703D0E26B42F00202DD
:10147000E263820705D5DA0703D0E26B42F004028B
:10148000E263020705D5DA0703D0E26B42F00802F7
:10149000E263E26B002A33D0800604D5880602D5C9
:1014A000204600F0E7FB20684069E16BC0F3801044
:1014B000090700D428B3204600F0CEFB206841691C
:1014C00049061AD5416921F040014161606BA0B124
:1014D0001B494163606BFFF7F3F9002810D0606B84
:1014E000416BBDE870400847830610D58B060ED5CA
:1014F0002046BDE8704000F0BDBB2046FFF798FFD6
:1015000070BD2046FFF794FF0020E06370BD030626
:1015100006D50B0604D52046BDE8704000F0AEBCF1
:101520004006F3D54806F1D5D168204621F04001A8
:10153000D160202184F8391000F0CCF870BD000093
:10154000491C000870B5040004D094F83900002547
:1015500010B106E0012070BD84F83850204600F03C
:1015600023F8242084F839002068C16821F4005150
:10157000C160204600F0CAFB2068016921F4904157
:1015800001612068416921F02A0141612068C16838
:1015900041F40051C160E563202084F8390084F8EB
:1015A0003A00002070BD000010B50068154986B0F3
:1015B000884225D11448816941F480418161806964
:1015C000124C00F4804004904FF400700090022010
:1015D00001900320039069462046FFF7CBF90021D4
:1015E0002015CDE90001029169462046FFF7C2F9B6
:1015F000002205212520FFF727FB2520FFF718FBF8
:1016000006B010BD00380140001002400008014043
:1016100090F83A30202B22D1F9B1F2B190F838305D
:10162000012B1CD081628285C2850021C1632222E8
:1016300080F83A2080F838100168CA6842F4807255
:10164000CA6001684A6942F001024A610068C168E3
:1016500041F02001C1600020704701207047022046
:101660007047000010B5154C0021616000681449F6
:10167000884221D141141348FFF75AFA21780A29E8
:101680000BD0114A60781154401C60702146BDE8AF
:10169000104001220D48FFF7BBBF08496069091DD2
:1016A00002F016FB6068012806D1094900070860AE
:1016B000BFF34F8FBFF36F8F10BD000008000020F5
:1016C0000038014000100140640500202806002079
:1016D00004ED00E07047FEE710B590B000200F90D9
:1016E00001210FA800F00CFE114C14221149606179
:1016F0006846FEF763FD0021684600F01EFE0D49B6
:10170000A0601422143105A8FEF758FD002105A899
:1017100000F013FE0749E060142228310AA8FEF702
:101720004DFD00210AA800F008FE206110B010BD98
:1017300008000020B44500082DE9F041224886B099
:10174000816941F010018161816901F0100104910A
:10175000816941F020018161816901F020010491DA
:10176000816941F008018161816901F008010491FA
:10177000816941F0040181618069144F00F0040027
:101780004FF400540490002221463846FFF7D4F964
:10179000DFF83C804FF4A046002231464046FFF778
:1017A000CBF900940124022569463846039501943B
:1017B000FFF7E0F8CDE90064694640460395FFF77E
:1017C000D9F806B0BDE8F0810010024000100140D9
:1017D000000C0140104810B50E4901604FF48271B1
:1017E000416000218160C1604FF400720161C0E975
:1017F0000512C1610162416281620A21C162FFF783
:10180000E0FC002805D0BDE810404F2103A000F007
:101810006EBB10BD00380040800000202E2E2F53DC
:1018200072632F7370692E63000000000D4810B5BD
:101830000B4901604FF416514160002181600C2278
:10184000C160C0E904128161C161FFF77BFE00281D
:1018500005D0BDE810404C2103A000F048BB10BDEE
:1018600000380140280600202E2E2F5372632F755A
:10187000736172742E630000FEE770470907090E5A
:10188000002806DA00F00F0000F1E02080F8141DB7
:10189000704700F1E02080F80014704738B50B461F
:1018A000009204460022802100F008F8002804D0AD
:1018B000606D40F020006065032038BD2DE9F041E7
:1018C0001D4617460E460446DDF8188035E0681CB4
:1018D00033D02DB1FFF736F9A0EB0800A8422CD386
:1018E0002068416821F0E00141606068B0F5827FC6
:1018F0000BD1A068B0F5004F02D0B0F5806F04D1D5
:101900002068016821F040010160A06AB0F5005F25
:101910000AD1206801684DF6FF721140016020680D
:10192000016841F400510160012084F85100002059
:1019300084F850000320BDE8F0812068806836EA12
:10194000000004D00020B842C1D10020F3E70120FC
:10195000F9E7000092B04FF47A7000F0C5FC012264
:1019600060496148FFF754FE5E4D4FF0FF37002697
:1019700000233A461946686902F000F806225BA186
:101980005C48FEF73FFC00287ED15A48C030011F5A
:101990000A1FCDE910101038011F131FCDE90E32B8
:1019A0000A1FCDE90C101038011F131FCDE90A32B0
:1019B0000A1FCDE90810131FCDE906320C3918387B
:1019C000A0F114040A1F02940591CDE90302001F3F
:1019D000011FCDE900100B1F47498438221DFEF777
:1019E00021FCA4F5807000F075FF4449A4F58070D7
:1019F00000F0E3FFE0680090D4E9012340A1A4F1E6
:101A00001000D21C00F074FAA4F110030A22002185
:101A1000A3F1F00000F0A8FFE06C3EA100F5FA6031
:101A20000090D4E91123A4F1100000F061FAA4F1B0
:101A3000100315220021A3F1F00000F095FF94F8A7
:101A40002010E069CDE90001D4E9052335A1A4F116
:101A5000100000F04DFAA4F1100320220021A3F1A0
:101A6000F00000F081FF94F83010E06ACDE9000149
:101A7000D4E9092330A1A4F1100000F039FA2B2297
:101A8000A4F11003002100E024E0A3F1F00000F035
:101A90006BFF22782DA1A4F1100000F029FAA4F127
:101AA000100336220021A3F1F00000F05DFFD4E91D
:101AB0000D2329A1A4F1100000F01AFAA4F11003DB
:101AC00041220021A3F1F00000F04EFFA4F5807048
:101AD00000F06AFF6E70012202490348FFF798FD8B
:101AE00046E70000080000202806002024474E5248
:101AF0004D4300006405002098460008FC400008A3
:101B000054696D653A253032643A253032643A259D
:101B100030326400253032642E253032642E253474
:101B2000640000002530326420253032642E2530D8
:101B300033642025630000002532642025303264A0
:101B40002E25303364202563000000005374617437
:101B500075733A256300000053706565643A253358
:101B6000642E253364000000012000F0BDFBFBE77C
:101B70004FF47A74034800F0ADFE204600F0B4FB49
:101B8000F8E70000D804002010B5FEF7E1FFBDE83B
:101B9000104000F0C8BB30B58FB001210804CDE97A
:101BA00000100024029402250491CDE907504FF45F
:101BB000E01009906846FFF77FF900B1FEE70F20BB
:101BC000CDE90A054FF4E060CDE90C4002210AA8F6
:101BD0000E94FFF76BF800B1FEE7FFF711F94FF431
:101BE0007A71B0FBF1F0FFF70FFC0420FFF700FC67
:101BF00000220F21501EFFF727F80FB030BD000064
:101C00000D48016841F00101016041680B4A114033
:101C1000416001680A4A11400160016821F4802195
:101C20000160416821F4FE0141604FF41F018160B1
:101C30000449C00308607047001002400000FFF82C
:101C4000FFFFF6FE08ED00E010B5406A0021C185F7
:101C5000C184FFF7EDFB10BD0168CA6822F49072E1
:101C6000CA6001684A6922F001024A61202180F8B5
:101C70003A10704710B590F83A10222901D002208E
:101C800010BD8168B1F5805F11D00169002901683C
:101C90001FD0496801F07F03816A4A1C82620B7081
:101CA000C18D491E0904090CC18518D02BE00269B9
:101CB000816A002A0268526805D0D2B20A80816A1D
:101CC000491C8162ECE7C2F308020A80816A891C20
:101CD000F7E74A68816A4B1C83620A70E0E7016893
:101CE000CA6822F02002CA600168CA6822F48072C1
:101CF000CA6001684A6922F001024A61202180F825
:101D00003A10FFF7AFFC002010BD00002DE9F041B4
:101D1000044600680169E26821F440511143016101
:101D20002169A0680843616908432168CA6841F2D3
:101D30000C639A430243CA6020684169A26921F496
:101D40004071114341614C49206864253226884224
:101D50003CD1FFF76BF800EBC00101EB00106168AC
:101D60008900B0FBF1F7FFF761F800EBC00101EB70
:101D700000106168B0468900B0FBF1F0B0FBF5F0EF
:101D80006FF01801484307EB800106EB0110B0FB30
:101D9000F5F000F0F006FFF749F800EBC00101EBA9
:101DA000001061688900B0FBF1F0B0FBF5F006EBC4
:101DB0000016FFF73BF800EBC00101EB0010616873
:101DC0008900B0FBF1F7FFF731F83BE0FFF71EF8B1
:101DD00000EBC00101EB001061688900B0FBF1F776
:101DE000FFF714F800EBC00101EB00106168B0468A
:101DF0008900B0FBF1F0B0FBF5F06FF0180148433B
:101E000007EB800106EB0110B0FBF5F000F0F006E7
:101E1000FEF7FCFF00EBC00101EB001061688900D8
:101E2000B0FBF1F0B0FBF5F006EB0016FEF7EEFFAD
:101E300000EBC00101EB001061688900B0FBF1F715
:101E4000FEF7E4FF00EBC00101EB001061688900C0
:101E5000B0FBF1F0B0FBF5F06FF01801484307EB71
:101E6000800108EB0110B0FBF5F0216800F00F00D5
:101E700030448860BDE8F0810038014090F83910A6
:101E8000212901D0022070478168B1F5805F016A85
:101E90000BD04A1C0262026809785160C18C491E4D
:101EA0000904090CC1840ED017E009880268C1F347
:101EB0000801516001690029016A02D0491C0162D0
:101EC000ECE7891CFBE70168CA6822F08002CA605F
:101ED0000068C16841F04001C16000207047000007
:101EE0000148FFF7A7BA000028060020FEE7FEE73A
:101EF0000FB4084B10B504A902AA039800F01CF80F
:101F0000044602A9002000F0B8F9204610BC5DF894
:101F100014FB00007B22000802E008C8121F08C161
:101F2000002AFAD170477047002001E001C1121F5A
:101F3000002AFBD1704700002DE9FF4F8BB0884687
:101F40000546002606E025280BD0DDE90D12904756
:101F50006D1C761C28780028F5D10FB03046BDE8FE
:101F6000F08F0024A146A2460122AE4900E00443BE
:101F700015F8013F203B02FA03F00842F7D1287818
:101F80002A2810D06FF02F022878A0F130010929FB
:101F900015D809EB890102EB410144F0020400EB82
:101FA00001096D1CF0E758F8041B5FEA010903D52D
:101FB00044F40054C9F1000944F002046D1C28786F
:101FC0002E2817D115F8010F44F004042A280ED04A
:101FD0006FF02F022878A0F1300109290AD80AEB06
:101FE0008A0102EB410100EB010A6D1CF2E758F88F
:101FF00004AB6D1C28786C280FD006DC4C2817D059
:1020000068280DD06A2814D104E0742810D07A28EA
:102010000FD10DE044F400140AE044F4801401E010
:1020200044F440146978814202D104F580146D1C97
:102030006D1C2878692865D006DC00288DD06328BF
:1020400027D0642806D15DE06E2808D073282AD0F6
:10205000752877D0DDE90D129047761CE0E0C4F3D7
:102060000250022809D003280DD0D8F80010042807
:102070000DD00E6008F10408D2E0D8F80010F21775
:10208000C1E90062F6E7D8F800100E80F2E70E70A2
:10209000F0E718F8041B8DF8001000208DF80100FF
:1020A000EB46012003E058F804BB4FF0FF30610716
:1020B0004FF0000701D40AE07F1C57450DDA874234
:1020C000FADB1BF807100029F6D106E07F1C8742D7
:1020D000FCDB1BF807100029F8D1DDE90D23A9EB83
:1020E00007008146214600F0B1F83044C61904E0EB
:1020F000DDE90D121BF8010B90477F1EF8D2214637
:10210000484688E058F8040BC4F302514FF00A0B1C
:10211000032900D100B2042900D140B2002802DA1C
:1021200040422D2102E0210505D52B218DF82410F8
:10213000012104E006E0E10710D02021F6E708AF16
:10214000089113E058F8040BC4F302514FF00A0B46
:10215000032900D180B2042900D1C0B20021EEE7EA
:102160005946FEF791F9303107F8011D0028F7D1E3
:10217000ADEB070000F1200B600702D524F480349A
:1021800001E04FF0010ADA4502DDAAEB0B0000E0A6
:102190000020824600EB0B0108980144A9EB0100E6
:1021A0000A90E00306D4DDE90D2321460A9800F0E9
:1021B0004DF806444FF0000908E009A911F809009C
:1021C000DDE90D12904709F10109761C089989454E
:1021D000F3DBE0030CD5DDE90D2321460A9800F07E
:1021E00035F8064404E0DDE90D1230209047761CF6
:1021F000BAF10001AAF1010AF5DC05E0DDE90D12F2
:1022000017F8010B9047761CBBF10001ABF1010BF5
:10221000F4DC0A982146DDE90D2300F005F80644B8
:102220006D1C97E6092801002DE9F04104460025C0
:102230001E461746880404D405E039462020B047DE
:102240006D1C641EF9D52846BDE8F0812DE9F041EA
:10225000044600251E469046C80301D5302700E0FD
:102260002027880404D505E041463846B0476D1C58
:10227000641EF9D52846BDE8F0810A68531C0B603E
:1022800010707047FEF76CFCFFF785FCFFF754FAFF
:10229000FFF7A0FAFFF7CAFA012251030A48FEF736
:1022A0004BFC0A4B0A4A0B490B4800F0B7FB0A48A3
:1022B00000F003FF0021084800F00FFFFFF70CFAC1
:1022C00000F019F8FEE7000000100140A1340008FA
:1022D0006D31000848460008D8040020014600205F
:1022E000842900D0C81C704710B500B9012001F046
:1022F000CFF9002010BD10B501F062FA002010BD2A
:1023000010B5012901D0002010BD032200210120B9
:1023100001F010FB040004D000231A46194601F016
:1023200027FC204610BD10B501F082FD012803D026
:10233000BDE8104001F0E8BA10BD3EB504460D46B8
:10234000B0F90800FFF7CAFF02A9CDE90001208A11
:102350002B4682B2D4E9001001F03EFD012801D0E5
:1023600000203EBD02983EBD2DE9F041184C0F46BD
:102370000546E6682068001D01F0A9F838B9206814
:1023800090F82C1001208840216981432161681C4C
:1023900007D137B12168BDE8F0410E48091D01F0B1
:1023A000CEB820683544B5424560216805D2A06B9F
:1023B000BDE8F041091D01F0AAB8606B091D01F0EC
:1023C000A6F8A06A854200D2A562BDE8F0810000AF
:1023D00020000020540700202DE9F041054601F0BF
:1023E000BBF82E4CA068401CA06020682C4F10B198
:1023F000606940B32DE02560A068012829D100263E
:1024000006EB860007EB800001F073F8761C072EC0
:10241000F6D323488C3001F06CF82148A03001F04D
:1024200068F81F48B43001F064F81D48C83001F066
:1024300060F81B48DC3001F05CF819488C306063B0
:102440001430A06305E02068E96AC06A884200D8B9
:102450002560606A401C6062E96A01202269884048
:102460001043206101EB810007EB8000291D01F082
:1024700066F801F091F8606900280CD02068E96ADC
:10248000C06A884207D207494FF080500860BFF306
:102490004F8FBFF36F8FBDE8F08100002000002058
:1024A0007806002004ED00E070B5114E114C17E0E5
:1024B00001F0BAF93068B8B101F0B2FD01F04CF8A2
:1024C000F068C568281D01F002F8A068401EA060F1
:1024D0006068401E606001F05FF8284600F055F823
:1024E00060680028E4D170BD01F09AFDF8E70000B3
:1024F000400700202000002030B4026C0B46002A68
:102500000BD0C1681144C1604468A14201D3016885
:10251000C16030BC1846FDF751BE30BC70472DE994
:10252000F041856B174604460026026C82B1C7B1A4
:10253000E068FDF743FEE168206C091AE16022685B
:10254000914202D26168081AE060022F16D017E0AB
:102550002068A8B9606801F0DDFC064600206060D4
:102560000EE0A068FDF72AFE216CA0680844A06078
:102570006168884204D32068A06001E005B16D1E47
:102580006D1CA5633046BDE8F08110B50446006BB4
:1025900001F016F82046BDE8104001F011B8000027
:1025A00010484FF44061420706D0C01D0D4920F08D
:1025B0000700411AC1F540610B4A00230144C2E9FA
:1025C00000030839103A21F0070111604B600B60DD
:1025D0000B1AC0E9001393604FF000405360D060C5
:1025E000704700006807002078000020074C4FF07B
:1025F0008056074DFFF758FF20680128FAD92E6052
:10260000BFF34F8FBFF36F8FF4E700007806002011
:1026100004ED00E02DE9F0479A46DDE909848146A2
:102620006FF00303206B03EB82021044089D20F03F
:102630000706700707D0502080F31188BFF34F8F33
:10264000BFF36F8FFEE723180A5C83F834200A5C1F
:1026500012B1401C1028F6D3002784F84370072DD0
:1026600000D30625E562C4E91157201D00F04CFF98
:1026700004F1180000F048FF2461C5F1070064620E
:10268000A061E76484F8507052464946304600F035
:102690000FF92060B8F1000F01D0C8F80040BDE884
:1026A000F087000030B5114900E011460A68824207
:1026B000FBD34B685C18844203D1406818444860DF
:1026C000084643681C18944209D1084C103C246801
:1026D000A24209D052681A4442600A681268026035
:1026E000814200D0086030BD0460F9E77800002026
:1026F00010B5044600F030FFA06B28B15FF0000475
:1027000000F04AFF204610BD0124F9E70648416B5E
:10271000096829B1416BC968C96849688162704715
:102720004FF0FF31FAE70000200000200848406821
:10273000401C4FF0500080F3118804D0BFF34F8F3E
:10274000BFF36F8FFEE7BFF34F8FBFF36F8FFEE7CF
:102750005C0000202DE9F041044600F0FDFE94F9F4
:10276000455004F1240609E0606A48B1304601F0A2
:102770001DFC08B100F0B2FF6D1E6DB2002DF3DC40
:102780004FF0FF3684F8456000F006FF00F0E4FEED
:1027900094F9445004F1100709E0206948B1384623
:1027A00001F004FC08B100F099FF6D1E6DB2002D20
:1027B000F3DC84F84460BDE8F04100F0EDBE0000B9
:1027C0002DE9F0410546002701F02EF8314E306822
:1027D00008B9FFF7E5FEF06805424BD1C5B30835EF
:1027E00068070ED005F00700C0F10800054468072F
:1027F00007D0502080F31188BFF34F8FBFF36F8F46
:10280000FEE72DB37068854234D822481030014667
:102810000C6801E020460C466168A94202D221689A
:102820000029F7D131688C4224D007682168016003
:1028300060680837411B10290FD96019420708D07A
:10284000502080F31188BFF34F8FBFF36F8FFEE7E7
:1028500010E041606560FFF725FF61687068401A0D
:102860007060B268904200D2B060F068014300200E
:10287000C4E9000101F0D4FB780707D0502080F3B1
:102880001188BFF34F8FBFF36F8FFEE73846BDE867
:10289000F0810000680000200449086818B1086849
:1028A000826C521C8264086870470000200000207F
:1028B00010B5031F4FF080741C601B1F21F0010135
:1028C0001960191F024B0B60143940380A6010BDA3
:1028D0002D27000801680A7C90F83810406B51439E
:1028E000C900FDF784BC2DE9F041044690F85E0074
:1028F0001F4615460E4630B1012809D002280CD0DB
:10290000032815D10FE0E16C20468847284408E0F1
:10291000E16C20468847301A09E0E16C2046884780
:10292000281AC5B204E0E16C204688473044C6B29C
:10293000284684F8546084F855003946002520461E
:1029400000F07EFA010003D0204600F0ADF9C5B2D8
:102950002846BDE8F08138B5002B049C03D00094D4
:10296000046B6468A04738BD30B4024C446030BC8E
:1029700000F039B94131000870B50D461E460446D5
:1029800090F8441090F84300049B00F0A8FA002847
:1029900009D094F8421094F8410033462A46BDE825
:1029A000704000F09CBA70BD10B5044600F014FBF6
:1029B0002046BDE8104000F088BB10B50446806C8E
:1029C000884209D004F16000A16400F0D0FA2046EA
:1029D000BDE8104000F03CB810BD00000149C164E2
:1029E000704700005D2C000870B50446002504986F
:1029F000A564E362616384F8382084F839500121CA
:102A000084F87D1084F87E10206301682046884792
:102A10002046FFF7E3FF84F85E5070BD38B50C46E2
:102A2000009313460546064A064900F05EFB08225D
:102A30000549064B28460094FFF7D6FF38BD000035
:102A400081320008E1330008D8000020F92E000888
:102A500010B5816C00291AD090F96D3080F879306A
:102A600090F96E2080F87A2090F8781000290ED026
:102A700001290DD090F96A4090F96C100C449C42E9
:102A800001DD80F879408A4201DD80F87A1010BDBE
:102A900090F96F108B4201DA80F8791090F970107C
:102AA000F1E72BB1012B05D0022B06D0104402E038
:102AB000084400E0801AC0B27047401AFBE72BB10F
:102AC000012B05D0022B06D0401A02E0104400E092
:102AD0000844C0B27047801AFBE710B503780C7841
:102AE000A34207D9934203D2501EC4B20C7001E036
:102AF00000230370934205D224B1944200D90A7096
:102B0000012010BD002010BD7FB582B0044690F8B2
:102B100039009DF81010404201EBC000C1B28DF8A1
:102B200010100A9D94F83B6094F83A209DF80C0030
:102B3000DDB1904217D2C8188DF80400324601A9C1
:102B400004A8FFF7CAFF00280DD09DF804009DF8E7
:102B500010100095401AC3B2E56A9DF810209DF848
:102B60000C102046A84706B070BDB142FBD21844F5
:102B70008DF8040001A903A8FFF7AFFF0028F2D0E9
:102B80009DF804009DF80C10E3E738B5012B049C78
:102B900004D0022C14D0032C16D018E090F8395031
:102BA0006D4202EBC50290F83A50D2B28D4206D97E
:102BB00090F83B50954202D90094C46AA04738BDB2
:102BC000C91A491CC9B202E0D21A521CD2B204F08E
:102BD00001040094FFF798FF38BD38B5049C0094B9
:102BE000FFF7D3FF38BD2DE9F0471C4691468846D4
:102BF000064600F068FC00254FF6FF7772682178E2
:102C0000304690470346B84225D0641CA3F57F4068
:102C1000FE38F3D04A4641463046FFF764FE96F848
:102C20005E1031B1012907D0022908D003290FD144
:102C30000AE008EB000104E009EB000106E0A8EB64
:102C4000000101F0FF0803E0A9EB000101F0FF091A
:102C50002844C5B2D2E72846BDE8F0870020704777
:102C600010B50C4600F006F80122641EA240801A3E
:102C700040B210BD30B50568847A2A78E240631806
:102C8000DBB2082B09D36D1C05602D78C4F1080454
:102C9000A5401543083BEAB2DBB201248C40641E18
:102CA00014408372204630BD2DE9F843054600F1FB
:102CB000500400F0FAF815F9596F2046697BFFF7C8
:102CC000CFFF8146A97B2046FFF7CAFF0746E97B75
:102CD0002046593DFFF7C4FF804694F908000028BC
:102CE00055DDF019404247B2A37B20793A46494668
:102CF000FFF7D7FE2071A37B3A4660794946FFF77C
:102D0000DEFE60712179A77B02460B4637B1012FA9
:102D100009D0022F3ED0032F0DD143E0277A304453
:102D20003B44DBB206E0891B491C277A5B1CC9B215
:102D3000DBB23844C0B200902846FFF71DFE30B326
:102D40000020A07184F8070095F862102046FFF774
:102D500091FF814695F863102046FFF78BFF0746E9
:102D600000224946284600F025F801223946284627
:102D700000F020F801212046FFF77CFF0028EFD16A
:102D800094F90700B042DFDB207B85F87D004046E8
:102D9000BDE8F883277A5B1CC91B491CC9B2DBB2AA
:102DA000921B03E0277A3344DBB2D21B521CD2B20F
:102DB000401CBFE72DE9F74F84B00D46049C94F802
:102DC000567094F857805034207AC01BC6B20196D2
:102DD000B54200D201954FFA88F279B2207994F881
:102DE00005B0A37B92468946FFF75BFE0290A37B6A
:102DF000524649465846FFF762FE0246069808B119
:102E0000217B02E0E07A50B9617B049880F87D1064
:102E1000A07B0090DDE901310498FFF79CFDB542ED
:102E200007D3A81BC5B208F10100002700F0FF0876
:102E3000CAE77819A07184F8078007B0BDE8F08F61
:102E400010B50246806C1730FF2910D8612902D3D3
:102E5000B2F8742003E0412902D3B2F87220104482
:102E60004278B2B103788B42F9D1801C10BDB2F820
:102E700076204FF6FF741044027804EA0223427869
:102E80001A4306D08A4201D1C01C10BD827810447A
:102E9000F2E7002010BD08444FF6FF720178407839
:102EA00002EA0121084480B2704730B5054600F1BE
:102EB000500401650020A07215F8641F2046FFF73A
:102EC000D9FE207269782046FFF7D4FE6072687ED2
:102ED000207310B10020607330BD0120FBE78A42EF
:102EE00005D2834201D89A4203D901207047834218
:102EF000F9D8002070470000F0B5046801F007071A
:102F0000059E257C8024FC406A4302EBD101426B84
:102F100089B21144BEB900BF90F87D20012A06D8BD
:102F20000A7822430A7090F87D20012A02D00A789C
:102F300062400A70640801D18024491C5B1E13F0B2
:102F4000FF03E9D1F0BD90F87D20012A06D80A7868
:102F500022430A7090F87D20012A02D00A7862404C
:102F60000A705B1E294413F0FF03ECD1F0BD70B56D
:102F7000054608782870487868708878A870C878FE
:102F8000E870087928714879687188790C46A871C9
:102F9000E079E871207A2872607A6872A07AA87263
:102FA000E07AE872207B2873607B6873A07BA8734B
:102FB000E07BE873207C287411212046FFF76BFF2B
:102FC000688213212046FFF766FFA882152120465C
:102FD000FFF761FFE88270BD2DE9F843064690F8DF
:102FE000387090F83950006800244FF6FF7890F858
:102FF0001190316830462A460B7C716B04FB03FC50
:103000001FFA8CFC08EACC0C61440091002100F00E
:1030100045F8641C6D1CE4B2EDB2BC4201D24D45D2
:10302000E7D3BDE8F88370B590F83820D10080F878
:103030003B100468217C202900D31F21C90080F89F
:103040003A1090F83930D906090E80F83C10657CAA
:103050009E18AE4201D9EA1AD2B280F83D1001EBB7
:10306000C20180F83E10F02180F83F10A18AF029BB
:1030700001D880F83F10A17D80F8401070BD10B5D8
:103080000446FFF7D0FF002084F8410014F83A0FFF
:103090002072E07860722079A07210BD1CB58DF8A6
:1030A00005108DF80620049C8DF804300094012250
:1030B00084686B460F21A0471CBD30B48468002390
:1030C000A44630BC1A460A21604730B48468002305
:1030D000A44630BC1A461021604730B484680023EF
:1030E000A4460A4630BC0B2160472DE9F041154645
:1030F0000E460446069F00F009F86761A660C4E921
:1031000003532046BDE8F04100F012B8002140F81A
:10311000081B064A026042608260C260C175817607
:10312000C176FF2101764177704700009D34000889
:1031300030B484680023A44630BC1A460921604795
:10314000080001D00A2801D14FF6FF70704713B56F
:103150000122046901AB1721A0471CBD30B40469EA
:103160001346A4460A4630BC1721604738B51446BA
:10317000172908D016484FF4805318291AD0192956
:103180001ED0002038BD1D4611E000BF15F8010B10
:10319000641E8DF80000E4B20E48FEF70FF8022816
:1031A000FAD06423012269460A48FEF76DF8002C24
:1031B000ECD10AE001221946FDF7BEFC00BF04E095
:1031C00000BF00221946FDF7B7FC012038BD000002
:1031D000000C01408000002030B4C4680023A446E5
:1031E00030BC1A461921604730B4C4680023A44695
:1031F0000A4630BC1521604730B4C4681346A44663
:103200000A4630BC17216047F8B50C464FEA000566
:1032100014F8011B182924D00EDC152919D0162901
:1032200017D0172923D120788DF800006A46012194
:103230002846FFF7E1FF0AE0192912D0FE2916D12E
:1032400022788DF800202921284600F036F9641CE8
:10325000DEE722788DF80020EE6800232846B0478C
:10326000F5E70023EE681A462846B047D0E7F8BDD8
:1032700030B4C4680023A44630BC1A461821604705
:103280002DE9F0410646A1F11400150198461446B7
:1032900002F0F00706286BD2DFE800F063031A277C
:1032A0006363F8213046FFF752FF01222C2130469C
:1032B00000F003F939463046FFF749FF01222C217F
:1032C000304600F0FAF8E9B23046FFF740FF40E040
:1032D000F8213046FFF73BFF39463046FFF737FF0E
:1032E000E9B23046FFF733FF38E0FA213046FFF706
:1032F0002EFF01222C21304600F0DFF8454615E074
:103300001C49082015F8012B02F0F003120101F806
:10331000013B401E01F8012B10F0FF00F2D1083CE8
:10332000E4B2144A10213046FFF718FF082CE7D208
:103330000DE02F78304607F0F001FFF708FF38075F
:10334000010E3046FFF703FF641EE4B26D1C002C33
:10335000EFD101222C21304600F0AFF80120BDE86A
:10336000F081356922463046AC46BDE8F041604701
:103370000020F4E76806002070B500234569044684
:103380001A462821A8470023E5681A46142120463A
:10339000A84701224B21204600F08FF82068292100
:1033A0000279204600F089F800224B21204600F0E7
:1033B00084F8206829210279204600F07EF8012255
:1033C0004B21204600F079F82068292142792046D7
:1033D000BDE8704000F071B80160897C817770476A
:1033E00010B5092903D0BDE8104000F007B8024924
:1033F000FFF7F2FF012010BD304600082DE9F0472D
:103400001E4682460A2906D00B2909D00F2910D062
:103410000020BDE8F087FFF7AFFF1F49504602E0EC
:1034200022B11D49C91FFFF7EFFE33E01A491331DE
:10343000F9E7B079C006050E7079202D4FEA5008E3
:1034400003D3203DEDB208F108085046FFF710FF06
:103450003E2150463768FFF7C7FE002448F0800938
:103460002819C0B240F080015046FFF7BDFE494622
:103470005046FFF7B9FE96F804803A46414650465A
:10348000FFF7BAFE641CE4B24744082CE8D3504668
:10349000FFF7A2FE0120BCE7F745000800207047B7
:1034A00010B51046292902D02C2904D102E0FDF7DD
:1034B00053FA00E000BF012010BD30B4446900237E
:1034C000A44630BC6047002180F823107047D0E943
:1034D000013201699A60D0E901235A604A68824248
:1034E00001D182684A60002202610868401E0860BB
:1034F000704700F108014FF0FF32C0E90112C160CE
:10350000016100210160704700210161704730B501
:103510000B685A1C02D000F1080202E0026904E0C4
:103520002246546825689D42FAD953684B609960D9
:103530008A60516008610168491C016030BD4268C1
:103540004A6093688B609368596091600861016874
:10355000491C016070470000502080F31188BFF3C0
:103560004F8FBFF36F8F0A494868401C486001289D
:103570000CD10848006810F0FF0F07D0502080F3EE
:103580001188BFF34F8FBFF36F8FFEE770470000C6
:103590005C00002004ED00E00849486828B1401EA6
:1035A000486001D180F311887047502080F3118862
:1035B000BFF34F8FBFF36F8FFEE700005C0000206A
:1035C00070B5002827D0144DA0F108046168E868A0
:1035D000014207D1502080F31188BFF34F8FBFF312
:1035E0006F8FFEE722683AB1502080F31188BFF355
:1035F0004F8FBFF36F8FFEE78143616000F014F9D6
:1036000060686968084468602046FFF74BF8BDE8C9
:10361000704000F005BD70BD6800002006484FF402
:103620007A710068B0FBF1F14FF0E020491E416172
:1036300007210161704700000000002010B5FCF771
:10364000A7FD114910280ED300F1E02090F8F003F7
:103650000A78904207D2502080F31188BFF34F8F31
:10366000BFF36F8FFEE709480068896800F4E060E7
:10367000884207D9502080F31188BFF34F8FBFF3E2
:103680006F8FFEE710BD00005C0000200CED00E035
:1036900010B5020014D00F48006B38B1502080F3F1
:1036A0001188BFF34F8FBFF36F8FFEE700F0BCF8B8
:1036B00000211046FEF758FE00F0B2FC002807D1AA
:1036C00005494FF080500860BFF34F8FBFF36F8FF5
:1036D00010BD00002000002004ED00E001490120A1
:1036E000C86170472000002010B50C4650B1094950
:1036F00009681831FFF70BFF2046BDE81040012193
:10370000FEF732BE502080F31188BFF34F8FBFF316
:103710006F8FFEE72000002070B5040039D01D4DEA
:10372000E06A2968C96A884233D2A069002804DBAC
:103730002868C06AC0F10700A061E16A164E01EB7B
:103740008101606906EB810188421FD1201DFFF7CE
:10375000BEFE012150B9E06A00EB800256F822203B
:1037600022B92A6901FA00F082432A612868C06AF6
:10377000E0622A6981401143296100EB800006EB79
:103780008000211DBDE87040FFF7D9BE2868C06ADF
:10379000E06270BD200000207806002028B10749B3
:1037A0000A6A0260C96841607047502080F311883E
:1037B000BFF34F8FBFF36F8FFEE7000020000020A4
:1037C0001CB515480024CDE900402346802213A1F2
:1037D000144800F001FB012809D0401C1AD15020E8
:1037E00080F31188BFF34F8FBFF36F8FFEE7502038
:1037F00080F31188BFF34F8FBFF36F8F06484FF0F0
:10380000FF312C38816201214161C460BDE81C4058
:1038100000F040B81CBD00004C00002049444C455D
:1038200000000000ED2500080248016B491C0163FF
:1038300070470000200000201448016B11B10121E5
:10384000C16170470021C1610169B1FA81F1C1F123
:103850001F0101EB81020E4951F822306BB101EBDF
:10386000820101F108034A6852684A609A4201D114
:1038700052684A60D16801607047502080F3118817
:10388000BFF34F8FBFF36F8FFEE7000020000020D3
:10389000780600201CB5194908780190FF200870AF
:1038A00008788DF800009DF80000154A00F05000DF
:1038B00010700720906005E09DF800305B008DF8E7
:1038C0000030401E9DF800301B06F5D4000200F4C5
:1038D000E0609060019808700A48016841F4700146
:1038E0000160016841F070410160FFF797FE002020
:1038F0005060FCF717FC00201CBD000000E400E055
:103900005C00002020ED00E010B5502080F311880D
:10391000BFF34F8FBFF36F8F00F098FA18B10449CF
:103920004FF080500860002080F3118810BD000027
:1039300004ED00E070B50E46050013D0D6B105FBCE
:1039400006F04830FEF73CFF040009D004F14801BE
:1039500020468EB10160C0E90F56012100F0C4F885
:10396000204670BD502080F31188BFF34F8FBFF306
:103970006F8FFEE70020E4E70060ECE72DE9FF4FE2
:10398000002683B09B468A46040003D0BAF1000F9C
:1039900008D011E0502080F31188BFF34F8FBFF3A0
:1039A0006F8FFEE7206C38B1502080F31188BFF391
:1039B0004F8FBFF36F8FFEE700F03AFADFF82481F4
:1039C0004FF000094FF0805748B9059838B15020A2
:1039D00080F31188BFF34F8FBFF36F8FFEE7FFF7C0
:1039E000BBFDA56B45B351462046E668FEF784FD56
:1039F000BBF1000F13D0E660606A50B104F12400FF
:103A000000F0D4FA28B1C8F80070BFF34F8FBFF3AD
:103A10006F8FFFF7C1FD012007B0BDE8F08F6D1E6D
:103A2000A563206810B9FEF737FF606020690028A1
:103A3000EFD004F11000E3E7059808B11EB106E0ED
:103A4000FFF7AAFD27E06846FFF7A8FE0126FFF76B
:103A5000A3FDFFF7E9FEFFF77FFD94F94400401C4A
:103A600001D184F8449094F94500401C01D184F8B8
:103A70004590FFF791FD05A9684600F077F9002809
:103A800020460AD0FEF766FE00F0CAFA2046FEF78E
:103A90002FFE0028A3D00020BEE7FEF729FED8B1F4
:103AA000206830B9FFF758FD6068FFF735FEFFF773
:103AB00073FD04F124000599FFF716FE2046FEF77A
:103AC00049FE00F0ADFA002889D1C8F80070BFF3B4
:103AD0004F8FBFF36F8F82E72046FEF73BFE00F06B
:103AE0009FFA7CE704ED00E070B50D46040025D098
:103AF000FFF732FDD4E90F20216802FB001161605D
:103B00000021A1632168A1600A46D4E90F01401E8B
:103B100000FB0121E16021464FF0FF3001F8440F26
:103B2000487004F110008DB1FFF7E3FC04F12400AC
:103B3000FFF7DFFCFFF730FD012070BD502080F360
:103B40001188BFF34F8FBFF36F8FFEE72169002904
:103B5000F0D000F02BFA0028ECD004494FF0805050
:103B60000860BFF34F8FBFF36F8FE3E704ED00E012
:103B70002DE9FF4782B01D468A464FF00008040039
:103B800003D0BAF1000F08D011E0502080F3118863
:103B9000BFF34F8FBFF36F8FFEE7206C38B150201B
:103BA00080F31188BFF34F8FBFF36F8FFEE7022DB5
:103BB0000AD1E06B012807D0502080F31188BFF3B1
:103BC0004F8FBFF36F8FFEE700F032F93F4F4FF09A
:103BD00000094FF0805648B9049838B1502080F35E
:103BE0001188BFF34F8FBFF36F8FFEE7FFF7B4FC71
:103BF000A06BE16B884207D3022D05D00498D0B1A9
:103C0000B8F1000F1AD01EE02A4651462046FEF7B2
:103C100086FC616A19B104F1240000F0C7F920B1F3
:103C20003E60BFF34F8FBFF36F8FFFF7B5FC0120EE
:103C300006B0BDE8F087FFF7AFFC22E06846FFF76B
:103C4000ADFD4FF00108FFF7A7FCFFF7EDFDFFF713
:103C500083FC94F94400401C01D184F8449094F909
:103C60004500401C01D184F84590FFF795FC04A95C
:103C7000684600F07BF830B12046FEF76BFD00F09F
:103C8000CFF90020D4E7FFF767FCA06BE16B884217
:103C900013D1FFF781FC04F110000499FFF724FD14
:103CA0002046FEF757FD00F0BBF900289ED13E608C
:103CB000BFF34F8FBFF36F8F98E7FFF76DFC204680
:103CC000FEF748FD00F0ACF990E7000004ED00E0DD
:103CD00070B50E46040009D0206C78B1502080F3F6
:103CE0001188BFF34F8FBFF36F8FFEE7502080F333
:103CF0001188BFF34F8FBFF36F8FFEE7206848B97D
:103D0000606838B1502080F31188BFF34F8FBFF344
:103D10006F8FFEE7FFF792FC5020EFF3118580F3E1
:103D20001188BFF34F8FBFF36F8FA16BE06B884299
:103D300018D994F94500491CA163411C04D0401CCA
:103D400084F8450001200EE0606A0028FAD004F1F2
:103D5000240000F02BF90028F4D0002EF2D001202E
:103D60003060EFE7002085F3118870BD70B50D4617
:103D7000040019D005B3FFF7EFFB164AD168286895
:103D8000431C0FD02368126A934202D062688A42B1
:103D90001AD96268891A814216D2401A28602046D0
:103DA000FFF7FCFC002410E0502080F31188BFF3E3
:103DB0004F8FBFF36F8FFEE7502080F31188BFF362
:103DC0004F8FBFF36F8FFEE70124FFF7E5FB20461F
:103DD00070BD0000200000202DE9FF5F8346DDE973
:103DE0000E87994616468A469000FEF7E9FC0500C4
:103DF0001AD05420FEF7E4FC040012D02563002101
:103E0000CDE90241CDE900874B463246514658463E
:103E1000FEF700FC2046FEF7DFFA012004B0BDE803
:103E2000F09F2846FFF7CCFB4FF0FF30F6E700008D
:103E30000548416919B1006B18B100207047012095
:103E40007047022070470000200000202DE9F0415B
:103E50002E4C0027206B40B1A069401CA061E06996
:103E600000B101273846BDE8F081E668761CE660BF
:103E700013D1606B006838B1502080F31188BFF314
:103E80004F8FBFF36F8FFEE7606BA16B6163A06321
:103E9000206A401C2062FEF739FCA06ADFF87080BF
:103EA000864209D3606B006880B1606BC068C568EA
:103EB000686886420DD2A0622068C06A00EB80016B
:103EC00058F821000128CAD90127C8E74FF0FF3070
:103ED000F1E7281DFFF7FBFAA86A18B105F11800F1
:103EE000FFF7F5FAE86A0121226981401143216157
:103EF00000EB800108EB8100291DFFF720FBE86A39
:103F00002168C96A8842CDD30127CBE72000002071
:103F10007806002070B504004FF0000140D0214D1C
:103F20002868844207D0502080F31188BFF34F8F58
:103F3000BFF36F8FFEE7A06C38B1401EA064636CC6
:103F4000E26A9A422CD040B12AE0502080F31188D6
:103F5000BFF34F8FBFF36F8FFEE7201DFFF7B7FA58
:103F6000114A012150B9E06A00EB800352F8233076
:103F700023B92B6901FA00F083432B61606CE06286
:103F8000C0F10700A061E06A2B69814019432961F3
:103F900000EB800002EB8000211DFFF7D0FA012129
:103FA000084670BD20000020780600202DE9F04171
:103FB000C068C468ACB104F118000746FFF787FA7F
:103FC000154D286B0126A0B139461448FFF7B7FA02
:103FD000E06A2968C96A88421CD90120EE61BDE8FF
:103FE000F081502080F31188BFF34F8FBFF36F8FA4
:103FF000FEE7201DFFF76BFAE16A2A6906FA01F075
:104000001043286101EB81000449B43901EB8000C1
:10401000211DDBE70020E2E7200000202C07002024
:104020002DE9F0472C4D00242746286B38B1FFF7C7
:1040300093FA286B401E2863286B40B146E050205D
:1040400080F31188BFF34F8FBFF36F8FFEE7A9682E
:10405000224E0120D1B3A6F1B40980463068E8B100
:10406000F068C46804F11800FFF731FA201DFFF76B
:104070002EFAE06A2A6908FA00F11143296100EB7F
:10408000800109EB8100211DFFF759FAE06A2968D8
:10409000C96A8842E2D3C5F81C80DFE70CB1FEF79D
:1040A00035FBAC6944B14646FFF7D0FE00B1EE6186
:1040B000641EF9D10020A861E86938B108490127D8
:1040C00038070860BFF34F8FBFF36F8FFFF764FAB5
:1040D0003846BDE8F0870000200000202C070020B3
:1040E00004ED00E0000000000000000001020304F5
:1040F0000607080900000000010203045F00030333
:104100000404030505091100FD0AFD0BFF019303DB
:1041100029049E200500F4192107B287198F042273
:104120000845BE19122E022313A785394A1291445D
:10413000725192482E4A129144022411B87C79425D
:104140008B0A4548659450548C32002513A8843955
:10415000230A45429248C552898822619A00261353
:10416000A8843943894C229308A7230A45A4421AFC
:1041700009270742BF198700280DC47E59129144B0
:10418000A437914C00290DC47E1932914CA417918B
:1041900044042A0D788C792A2A369A459B0C002BE8
:1041A0000B788C7962B5434CAC062C084377191612
:1041B0000A002D0617A519072E06238719062F0DAD
:1041C000A884D952B15459AA2C1503300DA785598A
:1041D00033891ADF246A2300310DA88479D2214D56
:1041E00022D6DB2100320CA7855933899A5451C756
:1041F00003330DA7851957A1E258952422013410E5
:10420000A78599C21949A22411498E521500350D6E
:10421000A7851907A96A59952422013610A785593F
:1042200024A1545A5291D1246A2300370DA785192D
:1042300057A15428154AB5013811A7855933899AD1
:10424000446D2651A349D446003910A785593389B6
:104250001A4D221955154524003A0873871976908E
:10426000013B09937719769085023C08968599322F
:104270005D753D084795197784033E099685195267
:10428000DD74043F0EA7855933899A54A8550E95BD
:10429000014015A9845935159184924249A1A45031
:1042A00052482439A404410EA78579D1E19A445497
:1042B00092A8B109420EA785191619DB2122E376CF
:1042C0008800430DA78559241155CF2211050044BC
:1042D0000CA785192515193F494A00450CA78519D2
:1042E00007A96A49AAF500460CA7851907A96A49D2
:1042F000AA2B00470FA7855933891A55A94693A8B9
:104300008D00480BA78519326E071A6F024909A65E
:10431000851926A17E324A0DA7857944A95E4412EB
:104320009188044B11A785193292448936A44944D7
:104330002A329A004C09A7851952FDF5004D0DA7A8
:104340008519B2CAA112A1F14D004E0DA7851932EF
:104350005AC94231D5B8094F0BA7853915197F9332
:104360005400500DA7851925151993A424D50A5179
:1043700017B87D594389482691496412994426917A
:104380009024C23A4000520EA785191619B743442B
:1043900049454613530FA785391519555C964A6947
:1043A000920A005409A6851926A1FE04550BA7857B
:1043B0001932FE26511B015610A7851932368992F3
:1043C0004424910D5763005711A78519325E22943A
:1043D000082572A84C6211005810A78519329A441A
:1043E0006D1A8ECE246A3401590DA8841942A24454
:1043F00024A38AF5065A0AA785195745BD4A0F5BBB
:1044000009C57E1937FD5B015C13A88419728058B9
:104410000E9003C472801C209603045D09C47E19AB
:1044200024FD93015E0A48B479529A4822145F072A
:10443000187C198700600734D6193205610C77851E
:104440003965A9E410A3490C620DA7851952558B53
:104450008CB7430400630B7785391519559BA4026B
:10446000640BA785B95A0E31DE2406650D778539B0
:104470001519ED4095492A00660DA6855923898EA8
:10448000329A501B006712A76D3987904424118916
:1044900048E28A8C26A900680BA7851952558B8C97
:1044A0006F02690BA68559423984A827036A0ED585
:1044B0006E79EA8099DE2814C904006B0FA785196C
:1044C000524D12251A4D225291096C09A6851944A4
:1044D000FDC9006D1078841917158A8422A1482817
:1044E00012A2006E0A77851992251A6F026F0C7757
:1044F000855933891A9B446D04700DA76D192515D4
:1045000019274949AA0A710DA76D5915118D4D2218
:10451000125535720B77851992D144554700730CAB
:104520007785391519B94C935400740C97855952F5
:10453000994DAA8B6C02750977851932BE490C76A4
:104540000E778519329A4449221B4E630077107802
:1045500084194216094542911C26220900780D77DC
:1045600085193289DA343A93A8097912A76D19327C
:104570009A44492292C88643594428047A09768588
:104580001946998E067B0CB6855914A136A9502B75
:10459000017C07C27F191F067D0DB6851953A1D670
:1045A0009150D30C007E0A38BC39238A8434010030
:1045B00000000000E8460008691B00080000000039
:1045C000000000008000000090460008711B0008F9
:1045D000000000000000000080000000F446000819
:1045E00055190008FDFF00000000000080000000D9
:1045F000181538150819FFFE6418FE0A1538150835
:10460000150615021501FE0419FF181538150C15AD
:1046100001FE0419FF000000010005050106148CCD
:1046200040420F0003041E2818040000C0002000B0
:10463000010005050106148C40420F0003041E28EA
:1046400010080000800040007F300008DB2B0008CD
:10465000DDDDDDDDDCBBBBDDDDDDDDDDDDDDDDDDCF
:10466000988888888888888877777777778888880F
:1046700085555556666666666666666666688888A7
:104680008333333222222222222222222228888DA0
:104690006D794C434400000024474E524D432C2575
:1046A00032642532642532642E2532642C25632C35
:1046B0002532642532642E2535642C25632C253360
:1046C000642532642E2535642C25632C2533642E15
:1046D0002533642C2533642E2533642C2532642540
:1046E000326425326400000064656661756C745440
:1046F00061736B006D794750535F706172736572BF
:104700000000000024470008000000208000000096
:10471000181F0008A447000880000020E8160000C9
:10472000281F000800A24A0400000000000000004A
:104730000000000000000000000000000000000079
:104740000000000000000000000000000000000069
:104750000000000000000000000000000000000059
:104760000000000000000000000000000000000049
:104770000000000000000000000000000000000039
:1047800000000000AAAAAAAA000000000000000081
:104790000000000000000000000000000000000019
:0447A0000000000015
:04000005080000ED02
:00000001FF
